:03001B00019A0047
:10150B00E4789AF6F5D975E10175E24075A490750A
:10151B00D40C75F1F375B167F532F5330533E5335B
:10152B0070020532F4453270F3E5B130E7FB75A973
:10153B0001E4F5B275FDFF75D94075EF09122BCC9F
:10154B00E4F532F5337D01AF331229AE7D01AF33B4
:10155B00122DC7122E4F0533E53370020532C3949B
:10156B0004E532940040DEE4F520C20EC209C2113C
:10157B00C20BC20DC210C20FC2877878F67876F60E
:10158B0018F6787CF6F532F533747E2533F8E4F6ED
:10159B000533E533700205326414453270EBE4F524
:1015AB0032F53374922533F8E4F60533E5337002E4
:1015BB0005326408453270EB7D05E4FF122DEEE435
:1015CB00787BF67873F67873E6FF75F010A4240039
:1015DB00F582E5F0341CF583E493FE787B26F6EE7A
:1015EB00600578730680DFEFD39400402A901C0DC2
:1015FB00E493FB740193FA740293F9745512043655
:10160B001203F064556002D20F74AA12043612034F
:10161B00F064AA6002D20F122465EF600302170474
:10162B0074FFF559F55AF55BF55CE4F55DF55EFE77
:10163B007F10FDFB7A00795F12064A7537FF75380C
:10164B001B7539F8753A00753B107B007A00795F92
:10165B00122B7AE4F532F533E533C4F8540FC8682E
:10166B00FFE532C454F048FE74002FF582741C3E23
:10167B00F583E493607C74042FF582741C3EF58330
:10168B00E49320E262E4F531E531C378AF9650572D
:10169B00E533C4F8540FC868FFE532C454F048FE74
:1016AB0074002FF582741C3EF583E493FD7C00C01F
:1016BB0004C0057D00740D2FF582741C3EF583E488
:1016CB0093FB740193FA740293F9787BE68531F0FE
:1016DB00A4FFE92FF9EA35F0FAD007D00612064A33
:1016EB00122E4F053180A10533E53370020532020E
:1016FB0016637F011218E18016D20DE4FF1218E178
:10170B00E5EF30E30AD203055EE55E7002055DE4AA
:10171B00F532F5337A007B967D03AF33122935050D
:10172B0033E53370020532C39404E532940040E490
:01173B00228B
:052E4500787CE6FF228D
:0100220022BB
:030023000222F5C1
:1022F500C0E0C0F0C083C082C0D075D00830991C42
:10230500C299787606E6FF78786670097876F6C21F
:1023150087D20A800774922FF8E6F5992098030270
:1023250023A4209A07200E04C298806FC29A78755C
:10233500E606247EF8A699C2987875E6FFB40113DF
:10234500787EE6FE70057875F68054EE5407240213
:10235500787DF6EFB4020E787DE6B40908787FE65D
:102365002403797DF7D2087875E6FFB41404760066
:10237500802DEFC3787D9640267B007A00797E78A4
:1023850075E624FFFDE434FFFC122CA17875E624E4
:102395007DF8E66F6002800312075778757600D0E6
:0A23A500D0D082D083D0F0D0E03217
:102A7A00787CE6FF18E68FF0A47C002525FFEC356C
:102A8A00F0FE787FE675F010A4240DF582E5F034A7
:102A9A001CF583E493FB740193FA740293F98F8211
:082AAA008E83120409FF7D2355
:102AB2008F2B8D2CE52C6010F8E6FFE52BFD7C00BA
:102AC200120003A82CC6EFC6852B993099FDC29936
:012AD20022E1
:102D1200C9EFC9EDC39B402378AFE6FFEB2FFFE479
:102D220033FEEDC39FEE6480F8748098500DD20E8E
:102D3200C3ED9B787CF67877E9F622C20EE47877C9
:022D4200F62277
:102C6200C9EFC9BAFF0FBBFF0CED6B7002EC6A70C3
:102C720027D20E801BC3ED9BEC9A401C78AFE62B4B
:102C8200FFE43AFEC3ED9FEC9E500DD20EC3ED9BC6
:0F2C9200787CF67877E9F622C20EE47877F6229E
:10075700787EE6FF54F8F524EF120624079D090773
:10076700A80A07B71007BE1107CD1207E01907F44B
:100777001A081A20081F28088929094034096037F0
:1007870009943909A34109AC4909B55009DC610944
:10079700B99800000A0D787FE6FDE55AFB7F0180D6
:1007A7001F787FE6FC08E6FDAB5AAA597F01802334
:1007B700E4FBFD7F038009787FE6FDE55CFB7F02B4
:1007C700122D12020A0D787FE6FC08E6FDAB5CAA43
:1007D7005B7F02122C62020A0D787FE6FDE55AFB69
:1007E7007F01122D12200E03020A0D8016787FE674
:1007F700FC08E6FDAB5AAA597F01122C62200E03B2
:10080700020A0D7892767878787601D2877599788A
:10081700020A0DD20B020A0DC2ACE4F523D2877D82
:10082700237F7F122AB27D237F18122AB27D237F6E
:1008370017122AB27873E6FF7D23122AB27D23AFFF
:1008470059122AB27D23AF5A122AB27D23AF5B1207
:100857002AB27D23AF5C122AB27D23AF5D122AB282
:100867007D23AF5E122AB2E4F525745F2525F8E6ED
:10087700FF7D23122AB20525E525C3941040EB021C
:100887000932787FE6FFC37873964003020A0D7535
:10089700F010EFA42400F582E5F0341CAF82F529AF
:1008A7008F2AC2ACE4F523D2877D237F7F122AB239
:1008B7007D237F0D122AB2852A82852983E493FF3F
:1008C7007D23122AB2852A82852983740193FF7DAD
:1008D70023122AB2852A82852983740293FF7D23F6
:1008E700122AB2852A82852983740393FF7D2312F6
:1008F7002AB2852A82852983740493FF7D23122ACD
:10090700B2E4F525E52A2405F582E43529F583E5E2
:10091700822525F582E43583F583E493FF7D231251
:100927002AB20525E525C3940840D9E4FDAF231273
:100937002AB2C287D2AC020A0D7A007B327D0178D7
:100947007CE6FF122935787FE6F55908E6F55A085F
:10095700E6F55B08E6F55C802E7A007B327D017850
:100967007CE6FF122935E4F525E525C3787F965007
:100977001674802525F8E6FF745F2525F8C6EFC6AF
:100987000525E525B410E2D209D20C80797A007BDF
:10099700327D01787CE6FF122935806A787FE6246C
:1009A700FF92028061787FE624FF92018058D2117E
:1009B70080547A007B327D01787CE6FF122935D29C
:1009C70009789276787875E6247DF8E67893F67854
:1009D700787602802A7A007B327D017F00122935E2
:1009E70078927679787FE67893F67B007A00799229
:1009F7007D027C00122CA17894EFF678787603D2EA
:100A0700877892E6F599E52464A06003020BA37842
:100A17007EE664A16003020ADF08E6FFC3787396E7
:100A27004003020BA375F010EFA42400F582E5F054
:100A3700341CF583E493F52775F010EFA42404F52F
:100A470082E5F0341CF583E49330E235122E4A8FA9
:100A570027E52724787892F67B007A007992E527B4
:100A67002401FDE433FC122CA174932527F8EFF63B
:100A7700E52724027878F6D2877892E6F599020B73
:100A8700A3787FE6FF122E4AC2ACE4F523D287E5AE
:100A970027D3940640247D237F7F122AB27D23AF7C
:100AA70027122AB2E4F525E525C395275007122A10
:100AB7007A052580F20527020B98E5272478FF7D24
:100AC70023122AB2E4F525E525C395275007122AF4
:100AD7007A052580F2020B98787EE664A26003020D
:100AE7000BA37873E6FF787FE6FEC39F4003020BF4
:100AF700A308E6FDC39F4003020BA3EEC39D40037B
:100B0700020BA318E6F525E4F527E525D3788096AB
:100B1700501FAF25122E4A75F010E525A42400F5C5
:100B270082E5F0341CF583E4932527F52705258016
:100B3700D9C2ACE4F523D2877D237F7F122AB27D09
:100B470023AF27122AB2787FE6F525E525D37880EB
:100B570096503EE4F52675F010E525A42400F582AD
:100B6700E5F0341CF583E493FFE526C39F501E7818
:100B77007CE6FF18E68FF0A47C002526FFEC35F015
:100B8700FE75F010E525122A92052680C9052580F5
:100B9700BAE4FDAF23122AB2C287D2ACE524645867
:100BA700704DFA7B327D01787CE6FF122935752E70
:100BB70000752F007530937B007A00797F122D44E2
:100BC7008F27E52724787892F67B007A007992E5DB
:100BD700272401FDE433FC122CA174932527F8EF99
:100BE700F6E52724027878F6D2877892E6F599E534
:100BF7002464806009E52464886003020D3E7A005E
:100C07007B327D01787CE6FF122935787EE6540732
:100C1700F527B4070A75260108E6F527088005E4D5
:100C2700F526787FE6F5281527E528C378739640DB
:100C370003020D1675F010E528A42400F582E5F0EF
:100C4700341CF583E493FFE527D39F40028F27E405
:100C5700F525E525C395274003020D0975F010E535
:100C670028A42404F582E5F0341CF583E49330E2EC
:100C770003020D0475F010E528A42401F582E5F0C0
:100C8700341CF583E4936438701BE527D394044040
:100C970008E52625252480802A7875E6C39525FF53
:100CA700747C2F801E75F010E528A42400F582E5DA
:100CB700F0341CF583E493FFC37875E69F2525255B
:100CC70026247DF8E6FD787CE6FF18E68FF0A4FF82
:100CD700E5257A002FFFEA35F0FE75F010E528A428
:100CE700240DF582E5F0341CF583E493FB7401933E
:100CF700FA740293F98F828E83ED12044805250258
:100D07000C59AF28122C1AE5246488702A800FE545
:100D170028B4FF237880E6F520E524B48819789273
:100D270076787875E6247DF8E67893F67878760213
:070D3700D2877892E6F599DE
:010D3E002292
:10700000C2AFE4F5D9F548F547D287C299759978AA
:107010003099FDC299E4F5993099FDC2873098FD09
:10702000859947C298E4F549E54724FD60511470FD
:107030000302710514700302713D240360030271A1
:10704000403098FD859948C298E54825E0FEC3E4A4
:107050009400EE94705022758F03E54825E0F54BBF
:10706000754C0075B7A575B7F1854C82854B83E4E7
:10707000F053B6F0F58F0271407549FF027140C2BE
:10708000A43098FD859948C298758F01E54825E0A0
:10709000F54B754C00E4FFE4F54A3098FD75B7A553
:1070A00075B7F1054CE54CAC4B7002054B14F582FD
:1070B0008C83E599F0C298054AE54AB43CDCD28756
:1070C000C2997599783099FDC299E4F5993099FD86
:1070D000C2870FBF08C1E4F54A3098FD75B7A575A2
:1070E000B7F1054CE54CAE4B7002054B14F5828EA2
:1070F00083E599F0C298054AE54AB420DC53B6F01E
:10710000E4F58F803BD2A43098FD859948C298E57C
:10711000487F0025E0FEE4F549FDFC0FEFCAEECA0A
:1071200070010E14F5828A83E4932549F5490DBD5B
:1071300000010CED7003EC640270E0800375EF1049
:10714000D287C2997599783099FDC299854999304D
:0F71500099FDC287E5476406600302701DD2AF48
:01715F00220D
:102A1B00122E4F120022122E53200D0B7A007B32F6
:102A2B007D017F00122935300F0B7A007B1E7D0153
:102A3B007F00122935300913301010C209E4F55DFF
:102A4B00F55E789A76F11223AFD20D301108301063
:102A5B0005C21112700012000EE47BF47A01F9F832
:0F2A6B00C31205115002D210300B0375EF102269
:0B2E3A0012150B122A1B122D7180F8DC
:101E7D00005EBCE2613FDD83C29C7E20A3FD1F415D
:101E8D009DC3217FFCA2401E5F01E3BD3E6082DC4D
:101E9D00237D9FC1421CFEA0E1BF5D0380DE3C623D
:101EAD00BEE0025CDF81633D7C22C09E1D43A1FF2D
:101EBD004618FAA427799BC584DA3866E5BB59071D
:101ECD00DB856739BAE406581947A5FB7826C49A0D
:101EDD00653BD987045AB8E6A7F91B45C6987A24FD
:101EED00F8A6441A99C7257B3A6486D85B05E7B9ED
:101EFD008CD2306EEDB3510F4E10F2AC2F7193CDDD
:101F0D00114FADF3702ECC92D38D6F31B2EC0E50CC
:101F1D00AFF1134DCE90722C6D33D18F0C52B0EEBC
:101F2D00326C8ED0530DEFB1F0AE4C1291CF2D73AC
:101F3D00CA947628ABF517490856B4EA6937D58B9C
:101F4D005709EBB536688AD495CB2977F4AA48168C
:101F5D00E9B7550B88D6346A2B7597C94A14F6A87C
:101F6D00742AC896154BA9F7B6E80A54D7896B356C
:071F7D00000040A0D0E0F0DD
:0A2CA1008B2B8A2C892D8C2E8D2F91
:102CAB00E4F530FFFEC3EF952FE52E6480F8EE645C
:102CBB008098501DAB2BAA2CA92D8F828E831204CA
:102CCB00096530FD901E7D93F5300FBF00010E801E
:032CDB00D4AF3043
:012CDE0022D3
:07000300ED6F901E7D93FFDD
:01000A0022D3
:012E5300225C
:102DEE00EF701B7598D0E589540F4420F589438EFA
:102DFE0008ED901F7C93F58DD28ED2ACC2BCD2AFB3
:012E0E0022A1
:102BCC00D2AFD2A9D2BBE589540F4401F589E4F503
:102BDC008E758CDBF58AD28CF572F571F570F56F0C
:102BEC00FFEF25E025E0249BF8E4F6EF25E025E057
:102BFC00249CF8E4F6EF25E025E0249DF8E4F6EFBC
:0D2C0C0025E025E0249EF8E4F60FBF04D477
:012C19002298
:07267200C0D075D010151E49
:10267900A81EE4F6A81EE6FFC3940440030227102F
:10268900EF25E025E0249EF8E6FFD394004052A808
:102699001EE625E025E0249CF8E67045EF30E015BC
:1026A900A81EE6FF25E025E0249EF8E6D394014024
:1026B900047D0180067D00A81EE6FF1229AEA81E32
:1026C900E6FF25E025E0249EF816E66014EF25E0F4
:1026D90025E0249DF8E6FEEF25E025E0249CF8EEB0
:1026E900F6A81EE625E025E0249CF8E6600116A878
:1026F9001EE6FF25E025E0249EF8E67004FD122978
:07270900AEA81E0602267DAA
:05271000051ED0D022DF
:03000B00022CDFE5
:102CDF00C0E0C0F0C083C082C0D075D010758CDC4E
:102CEF00E5722401F572E43571F571E43570F57014
:102CFF00E4356FF56F122672D0D0D082D083D0F02A
:032D0F00D0E032DF
:102DC700151EA81EEDF6151EA81EEFF6A81EE6FF97
:102DD700C39404500D08E6FEEF25E025E0249BF898
:072DE700EEF6051E051E2299
:10293500151E151EA81EEAF608EBF6151EA81EEDB7
:10294500F6151EA81EEFF6A81EE6FFC39404505206
:10295500EF25E025E0249EF8E67047A81EE6FB2556
:10296500E025E0249CF8E67039A81E08E625E00479
:10297500FFA81EE6FA25E025E0249EF8EFF6A81E3E
:102985000808E6FE08E6FF7C007D0A12046AEA25CF
:10299500E025E0249DF8EFF6EB25E025E0249CF802
:0929A500E4F6E51E2404F51E22EF
:1029AE00C0D075D010151EA81EEDF6151EA81EEF70
:1029BE00F6A81EE6FFC39404501CEF25E025E02484
:1029CE009BF8E66011A81E08E670047F0180027F66
:1029DE0000A81E08EFF6A81EE6700608E624FF9271
:1029EE00A4A81EE6FFB4010608E624FF92A5EFB4E4
:1029FE000208A81E08E624FF92A6A81EE6B4030647
:0D2A0E0008E624FF92A7051E051ED0D02269
:0C000E00C2AFAF72AE71AD70AC6FD2AF7C
:01001A0022C3
:042E4F00E4F5FE2286
:042D9E008E438F448D
:102DA200E4F545F546C3E5469544E545954350149B
:102DB2007FE87E03122B28122A1B0546E54670E5A2
:042DC200054580E162
:012DC60022EA
:042B28008E498F4AF9
:102B2C00D3E54A94FAE5499400500AEFD394004057
:102B3C003C001F80F685494B854A4CD3E54C94FAF2
:102B4C00E54B940040157FFA7E00122B2874062565
:102B5C004CF54C74FF354BF54B80E0D3E54A9400B3
:0D2B6C00E54994004007AF4CAE4B122B28FA
:012B79002239
:082AD3008B3A8A3B893C8D3DE2
:102ADB00122E4FAB3EAA3FA9401204A02400FFE5E3
:102AEB00F0343AFE853A41853B42853C43E4FDEDAB
:102AFB00C3953D501BEF2DF582E43EF583E493AB7C
:102B0B0041AA42A9438D827583001204480D80DFD0
:0D2B1B00AB3EAA3FA940E4853DF00204CB8B
:0628B7008B4D8A4E894F93
:1028BD00789AE664F17070C2AF758F01AB51AA5270
:1028CD00A9531204A02400FFE5F0343AF5548F55B6
:1028DD00854D56854E57854F58E4FFEFC39D502EBD
:1028ED00AB560558E558AA577002055714F912034F
:1028FD00F0FE75B7A5789AE6F5B70555E555AA54D6
:10290D007002055414F5828A83EEF00F80CDE4F544
:10291D008F53B6F0CFEDCFAB51AA52A9538FF01212
:07292D0004CBD2AF122E4FC4
:012934002280
:102E0F00789AE6FFB4F116C2AF758F03903A00754A
:0D2E1F00B7A58FB7E4F0F58F53B6F0D2AF32
:012E2C002283
:1023AF007A007B327D037F03122935122E0FE4F55D
:1023BF004BF54CF55175520075534BFB7A0079591B
:1023CF007D161228B7E4F548E548C378AF965067F5
:1023DF00E4F54775F010E547A42400F582E5F034E5
:1023EF001CF583E493604C787BE68548F0A4FFAE40
:1023FF00F075F010E547A4240DF582E5F0341CF5D7
:10240F0083E493FB740193FA7402932FF9EA3EFA73
:10241F0075F010E547A42400F582E5F0341CF58330
:10242F00E493FD75510075520075534B1228B70593
:10243F004780A005488091754912754A347551003F
:10244F0075520075534B7B007A0079497D02122833
:05245F00B7E4789AF6D5
:012464002255
:10246500E4F538F539F53E753F00754038FB7A00DF
:1024750079597D16122AD3E4F535E535C378AF963B
:102485005067E4F53475F010E534A42400F582E5D1
:10249500F0341CF583E493604C787BE68535F0A435
:1024A500FFAEF075F010E534A4240DF582E5F034A7
:1024B5001CF583E493FB740193FA7402932FF9EAF4
:1024C5003EFA75F010E534A42400F582E5F0341CDD
:1024D500F583E493FD753E00753F00754038122A7B
:1024E500D3053480A005358091753E00753F007594
:1024F50040387B007A0079367D02122AD3E53764AD
:0F250500347004E536641270047F0180027F0099
:0125140022A4
:101BF8004856522D323030000134000000436F6ED9
:101C080074726F6C000100100418000001566465BE
:101C18006D616E64000100110418000001566D65C5
:101C280061730000000100150406FA0001496D65A2
:101C38006173000000010019013400000053746151
:101C4800747573000001001D015C00000054726986
:101C580070436E740001001E021800000052616D8E
:101C6800705570000001001F021800000052616DDD
:101C780070446F776E0100210418000001566C69EA
:101C88006D697400000100230406FA0001496C69BB
:101C98006D69740000010027015C0000005472693E
:101CA800704D61780001002B045D00000141444340
:101CB8006761696E0001002C04180000014144436B
:101CC8006F66730000010030045D00000144414369
:101CD8006761696E00010034041800000144414343
:101CE8006F66730000010038045D0000014355521F
:101CF8006761696E0001003C0406FA000143555211
:101D08006F66730000010040040800000154656D0F
:101D1800700000000001004404180000015644410E
:101D2800430000000001004800000000000000001F
:101D3800000000000000000003020100070605047F
:041D48000302010091
:03001E0001AF042B
:1018E10075A6F0D2B3EF7003021A08E4F534E534BB
:1018F10075F03CA42411F582E43400F5831205D976
:1019010000000000E53475F03CA4241EF582E434A7
:1019110000F583E4F0E53475F03CA4241FF582E47E
:101921003400F583E4F0A3F0E53475F03CA4242100
:10193100F582E43400F583E4F0A3F0E53475F03C7E
:10194100A42423F582E43400F5831205D9453B80B4
:1019510000E53475F03CA42427F582E43400F583D6
:101961001205D9453B8000E53475F03CA4242BF5E4
:1019710082E43400F583E4F0E53475F03CA4242CD2
:10198100F582E43400F5831205D93F800000E53487
:1019910075F03CA42430F582E43400F5831205D9B6
:1019A10000000000E53475F03CA42434F582E434F1
:1019B10000F5831205D93F800000E53475F03CA4A1
:1019C1002438F582E43400F5831205D900000000C3
:1019D100E53475F03CA4243CF582E43400F583122F
:1019E10005D93F800000E53475F03CA42440F58220
:1019F100E43400F5831205D9000000000534E53414
:101A0100640460030218EFE4F534E53475F03CA496
:101A11002410F582E43400F5837402F0E53475F0A6
:101A21003CA4241DF582E43400F583E4F0E534752B
:101A3100F03CA42444F582E43400F5831205D90076
:101A41000000000534E534B404C0D2B2D2B1D2965C
:101A5100D297D290D2947D527F0312223AE4F53488
:101A610074AB2534F876090534E534B404F2E4F5B1
:101A7100347D00AF34122DC70534E534C3940440DE
:011A8100F074
:011A82002241
:102C1A00151EA81EEFF6A81EE6FF600864016004F0
:102C2A00EFB40420122E45EF75F03CA4241DF58262
:102C3A00E43400F583E054DFF0122E4574AB2FF82C
:102C4A00740146F6A81EE6B4080B122E4574AB2F83
:082C5A00F8740146F6051E2284
:052E4A008F2B7F002228
:102D44008B2B8A2C892D1203F0AB2EAA2FA93012BB
:102D54000436AB2BAA2CA92D900001120409AB2E2A
:0D2D6400AA2FA9309000011204487F02221E
:101A8300151E151EA81EECF608EDF6151EA81EEF72
:071A9300F6151E151E151EBD
:101A9A00E51E2403F8E65403901D4093F6C292A86B
:101AAA001EE4F6A81E087608A81EE6C3940450345D
:101ABA00C29508E6540394004003D38001C392946C
:101ACA007F647E00122B28D2957F647E00122B2819
:101ADA00A81E08E8C0E0E6C313FFD0E0F8EFF6A8B6
:101AEA001E0680C4A81EE4F6A81E087608A81EE6EC
:101AFA00C39404503CC29508C9E8C9E51E2403F8FA
:101B0A00E657D394004003D38001C392947F647E46
:101B1A0000122B28D2957F647E00122B28A81E085B
:101B2A00E8C0E0E6C313FFD0E0F8EFF6A81E06808F
:101B3A00BCE51E2404F9E7A81E0808F6A81EE4F668
:101B4A00A81E087680A81EE6C39408503AC29508D3
:101B5A00C9E8C9A81E0808E65794004003D38001C3
:101B6A00C392947F647E00122B28D2957F647E00F4
:101B7A00122B28A81E08E8C0E0E6C313FFD0E0F83D
:101B8A00EFF6A81E0680BEE51E2404F808E6A81E85
:101B9A000808F6A81EE4F6A81E087680A81EE6C362
:101BAA009408503AC29508C9E8C9A81E0808E65719
:101BBA0094004003D38001C392947F647E00122B69
:101BCA0028D2957F647E00122B28A81E08E8C0E060
:101BDA00E6C313FFD0E0F8EFF6A81E0680BED29245
:071BEA007F647E00122B282E
:071BF100E51E2406F51E228B
:04223A008F438D44FD
:10223E00C293E4F545C2957F647E00122B28C294AA
:10224E007F647E00122B28D2957F647E00122B288D
:10225E000545E545C3940440DCE4F545754608C2E2
:10226E00957F647E00122B28E5435546D39400409B
:10227E0003D38001C392947F647E00122B28D295E3
:10228E007F647E00122B28E546C313F5460545E50F
:10229E0045C3940440C9D2937F647E00122B28C29A
:1022AE0093E4F545754680C2957F647E00122B2817
:1022BE00E5445546D394004003D38001C392947FE6
:1022CE00647E00122B28D2957F647E00122B28E5A7
:1022DE0046C313F5460545E545C3940840C9D29358
:0722EE007F647E00022B2833
:08216E008F188B198A1A891BD6
:10217600C293E4F51CC2957F647E00122B28E51CF1
:10218600B40103D38001C392947F647E00122B288E
:10219600D2957F647E00122B28051CE51CC394048F
:1021A60040D3E4F51C751D08C2957F647E00122B92
:1021B60028E518551DD394004003D38001C392949B
:1021C6007F647E00122B28D2957F647E00122B2816
:1021D600E51DC313F51D051CE51CC3940440C9D2B7
:1021E600937F647E00122B28C293E4F51C751D8034
:1021F600AB19AA1AA91B120436C2957F647E001277
:102206002B2830910EAB19AA1AA91B1203F0451DF3
:10221600120436D2957F647E00122B28E51DC31367
:10222600F51D051CE51CC3940840CED2937F647E41
:0422360000022B284F
:081F84008F438B448A45894616
:101F8C00C293E4F547C2957F647E00122B28E54787
:101F9C00B40103D38001C392947F647E00122B287A
:101FAC00D2957F647E00122B280547E547C3940425
:101FBC0040D3E4F547754808C2957F647E00122B28
:101FCC0028E5435548D394004003D38001C3929431
:101FDC007F647E00122B28D2957F647E00122B2802
:101FEC00E548C313F5480547E547C3940440C9D2F7
:101FFC00937F647E00122B28C293E4F547AB44AA6E
:10200C0045A94612060A00000000AB44AA45A946A1
:10201C001205357801120522120555C2957F647E92
:10202C0000122B287F647E00122B28AB44AA45A9F2
:10203C0046EBC0E0EAC0E0E9C0E0120588A291E4FA
:10204C00334BFFEAFEE9FDE8FCD0E0F9D0E0FAD032
:10205C00E0FB120555D2957F647E00122B280547B4
:10206C00E547C3941840A3D2937F647E00022B28CB
:06207C008B378A38893918
:10208200EF5407901D4493C454F0440FFD7F021295
:10209200223A7D027F0112223A12000E8F418E40B7
:1020A2008D3F8C3E30905B122A1BE4F542AF421208
:1020B2000D3F0542E542C3940440F212000EC3EF05
:1020C2009541FFEE9540FEED953FFDEC953EFCE41B
:1020D2007B1EFAF9F8C312051150C9C2977F647EBC
:1020E20000122D9ED2977F2C7E01122D9E7D527F53
:1020F2000312223AAB37AA38A93912060A000000A5
:1021020000227B007A00793A7F04121F84AF3DAE31
:102112003CAD3BAC3AE4120331E4FBFA7980784BF4
:102122001202277B0A7AD77923784012011EAB3735
:10213200AA38A939120555AB37AA38A9391205357B
:102142007B007A247974784912011EE4FBFAF9784B
:102152003F12002D1225157B007A247974784912DA
:0B2162000227AB37AA38A93912055537
:01216D00224F
:10173C00E54325E025E02400F582E43401F583E05F
:10174C00FCA3E0FDA3E0FEA3E0FFE51E24FCF51ED8
:06175C00F81205A8AF43DE
:0A176200151EA81EEFF6151E151E39
:10176C00A81E0808E675F03CA42423F582E4340096
:10177C00F583E0FCA3E0FDA3E0FEA3E0FFE51E245F
:10178C0003F812057B1202C4A81E603A4038080800
:10179C00E6FB75F03CA42423F582E43400F583E0E9
:1017AC00FCA3E0FDA3E0FEA3E0FFE51E2403F8127A
:1017BC0005A8EB75F03CA4241DF582E43400F583F8
:1017CC00E04410F080140808E675F03CA4241DF5E4
:1017DC0082E43400F583E054EFF0E4FFFE7D207CDE
:1017EC0041E51E2403F812057B1202C46006400476
:1017FC007D0180027D00A81E0808E6FF122DC7A8F7
:10180C001E0808E675F03CA42434F582E43400F597
:10181C0083E0FCA3E0FDA3E0FEA3E0FFE51E2403B0
:10182C00F812057B12011EA81E0808E675F03CA4F0
:10183C002438F582E43400F583E0F8A3E0F9A3E062
:10184C00FAA3E0FB12002DE51E2403F81205A8E410
:10185C00FFFEFDFCE51E2403F812057B1202C450AA
:10186C000CE51E2403F81205C000000000E51E2440
:10187C0003F8E8C0E012056F7B937A6D799B78448E
:10188C00120227D0E0F81205A8E4FBFA7920784080
:10189C00E8C0E0E51E2403F812056FD0E0F8120250
:1018AC0027E4FBFA7980784712011EE4FBFAF978F9
:1018BC003F12002D12036FA81EEEF608EFF6A81EBD
:0E18CC00E6FC08E6FDA81E0808E6FF121A83D7
:0718DA00E51E2407F51E22A4
:022715008F3201
:10271700E53225E0FF7B007A00793312207CAF3663
:10272700AE35AD34AC337B937A6D799B7844120127
:102737001E8F368E358D348C33E53275F03CA424EC
:102747002CF582E43400F583E0FCA3E0FDA3E0FE72
:10275700A3E0FFAB36AA35A934A83312011EE53230
:1027670075F03CA42430F582E43400F583E0F8A347
:10277700E0F9A3E0FAA3E0FB12002D8F368E358D2A
:10278700348C33C2AFE53275F03CA42415F582E4EE
:092797003400F5831205B4D2AF41
:0127A0002216
:0E282D00E51E24FCF51EF81205A8151E151E4A
:10283B007B937A6D799B7844E8C0E0A81E08081258
:10284B00056FD0E0F81202277B007A14794D784996
:10285B0012011E7B007A2479747849120227A81E74
:10286B0008081205A8E4FBFA79207840E8C0E0A834
:10287B001E080812056FD0E0F8120227E4FBFA7964
:10288B0080784712011EE4FBFAF9783F12002D12F3
:10289B00036FA81EEEF608EFF6A81EE6FC08E6FD91
:0528AB007F07121A83F3
:0728B000E51E2406F51E22BF
:101D4C008F32EF75F03CA42427F582E43400F58340
:101D5C00E0FCA3E0FDA3E0FEA3E0FFE53275F03C60
:101D6C00A42419F582E43400F583E0F8A3E0F9A388
:101D7C00E0FAA3E0FB1202C460025003021E5EE50F
:101D8C001E24FCF51EF81205C000000000AF321234
:101D9C001762E53225E025E02400F582E43401F5F4
:101DAC00831205D900000000E53275F03CA42448EC
:101DBC00F582E43400F5831205D90000000074AB01
:101DCC002532F874FE56F674AB2532F874FD56F6CF
:101DDC0074AB2532F874FB56F6E53275F03CA4244E
:101DEC001DF582E43400F583E054F3F0E53275F030
:101DFC003CA4241DF582E43400F583E04420F0E596
:101E0C003275F03CA4241EF582E43400F583E00422
:101E1C00F0E53275F03CA4242BF582E43400F58314
:101E2C00E0FFE53275F03CA4241EF582E43400F5A5
:101E3C0083E0C39F501CE53275F03CA4241DF58251
:101E4C00E43400F583E054DFF074AB2532F8740110
:101E5C0046F6E53275F03CA4241DF582E43400F519
:101E6C0083E030E50B7A017BF47D01AF321229352A
:011E7C002243
:0225C5008F3253
:1025C700E53225E004FF7B007A00793312207CE4B2
:1025D700FBFA79707841AF36AE35AD34AC331202C1
:1025E700277B937A6D799B784412011E7B007AC012
:1025F700795A78471202277B007A2479747849122E
:10260700011E8F368E358D348C33E53275F03CA440
:10261700243CF582E43400F583E0FCA3E0FDA3E06D
:10262700FEA3E0FFAB36AA35A934A83312011EE595
:102637003275F03CA42440F582E43400F583E0F8D9
:10264700A3E0F9A3E0FAA3E0FB12002D8F368E3545
:102657008D348C33C2AFE53275F03CA42419F58272
:0A266700E43400F5831205B4D2AF8D
:012671002246
:020D3F008F43E0
:100D4100EF75F03CA42410F582E43400F583E02033
:100D5100E0030211B4EF75F03CA4241DF582E434E4
:100D610000F583E030E5030211B474AB2FF8E620FF
:100D7100E003020EB6EF25E025E02400F582E4341D
:100D810001F583E0FCA3E0FDA3E0FEA3E0FFE54362
:100D910075F03CA42411F582E43400F583E0F8A356
:100DA100E0F9A3E0FAA3E0FB1202C4605E405CE557
:100DB1004375F03CA4241FF582E43400F583E0FE82
:100DC100A3E0D39400EE9400404174AB2543F87442
:100DD1000246F674AB2543F874FB56F6E54375F00D
:100DE1003CA4241DF582E43400F583E04404F0E5DD
:100DF1004375F03CA4241DF582E43400F583E054EE
:100E0100F7F074AB2543F874FE56F6E54325E0256B
:100E1100E02400F582E43401F583E0FCA3E0FDA3C6
:100E2100E0FEA3E0FFE54375F03CA42411F582E464
:100E31003400F583E0F8A3E0F9A3E0FAA3E0FB12A4
:100E410002C4505CE54375F03CA42421F582E434EE
:100E510000F583E0FEA3E0D39400EE9400404174DA
:100E6100AB2543F874FD56F674AB2543F87404467C
:100E7100F6E54375F03CA4241DF582E43400F583C6
:100E8100E054FBF0E54375F03CA4241DF582E43405
:100E910000F583E04408F074AB2543F874FE56F680
:100EA10012000EE54325E025E02400F582E434003C
:100EB100F5831205B474AB2543F8E620E103021073
:100EC1002E12000ECBEFCBE54325E025E02400F503
:100ED10082E43400F583A3A3A3E0FFC3EB9FF544B1
:100EE100700302102EE54325E025E02400F582E49D
:100EF1003401F583C083C082E0F8A3E0F9A3E0FAEE
:100F0100A3E0FBE8C0E0E9C0E0EAC0E0EBC0E0E557
:100F11004375F03CA4241FF582E43400F583E0FC22
:100F2100A3E0FDE4120336ECC0E0EDC0E0EEC0E06A
:100F3100EFC0E0AC44E412033BD0E0FBD0E0FAD0D8
:100F4100E0F9D0E0F812011EE4FBFA79C878421208
:100F51000227D0E0FBD0E0FAD0E0F9D0E0F81200AF
:100F61002DD082D0831205B4E54375F03CA4241141
:100F7100F582E43400F583E0FCA3E0FDA3E0FEA3E9
:100F8100E0FFE54325E025E02400F582E43401F5A6
:100F910083E0F8A3E0F9A3E0FAA3E0FB1202C44066
:100FA10074E54375F03CA42411F582E43400F58323
:100FB100E0FCA3E0FDA3E0FEA3E0FFE54325E0257F
:100FC100E02400F582E43401F5831205B4E54325FC
:100FD100E025E02400F582E43401F583E0FCA3E0A0
:100FE100FDA3E0FEA3E0FFE54375F03CA42448F532
:100FF10082E43400F5831205B474AB2543F874FD23
:1010010056F6E54375F03CA4241DF582E43400F561
:1010110083E054FBF012173C12000EE54325E02556
:10102100E02400F582E43400F5831205B474AB25A5
:1010310043F8E620E2030211B412000ECBEFCBE538
:101041004325E025E02400F582E43400F583A3A3E1
:10105100A3E0FFC3EB9FF54470030211B4E5432500
:10106100E025E02400F582E43401F583C083C082E9
:10107100E0FCA3E0FDA3E0FEA3E0FFECC0E0EDC0D7
:10108100E0EEC0E0EFC0E0E54375F03CA42421F5BB
:1010910082E43400F583E0FCA3E0FDE4120336ECC6
:1010A100C0E0EDC0E0EEC0E0EFC0E0AC44E412030C
:1010B1003BD0E0FBD0E0FAD0E0F9D0E0F812011E1D
:1010C100E4FBFA79C87842120227C8ECC8C9EDC915
:1010D100CAEECACBEFCBD0E0FFD0E0FED0E0FDD02E
:1010E100E0FC120029D082D0831205B4E54375F0EB
:1010F1003CA42411F582E43400F583E0FCA3E0FD77
:10110100A3E0FEA3E0FFE54325E025E02400F5820E
:10111100E43401F583E0F8A3E0F9A3E0FAA3E0FBEE
:101121001202C460025074E54375F03CA42411F529
:1011310082E43400F583E0FCA3E0FDA3E0FEA3E03C
:10114100FFE54325E025E02400F582E43401F58341
:101151001205B4E54325E025E02400F582E43401DD
:10116100F583E0FCA3E0FDA3E0FEA3E0FFE543750A
:10117100F03CA42448F582E43400F5831205B474EC
:10118100AB2543F874FB56F6E54375F03CA4241DEA
:10119100F582E43400F583E054F7F012173C1200B5
:1011A1000EE54325E025E02400F582E43400F583D3
:0311B1001205B470
:0111B4002218
:1011B5008F32EF75F03CA42410F582E43400F583FA
:1011C500E0FF20E0030214BC74AB2532F8E65406B8
:1011D50060030214BCE53275F03CA4241DF582E4DD
:1011E5003400F583E030E5030214BCEF20E103028F
:1011F5001426E53275F03CA42411F582E43400F59B
:1012050083E0FCA3E0FDA3E0FEA3E0FFE53225E0DB
:1012150025E02400F582E43401F5831205B4E532B6
:1012250075F03CA42415F582E43400F583E0F8A3B9
:10123500E0F9A3E0FAA3E0FBE53275F03CA4241144
:10124500F582E43400F583E0FCA3E0FDA3E0FEA312
:10125500E0FF120029122E2D7B937A6D799B78443D
:10126500120227E4FBFA79207840120227E4FBFA00
:101275007980784712011EE4FBFAF9783F1202C41F
:1012850040030214BCE53275F03CA42448F582E421
:101295003400F583C083C082E0F8A3E0F9A3E0FA47
:1012A500A3E0FBE8C0E0E9C0E0EAC0E0EBC0E0E5B0
:1012B5003275F03CA42415F582E43400F583E0F89A
:1012C500A3E0F9A3E0FAA3E0FBE53275F03CA42422
:1012D50011F582E43400F583E0FCA3E0FDA3E0FE14
:1012E500A3E0FF120029D0E0FBD0E0FAD0E0F9D06E
:1012F500E0F812002DD082D0831205B4E53275F0E6
:101305003CA42411F582E43400F583E0FCA3E0FD60
:10131500A3E0FEA3E0FFE4FBFAF978C012002DE597
:101325003275F03CA42448F582E43400F583E0F8F6
:10133500A3E0F9A3E0FAA3E0FB1202C45035E532BD
:1013450075F03CA42411F582E43400F583E0FCA398
:10135500E0FDA3E0FEA3E0FFE4FBFAF978C012008C
:101365002DE53275F03CA42448F582E43400F5837C
:101375001205B4E53275F03CA42411F582E434007D
:10138500F583E0FCA3E0FDA3E0FEA3E0FFE4FBFAA8
:10139500F9784012002DE53275F03CA42448F58219
:1013A500E43400F583E0F8A3E0F9A3E0FAA3E0FB59
:1013B5001202C460374035E53275F03CA42411F5BE
:1013C50082E43400F583E0FCA3E0FDA3E0FEA3E0A6
:1013D500FFE4FBFAF9784012002DE53275F03CA4E4
:1013E5002448F582E43400F5831205B474AB253244
:1013F500F874FE56F6E53275F03CA42448F582E40F
:101405003400F583E0FCA3E0FDA3E0FEA3E0FFE5E7
:101415001E24FCF51EF81205A8AF3212176202143D
:10142500BC74AB2532F8E620E0030214BCE5327546
:10143500F03CA42411F582E43400F583E0FCA3E03C
:10144500FDA3E0FEA3E0FFE53225E025E02400F55D
:1014550082E43401F5831205B4E53275F03CA42429
:1014650011F582E43400F583E0FCA3E0FDA3E0FE82
:10147500A3E0FFE53275F03CA42448F582E434008E
:10148500F5831205B4E53275F03CA42411F582E428
:101495003400F583E0FCA3E0FDA3E0FEA3E0FFE557
:1014A5001E24FCF51EF81205A8AF3212176274ABA4
:1014B5002532F874FE56F6E53275F03CA42410F595
:1014C50082E43400F583E020E03B74AB2532F8E696
:1014D50030E032E53275F03CA42448F582E434006E
:1014E500F5831205D900000000E51E24FCF51EF861
:1014F5001205C000000000AF3212176274AB25322E
:06150500F874FE56F62208
:102D7100E4F531900010E020E219AF31121D4CAFA3
:102D810031122715AF31120D3FAF311211B5AF31ED
:0C2D91001225C50531E531C3940440D77C
:012D9D002213
:100026000203DBE86480F8E933E83360110460F02A
:10003600ED33EC337009E8FCE9FDEAFEEBFF220440
:1000460060DED3EB9FEA9EE99DE8C2E78CF0C2F73B
:1000560095F0400CE8CCF8E9CDF9EACEFAEBCFFB07
:100066001203A685D0F05804700320D5B3E80470B7
:10007600075002B2D50203E592D5EC0460F7E4CC52
:10008600C0E0C398F8603B94186008400DD0E0FBD0
:100096000203BDE4FBFAC9FC8028E830E406E4C9A3
:1000A600FBE4CAFCE830E305E4C9CACBFCE8540724
:1000B6006010F8C3E913F9EA13FAEB13FBEC13FC2F
:1000C600D8F130F52FC3E49CFCEF9BFFEE9AFEEDD2
:1000D60099FDD0E0FBEF4E4D4C701222DB0302037C
:1000E600E2EC2CFCEF33FFEE33FEED33FDED30E7B3
:1000F600EB0203BDEF2BFFEE3AFEED39FDD0E0FB40
:1001060050130BBB00030203E5ED13FDEE13FEEFE8
:0801160013FFEC13FC0203BD12
:10011E00EC4D6011E8497017ED33EC3304600DE4DB
:10012E00FCFFFEFD22E933E8330470F80203DB1214
:10013E0003A658046009E4CC248150062850090215
:10014E0003E52840030203E2C0E0EB4A7044B980A5
:10015E0006D0E0FB0203D1EF4E701CBD8008EBFF12
:10016E00EAFEE9FD80EBE98DF0A4FEE5F002020760
:10017E00E9CDF9EAFEEBFFEF89F0A4FCE5F0CE89BC
:10018E00F0A42EFFE435F0CD89F0A42DFEE435F079
:10019E008067EF4E7005BD80D780C3EF8BF0A4ACA7
:1001AE00F0EE8BF0A42CFCE435F0F8EF8AF0A42CE2
:1001BE00E5F038FCE433CB8DF0A42CFCE5F03BF8F5
:1001CE00EE8AF0A42CFCE5F038F8E433CF89F0A4E5
:1001DE002CFCE5F038CF3400CE89F0A42FFFE5F0EB
:1001EE003EFEE433C98DF0A42EFEE5F039CD8AF043
:1001FE00A42FFFE5F03EFEE43DFD33D0E0FB5007BB
:10020E000BBB000F0203E5EC2CFCEF33FFEE33FECD
:06021E00ED33FD0203BDFB
:100224000203E5EC5D046005E8590470030203DB96
:100234001203A6580460F6EC4860F2EC7004FDFE6C
:10024400FF22C860DB2481C85009C39860025006AD
:100254000203E29850CAF582E9294B4A7005AB8241
:100264000203D175F0007C1A7880C3EF9BEE9AEDFF
:1002740099400DC3EF9BFFEE9AFEED99FDE842F025
:10028400DC23ACF0D0E0FFD0E0FED0E0FDAB822078
:10029400E7101BEB60BAEC2CFCEF33FFEE33FEED02
:1002A40033FD0203BDE803F830E705C0F075F00044
:1002B400EF2FFFEE33FEED33FD40B830E7C280AAE6
:1002C40074F8CC6480CCC86480C8F582046043C3ED
:1002D400EB9FF5F0EA9E42F0E99D42F0E89C45F080
:1002E40060305018E5825FFFE582F42B5582FB50A5
:1002F400210ABA001D09B90019088016E5825BFBC2
:10030400E582F42F5582FF50090EBE00050DBD0095
:10031400010CC3EB9FF5F0EA9E42F0E99D42F0E840
:0D0324009C45F06007CC4820E701B3EC22B7
:1003310075F020800E75F010800575F0087D007E47
:10034100007F003392D530D503120503EC33401002
:10035100EF33FFEE33FEED33FDEC33FCD5F0ED2250
:0E036100E5F0247EA2D513CC92E7CDCEFF228C
:10036F00EDD2E7CD33EC3392D524814006E4FFFE86
:10037F00FDFC22FCE4CFCECDCC24E0501174FF80E5
:10038F00EDC3CC13CCCD13CDCE13CECF13CF047082
:07039F00F030D5DE0205037A
:0D2E2D00ED33EC3360065004EC6480FC22B1
:102515008F468E458D448C4374FFFFFEFDFCAB4614
:10252500AA45A944A843C3120511602C7F807E9655
:102535007D187C4BAB46AA45A944A8431202C4604A
:102545000250157F807E967D187CCBAB46AA45A9A7
:1025550044A8431202C45009AF46AE45AD44AC434E
:1025650022AF46AE45AD44AC4312036F8F4A8E4948
:102575008D488C47EC120331C8ECC8C9EDC9CAEEC9
:10258500CACBEFCBAF46AE45AD44AC43120029E410
:10259500FBFAF9F81202C4601A401874FF254AF5CF
:1025A5004AE54934FFF549E54834FFF548E5473440
:1025B500FFF547AF4AAE49AD48AC47EC12033122AF
:1003A600E9D2E7C933E833F892D5EDD2E7CD33EC9D
:0703B60033FC5002B2D52216
:1003BD00EC30E7100FBF000C0EBE00080DBD0004A1
:1003CD000BEB6014A2D5EB13FCED92E7FD2274FF4D
:1003DD00FCFDFEFF22E480F8A2D574FF13FC7D80A6
:0303ED00E480EFBA
:030000000227A133
:0C27A100787FE4F6D8FD7581AF0227E8D0
:1003F000BB010689828A83E0225002E722BBFE020B
:09040000E32289828A83E493223D
:10040900BB010CE58229F582E5833AF583E02250A8
:1004190006E92582F8E622BBFE06E92582F8E222F2
:0D042900E58229F582E5833AF583E493220C
:10043600BB010689828A83F0225002F722BBFE01A5
:02044600F3229F
:10044800F8BB010DE58229F582E5833AF583E8F0EA
:10045800225006E92582C8F622BBFE05E92582C896
:02046800F2227E
:10046A00C2D5EC30E709B2D5E4C39DFDE49CFCEEAD
:10047A0030E715B2D5E4C39FFFE49EFE120676C3A9
:10048A00E49DFDE49CFC800312067630D507C3E4A4
:06049A009FFFE49EFE221C
:1004A000BB010A89828A83E0F5F0A3E02250068727
:1004B000F009E71922BBFE07E3F5F009E3192289E9
:0B04C000828A83E493F5F0740193221C
:1004CB00BB010789828A830206CB500B09C5F02733
:1004DB00F7C5F01937F722BBFE0D09F8E325F0F34A
:1004EB00C5F019E338F322F889828A8374019325C6
:0804FB00F0C5F0F8E49338228B
:0E050300C3E49FFFE49EFEE49DFDE49CFC2209
:10051100EB9FF5F0EA9E42F0E99D42F0E89C45F040
:0105210022B7
:10052200E8600FEFC333FFEE33FEED33FDEC33FC37
:03053200D8F122DB
:10053500BB010789828A830206E15005E9F80205B5
:100545006FBBFE05E9F80206ED89828A830206F98A
:10055500BB010789828A830205B45005E9F80205C3
:0A056500A8BBFE05E9F802073222E8
:0C056F00E6FC08E6FD08E6FE08E6FF22B8
:0D057B00E6FB08E6F908E6FA08E6CBF822F0
:10058800BB010789828A830207095005E9F8020539
:100598007BBBFE05E9F802071589828A83020722D8
:0C05A800ECF608EDF608EEF608EFF6227F
:0C05B400ECF0A3EDF0A3EEF0A3EFF022BA
:1005C000D083D082E493F608740193F60874029302
:0905D000F608740393F674047339
:1005D900A8828583F0D083D0821205F01205F0122B
:1005E90005F01205F0E473E493A3C583C5F0C58350
:1005F900C8C582C8F0A3C583C5F0C583C8C582C86C
:0106090022CE
:10060A00BB010789828A830205D95005E9F80205E8
:0A061A00C0BBFE05E9F802073E220E
:10062400D083D082F8E4937012740193700DA3A365
:1006340093F8740193F5828883E473740293686079
:06064400EFA3A3A380DF79
:102B7A008B348A358936E4F53CF53DE53B153BAEA9
:102B8A003A7002153A4E6033AB37AA38A9391203A4
:102B9A00F0FFAB34AA35A936053DE53DAC3C7002E1
:102BAA00053C14F5828C83EF120448EF60CD740162
:102BBA002539F539E43538F53880C0AB34AA35A95A
:022BCA003622B1
:10064A00EF4E6012EF60010EEDBB010B89828A83C7
:10065A00F0A3DFFCDEFA2289F05007F709DFFCA9D4
:0C066A00F022BBFEFCF309DFFCA9F0222B
:1027AD00022E3AE493A3F8E493A34003F68001F2DA
:1027BD0008DFF48029E493A3F85407240CC8C3332D
:1027CD00C4540F4420C8834004F456800146F6DFFC
:1027DD00E4800B010204081020408090001BE47E71
:1027ED00019360BCA3FF543F30E509541FFEE493F1
:1027FD00A360010ECF54C025E060A840B8E493A3B8
:10280D00FAE493A3F8E493A3C8C582C8CAC583CAE2
:10281D00F0A3C8C582C8CAC583CADFE9DEE780BE9A
:0100210000DE
:10067600BC000BBE0029EF8DF084FFADF022E4CC68
:10068600F875F008EF2FFFEE33FEEC33FCEE9DEC31
:10069600984005FCEE9DFE0FD5F0E9E4CEFD22ED77
:1006A600F8F5F0EE8420D21CFEADF075F008EF2FC1
:1006B600FFED33FD4007985006D5F0F222C398FDB2
:0506C6000FD5F0EA224F
:1006CB00C5F0F8A3E028F0C5F0F8E58215827002BA
:0606DB001583E038F02257
:0C06E100E0FCA3E0FDA3E0FEA3E0FF228C
:0C06ED00E2FC08E2FD08E2FE08E2FF2249
:1006F900E493FC740193FD740293FE740393FF2247
:0C070900E0F8A3E0F9A3E0FAA3E0FB2273
:0D071500E2FB08E2F908E2FA08E2CBF82264
:10072200E493F8740193F9740293FA740393FB222D
:0C073200ECF208EDF208EEF208EFF22203
:10073E00D083D082E493F208740193F2087402938A
:09074E00F208740393F2740473C1
:00000001FF
