:03173900017F002D
:10070500E4787FF675FFDE75FFAD75E104F5E275FA
:10071500E34475A401F5A5F5A675A7E075B1677560
:10072500B20875FF0775FFA543B28075EF0812146F
:100735003BE4F532F5337D00AF331213437D01AF52
:10074500331216DC12009F0533E53370020532C300
:100755009402E532940040DEE4F520C20EC209C2DF
:1007650011C20BC20DC210C20FC2B57879F67877E7
:10077500F618F6787DF6F532F53374002533F582F3
:1007850074083532F583E4F00533E533700205323C
:10079500B42CE7E532B401E2E4F532F533742C25E7
:1007A50033F58274093532F583E4F00533E53370AA
:1007B500020532B42CE7E532B401E27D05E4FF120F
:1007C50014C8E4787CF67874F67874E6FF75F01052
:1007D500A4249EF582E5F03412F583E493FE787C3B
:1007E50026F6EE600578740680DFEFD39400402A84
:1007F5009012ABE493FB740193FA740293F9745568
:1008050012097F12093964556002D20F74AA1209C0
:100815007F12093964AA6002D20F120DA9EF600395
:1008250002090174FFF548F549F54AF54BE4F54C25
:10083500F54DFE7F10FDFB7A00794E120A83753760
:10084500FF753812753996753A00753B107B007A3D
:1008550000794E1213E9E4F532F533E533C4F85463
:100865000FC868FFE532C454F048FE749E2FF58228
:1008750074123EF583E493607C74A22FF5827412A2
:100885003EF583E49320E262E4F531E531C37888EF
:10089500965057E533C4F8540FC868FFE532C45481
:1008A500F048FE749E2FF58274123EF583E493FDA5
:1008B5007C00C004C0057D0074AB2FF58274123E28
:1008C500F583E493FB740193FA740293F9787CE65B
:1008D5008531F0A4FFE92FF9EA35F0FAD007D00603
:1008E500120A8312009F053180A10533E53370029A
:1008F50005320208607F0112176A8016D20DE4FFE7
:1009050012176AE5EF30E30AD203054DE54D700293
:10091500054CE4F532F5337A007B967D03AF33124F
:1009250000260533E53370020532C39402E532949F
:030935000040E49B
:01093800229C
:0517A700787DE6FF2241
:0117AF002217
:03002300020C21AB
:100C2100C0E0C0F0C083C082C0D075D00830992226
:100C3100C299787706E6FF78796670097877F6C207
:100C4100B5D20A800D742C2FF582E43409F583E0C6
:100C5100F599209803020CE8209A08200E05C29805
:100C6100020CE4C29A7876E6062400F582E43408A0
:100C7100F583E599F0C298E6FFB40112900800E00F
:100C8100FE7003F68061EE54072402787EF6EFB41D
:100C9100020D787EE6B40907900801E02403F6D23C
:100CA100087876E6FFFD7C00BC0107BD2C047600C8
:100CB1008035EFC3787E96402E7B017A08790078E3
:100CC10076E624FFFDE434FFFC1215077876E6246E
:100CD100FFF582E43407F583E06F60047600800756
:100CE1001200A678767600D0D0D082D083D0F0D012
:020CF100E032EF
:10123C00787DE6FF18E68FF0A47C002525FFEC35C1
:10124C00F0FE900801E075F010A424ABF582E5F0F7
:10125C003412F583E493FB740193FA740293F98FBF
:09126C00828E83120952FF7D23DA
:101275008F2B8D2CE52C6010F8E6FFE52BFD7C000F
:10128500120003A82CC6EFC6852B993099FDC2998B
:011295002236
:10165400C9EFC9EDC39B40237888E6FFEB2FFFE475
:1016640033FEEDC39FEE6480F8748098500DD20E63
:10167400C3ED9B787DF67878E9F622C20EE478789B
:02168400F6224C
:10148900C9EFC9BAFF0FBBFF0CED6B7002EC6A70B4
:1014990027D20E801BC3ED9BEC9A401C7888E62B63
:1014A900FFE43AFEC3ED9FEC9E500DD20EC3ED9BB7
:0F14B900787DF67878E9F622C20EE47878F6228C
:1000A600900800E0FF54F8F524EF120A5D00ED0910
:1000B60000F90A0109100110110120120134190179
:1000C600491A01712001762801E02902983402B903
:1000D6003702F739030641031049031A50034A61F0
:1000E600031E9800000381900801E0FDE549FB7FAF
:1000F600018021900801E0FCA3E0FDAB49AA487FFE
:10010600018025E4FBFD7F03800A900801E0FDE500
:100116004BFB7F02121654020381900801E0FCA3F8
:10012600E0FDAB4BAA4A7F021214890203819008B4
:1001360001E0FDE549FB7F01121654200E03020380
:10014600818017900801E0FCA3E0FDAB49AA487F37
:1001560001121489200E0302038190092C7478F091
:1001660078797601D2B5F599020381D20B02038123
:10017600C2ACE4F523D2B57D237F7F1212757D23B1
:100186007F181212757D237F171212757874E6FF99
:100196007D231212757D23AF481212757D23AF4958
:1001A6001212757D23AF4A1212757D23AF4B1212C0
:1001B600757D23AF4C1212757D23AF4D121275E477
:1001C600F525744E2525F8E6FF7D231212750525C3
:1001D600E525C3941040EB02028A900801E0FFC3B4
:1001E600787496400302038175F010EFA4249EF5FF
:1001F60082E5F03412AF82F5298F2AC2ACE4F523EA
:10020600D2B57D237F7F1212757D237F0D12127565
:10021600852A82852983E493FF7D23121275852A18
:1002260082852983740193FF7D23121275852A82A4
:10023600852983740293FF7D23121275852A828590
:100246002983740393FF7D23121275852A828529DB
:1002560083740493FF7D23121275E4F525E52A24A1
:1002660005F582E43529F583E5822525F582E43511
:1002760083F583E493FF7D231212750525E525C3D7
:10028600940840D9E4FDAF23121275C2B5D2AC0270
:1002960003817A007B327D01787DE6FF120026908D
:1002A6000801E0F548A3E0F549A3E0F54AA3E0F527
:1002B6004B80377A007B327D01787DE6FF1200267F
:1002C600E4F525900801E0FFE525C39F501C740264
:1002D6002525F582E43408F583E0FF744E2525F8DC
:1002E600C6EFC60525E525B410D9D209D20C0203FE
:1002F600817A007B327D01787DE6FF120026807BC5
:10030600900801E024FF92028071900801E024FF2A
:1003160092018067D21180637A007B327D01787DFD
:10032600E6FF120026D20990092C7478F07876E65A
:1003360024FFF582E43407F583E090092DF07879FF
:100346007602802F7A007B327D017F001200269094
:10035600092C7479F0900801E090092DF07B017A60
:1003660009792C7D027C0012150790092EEFF07892
:10037600797603D2B590092CE0F599E52464A0605E
:1003860003020529900800E064A1600302045CA34F
:10039600E0FFC3787496400302052975F010EFA4B8
:1003A600249EF582E5F03412F583E493F52775F083
:1003B60010EFA424A2F582E5F03412F583E493301D
:1003C600E23C12000E8F27E527247890092CF07B5B
:1003D600017A09792CEF2401FDE433FC1215077428
:1003E6002D2527F582E43409F583EFF0E52724026D
:1003F6007879F6D2B590092CE0F59902052990088E
:1004060001E0FF12000EC2ACE4F523D2B5E527D316
:10041600940640247D237F7F1212757D23AF271219
:100426001275E4F525E525C39527500712123C05FC
:100436002580F2052702051EE5272478FF7D231275
:100446001275E4F525E525C39527500712123C05DC
:100456002580F202051E900800E064A260030205F2
:10046600297874E6FFA3E0FEC39F4003020529A393
:10047600E0FDC39F4003020529EEC39D400302052C
:1004860029900801E0F525E4F527900802E0FFE54C
:1004960025D39F501FAF2512000E75F010E525A439
:1004A600249EF582E5F03412F583E4932527F5279B
:1004B600052580D6C2ACE4F523D2B57D237F7F1215
:1004C60012757D23AF27121275900801E0F525906D
:1004D6000802E0FFE525D39F503EE4F52675F010AF
:1004E600E525A4249EF582E5F03412F583E493FF16
:1004F600E526C39F501E787DE6FF18E68FF0A47CA4
:10050600002526FFEC35F0FE75F010E52512125594
:10051600052680C9052580B7E4FDAF23121275C2F2
:10052600B5D2ACE52464587054FA7B327D01787DEF
:10053600E6FF120026752E01752F0975302D7B01F9
:100546007A0879011216868F27E527247890092CD8
:10055600F07B017A09792CEF2401FDE433FC1215B6
:1005660007742D2527F582E43409F583EFF0E52796
:1005760024027879F6D2B590092CE0F599E5246441
:10058600806009E524648860030207047A007B32F0
:100596007D01787DE6FF120026900800E05407F5FD
:1005A60027B4070A752601A3E0F527A38006E4F51C
:1005B60026900801E0F5281527E528C378749640AB
:1005C600030206D175F010E528A4249EF582E5F015
:1005D6003412F583E493FFE527D39F40028F27E487
:1005E600F525E525C3952740030206C475F010E5F9
:1005F60028A424A2F582E5F03412F583E49330E2D0
:10060600030206BF75F010E528A4249FF582E5F0E5
:100616003412F583E4936438702DE527D39404E50A
:1006260025FD7C00400F2526FFE433FE74022FF5DE
:1006360082740880497876E6C39DFFE49CFE74FECA
:100646002FF5827407803775F010E528A4249EF5EF
:1006560082E5F03412F583E493FF7876E6C39FFFD4
:10066600E49400FEAD257C00EF2DFFEC3EFE7A0003
:10067600EF2526FFEA3EFE74FF2FF58274073EF54E
:1006860083E0FFEFC0E0787DE6FF18E68FF0A42D4B
:10069600FFEC35F0FE75F010E528A424ABF582E5F5
:1006A600F03412F583E493FB740193FA740293F920
:1006B6008F828E83D0E012099105250205E8AF28C6
:1006C600121082E524648870358010E528B4FF2E68
:1006D600900802E0F520E524B4882390092C74786C
:1006E600F07876E624FFF582E43407F583E0900996
:0E06F6002DF078797602D2B590092CE0F599B6
:0107040022D2
:10700000C2AF75FFDE75FFADE4F537F536D2B5C218
:10701000997599783099FDC299E4F5993099FDC236
:10702000B53098FD859936C298E4F538E53624FDEB
:10703000604D1470030270FC147003027134240359
:1070400060030271373098FD859937C298E537257E
:10705000E0FEC3E49400EE9470501E43B601758FB9
:1070600003E53725E0F53A753B00853B82F583E47F
:10707000F053B6F0F58F0271377538FF027137D2D1
:10708000B43098FD859937C29843B601758F01E5F4
:107090003725E0F53A753B00E4FFE4F5393098FD1B
:1070A000053BE53BAC3A7002053A14F5828C83E56A
:1070B00099F0C2980539E539B43CE2D2B5C2997568
:1070C00099783099FDC299E4F5993099FDC2B50FD0
:1070D000BF08C7E4F5393098FD053BE53BAE3A7093
:1070E00002053A14F5828E83E599F0C2980539E5D8
:1070F00039B420E253B6F0E4F58F803BC2B4309847
:10710000FD859937C298E5377F0025E0FEE4F53824
:10711000FDFC0FEFCAEECA70010E14F5828A83E4FB
:10712000932538F5380DBD00010CED7003EC6402B9
:1071300070E0800375EF10D2B5C2997599783099D7
:10714000FDC2998538993099FDC2B5E5366406606F
:0671500003027021D2AF22
:017156002216
:1011DD0012009F1217AF1215B8200D0B7A007B323B
:1011ED007D017F00120026300F0B7A007B1E7D01E2
:1011FD007F00120026300913301010C209E4F54C9F
:10120D00F54D787F76F1120CF3D20D3011083010B8
:10121D0005C21112700012178FE47BF47A01F9F8F0
:0F122D00C3120A4C5002D210300B0375EF10227F
:0B179C001207051211DD1210F780F893
:100B1A00005EBCE2613FDD83C29C7E20A3FD1F41D3
:100B2A009DC3217FFCA2401E5F01E3BD3E6082DCC3
:100B3A00237D9FC1421CFEA0E1BF5D0380DE3C62B3
:100B4A00BEE0025CDF81633D7C22C09E1D43A1FFA3
:100B5A004618FAA427799BC584DA3866E5BB590793
:100B6A00DB856739BAE406581947A5FB7826C49A83
:100B7A00653BD987045AB8E6A7F91B45C6987A2473
:100B8A00F8A6441A99C7257B3A6486D85B05E7B963
:100B9A008CD2306EEDB3510F4E10F2AC2F7193CD53
:100BAA00114FADF3702ECC92D38D6F31B2EC0E5043
:100BBA00AFF1134DCE90722C6D33D18F0C52B0EE33
:100BCA00326C8ED0530DEFB1F0AE4C1291CF2D7323
:100BDA00CA947628ABF517490856B4EA6937D58B13
:100BEA005709EBB536688AD495CB2977F4AA481603
:100BFA00E9B7550B88D6346A2B7597C94A14F6A8F3
:100C0A00742AC896154BA9F7B6E80A54D7896B35E2
:070C1A00DCEEF4FAFDFEFF21
:10173C00C1940262000002660000026404000268A8
:02174C00040097
:0A1507008B2B8A2C892D8C2E8D2F42
:10151100E4F530FFFEC3EF952FE52E6480F8EE640D
:101521008098501DAB2BAA2CA92D8F828E83120976
:10153100526530FD900B1A93F5300FBF00010E80FC
:03154100D4AF30F4
:011544002284
:07000300ED6F900B1A93FF53
:01000A0022D3
:0300A30002116CDB
:10116C00C0E0C0F0C083C082C0D075D010E5F130B3
:10117C00E10553F1FDD214E5F130E04AE5672401B5
:10118C00FFE43566FEEF65637003EE656270055330
:10119C00F1FE80320567E567AE667002056614F5F0
:1011AC00828E83E5F2F074006567700474046566E2
:1011BC00700675660075670053F1FE7A007B647DDE
:1011CC00017F01120026D0D0D082D083D0F0D0E0A5
:0111DC0032E0
:1015B800E56965657004E56865646029301426C2CC
:1015C800140565E565AE647002056414F5828E83C2
:1015D800E0F5F2740065657004740865647006755A
:0615E80064047565002299
:10154500E56765637004E5666562602A0563E563C2
:10155500AE627002056214F5828E83E0FF74006549
:10156500637004740465627006756200756300BF7C
:0B1575000D037F0A22221211DD80C549
:1015EE00E56765637004E566656260240563E5631F
:1015FE00AE627002056214F5828E83E0FF740065A0
:10160E00637004740465627009756200756300226C
:02161E007FFF4C
:0116200022A7
:080F89008B6A8A6B896C8D6D87
:100F910012178F8F728E718D708C6FE4F57312152D
:100FA100EEEFF46037EF640A6032BF0D13AB6AAA4B
:100FB1006BA96C857382758300E4120991AF73226A
:100FC100AB6AAA6BA96CAE7305738E82758300EF51
:100FD100120991E573656D7003AF73221211DD1271
:100FE100178FC8ECC8C9EDC9CAEECACBEFCBE56E05
:100FF1002572FFE43571FEE43570FDE4356FFCC305
:07100100120A4C40997F0028
:0110080022C5
:10158000E5692401FDE43568FCED65657003EC65F3
:10159000647001220569E569AC687002056814F59C
:1015A000828C83EFF074006569700474086568705C
:0815B00006756804756900224C
:10177D00E56965657004E568656460051215B880F6
:02178D00EF2249
:101703007E007F008E668F678E628F637E047F000C
:0B1713008E688F698E648F65D21422EF
:1014C800EF70207598D0E589540F4420F58953C8EA
:1014D800E1438E10ED900C1993F58DD28ED2ACC2EB
:1014E800BC801975F15075C93475E5FFED900C197C
:0E14F80093F5E443E74053F7BF121703D2AF5A
:0115060022C2
:10143B00D2AFD2A9D2BBE589540F4401F589E4F5AB
:10144B008E758CDBF58AD28CF561F560F55FF55EF8
:10145B00FFEF25E025E02489F8E4F6EF25E025E011
:10146B00248AF8E4F6EF25E025E0248BF8E4F6EF88
:0D147B0025E025E0248CF8E4F60FBF02D434
:011488002241
:070E5900C0D075D010151A7E
:100E6000A81AE4F6A81AE6FFC394024003020EF89B
:100E7000EF25E025E0248CF8E6FFD394004052A84B
:100E80001AE625E025E0248AF8E67045EF30E01503
:100E9000A81AE6FF25E025E0248CF8E6D39401406B
:100EA000047D0080067D01A81AE6FF121343A81AEC
:100EB000E6FF25E025E0248CF816E66014EF25E037
:100EC00025E0248BF8E6FEEF25E025E0248AF8EE05
:100ED000F6A81AE625E025E0248AF8E6600116A8BF
:100EE0001AE6FF25E025E0248CF8E670057D011266
:080EF0001343A81A06020E6468
:050EF800051AD0D02214
:03000B00021621B9
:10162100C0E0C0F0C083C082C0D075D010758CDC22
:10163100E5612401F561E43560F560E4355FF55F4E
:10164100E4355EF55E120E59D0D0D082D083D0F051
:03165100D0E032B4
:1016DC00151AA81AEDF6151AA81AEFF6A81AE6FFAD
:1016EC00C39402500D08E6FEEF25E025E02489F8AE
:0716FC00EEF6051A051A22A3
:10002600151A151AA81AEAF608EBF6151AA81AED03
:10003600F6151AA81AEFF6A81AE6FFC3940250524C
:10004600EF25E025E0248CF8E67047A81AE6FB25A4
:10005600E025E0248AF8E67039A81A08E625E004C7
:10006600FFA81AE6FA25E025E0248CF8EFF6A81A90
:100076000808E6FE08E6FF7C007D0A1209B3EA25B9
:10008600E025E0248BF8EFF6EB25E025E0248AF85E
:09009600E4F6E51A2404F51A222F
:10134300C0D075D010151AA81AEDF6151AA81AEF01
:10135300F6A81AE6FFC39402501CEF25E025E0240B
:1013630089F8E66011A81A08E670047F0180027FFD
:1013730000A81A08EFF6A81AE6700608E624FF92FA
:10138300B4A81AE6B4010608E624FF92B3051A05C9
:041393001AD0D0227A
:0C178F00C2AFAF61AE60AD5FAC5ED2AF28
:01179B00222B
:04009F0075FFA52222
:0416B3008E328F33B1
:1016B700E4F534F535C3E5359533E5349532501403
:1016C7007FE87E031213971211DD0535E53570E5C6
:0416D700053480E175
:0116DB0022EC
:041397008E368F37C8
:10139B00D3E53794FAE5369400500AEFD394004026
:1013AB003C001F80F6853638853739D3E53994FAFA
:1013BB00E538940040157FFA7E00121397740625CA
:1013CB0039F53974FF3538F53880E0D3E5379400BB
:0D13DB00E53694004007AF39AE3812139785
:0113E80022E2
:0812EE008B3A8A3B893C8D3DDF
:1012F60012009FAB3EAA3FA9401209E92400FFE570
:10130600F03480FE853A41853B42853C43E4FDED61
:10131600C3953D501BEF2DF582E43EF583E493AB78
:1013260041AA42A9438D827583001209910D80DF7F
:0D133600AB3EAA3FA940E4853DF0020A1439
:061009008B3C8A3D893E8C
:10100F00787FE664F1706BC2AF43B601758F01ABA9
:10101F0040AA41A9421209E92400FFE5F03480F506
:10102F00438F44853C45853D46853E47E4FFEFC3EE
:10103F009D5026AB450547E547AA46700205461465
:10104F00F9120939FE0544E544AA43700205431419
:10105F00F5828A83EEF00F80D5E4F58F53B6F0CF8B
:10106F00EDCFAB40AA41A9428FF0120A14D2AF12B2
:02107F00009FD0
:01108100224C
:10171E00787FE6B4F114C2AF43B601758F039080A3
:0A172E0000E4F0F58F53B6F0D2AFDF
:01173800228E
:100CF3007A007B327D037F0312002612171EE4F570
:100D03003AF53BF54075410075423AFB7A00794864
:100D13007D16121009E4F537E537C37888965067D6
:100D2300E4F53675F010E536A4249EF582E5F0343B
:100D330012F583E493604C787CE68537F0A4FFAE2C
:100D4300F075F010E536A424ABF582E5F03412F526
:100D530083E493FB740193FA7402932FF9EA3EFA46
:100D630075F010E536A4249EF582E5F03412F58380
:100D7300E493FD75400075410075423A1210090570
:100D83003680A00537809175381275393475400067
:100D930075410075423A7B007A0079387D02121062
:050DA30009E4787FF671
:010DA8002228
:100DA900E4F538F539F53E753F00754038FB7A00B2
:100DB90079487D161212EEE4F535E535C378889643
:100DC9005067E4F53475F010E534A4249EF582E506
:100DD900F03412F583E493604C787CE68535F0A411
:100DE900FFAEF075F010E534A424ABF582E5F034DC
:100DF90012F583E493FB740193FA7402932FF9EAD1
:100E09003EFA75F010E534A4249EF582E5F034121B
:100E1900F583E493FD753E00753F00754038121265
:100E2900EE053480A005358091753E00753F00754B
:100E390040387B007A0079367D021212EEE537647C
:0F0E4900347004E536641270047F0180027F006C
:010E58002277
:101296005343532D3231300001370000045253328C
:1012A600333200000000000020380000004F757443
:1012B6007075740000010A582038000000496E70ED
:1012C6007574000000010A7801390000004261755A
:1012D6006400000000010A98000000000000000001
:0812E600000000000000000000
:03174E000188010E
:10176A00EF6006900A987401F0900A98E0FD7F01F4
:03177A000214C88E
:0A108200151AA81AEFF6151A151A30
:10108C00A81A0808E67044900802E0FFB41B04C2DA
:10109C00138038EF7004D2138031900800E05407AD
:1010AC0014A81A08F6A81AE4F6A81A08C9E8C9A8D8
:1010BC001AE6FFC397501474022FF582E43408F536
:1010CC0083E0FF121580A81A0680DEA81A0808E62D
:1010DC00FFB40102D212EFB4030A900A98E0FD7F2C
:0410EC00011214C811
:0710F000051A051A051A227A
:10000E00EF700F1215EEEFF4600890092DEFF07FF0
:04001E0001227F003C
:0100220022BB
:10175200151AA81AEFF6A81AE6700A900A98E0FD80
:081762007F011214C8051A22D0
:0317AC008F182271
:101686008B2B8A2C892D120939AB2EAA2FA9301241
:10169600097FAB2BAA2CA92D900001120952AB2E63
:0D16A600AA2FA9309000011209917F0222A5
:1010F700301243C212E4F519F53174782531F582BF
:10110700E4340AF583E4F00531E531B420ECE4F585
:101117003174582531F582E4340AF583E0FF60160F
:1011270012158012177D7F0A7E001216B30531E56E
:1011370031C3942040DB2013291215EEEFF460220F
:10114700E519C39420501BAE19051974782EF58242
:10115700E4340AF583EFF07A007B327D017F0112D8
:041167000026B28626
:01116B002261
:03000000020EFDF0
:0C0EFD00787FE4F6D8FD758190020F4468
:10093900BB010689828A83E0225002E722BBFE02BC
:09094900E32289828A83E49322EF
:10095200BB010CE58229F582E5833AF583E022505A
:1009620006E92582F8E622BBFE06E92582F8E222A4
:0D097200E58229F582E5833AF583E49322BE
:10097F00BB010689828A83F0225002F722BBFE0157
:02098F00F32251
:10099100F8BB010DE58229F582E5833AF583E8F09C
:1009A100225006E92582C8F622BBFE05E92582C848
:0209B100F22230
:1009B300C2D5EC30E709B2D5E4C39DFDE49CFCEE5F
:1009C30030E715B2D5E4C39FFFE49EFE120AAFC31E
:1009D300E49DFDE49CFC8003120AAF30D507C3E419
:0609E3009FFFE49EFE22CE
:1009E900BB010A89828A83E0F5F0A3E022500687D9
:1009F900F009E71922BBFE07E3F5F009E31922899B
:0B0A0900828A83E493F5F074019322CD
:100A1400BB010789828A83020B04500B09C5F027A6
:100A2400F7C5F01937F722BBFE0D09F8E325F0F3FB
:100A3400C5F019E338F322F889828A837401932577
:080A4400F0C5F0F8E49338223C
:100A4C00EB9FF5F0EA9E42F0E99D42F0E89C45F000
:010A5C002277
:100A5D00D083D082F8E4937012740193700DA3A328
:100A6D0093F8740193F5828883E47374029368603C
:060A7D00EFA3A3A380DF3C
:1013E9008B348A358936E4F53CF53DE53B153BAE52
:1013F9003A7002153A4E6033AB37AA38A939120947
:1014090039FFAB34AA35A936053DE53DAC3C700240
:10141900053C14F5828C83EF120991EF60CD7401BC
:101429002539F539E43538F53880C0AB34AA35A902
:02143900362259
:100A8300EF4E6012EF60010EEDBB010B89828A838A
:100A9300F0A3DFFCDEFA2289F05007F709DFFCA997
:0C0AA300F022BBFEFCF309DFFCA9F022EE
:100F090002179CE493A3F8E493A34003F68001F24B
:100F190008DFF48029E493A3F85407240CC8C333E9
:100F2900C4540F4420C8834004F456800146F6DFB8
:100F3900E4800B0102040810204080901739E47EF8
:100F4900019360BCA3FF543F30E509541FFEE493AD
:100F5900A360010ECF54C025E060A840B8E493A374
:100F6900FAE493A3F8E493A3C8C582C8CAC583CA9F
:100F7900F0A3C8C582C8CAC583CADFE9DEE780BE57
:011751000097
:100AAF00BC000BBE0029EF8DF084FFADF022E4CC2B
:100ABF00F875F008EF2FFFEE33FEEC33FCEE9DECF4
:100ACF00984005FCEE9DFE0FD5F0E9E4CEFD22ED3A
:100ADF00F8F5F0EE8420D21CFEADF075F008EF2F84
:100AEF00FFED33FD4007985006D5F0F222C398FD75
:050AFF000FD5F0EA2212
:100B0400C5F0F8A3E028F0C5F0F8E582158270027C
:060B14001583E038F02219
:00000001FF
