:03001B00018D0054
:100D3F00E4788DF675FFDE75FFAD75E104F5E275AC
:100D4F00E34075A401F5A5F5A675A72075B16775E4
:100D5F00B20875FF0775FFA543B28075EF08121A29
:100D6F0081E4F532F5337D00AF33121ACF7D01AF39
:100D7F0033121CCE121D9D0533E53370020532C3AD
:100D8F009401E532940040DEE4F520C20EC209C2A0
:100D9F0011C20BC20DC210C20FC2B5786BF67869C3
:100DAF00F618F6786FF6F532F53374712533F8E4EB
:100DBF00F60533E533700205326414453270EBE407
:100DCF00F532F53374852533F8E4F60533E53370E2
:100DDF000205326408453270EB7D05E4FF121D1BDE
:100DEF00E4786EF67866F67866E6FF75F010A42460
:100DFF0069F582E5F0340FF583E493FE786E26F6FD
:100E0F00EE600578660680DFEFD39400402A900FDE
:100E1F0076E493FB740193FA740293F974551204F8
:100E2F00361203F064556002D20F74AA1204361200
:100E3F0003F064AA6002D20F1214E0EF6003020FF6
:100E4F002974FFF544F545F546F547E4F548F549AE
:100E5F00FE7F10FDFB7A00794A1205DB7537FF75AF
:100E6F00380F753961753A00753B107B007A007940
:100E7F004A121A2FE4F532F533E533C4F8540FC88C
:100E8F0068FFE532C454F048FE74692FF582740F81
:100E9F003EF583E493607C746D2FF582740F3EF5FD
:100EAF0083E49320E262E4F531E531C3781F965075
:100EBF0057E533C4F8540FC868FFE532C454F048FF
:100ECF00FE74692FF582740F3EF583E493FD7C0069
:100EDF00C004C0057D0074762FF582740F3EF58334
:100EEF00E493FB740193FA740293F9786EE68531FB
:100EFF00F0A4FFE92FF9EA35F0FAD007D006120572
:100F0F00DB121D9D053180A10533E53370020532DB
:100F1F00020E887F01121B178016D20DE4FF121BE1
:100F2F0017E5EF30E30AD2030549E549700205489A
:100F3F00E4F532F5337A007B967D03AF331217EE6B
:100F4F000533E53370020532C39401E53294004056
:010F5F00E4AD
:010F6000226E
:051D9300786FE6FF225D
:0100220022BB
:030023000212B80E
:1012B800C0E0C0F0C083C082C0D075D00830991C8F
:1012C800C299786906E6FF786B6670097869F6C294
:1012D800B5D20A800774852FF8E6F599209803029D
:1012E8001367209A07200E04C298806FC29A786804
:1012F800E6062471F8A699C2987868E6FFB4011347
:101308007871E6FE70057868F68054EE540724027A
:101318007870F6EFB4020E7870E6B409087872E6D1
:1013280024037970F7D2087868E6FFB414047600CD
:10133800802DEFC378709640267B007A007971780B
:1013480068E624FFFDE434FFFC121B987868E62465
:1013580070F8E66F6002800312075778687600D04D
:0A136800D0D082D083D0F0D0E03264
:10192F00786FE6FF18E68FF0A47C002525FFEC35D5
:10193F00F0FE7872E675F010A42476F582E5F034A7
:10194F000FF583E493FB740193FA740293F98F827A
:08195F008E83120409FF7D23B1
:101967008F2B8D2CE52C6010F8E6FFE52BFD7C0016
:10197700120003A82CC6EFC6852B993099FDC29992
:01198700223D
:101C4600C9EFC9EDC39B4023781FE6FFEB2FFFE4E6
:101C560033FEEDC39FEE6480F8748098500DD20E6B
:101C6600C3ED9B786FF6786AE9F622C20EE4786ACD
:021C7600F62254
:101B5900C9EFC9BAFF0FBBFF0CED6B7002EC6A70DD
:101B690027D20E801BC3ED9BEC9A401C781FE62BF5
:101B7900FFE43AFEC3ED9FEC9E500DD20EC3ED9BE0
:0F1B8900786FF6786AE9F622C20EE4786AF622DF
:100757007871E6FF54F8F524EF1205B5079D0907F0
:10076700A80A07B71007BE1107CD1207E01907F44B
:100777001A081A20081F28088929094034096037F0
:1007870009943909A34109AC4909B55009DC610944
:10079700B99800000A0D7872E6FDE545FB7F0180F8
:1007A7001F7872E6FC08E6FDAB45AA447F0180236B
:1007B700E4FBFD7F0380097872E6FDE547FB7F02D6
:1007C700121C46020A0D7872E6FC08E6FDAB47AA42
:1007D700467F02121B59020A0D7872E6FDE545FBBA
:1007E7007F01121C46200E03020A0D80167872E65E
:1007F700FC08E6FDAB45AA447F01121B59200E03F6
:10080700020A0D78857678786B7601D2B575997876
:10081700020A0DD20B020A0DC2ACE4F523D2B57D54
:10082700237F7F1219677D237F181219677D237F26
:10083700171219677866E6FF7D231219677D23AFC4
:10084700441219677D23AF451219677D23AF4612FE
:1008570019677D23AF471219677D23AF48121967C0
:100867007D23AF49121967E4F525744A2525F8E673
:10087700FF7D231219670525E525C3941040EB0278
:1008870009327872E6FFC37866964003020A0D754F
:10089700F010EFA42469F582E5F0340FAF82F52953
:1008A7008F2AC2ACE4F523D2B57D237F7F12196767
:1008B7007D237F0D121967852A82852983E493FF9B
:1008C7007D23121967852A82852983740193FF7D09
:1008D70023121967852A82852983740293FF7D2352
:1008E700121967852A82852983740393FF7D231252
:1008F7001967852A82852983740493FF7D2312193A
:1009070067E4F525E52A2405F582E43529F583E52D
:10091700822525F582E43583F583E493FF7D231251
:1009270019670525E525C3940840D9E4FDAF2312CF
:100937001967C2B5D2AC020A0D7A007B327D017805
:100947006FE6FF1217EE7872E6F54408E6F54508FC
:10095700E6F54608E6F547802E7A007B327D01787A
:100967006FE6FF1217EEE4F525E525C3787296507A
:100977001674732525F8E6FF744A2525F8C6EFC6D1
:100987000525E525B410E2D209D20C80797A007BDF
:10099700327D01786FE6FF1217EE806A7872E624DF
:1009A700FF920280617872E624FF92018058D2118B
:1009B70080547A007B327D01786FE6FF1217EED202
:1009C70009788576787868E62470F8E67886F67888
:1009D7006B7602802A7A007B327D017F001217EE48
:1009E700788576797872E67886F67B007A0079855D
:1009F7007D027C00121B987887EFF6786B7603D21E
:100A0700B57885E6F599E52464A06003020BA37821
:100A170071E664A16003020ADF08E6FFC378669601
:100A27004003020BA375F010EFA42469F582E5F0EB
:100A3700340FF583E493F52775F010EFA4246DF5D3
:100A470082E5F0340FF583E49330E235121D988F79
:100A570027E52724787885F67B007A007985E527CE
:100A67002401FDE433FC121B9874862527F8EFF662
:100A7700E5272402786BF6D2B57885E6F599020B5F
:100A8700A37872E6FF121D98C2ACE4F523D2B5E550
:100A970027D3940640247D237F7F1219677D23AFD8
:100AA70027121967E4F525E525C39527500712197D
:100AB7002F052580F20527020B98E5272478FF7D6F
:100AC70023121967E4F525E525C395275007121961
:100AD7002F052580F2020B987871E664A260030265
:100AE7000BA37866E6FF7872E6FEC39F4003020B0E
:100AF700A308E6FDC39F4003020BA3EEC39D40037B
:100B0700020BA318E6F525E4F527E525D3787396B8
:100B1700501FAF25121D9875F010E525A42469F51F
:100B270082E5F0340FF583E4932527F52705258023
:100B3700D9C2ACE4F523D2B57D237F7F1219677D37
:100B470023AF271219677872E6F525E525D3787361
:100B570096503EE4F52675F010E525A42469F58244
:100B6700E5F0340FF583E493FFE526C39F501E7825
:100B77006FE6FF18E68FF0A47C002526FFEC35F022
:100B8700FE75F010E525121947052680C905258051
:100B9700BAE4FDAF23121967C2B5D2ACE524645895
:100BA700704DFA7B327D01786FE6FF1217EE752ED6
:100BB70000752F007530867B007A007972121C78D9
:100BC7008F27E52724787885F67B007A007985E5F5
:100BD700272401FDE433FC121B9874862527F8EFC0
:100BE700F6E5272402786BF6D2B57885E6F599E520
:100BF7002464806009E52464886003020D3E7A005E
:100C07007B327D01786FE6FF1217EE7871E65407A5
:100C1700F527B4070A75260108E6F527088005E4D5
:100C2700F5267872E6F5281527E528C378669640F5
:100C370003020D1675F010E528A42469F582E5F086
:100C4700340FF583E493FFE527D39F40028F27E412
:100C5700F525E525C395274003020D0975F010E535
:100C670028A4246DF582E5F0340FF583E49330E290
:100C770003020D0475F010E528A4246AF582E5F057
:100C8700340FF583E4936438701BE527D39404404D
:100C970008E52625252473802A7868E6C39525FF6D
:100CA700746F2F801E75F010E528A42469F582E57E
:100CB700F0340FF583E493FFC37868E69F25252575
:100CC700262470F8E6FD786FE6FF18E68FF0A4FF9C
:100CD700E5257A002FFFEA35F0FE75F010E528A428
:100CE7002476F582E5F0340FF583E493FB740193E2
:100CF700FA740293F98F828E83ED12044805250258
:100D07000C59AF28121D8AE5246488702A800FE5E4
:100D170028B4FF237873E6F520E524B4881978858D
:100D270076787868E62470F8E67886F6786B760247
:070D3700D2B57885E6F599BD
:010D3E002292
:10700000C2AF75FFDE75FFADE4F532F531D2B5C222
:10701000997599783099FDC299E4F5993099FDC236
:10702000B53098FD859931C298E4F533E53124FDFA
:10703000605214700302710614700302713E24033F
:1070400060030271413098FD859932C298E532257E
:10705000E0FEC3E49400EE94705023E5B654F0448F
:1070600008F5B6758F03E53225E0F53575360085F0
:107070003682F583E4F053B6F0F58F027141753333
:10708000FF027141D2B43098FD859932C298E5B6BD
:1070900054F04408F5B6758F01E53225E0F53575F5
:1070A0003600E4FFE4F5343098FD0536E536AC35BE
:1070B0007002053514F5828C83E599F0C298053489
:1070C000E534B43CE2D2B5C2997599783099FDC2E5
:1070D00099E4F5993099FDC2B50FBF08C7E4F534BE
:1070E0003098FD0536E536AE357002053514F5826B
:1070F0008E83E599F0C2980534E534B420E253B6A6
:10710000F0E4F58F803BC2B43098FD859932C29887
:10711000E5327F0025E0FEE4F533FDFC0FEFCAEE1B
:10712000CA70010E14F5828A83E4932533F5330D7A
:10713000BD00010CED7003EC640270E0800375EF9C
:1071400010D2B5C2997599783099FDC29985339955
:107150003099FDC2B5E53164066003027021D2AFFB
:01716000220C
:1018D000121D9D120022121DA4200D0B7A007B32D6
:1018E0007D017F001217EE300F0B7A007B1E7D0109
:1018F0007F001217EE300913301010C209E4F548CA
:10190000F549788D76F112142AD20D301108301075
:1019100005C21112700012000EE47BF47A01F9F88E
:0F192000C31205115002D210300B0375EF1022C5
:0B1D7F00120D3F1218D0121DA180F8B9
:1010BE00005EBCE2613FDD83C29C7E20A3FD1F412A
:1010CE009DC3217FFCA2401E5F01E3BD3E6082DC1A
:1010DE00237D9FC1421CFEA0E1BF5D0380DE3C620A
:1010EE00BEE0025CDF81633D7C22C09E1D43A1FFFA
:1010FE004618FAA427799BC584DA3866E5BB5907EA
:10110E00DB856739BAE406581947A5FB7826C49AD9
:10111E00653BD987045AB8E6A7F91B45C6987A24C9
:10112E00F8A6441A99C7257B3A6486D85B05E7B9B9
:10113E008CD2306EEDB3510F4E10F2AC2F7193CDA9
:10114E00114FADF3702ECC92D38D6F31B2EC0E5099
:10115E00AFF1134DCE90722C6D33D18F0C52B0EE89
:10116E00326C8ED0530DEFB1F0AE4C1291CF2D7379
:10117E00CA947628ABF517490856B4EA6937D58B69
:10118E005709EBB536688AD495CB2977F4AA481659
:10119E00E9B7550B88D6346A2B7597C94A14F6A849
:1011AE00742AC896154BA9F7B6E80A54D7896B3539
:0711BE00DCEEF4FAFDFEFF78
:0A1B98008B2B8A2C892D8C2E8D2FAB
:101BA200E4F530FFFEC3EF952FE52E6480F8EE6476
:101BB2008098501DAB2BAA2CA92D8F828E831204E4
:101BC200096530FD9010BE93F5300FBF00010E8005
:031BD200D4AF305D
:011BD50022ED
:07000300ED6F9010BE93FFAA
:01000A0022D3
:011DA400221C
:101D1B00EF701E7598D0E589540F4420F58953C890
:101D2B00E1438E10ED9011BD93F58DD28ED2ACC2E6
:031D3B00BCD2AF68
:011D3E002282
:101A8100D2AFD2A9D2BBE589540F4401F589E4F55F
:101A91008E758CDBF58AD28CF565F564F563F5629C
:101AA100FFEF25E025E0248EF8E4F6EF25E025E0C0
:101AB100248FF8E4F6EF25E025E02490F8E4F6EF32
:0D1AC10025E025E02491F8E4F60FBF01D4E4
:011ACE0022F5
:07164000C0D075D010151E8B
:10164700A81EE4F6A81EE6FFC3940140030216DFB6
:10165700EF25E025E02491F8E6FFD394004052A857
:101667001EE625E025E0248FF8E67045EF30E0150B
:10167700A81EE6FF25E025E02491F8E6D394014073
:10168700047D0080067D01A81EE6FF121ACFA81E62
:10169700E6FF25E025E02491F816E66014EF25E043
:1016A70025E02490F8E6FEEF25E025E0248FF8EE0C
:1016B700F6A81EE625E025E0248FF8E6600116A8C7
:1016C7001EE6FF25E025E02491F8E670057D01126E
:0816D7001ACFA81E0602164BF3
:0516DF00051ED0D02221
:03000B00021C13C1
:101C1300C0E0C0F0C083C082C0D075D010758CDC2A
:101C2300E5652401F565E43564F564E43563F5633E
:101C3300E43562F562121640D0D0D082D083D0F062
:031C4300D0E032BC
:101CCE00151EA81EEDF6151EA81EEFF6A81EE6FFA1
:101CDE00C39401500D08E6FEEF25E025E0248EF8B2
:071CEE00EEF6051E051E22A3
:1017EE00151E151EA81EEAF608EBF6151EA81EED10
:1017FE00F6151EA81EEFF6A81EE6FFC39401505262
:10180E00EF25E025E02491F8E67047A81EE6FB25BB
:10181E00E025E0248FF8E67039A81E08E625E004DE
:10182E00FFA81EE6FA25E025E02491F8EFF6A81EA3
:10183E000808E6FE08E6FF7C007D0A12046AEA2527
:10184E00E025E02490F8EFF6EB25E025E0248FF874
:09185E00E4F6E51E2404F51E2247
:101ACF00C0D075D010151EA81EEDF6151EA81EEF5E
:101ADF00F6A81EE6FFC39401501CEF25E025E02475
:101AEF008EF8E66011A81E08E670047F0180027F61
:101AFF0000A81E08EFF6A81EE6700608E624FF925F
:081B0F00B4051E051ED0D02212
:0C000E00C2AFAF65AE64AD63AC62D2AFB0
:01001A0022C3
:041D9D0075FFA52207
:041CA5008E5A8F5B69
:101CA900E4F55CF55DC3E55D955BE55C955A50141B
:101CB9007FE87E031219DD1218D0055DE55D70E538
:041CC900055C80E155
:011CCD0022F4
:0419DD008E5E8F5F2C
:1019E100D3E55F94FAE55E9400500AEFD39400408A
:1019F1003C001F80F6855E60855F61D3E56194FAE6
:101A0100E560940040157FFA7E001219DD74062509
:101A110061F56174FF3560F56080E0D3E55F9400A6
:0D1A2100E55E94004007AF61AE601219DD74
:011A2E002295
:081988008B3A8A3B893C8D3D3E
:10199000121D9DAB3EAA3FA9401204A02400FFE502
:1019A000F03480FE853A41853B42853C43E4FDEDC1
:1019B000C3953D501BEF2DF582E43EF583E493ABD8
:1019C00041AA42A9438D827583001204480D80DF2D
:0D19D000AB3EAA3FA940E4853DF00204CBE8
:061770008B378A3889392D
:10177600788DE664F17070C2AFE5B654F04408F5B2
:10178600B6758F01AB3BAA3CA93D1204A02400FF0D
:10179600E5F03480F53E8F3F853740853841853901
:1017A60042E4FFEFC39D5026AB400542E542AA4105
:1017B6007002054114F91203F0FE053FE53FAA3E0B
:1017C6007002053E14F5828A83EEF00F80D5E4F5AB
:1017D6008F53B6F0CFEDCFAB3BAA3CA93D8FF012AD
:0717E60004CBD2AF121D9DE0
:0117ED0022D9
:101D3F00788DE6B4F119C2AFE5B654F04408F5B6A4
:0F1D4F00758F03908000E4F0F58F53B6F0D2AF9C
:011D5E002262
:10142A007A007B327D037F031217EE121D3FE4F52B
:10143A0035F536F53B753C00753D35FB7A00794448
:10144A007D16121770E4F532E532C3781F9650679D
:10145A00E4F53175F010E531A42469F582E5F0343C
:10146A000FF583E493604C786EE68532F0A4FFAE04
:10147A00F075F010E531A42476F582E5F0340FF525
:10148A0083E493FB740193FA7402932FF9EA3EFA08
:10149A0075F010E531A42469F582E5F0340FF5837F
:1014AA00E493FD753B00753C00753D3512177005D8
:1014BA003180A005328091753312753434753B0042
:1014CA00753C00753D357B007A0079337D02121731
:0514DA0070E4788DF6BE
:0114DF0022EA
:1014E000E4F538F539F53E753F00754038FB7A0074
:1014F00079447D16121988E4F535E535C3781F96D1
:101500005067E4F53475F010E534A42469F582E5FC
:10151000F0340FF583E493604C786EE68535F0A4E3
:10152000FFAEF075F010E534A42476F582E5F034D2
:101530000FF583E493FB740193FA7402932FF9EA95
:101540003EFA75F010E534A42469F582E5F0340F15
:10155000F583E493FD753E00753F00754038121920
:1015600088053480A005358091753E00753F007573
:1015700040387B007A0079367D02121988E537649D
:0F158000347004E536641270047F0180027F002E
:01158F002239
:100F61005343532D393130000418000001414443EB
:100F7100303000000001000004180000014144432A
:100F81003031000000010004041800000141444315
:100F91003032000000010008041800000141444300
:100FA100303300000001000C0418000001414443EB
:100FB10030340000000100100418000001414443D6
:100FC10030350000000100140418000001414443C1
:100FD10030360000000100180418000001414443AC
:100FE100303700000001001C041800000141444397
:100FF1003038000000010020041800000141444382
:10100100303900000001002404180000014144436C
:101011003130000000010028041800000141444360
:10102100313100000001002C04180000014144434B
:101031003132000000010030041800000141444336
:101041003133000000010034041800000141444321
:10105100313400000001003804180000014144430C
:10106100313500000001003C0418000001414443F7
:1010710031360000000100400418000001414443E2
:1010810031370000000100440418000001414443CD
:1010910031380000000100480418000001414443B8
:1010A100313900000001004C000000000000000088
:0D10B10000000000000000000C0A09080B00
:03001E00011F01BE
:021B17008F3409
:101B1900E4F5BA75BCE075E88075D103F5D4F5D75D
:101B290075A4017580FF75A5CF7590FFE4F5357B28
:101B3900527D03AF3512186B7B137D01AF35121837
:0F1B49006BAF351218670535E535C3940440E0DE
:011B5800226A
:101CF500EF14601014601314601624037017ED249C
:101D0500FF929022ED24FF929122ED24FF929222E0
:061D1500ED24FF92932271
:101D5F00EF14600E14600F14601024037011A2842E
:101D6F00800AA2858006A2868002A287E433FF2222
:101BD600EF14600F1460111460132403701275BBA8
:101BE60001800DE4F5BB800875BB03800375BB025D
:101BF600C2EDD2EC30EDFDAFBFEFFEADBEEDD3943E
:0C1C060000EE940840047F0180027F0083
:011C120022AF
:041867007B0F7D0274
:06186B00CEEFCECCEDCC67
:10187100E4FD121CF5E4FFC296C297D2960FBF0495
:10188100F6E4FF7D08C296EC5DD394004003D3805B
:1018910001C39297D296EDC313FD0FBF04E7CFEEBC
:1018A100CF7D01121CF51D121CF5E4FF7D80C2964F
:1018B100EB5DD394004003D38001C39297D296EDA0
:0F18C100C313FD0FBF08E7CFEECF7D01021CF56B
:0B1372008F3A8B3B8A3C893DCEEDCECC
:10137D00E4FD121CF5E4F53EC296E53EB40103D33F
:10138D008001C39297D296053EE53EB404EAE4F59A
:10139D003E7F08C296EE5FD394004003D38001C315
:1013AD009297D296EFC313FF053EE53EB404E47D5C
:1013BD0001AF3A121CF51DAF3A121CF5E4F53EAB28
:1013CD003BAA3CA93D12059B00000000AB3BAA3C8B
:1013DD00A93D1205357801120522120555C296ABAD
:1013ED003BAA3CA93DEBC0E0EAC0E0E9C0E0120534
:1013FD006FAF3A121D5FEB4FFFEAFEE9FDE8FCD03F
:10140D00E0F9D0E0FAD0E0FB120555D296053EE5A5
:0D141D003EC3941840B67D01AF3A021CF5A5
:1011C500AF18121BD6EF602812000EC3EF951CFF57
:1011D500EE951BFEED951AFDEC9519FCE47B1EFAC8
:1011E500F9F8D312051140030212B7AF18121867A8
:1011F50012000E8F1C8E1B8D1A8C197B007A0079BC
:10120500327D04AF18121372E51875F005A4251D7B
:10121500F531AF35AE34AD33AC32E41202C4E4FB84
:10122500FA7980784B1202277B0A7AD7792378409E
:1012350012011E8F398E388D378C367F007E507D9A
:10124500C37C47AB39AA38A937A83612011EE4FB7F
:10125500FAF9783F12002D1215907B007A5079C368
:1012650078471202278F398E388D378C36C2AFE515
:101275003125E025E02400F582E43400F5831205EC
:101285008FD2AFE51D04FFBF0502E4FFEF9010B953
:1012950093C454F0440FFB7D02AF1812186B051868
:1012A500E518B4040DE4F518051DE51DB40503E4C2
:0212B500F51D25
:0112B7002214
:091D8A00151EA81EEFF6051E222D
:051D98008F2B7F0022EB
:101C78008B2B8A2C892D1203F0AB2EAA2FA9301298
:101C88000436AB2BAA2CA92D900001120409AB2E07
:0D1C9800AA2FA9309000011204487F0222FB
:031DA1000211C567
:10002600020337E86480F8E933E83360110460F0CE
:10003600ED33EC337009E8FCE9FDEAFEEBFF220440
:1000460060DED3EB9FEA9EE99DE8C2E78CF0C2F73B
:1000560095F0400CE8CCF8E9CDF9EACEFAEBCFFB07
:1000660012030285D0F05804700320D5B3E804705B
:10007600075002B2D502034192D5EC0460F7E4CCF6
:10008600C0E0C398F8603B94186008400DD0E0FBD0
:10009600020319E4FBFAC9FC8028E830E406E4C947
:1000A600FBE4CAFCE830E305E4C9CACBFCE8540724
:1000B6006010F8C3E913F9EA13FAEB13FBEC13FC2F
:1000C600D8F130F52FC3E49CFCEF9BFFEE9AFEEDD2
:1000D60099FDD0E0FBEF4E4D4C701222DB0302037C
:1000E6003EEC2CFCEF33FFEE33FEED33FDED30E757
:1000F600EB020319EF2BFFEE3AFEED39FDD0E0FBE4
:1001060050130BBB0003020341ED13FDEE13FEEF8C
:0801160013FFEC13FC020319B6
:10011E00EC4D6011E8497017ED33EC3304600DE4DB
:10012E00FCFFFEFD22E933E8330470F802033712B8
:10013E00030258046009E4CC2481500628500902B9
:10014E00034128400302033EC0E0EB4A7044B980ED
:10015E0006D0E0FB02032DEF4E701CBD8008EBFFB6
:10016E00EAFEE9FD80EBE98DF0A4FEE5F002020760
:10017E00E9CDF9EAFEEBFFEF89F0A4FCE5F0CE89BC
:10018E00F0A42EFFE435F0CD89F0A42DFEE435F079
:10019E008067EF4E7005BD80D780C3EF8BF0A4ACA7
:1001AE00F0EE8BF0A42CFCE435F0F8EF8AF0A42CE2
:1001BE00E5F038FCE433CB8DF0A42CFCE5F03BF8F5
:1001CE00EE8AF0A42CFCE5F038F8E433CF89F0A4E5
:1001DE002CFCE5F038CF3400CE89F0A42FFFE5F0EB
:1001EE003EFEE433C98DF0A42EFEE5F039CD8AF043
:1001FE00A42FFFE5F03EFEE43DFD33D0E0FB5007BB
:10020E000BBB000F020341EC2CFCEF33FFEE33FE71
:06021E00ED33FD0203199F
:10022400020341EC5D046005E859047003020337DE
:10023400120302580460F6EC4860F2EC7004FDFE10
:10024400FF22C860DB2481C85009C39860025006AD
:1002540002033E9850CAF582E9294B4A7005AB82E5
:1002640002032D75F0007C1A7880C3EF9BEE9AEDA3
:1002740099400DC3EF9BFFEE9AFEED99FDE842F025
:10028400DC23ACF0D0E0FFD0E0FED0E0FDAB822078
:10029400E7101BEB60BAEC2CFCEF33FFEE33FEED02
:1002A40033FD020319E803F830E705C0F075F000E8
:1002B400EF2FFFEE33FEED33FD40B830E7C280AAE6
:1002C40075F020800E75F010800575F0087D007EB5
:1002D400007F003392D530D503120503EC33401070
:1002E400EF33FFEE33FEED33FDEC33FCD5F0ED22BE
:0E02F400E5F0247EA2D513CC92E7CDCEFF22FA
:101590008F3D8E3C8D3B8C3A74FFFFFEFDFCAB3DD6
:1015A000AA3CA93BA83AC3120511602C7F807E9605
:1015B0007D187C4BAB3DAA3CA93BA83A12034C607A
:1015C0000250157F807E967D187CCBAB3DAA3CA94E
:1015D0003BA83A12034C5009AF3DAE3CAD3BAC3A90
:1015E00022AF3DAE3CAD3BAC3A1203B98F418E40C9
:1015F0008D3F8C3EEC1202C4C8ECC8C9EDC9CAEEDE
:10160000CACBEFCBAF3DAE3CAD3BAC3A120029E4C8
:10161000FBFAF9F812034C601A401874FF2541F5E3
:1016200041E54034FFF540E53F34FFF53FE53E340A
:10163000FFF53EAF41AE40AD3FAC3EEC1202C422DE
:10030200E9D2E7C933E833F892D5EDD2E7CD33EC41
:0703120033FC5002B2D522BA
:10031900EC30E7100FBF000C0EBE00080DBD000445
:100329000BEB6014A2D5EB13FCED92E7FD2274FFF1
:10033900FCFDFEFF22E480F8A2D574FF13FC7D804A
:03034900E480EF5E
:10034C0074F8CC6480CCC86480C8F582046043C364
:10035C00EB9FF5F0EA9E42F0E99D42F0E89C45F0F7
:10036C0060305018E5825FFFE582F42B5582FB501C
:10037C00210ABA001D09B90019088016E5825BFB39
:10038C00E582F42F5582FF50090EBE00050DBD000D
:10039C00010CC3EB9FF5F0EA9E42F0E99D42F0E8B8
:0D03AC009C45F06007CC4820E701B3EC222F
:1003B900EDD2E7CD33EC3392D524814006E4FFFE3C
:1003C900FDFC22FCE4CFCECDCC24E0501174FF809B
:1003D900EDC3CC13CCCD13CDCE13CECF13CF047038
:0703E900F030D5DE02050330
:030000000216E401
:0C16E400787FE4F6D8FD75819102172B89
:1003F000BB010689828A83E0225002E722BBFE020B
:09040000E32289828A83E493223D
:10040900BB010CE58229F582E5833AF583E02250A8
:1004190006E92582F8E622BBFE06E92582F8E222F2
:0D042900E58229F582E5833AF583E493220C
:10043600BB010689828A83F0225002F722BBFE01A5
:02044600F3229F
:10044800F8BB010DE58229F582E5833AF583E8F0EA
:10045800225006E92582C8F622BBFE05E92582C896
:02046800F2227E
:10046A00C2D5EC30E709B2D5E4C39DFDE49CFCEEAD
:10047A0030E715B2D5E4C39FFFE49EFE120607C318
:10048A00E49DFDE49CFC800312060730D507C3E413
:06049A009FFFE49EFE221C
:1004A000BB010A89828A83E0F5F0A3E02250068727
:1004B000F009E71922BBFE07E3F5F009E3192289E9
:0B04C000828A83E493F5F0740193221C
:1004CB00BB010789828A8302065C500B09C5F027A2
:1004DB00F7C5F01937F722BBFE0D09F8E325F0F34A
:1004EB00C5F019E338F322F889828A8374019325C6
:0804FB00F0C5F0F8E49338228B
:0E050300C3E49FFFE49EFEE49DFDE49CFC2209
:10051100EB9FF5F0EA9E42F0E99D42F0E89C45F040
:0105210022B7
:10052200E8600FEFC333FFEE33FEED33FDEC33FC37
:03053200D8F122DB
:10053500BB010789828A8302067E5005E9F8020617
:1005450072BBFE05E9F802068A89828A830206964D
:10055500BB010789828A8302058F5005E9F80206E7
:0A056500DCBBFE05E9F80206E822FF
:10056F00BB010789828A830206B35005E9F80206A8
:10057F00A6BBFE05E9F80206BF89828A830206CC74
:0C058F00ECF0A3EDF0A3EEF0A3EFF022DF
:10059B00BB010789828A8302070D5005E9F8020621
:0A05AB00F4BBFE05E9F802073E224A
:1005B500D083D082F8E4937012740193700DA3A3D5
:1005C50093F8740193F5828883E4737402936860E9
:0605D500EFA3A3A380DFE9
:101A2F008B348A358936E4F53CF53DE53B153BAE05
:101A3F003A7002153A4E6033AB37AA38A939120300
:101A4F00F0FFAB34AA35A936053DE53DAC3C70023D
:101A5F00053C14F5828C83EF120448EF60CD7401BE
:101A6F002539F539E43538F53880C0AB34AA35A9B6
:021A7F0036220D
:1005DB00EF4E6012EF60010EEDBB010B89828A8337
:1005EB00F0A3DFFCDEFA2289F05007F709DFFCA944
:0C05FB00F022BBFEFCF309DFFCA9F0229B
:1016F000021D7FE493A3F8E493A34003F68001F274
:1017000008DFF48029E493A3F85407240CC8C333FA
:10171000C4540F4420C8834004F456800146F6DFC9
:10172000E4800B010204081020408090001BE47E3E
:10173000019360BCA3FF543F30E509541FFEE493BE
:10174000A360010ECF54C025E060A840B8E493A385
:10175000FAE493A3F8E493A3C8C582C8CAC583CAB0
:10176000F0A3C8C582C8CAC583CADFE9DEE780BE68
:0100210000DE
:10060700BC000BBE0029EF8DF084FFADF022E4CCD7
:10061700F875F008EF2FFFEE33FEEC33FCEE9DECA0
:10062700984005FCEE9DFE0FD5F0E9E4CEFD22EDE6
:10063700F8F5F0EE8420D21CFEADF075F008EF2F30
:10064700FFED33FD4007985006D5F0F222C398FD21
:050657000FD5F0EA22BE
:10065C00C5F0F8A3E028F0C5F0F8E5821582700229
:06066C001583E038F022C6
:0C067200E6FC08E6FD08E6FE08E6FF22B4
:0C067E00E0FCA3E0FDA3E0FEA3E0FF22EF
:0C068A00E2FC08E2FD08E2FE08E2FF22AC
:10069600E493FC740193FD740293FE740393FF22AA
:0D06A600E6FB08E6F908E6FA08E6CBF822C4
:0C06B300E0F8A3E0F9A3E0FAA3E0FB22CA
:0D06BF00E2FB08E2F908E2FA08E2CBF822BB
:1006CC00E493F8740193F9740293FA740393FB2284
:0C06DC00ECF608EDF608EEF608EFF6224A
:0C06E800ECF208EDF208EEF208EFF2224E
:1006F400D083D082E493F608740193F608740293CD
:09070400F608740393F674047303
:10070D00A8828583F0D083D0821207241207241289
:10071D000724120724E473E493A3C583C5F0C583AE
:10072D00C8C582C8F0A3C583C5F0C583C8C582C836
:01073D002299
:10073E00D083D082E493F208740193F2087402938A
:09074E00F208740393F2740473C1
:00000001FF
