:03000E0001DA0014
:100C6A00E478DAF675FFDE75FFAD75E104F5E27535
:100C7A00E34075A401F5A5F5A675A72075B16775BA
:100C8A00B20875FF0775FFA543B28075EF08121AFF
:100C9A00BFE4F532F5337D00AF33121B0D7D01AF92
:100CAA0033121C8D121D480533E53370020532C319
:100CBA009401E532940040DEE4F520C20EC209C276
:100CCA0011C20BC20DC210C20FC2B578B8F678B6FF
:100CDA00F618F678BCF6F532F53374BE2533F8E427
:100CEA00F60533E533700205326414453270EBE4DD
:100CFA00F532F53374D22533F8E4F60533E533706B
:100D0A000205326408453270EB7D05E4FF121CD9F6
:100D1A00E478BBF678B3F678B3E6FF75F010A4244E
:100D2A0030F582E5F03412F583E493FE78BB26F6BB
:100D3A00EE600578B30680DFEFD39400402A901264
:100D4A003DE493FB740193FA740293F97455120308
:100D5A00FF1203B964556002D20F74AA1203FF127C
:100D6A0003B964AA6002D20F121637EF6003020EAB
:100D7A005474FFF55FF560F561F562E4F563F564B7
:100D8A00FE7F10FDFB7A0079651205EB7537FF755A
:100D9A003812753928753A00753B107B007A00794C
:100DAA0065121A6DE4F532F533E533C4F8540FC809
:100DBA0068FFE532C454F048FE74302FF58274128D
:100DCA003EF583E493607C74342FF58274123EF509
:100DDA0083E49320E262E4F531E531C378B29650B8
:100DEA0057E533C4F8540FC868FFE532C454F048D5
:100DFA00FE74302FF58274123EF583E493FD7C0075
:100E0A00C004C0057D00743D2FF58274123EF5833F
:100E1A00E493FB740193FA740293F978BBE6853183
:100E2A00F0A4FFE92FF9EA35F0FAD007D006120547
:100E3A00EB121D48053180A10533E53370020532F6
:100E4A00020DB37F01121CB48016D20DE4FF121CEE
:100E5A00B4E5EF30E30AD2030564E5647002056382
:100E6A00E4F532F5337A007B967D03AF3312189599
:100E7A000533E53370020532C39401E5329400402C
:010E8A00E483
:010E8B002244
:051D3E0078BCE6FF2265
:0100210022BC
:030023000214C7FD
:1014C700C0E0C0F0C083C082C0D075D00830991C7E
:1014D700C29978B606E6FF78B866700978B6F6C29C
:1014E700B5D20A800774D22FF8E6F599209803023F
:1014F7001576209A07200E04C298806FC29A78B595
:10150700E60624BEF8A699C29878B5E6FFB401139B
:1015170078BEE6FE700578B5F68054EE54072402CF
:1015270078BDF6EFB4020E78BDE6B4090878BFE6D9
:10153700240379BDF7D20878B5E6FFB41404760022
:10154700802DEFC378BD9640267B007A0079BE7860
:10155700B5E624FFFDE434FFFC121B9478B5E624BE
:10156700BDF8E66F6002800312068278B57600D078
:0A157700D0D082D083D0F0D0E03253
:10196D0078BCE6FF18E68FF0A47C002525FFEC354A
:10197D00F0FE78BFE675F010A4243DF582E5F03455
:10198D0012F583E493FB740193FA740293F98F8239
:08199D008E831203D2FF7D23AB
:1019A5008F2B8D2CE52C6010F8E6FFE52BFD7C00D8
:1019B500120003A82CC6EFC6852B993099FDC29954
:0119C50022FF
:101C0500C9EFC9EDC39B402378B2E6FFEB2FFFE494
:101C150033FEEDC39FEE6480F8748098500DD20EAC
:101C2500C3ED9B78BCF678B7E9F622C20EE478B727
:021C3500F62295
:101B5500C9EFC9BAFF0FBBFF0CED6B7002EC6A70E1
:101B650027D20E801BC3ED9BEC9A401C78B2E62B66
:101B7500FFE43AFEC3ED9FEC9E500DD20EC3ED9BE4
:0F1B850078BCF678B7E9F622C20EE478B7F622FC
:1006820078BEE6FF54F8F524EF1205C506C8090640
:10069200D30A06E21006E91106F812070B19071F22
:1006A2001A074520074A2807B429086B34088B37F4
:1006B20008BF3908CE4108D74908E0500907610848
:1006C200E4980000093878BFE6FDE560FB7F018011
:1006D2001F78BFE6FC08E6FDAB60AA5F7F018023BE
:1006E200E4FBFD7F03800978BFE6FDE562FB7F0244
:1006F200121C0502093878BFE6FC08E6FDAB62AAC7
:10070200617F02121B5502093878BFE6FDE560FBE6
:100712007F01121C05200E03020938801678BFE6FD
:10072200FC08E6FDAB60AA5F7F01121B55200E0399
:1007320002093878D2767878B87601D2B575997888
:10074200020938D20B020938C2ACE4F523D2B57DD6
:10075200237F7F1219A57D237F181219A57D237F80
:10076200171219A578B3E6FF7D231219A57D23AFD1
:100772005F1219A57D23AF601219A57D23AF611207
:1007820019A57D23AF621219A57D23AF631219A5A6
:100792007D23AF641219A5E4F52574652525F8E6D5
:1007A200FF7D231219A50525E525C3941040EB0210
:1007B200085D78BFE6FFC378B39640030209387537
:1007C200F010EFA42430F582E5F03412AF82F5295F
:1007D2008F2AC2ACE4F523D2B57D237F7F1219A5FF
:1007E2007D237F0D1219A5852A82852983E493FF33
:1007F2007D231219A5852A82852983740193FF7DA1
:10080200231219A5852A82852983740293FF7D23E9
:100812001219A5852A82852983740393FF7D2312E9
:1008220019A5852A82852983740493FF7D231219D1
:10083200A5E4F525E52A2405F582E43529F583E5C5
:10084200822525F582E43583F583E493FF7D231227
:1008520019A50525E525C3940840D9E4FDAF231267
:1008620019A5C2B5D2AC0209387A007B327D017873
:10087200BCE6FF12189578BFE6F55F08E6F560085A
:10088200E6F56108E6F562802E7A007B327D01781A
:10089200BCE6FF121895E4F525E525C378BF96500E
:1008A2001674C02525F8E6FF74652525F8C6EFC63F
:1008B2000525E525B410E2D209D20C80797A007BB5
:1008C200327D0178BCE6FF121895806A78BFE62473
:1008D200FF9202806178BFE624FF92018058D21114
:1008E20080547A007B327D0178BCE6FF121895D2E3
:1008F2000978D2767878B5E624BDF8E678D3F6782A
:10090200B87602802A7A007B327D017F0012189528
:1009120078D2767978BFE678D3F67B007A0079D2FE
:100922007D027C00121B9478D4EFF678B87603D25D
:10093200B578D2E6F599E52464A06003020ACE7880
:10094200BEE664A16003020A0A08E6FFC378B39612
:100952004003020ACE75F010EFA42430F582E5F0D0
:100962003412F583E493F52775F010EFA42434F5DF
:1009720082E5F03412F583E49330E235121D438FA1
:1009820027E527247878D2F67B007A0079D2E5270A
:100992002401FDE433FC121B9474D32527F8EFF6EF
:1009A200E527240278B8F6D2B578D2E6F599020A9C
:1009B200CE78BFE6FF121D43C2ACE4F523D2B5E503
:1009C20027D3940640247D237F7F1219A57D23AF70
:1009D200271219A5E4F525E525C395275007121915
:1009E2006D052580F20527020AC3E5272478FF7DDD
:1009F200231219A5E4F525E525C3952750071219F9
:100A02006D052580F2020AC378BEE664A260030285
:100A12000ACE78B3E6FF78BFE6FEC39F4003020A20
:100A2200CE08E6FDC39F4003020ACEEEC39D4003FB
:100A3200020ACE18E6F525E4F527E525D378C09617
:100A4200501FAF25121D4375F010E525A42430F583
:100A520082E5F03412F583E4932527F527052580F6
:100A6200D9C2ACE4F523D2B57D237F7F1219A57DCF
:100A720023AF271219A578BFE6F525E525D378C05F
:100A820096503EE4F52675F010E525A42430F58253
:100A9200E5F03412F583E493FFE526C39F501E78F8
:100AA200BCE6FF18E68FF0A47C002526FFEC35F0AB
:100AB200FE75F010E525121985052680C9052580E9
:100AC200BAE4FDAF231219A5C2B5D2ACE52464582D
:100AD200704DFA7B327D0178BCE6FF121895752EB7
:100AE20000752F007530D37B007A0079BF121C3756
:100AF2008F27E527247878D2F67B007A0079D2E531
:100B0200272401FDE433FC121B9474D32527F8EF4C
:100B1200F6E527240278B8F6D2B578D2E6F599E55B
:100B22002464806009E52464886003020C697A0009
:100B32007B327D0178BCE6FF12189578BEE6540739
:100B4200F527B4070A75260108E6F527088005E4AB
:100B5200F52678BFE6F5281527E528C378B3964031
:100B620003020C4175F010E528A42430F582E5F06B
:100B72003412F583E493FFE527D39F40028F27E4E5
:100B8200F525E525C395274003020C3475F010E5E1
:100B920028A42434F582E5F03412F583E49330E29C
:100BA20003020C2F75F010E528A42431F582E5F03C
:100BB2003412F583E4936438701BE527D394044020
:100BC20008E526252524C0802A78B5E6C39525FFA9
:100BD20074BC2F801E75F010E528A42430F582E540
:100BE200F03412F583E493FFC378B5E69F252525FB
:100BF2002624BDF8E6FD78BCE6FF18E68FF0A4FFD8
:100C0200E5257A002FFFEA35F0FE75F010E528A4FD
:100C1200243DF582E5F03412F583E493FB740193ED
:100C2200FA740293F98F828E83ED12041105250264
:100C32000B84AF28121D35E5246488702A800FE5E5
:100C420028B4FF2378C0E6F520E524B4881978D2C9
:100C5200767878B5E624BDF8E678D3F678B87602E9
:070C6200D2B578D2E6F59946
:010C69002268
:10700000C2AF75FFDE75FFADE4F537F536D2B5C218
:10701000997599783099FDC299E4F5993099FDC236
:10702000B53098FD859936C298E4F538E53624FDEB
:10703000605214700302710614700302713E24033F
:1070400060030271413098FD859937C298E5372574
:10705000E0FEC3E49400EE94705023E5B654F0448F
:1070600008F5B6758F03E53725E0F53A753B0085E1
:107070003B82F583E4F053B6F0F58F027141753829
:10708000FF027141D2B43098FD859937C298E5B6B8
:1070900054F04408F5B6758F01E53725E0F53A75EB
:1070A0003B00E4FFE4F5393098FD053BE53BAC3AA5
:1070B0007002053A14F5828C83E599F0C29805397F
:1070C000E539B43CE2D2B5C2997599783099FDC2E0
:1070D00099E4F5993099FDC2B50FBF08C7E4F539B9
:1070E0003098FD053BE53BAE3A7002053A14F58257
:1070F0008E83E599F0C2980539E539B420E253B69C
:10710000F0E4F58F803BC2B43098FD859937C29882
:10711000E5377F0025E0FEE4F538FDFC0FEFCAEE11
:10712000CA70010E14F5828A83E4932538F5380D70
:10713000BD00010CED7003EC640270E0800375EF9C
:1071400010D2B5C2997599783099FDC29985389950
:107150003099FDC2B5E53664066003027021D2AFF6
:01716000220C
:10190E00121D48120021120022200D0B7A007B328C
:10191E007D017F00121895300F0B7A007B1E7D0122
:10192E007F00121895300913301010C209E4F563C8
:10193E00F56478DA76F1121581D20D301108301077
:10194E0005C211127000121D1DE47BF47A01F9F824
:0F195E00C31205A85002D210300B0375EF1022F0
:0B1D2A00120C6A12190E12001B80F848
:1013C000005EBCE2613FDD83C29C7E20A3FD1F4125
:1013D0009DC3217FFCA2401E5F01E3BD3E6082DC15
:1013E000237D9FC1421CFEA0E1BF5D0380DE3C6205
:1013F000BEE0025CDF81633D7C22C09E1D43A1FFF5
:101400004618FAA427799BC584DA3866E5BB5907E4
:10141000DB856739BAE406581947A5FB7826C49AD4
:10142000653BD987045AB8E6A7F91B45C6987A24C4
:10143000F8A6441A99C7257B3A6486D85B05E7B9B4
:101440008CD2306EEDB3510F4E10F2AC2F7193CDA4
:10145000114FADF3702ECC92D38D6F31B2EC0E5094
:10146000AFF1134DCE90722C6D33D18F0C52B0EE84
:10147000326C8ED0530DEFB1F0AE4C1291CF2D7374
:10148000CA947628ABF517490856B4EA6937D58B64
:101490005709EBB536688AD495CB2977F4AA481654
:1014A000E9B7550B88D6346A2B7597C94A14F6A844
:1014B000742AC896154BA9F7B6E80A54D7896B3534
:0714C000DCEEF4FAFDFEFF73
:0A1B94008B2B8A2C892D8C2E8D2FAF
:101B9E00E4F530FFFEC3EF952FE52E6480F8EE647A
:101BAE008098501DAB2BAA2CA92D8F828E831203E9
:101BBE00D26530FD9013C093F5300FBF00010E803B
:031BCE00D4AF3061
:011BD10022F1
:07000300ED6F9013C093FFA5
:01000A0022D3
:0100220022BB
:101CD900EF701E7598D0E589540F4420F58953C8D3
:101CE900E1438E10ED9014BF93F58DD28ED2ACC224
:031CF900BCD2AFAB
:011CFC0022C5
:101ABF00D2AFD2A9D2BBE589540F4401F589E4F521
:101ACF008E758CDBF58AD28CF578F577F576F57512
:101ADF00FFEF25E025E024DBF8E4F6EF25E025E035
:101AEF0024DCF8E4F6EF25E025E024DDF8E4F6EF5A
:0D1AFF0025E025E024DEF8E4F60FBF01D459
:011B0C0022B6
:0716E700C0D075D010157989
:1016EE00A879E4F6A879E6FFC394014003021786B1
:1016FE00EF25E025E024DEF8E6FFD394004052A863
:10170E0079E625E025E024DCF8E67045EF30E015BB
:10171E00A879E6FF25E025E024DEF8E6D394014023
:10172E00047D0080067D01A879E6FF121B0DA879C5
:10173E00E6FF25E025E024DEF816E66014EF25E04E
:10174E0025E024DDF8E6FEEF25E025E024DCF8EECA
:10175E00F6A879E625E025E024DCF8E6600116A877
:10176E0079E6FF25E025E024DEF8E670057D01121E
:08177E001B0DA879060216F20A
:051786000579D0D0221E
:03000B00021BD203
:101BD200C0E0C0F0C083C082C0D075D010758CDC6C
:101BE200E5782401F578E43577F577E43576F5760E
:101BF200E43575F5751216E7D0D0D082D083D0F0D7
:031C0200D0E032FD
:101C8D001579A879EDF61579A879EFF6A879E6FF1B
:101C9D00C39401500D08E6FEEF25E025E024DBF8A6
:071CAD00EEF605790579222E
:1018950015791579A879EAF608EBF61579A879EDA1
:1018A500F61579A879EFF6A879E6FFC394015052A9
:1018B500EF25E025E024DEF8E67047A879E6FB256C
:1018C500E025E024DCF8E67039A87908E625E0048F
:1018D500FFA879E6FA25E025E024DEF8EFF6A879F9
:1018E5000808E6FE08E6FF7C007D0A120433EA25B7
:1018F500E025E024DDF8EFF6EB25E025E024DCF833
:09190500E4F6E5792404F57922E9
:101B0D00C0D075D0101579A879EDF61579A879EFB3
:101B1D00F6A879E6FFC39401501CEF25E025E024DB
:101B2D00DBF8E66011A87908E670047F0180027F7A
:101B3D0000A87908EFF6A879E6700608E624FF926A
:081B4D00B405790579D0D0221E
:0C1D1D00C2AFAF78AE77AD76AC75D2AF38
:011D29002297
:041D480075FFA5225C
:041C64008E188F192E
:101C6800E4F51AF51BC3E51B9519E51A95185014E8
:101C78007FE87E03121A1B12190E051BE51B70E57F
:041C8800051A80E1D8
:011C8C002235
:041A1B008E1C8F1D71
:101A1F00D3E51D94FAE51C9400500AEFD3940040CF
:101A2F003C001F80F6851C1E851D1FD3E51F94FAF1
:101A3F00E51E940040157FFA7E00121A1B740625CE
:101A4F001FF51F74FF351EF51E80E0D3E51D9400B2
:0D1A5F00E51C94004007AF1FAE1E121A1BBD
:011A6C002257
:0819C6008B3A8A3B893C8D3D00
:1019CE00121D48AB3EAA3FA9401204692400FFE550
:1019DE00F03480FE853A41853B42853C43E4FDED83
:1019EE00C3953D501BEF2DF582E43EF583E493AB9A
:1019FE0041AA42A9438D827583001204110D80DF26
:0D1A0E00AB3EAA3FA940E4853DF0020494E0
:061817008B3C8A3D893E76
:10181D0078DAE664F17070C2AFE5B654F04408F5BD
:10182D00B6758F01AB40AA41A9421204692400FF8D
:10183D00E5F03480F5438F44853C45853D46853E36
:10184D0047E4FFEFC39D5026AB450547E547AA4644
:10185D007002054614F91203B9FE0544E544AA4386
:10186D007002054314F5828A83EEF00F80D5E4F5FE
:10187D008F53B6F0CFEDCFAB40AA41A9428FF012F6
:07188D000494D2AF121D48C4
:011894002231
:101CFD0078DAE6B4F119C2AFE5B654F04408F5B69A
:0F1D0D00758F03908000E4F0F58F53B6F0D2AFDE
:011D1C0022A4
:101581007A007B327D037F03121895121CFDE4F56E
:101591003AF53BF54075410075423AFB7A00795FB7
:1015A1007D16121817E4F537E537C378B296506700
:1015B100E4F53675F010E536A42430F582E5F03413
:1015C10012F583E493604C78BBE68537F0A4FFAE57
:1015D100F075F010E536A4243DF582E5F03412F5FE
:1015E10083E493FB740193FA7402932FF9EA3EFAB0
:1015F10075F010E536A42430F582E5F03412F58358
:10160100E493FD75400075410075423A12181705C3
:101611003680A005378091753812753934754000D0
:1016210075410075423A7B007A0079387D021218C3
:0516310017E478DAF671
:011636002291
:10163700E4F538F539F53E753F00754038FB7A001B
:10164700795F7D161219C6E4F535E535C378B2968C
:101657005067E4F53475F010E534A42430F582E5DD
:10166700F03412F583E493604C78BBE68535F0A43B
:10167700FFAEF075F010E534A4243DF582E5F034B3
:1016870012F583E493FB740193FA7402932FF9EA3A
:101697003EFA75F010E534A42430F582E5F03412F3
:1016A700F583E493FD753E00753F007540381219C8
:1016B700C6053480A005358091753E00753F0075DD
:1016C70040387B007A0079367D021219C6E5376407
:0F16D700347004E536641270047F0180027F00D6
:0116E60022E1
:101228005343532D37303000015A000000506F7778
:10123800657230000000007A015A000000506F7794
:10124800657231000000007B015A000000506F7782
:10125800657232000000007C015A000000506F7770
:10126800657233000000007D015A000000506F775E
:10127800657234000000007E015A000000506F774C
:10128800657235000000007F015A000000506F773A
:101298006572360000000080015A000000506F7728
:1012A8006572370000000081040800000154656D74
:1012B8007030000000000082040800000154656DD1
:1012C8007031000000000086040800000154656DBC
:1012D800703200000000008A040800000154656DA7
:1012E800703300000000008E040800000154656D92
:1012F8007034000000000092040800000154656D7D
:101308007035000000000096040800000154656D67
:10131800703600000000009A040800000154656D52
:10132800703700000000009E02080000024F66733C
:1013380030000000000000A202080000024F66739F
:1013480031000000000000A402080000024F66738C
:1013580032000000000000A602080000024F667379
:1013680033000000000000A802080000024F667366
:1013780034000000000000AA02080000024F667353
:1013880035000000000000AC02080000024F667340
:1013980036000000000000AE02080000024F66732D
:1013A80037000000000000B000000000000000004E
:0813B80000000000000000002D
:0900110001B201014800014D009B
:101CB400E4F5BA75BCE075E88075D10375D4807518
:101CC400D78075A5FFEF600CE4FF747A2FF8E4F673
:041CD4000FBF08F640
:011CD80022E9
:091D35001579A879EFF605792271
:051D43008F2B7F002240
:101C37008B2B8A2C892D1203B9AB2EAA2FA9301210
:101C470003FFAB2BAA2CA92D9000011203D2AB2EB8
:0D1C5700AA2FA9309000011204117F022273
:10106A00E54D7017E548045407F548540FF5BB756C
:10107A00BCE0E4F54CF54BF54AF549E4F531C2AF6D
:10108A00C2EDD2EC30EDFDD2AFAFBFEFFEADBEED9B
:10109A00FFE4FCFDE54C2FF54CE54B3EF54BED35F9
:1010AA004AF54AEC3549F54912190E0531E531C3BD
:1010BA00941040CA054DE54D6003021227AF4CAEAD
:1010CA004BAD4AAC49FB7A01F9F81205088F4C8EF0
:1010DA004B8D4A8C49E4120331E4FBFA7980784754
:1010EA00120227E4FBFA7920784012011EE4FBFA87
:1010FA00792078411202278F358E348D338C327BDA
:10110A006F7A127983783A1202278F358E348D33AB
:10111A008C327F757E787D0C7C35AB35AA34A93349
:10112A00A83212011EAB35AA34A933A83212011E05
:10113A00AB35AA34A933A83212011EECC0E0EDC0C7
:10114A00E0EEC0E0EFC0E07FFA7EED7D6B7C3AAB6B
:10115A0035AA34A933A83212011EAB35AA34A933F1
:10116A00A83212011ED0E0FBD0E0FAD0E0F9D0E0BC
:10117A00F812002DECC0E0EDC0E0EEC0E0EFC0E0F8
:10118A007F177ED97D167C40AB35AA34A933A832A5
:10119A0012011ED0E0FBD0E0FAD0E0F9D0E0F8125C
:1011AA00002D7BD37A4D79E2784112002D8F358E4E
:1011BA00348D338C327B337A9379887843120029C1
:1011CA008F358E348D338C32AB35AA34A933A8329D
:1011DA00E8C0E0E9C0E0EAC0E0EBC0E0E54825E0AD
:1011EA0024A2F8E6FC08E6FDEC120336E4FBFA79E1
:1011FA00C87842120227D0E0FBD0E0FAD0E0F9D05A
:10120A00E0F812002D8F358E348D338C32C2AFE563
:0D121A004825E025E02482F81205B9D2AF86
:0112270022A4
:100E8C00121D1DAB55AA54A953A852C31205A87024
:100E9C0003021069121D1D8F558E548D538C52E414
:100EAC00F531747A2531F9C3E7648094E440030288
:100EBC000FE5121D1DC3EF9551F539EE9550F53820
:100ECC00ED954FF537EC954EF536747A2531F8E6FD
:100EDC00FF3395E0FEFDFCAB39AA38A937A836C321
:100EEC001205A85003020FE5747A2531F8E6FF339A
:100EFC0095E0FEFDFCECC0E0C9EDC9CAEECACBEF33
:100F0C00CB747A2531F8E6FF3395E0FEFDFCD0E09A
:100F1C00F8C3EF9BFFEE9AFEED99FDEC98FCE41202
:100F2C0003318F358E348D338C32E4FFFEFDFCABF8
:100F3C0035AA34A933A8321202C46028747A253138
:100F4C00F8E6FF3395E0FEFDFCEF2401FFE43EFEE6
:100F5C00E43DFDE43CFCAB39AA38A937A836C312F2
:100F6C0005A84010AF317401C8EFC8088002C33324
:100F7C00D8FC805AE556D39400405874572531F864
:100F8C00E6FCE412033BECC0E0EDC0E0EEC0E0EFA9
:100F9C00C0E0AC56E412033BC8ECC8C9EDC9CAEEBC
:100FAC00CACBEFCBD0E0FFD0E0FED0E0FDD0E0FC30
:100FBC00120227AB35AA34A933A8321202C450133B
:100FCC00AF317401C8EFC8088002C333D8FCF452A7
:100FDC0090800674572531F8060531E531C3940825
:100FEC005003020EAE121D1DC3EF9551FFEE95502E
:100FFC00FEED954FFDEC954EFCE47B64FAF9F8D3CD
:10100C001205A85058121D1D8F518E508D4F8C4EAD
:10101C008F558E548D538C52E4F531747A2531F9F9
:10102C00D3E7648094804010AF317401C8EFC808D6
:10103C008002C333D8FC42900531E531B408DCE5BD
:10104C00560475F00A8485F056E5567010F5317427
:0D105C00572531F8E4F60531E531B408F20E
:011069002264
:06001B0012106A020E8CB7
:100026000203A4E86480F8E933E83360110460F061
:10003600ED33EC337009E8FCE9FDEAFEEBFF220440
:1000460060DED3EB9FEA9EE99DE8C2E78CF0C2F73B
:1000560095F0400CE8CCF8E9CDF9EACEFAEBCFFB07
:1000660012036F85D0F05804700320D5B3E80470EE
:10007600075002B2D50203AE92D5EC0460F7E4CC89
:10008600C0E0C398F8603B94186008400DD0E0FBD0
:10009600020386E4FBFAC9FC8028E830E406E4C9DA
:1000A600FBE4CAFCE830E305E4C9CACBFCE8540724
:1000B6006010F8C3E913F9EA13FAEB13FBEC13FC2F
:1000C600D8F130F52FC3E49CFCEF9BFFEE9AFEEDD2
:1000D60099FDD0E0FBEF4E4D4C701222DB0302037C
:1000E600ABEC2CFCEF33FFEE33FEED33FDED30E7EA
:1000F600EB020386EF2BFFEE3AFEED39FDD0E0FB77
:1001060050130BBB00030203AEED13FDEE13FEEF1F
:0801160013FFEC13FC02038649
:10011E00EC4D6011E8497017ED33EC3304600DE4DB
:10012E00FCFFFEFD22E933E8330470F80203A4124B
:10013E00036F58046009E4CC24815006285009024C
:10014E0003AE2840030203ABC0E0EB4A7044B98013
:10015E0006D0E0FB02039AEF4E701CBD8008EBFF49
:10016E00EAFEE9FD80EBE98DF0A4FEE5F002020760
:10017E00E9CDF9EAFEEBFFEF89F0A4FCE5F0CE89BC
:10018E00F0A42EFFE435F0CD89F0A42DFEE435F079
:10019E008067EF4E7005BD80D780C3EF8BF0A4ACA7
:1001AE00F0EE8BF0A42CFCE435F0F8EF8AF0A42CE2
:1001BE00E5F038FCE433CB8DF0A42CFCE5F03BF8F5
:1001CE00EE8AF0A42CFCE5F038F8E433CF89F0A4E5
:1001DE002CFCE5F038CF3400CE89F0A42FFFE5F0EB
:1001EE003EFEE433C98DF0A42EFEE5F039CD8AF043
:1001FE00A42FFFE5F03EFEE43DFD33D0E0FB5007BB
:10020E000BBB000F0203AEEC2CFCEF33FFEE33FE04
:06021E00ED33FD02038632
:100224000203AEEC5D046005E8590470030203A404
:1002340012036F580460F6EC4860F2EC7004FDFEA3
:10024400FF22C860DB2481C85009C39860025006AD
:100254000203AB9850CAF582E9294B4A7005AB8278
:1002640002039A75F0007C1A7880C3EF9BEE9AED36
:1002740099400DC3EF9BFFEE9AFEED99FDE842F025
:10028400DC23ACF0D0E0FFD0E0FED0E0FDAB822078
:10029400E7101BEB60BAEC2CFCEF33FFEE33FEED02
:1002A40033FD020386E803F830E705C0F075F0007B
:1002B400EF2FFFEE33FEED33FD40B830E7C280AAE6
:1002C40074F8CC6480CCC86480C8F582046043C3ED
:1002D400EB9FF5F0EA9E42F0E99D42F0E89C45F080
:1002E40060305018E5825FFFE582F42B5582FB50A5
:1002F400210ABA001D09B90019088016E5825BFBC2
:10030400E582F42F5582FF50090EBE00050DBD0095
:10031400010CC3EB9FF5F0EA9E42F0E99D42F0E840
:0D0324009C45F06007CC4820E701B3EC22B7
:1003310075F020800E75F010800575F0087D007E47
:10034100007F003392D530D50312059AEC3340106B
:10035100EF33FFEE33FEED33FDEC33FCD5F0ED2250
:0E036100E5F0247EA2D513CC92E7CDCEFF228C
:10036F00E9D2E7C933E833F892D5EDD2E7CD33ECD4
:07037F0033FC5002B2D5224D
:10038600EC30E7100FBF000C0EBE00080DBD0004D8
:100396000BEB6014A2D5EB13FCED92E7FD2274FF84
:1003A600FCFDFEFF22E480F8A2D574FF13FC7D80DD
:0303B600E480EFF1
:0300000002178B59
:0C178B00787FE4F6D8FD7581DE0217D2ED
:1003B900BB010689828A83E0225002E722BBFE0242
:0903C900E32289828A83E4932275
:1003D200BB010CE58229F582E5833AF583E02250E0
:1003E20006E92582F8E622BBFE06E92582F8E2222A
:0D03F200E58229F582E5833AF583E4932244
:1003FF00BB010689828A83F0225002F722BBFE01DD
:02040F00F322D6
:10041100F8BB010DE58229F582E5833AF583E8F021
:10042100225006E92582C8F622BBFE05E92582C8CD
:02043100F222B5
:10043300C2D5EC30E709B2D5E4C39DFDE49CFCEEE4
:1004430030E715B2D5E4C39FFFE49EFE120617C33F
:10045300E49DFDE49CFC800312061730D507C3E43A
:060463009FFFE49EFE2253
:10046900BB010A89828A83E0F5F0A3E0225006875E
:10047900F009E71922BBFE07E3F5F009E319228920
:0B048900828A83E493F5F07401932253
:10049400BB010789828A8302066C500B09C5F027C9
:1004A400F7C5F01937F722BBFE0D09F8E325F0F381
:1004B400C5F019E338F322F889828A8374019325FD
:0804C400F0C5F0F8E4933822C2
:1004CC0075F008758200EF2FFFEE33FECD33CDCCE7
:1004DC0033CCC58233C5829BED9AEC99E58298406A
:1004EC000CF582EE9BFEED9AFDEC99FC0FD5F0D647
:1004FC00E4CEFBE4CDFAE4CCF9A88222B800C1B971
:10050C000059BA002DEC8BF084CFCECDFCE5F0CBAE
:10051C00F97818EF2FFFEE33FEED33FDEC33FCEBE7
:10052C0033FB10D703994004EB99FB0FD8E5E4F9A2
:10053C00FA227818EF2FFFEE33FEED33FDEC33FC8F
:10054C00C933C910D7059BE99A4007EC9BFCE99A83
:10055C00F90FD8E0E4C9FAE4CCFB2275F010EF2FC8
:10056C00FFEE33FEED33FDCC33CCC833C810D707C8
:10057C009BEC9AE899400AED9BFDEC9AFCE899F803
:0E058C000FD5F0DAE4CDFBE4CCFAE4C8F92296
:0E059A00C3E49FFFE49EFEE49DFDE49CFC2272
:1005A800EB9FF5F0EA9E42F0E99D42F0E89C45F0A9
:0105B8002220
:0C05B900ECF608EDF608EEF608EFF6226E
:1005C500D083D082F8E4937012740193700DA3A3C5
:1005D50093F8740193F5828883E4737402936860D9
:0605E500EFA3A3A380DFD9
:101A6D008B348A358936E4F53CF53DE53B153BAEC7
:101A7D003A7002153A4E6033AB37AA38A9391203C2
:101A8D00B9FFAB34AA35A936053DE53DAC3C700236
:101A9D00053C14F5828C83EF120411EF60CD7401B7
:101AAD002539F539E43538F53880C0AB34AA35A978
:021ABD003622CF
:1005EB00EF4E6012EF60010EEDBB010B89828A8327
:1005FB00F0A3DFFCDEFA2289F05007F709DFFCA934
:0C060B00F022BBFEFCF309DFFCA9F0228A
:10179700021D2AE493A3F8E493A34003F68001F221
:1017A70008DFF48029E493A3F85407240CC8C33353
:1017B700C4540F4420C8834004F456800146F6DF22
:1017C700E4800B010204081020408090000EE47EA4
:1017D700019360BCA3FF543F30E509541FFEE49317
:1017E700A360010ECF54C025E060A840B8E493A3DE
:1017F700FAE493A3F8E493A3C8C582C8CAC583CA09
:10180700F0A3C8C582C8CAC583CADFE9DEE780BEC0
:01001A0000E5
:10061700BC000BBE0029EF8DF084FFADF022E4CCC7
:10062700F875F008EF2FFFEE33FEEC33FCEE9DEC90
:10063700984005FCEE9DFE0FD5F0E9E4CEFD22EDD6
:10064700F8F5F0EE8420D21CFEADF075F008EF2F20
:10065700FFED33FD4007985006D5F0F222C398FD11
:050667000FD5F0EA22AE
:10066C00C5F0F8A3E028F0C5F0F8E5821582700219
:06067C001583E038F022B6
:00000001FF
