:031E780001D7008F
:100E2900E478D7F675FFDE75FFAD75E104F5E27577
:100E3900E34075A401F5A5F5A675A72075B16775F9
:100E4900B20875FF0775FFA543B28075EF08121C3C
:100E590012E4F532F5337D00AF33121C607D01AF2A
:100E690033121DE0121E8C0533E53370020532C3BF
:100E79009401E532940040DEE4F520C20EC209C2B5
:100E890011C20BC20DC210C20FC2B578B5F678B344
:100E9900F618F678B9F6F532F53374BB2533F8E46C
:100EA900F60533E533700205326414453270EBE41C
:100EB900F532F53374CF2533F8E4F60533E53370AD
:100EC9000205326408453270EB7D05E4FF121E0706
:100ED900E478B8F678B0F678B0E6FF75F010A42497
:100EE900D9F582E5F0340BF583E493FE78B826F65C
:100EF900EE600578B00680DFEFD39400402A900BAE
:100F0900E6E493FB740193FA740293F97455120998
:100F1900B112096B64556002D20F74AA1209B11299
:100F2900096B64AA6002D20F12172CEF600302103A
:100F39001374FFF554F555F556F557E4F558F55979
:100F4900FE7F10FDFB7A00795A120B167537FF7573
:100F5900380B7539D1753A00753B107B007A0079E9
:100F69005A121BC0E4F532F533E533C4F8540FC8FF
:100F790068FFE532C454F048FE74D92FF582740B2A
:100F89003EF583E493607C74DD2FF582740B3EF5A6
:100F990083E49320E262E4F531E531C378AF9650FA
:100FA90057E533C4F8540FC868FFE532C454F04814
:100FB900FE74D92FF582740B3EF583E493FD7C0012
:100FC900C004C0057D0074E62FF582740B3EF583DD
:100FD900E493FB740193FA740293F978B8E68531C6
:100FE900F0A4FFE92FF9EA35F0FAD007D006120B81
:100FF90016121E8C053180A10533E53370020532C6
:10100900020F727F01121A628016D20DE4FF121AC2
:1010190062E5EF30E30AD2030559E5597002055834
:10102900E4F532F5337A007B967D03AF3312198AE2
:101039000533E53370020532C39401E5329400406B
:01104900E4C2
:01104A002283
:05001B0078B9E6FF22A8
:0100200022BD
:030023000215BC07
:1015BC00C0E0C0F0C083C082C0D075D00830991C88
:1015CC00C29978B306E6FF78B566700978B3F6C2AF
:1015DC00B5D20A800774CF2FF8E6F599209803024C
:1015EC00166B209A07200E04C298806FC29A78B2AC
:1015FC00E60624BBF8A699C29878B2E6FFB40113AC
:10160C0078BBE6FE700578B2F68054EE54072402DF
:10161C0078BAF6EFB4020E78BAE6B4090878BCE6EC
:10162C00240379BAF7D20878B2E6FFB41404760032
:10163C00802DEFC378BA9640267B007A0079BB7870
:10164C00B2E624FFFDE434FFFC121CE778B2E6247A
:10165C00BAF8E66F6002800312002678B27600D0EA
:0A166C00D0D082D083D0F0D0E0325D
:101AC00078B9E6FF18E68FF0A47C002525FFEC35F9
:101AD000F0FE78BCE675F010A424E6F582E5F0345B
:101AE0000BF583E493FB740193FA740293F98F82EC
:081AF0008E83120984FF7D239F
:101AF8008F2B8D2CE52C6010F8E6FFE52BFD7C0084
:101B0800120003A82CC6EFC6852B993099FDC299FF
:011B180022AA
:101D5800C9EFC9EDC39B402378AFE6FFEB2FFFE443
:101D680033FEEDC39FEE6480F8748098500DD20E58
:101D7800C3ED9B78B9F678B4E9F622C20EE478B4DC
:021D8800F62241
:101CA800C9EFC9BAFF0FBBFF0CED6B7002EC6A708D
:101CB80027D20E801BC3ED9BEC9A401C78AFE62B15
:101CC800FFE43AFEC3ED9FEC9E500DD20EC3ED9B90
:0F1CD80078B9F678B4E9F622C20EE478B4F622B1
:1000260078BBE6FF54F8F524EF120AF0006C0900DD
:10003600770A008610008D11009C1200AF1900C3CC
:100046001A00E92000EE28015829020F34022F3742
:10005600026339027241027B4902845002AB61029B
:100066008898000002DC78BCE6FDE555FB7F018040
:100076001F78BCE6FC08E6FDAB55AA547F01802339
:10008600E4FBFD7F03800978BCE6FDE557FB7F02B4
:10009600121D580202DC78BCE6FC08E6FDAB57AA46
:1000A600567F02121CA80202DC78BCE6FDE555FB71
:1000B6007F01121D58200E030202DC801678BCE672
:1000C600FC08E6FDAB55AA547F01121CA8200E03BE
:1000D6000202DC78CF767878B57601D2B575997854
:1000E6000202DCD20B0202DCC2ACE4F523D2B57DFF
:1000F600237F7F121AF87D237F18121AF87D237F3B
:1001060017121AF878B0E6FF7D23121AF87D23AF8E
:1001160054121AF87D23AF55121AF87D23AF5612E2
:100126001AF87D23AF57121AF87D23AF58121AF822
:100136007D23AF59121AF8E4F525745A2525F8E6F9
:10014600FF7D23121AF80525E525C3941040EB021E
:10015600020178BCE6FFC378B09640030202DC7564
:10016600F010EFA424D9F582E5F0340BAF82F5291F
:100176008F2AC2ACE4F523D2B57D237F7F121AF80D
:100186007D237F0D121AF8852A82852983E493FF41
:100196007D23121AF8852A82852983740193FF7DAF
:1001A60023121AF8852A82852983740293FF7D23F8
:1001B600121AF8852A82852983740393FF7D2312F8
:1001C6001AF8852A82852983740493FF7D23121ADF
:1001D600F8E4F525E52A2405F582E43529F583E5D5
:1001E600822525F582E43583F583E493FF7D23128A
:1001F6001AF80525E525C3940840D9E4FDAF231276
:100206001AF8C2B5D2AC0202DC7A007B327D0178E4
:10021600B9E6FF12198A78BCE6F55408E6F55508E2
:10022600E6F55608E6F557802E7A007B327D017892
:10023600B9E6FF12198AE4F525E525C378BC965080
:100246001674BD2525F8E6FF745A2525F8C6EFC6AF
:100256000525E525B410E2D209D20C80797A007B17
:10026600327D0178B9E6FF12198A806A78BCE624E5
:10027600FF9202806178BCE624FF92018058D21179
:1002860080547A007B327D0178B9E6FF12198AD252
:100296000978CF767878B2E624BAF8E678D0F67898
:1002A600B57602802A7A007B327D017F0012198A98
:1002B60078CF767978BCE678D0F67B007A0079CF6D
:1002C6007D027C00121CE778D1EFF678B57603D272
:1002D600B578CFE6F599E52464A060030204727848
:1002E600BBE664A160030203AE08E6FFC378B096DE
:1002F600400302047275F010EFA424D9F582E5F0EC
:10030600340BF583E493F52775F010EFA424DDF59F
:1003160082E5F0340BF583E49330E235121E828FCA
:1003260027E527247878CFF67B007A0079CFE52772
:100336002401FDE433FC121CE774D02527F8EFF600
:10034600E527240278B5F6D2B578CFE6F59902040A
:100356007278BCE6FF121E82C2ACE4F523D2B5E584
:1003660027D3940640247D237F7F121AF87D23AF7E
:1003760027121AF8E4F525E525C395275007121A22
:10038600C0052580F20527020467E5272478FF7D4E
:1003960023121AF8E4F525E525C395275007121A06
:1003A600C0052580F202046778BBE664A2600302FA
:1003B600047278B0E6FF78BCE6FEC39F40030204F1
:1003C6007208E6FDC39F4003020472EEC39D40031C
:1003D60002047218E6F525E4F527E525D378BD96DF
:1003E600501FAF25121E8275F010E525A424D9F5FD
:1003F60082E5F0340BF583E4932527F52705258060
:10040600D9C2ACE4F523D2B57D237F7F121AF87DDD
:1004160023AF27121AF878BCE6F525E525D378BD73
:1004260096503EE4F52675F010E525A424D9F5820C
:10043600E5F0340BF583E493FFE526C39F501E7861
:10044600B9E6FF18E68FF0A47C002526FFEC35F010
:10045600FE75F010E525121AD8052680C9052580F7
:10046600BAE4FDAF23121AF8C2B5D2ACE52464583B
:10047600704DFA7B327D0178B9E6FF12198A752E26
:1004860000752F007530D07B007A0079BC121D8A6A
:100496008F27E527247878CFF67B007A0079CFE599
:1004A600272401FDE433FC121CE774D02527F8EF5E
:1004B600F6E527240278B5F6D2B578CFE6F599E5C4
:1004C6002464806009E5246488600302060D7A00CE
:1004D6007B327D0178B9E6FF12198A78BBE65407AC
:1004E600F527B4070A75260108E6F527088005E40E
:1004F600F52678BCE6F5281527E528C378B096409A
:10050600030205E575F010E528A424D9F582E5F087
:10051600340BF583E493FFE527D39F40028F27E44E
:10052600F525E525C3952740030205D875F010E5A6
:1005360028A424DDF582E5F0340BF583E49330E25C
:10054600030205D375F010E528A424DAF582E5F058
:10055600340BF583E4936438701BE527D394044089
:1005660008E526252524BD802A78B2E6C39525FF11
:1005760074B92F801E75F010E528A424D9F582E5FC
:10058600F0340BF583E493FFC378B2E69F25252567
:100596002624BAF8E6FD78B9E6FF18E68FF0A4FF40
:1005A600E5257A002FFFEA35F0FE75F010E528A460
:1005B60024E6F582E5F0340BF583E493FB740193AE
:1005C600FA740293F98F828E83ED1209C305250210
:1005D6000528AF2812137DE5246488702A800FE56C
:1005E60028B4FF2378BDE6F520E524B4881978CF32
:1005F600767878B2E624BAF8E678D0F678B5760258
:07060600D2B578CFE6F599AB
:01060D0022CA
:10700000C2AF75FFDE75FFADE4F543F542D2B5C200
:10701000997599783099FDC299E4F5993099FDC236
:10702000B53098FD859942C298E4F544E54224FDC7
:10703000605214700302710614700302713E24033F
:1070400060030271413098FD859943C298E543255C
:10705000E0FEC3E49400EE94705023E5B654F0448F
:1070600008F5B6758F03E54325E0F54675470085BD
:107070004782F583E4F053B6F0F58F027141754411
:10708000FF027141D2B43098FD859943C298E5B6AC
:1070900054F04408F5B6758F01E54325E0F54675D3
:1070A0004700E4FFE4F5453098FD0547E547AC4669
:1070B0007002054614F5828C83E599F0C298054567
:1070C000E545B43CE2D2B5C2997599783099FDC2D4
:1070D00099E4F5993099FDC2B50FBF08C7E4F545AD
:1070E0003098FD0547E547AE467002054614F58227
:1070F0008E83E599F0C2980545E545B420E253B684
:10710000F0E4F58F803BC2B43098FD859943C29876
:10711000E5437F0025E0FEE4F544FDFC0FEFCAEEF9
:10712000CA70010E14F5828A83E4932544F5440D58
:10713000BD00010CED7003EC640270E0800375EF9C
:1071400010D2B5C2997599783099FDC29985449944
:107150003099FDC2B5E54264066003027021D2AFEA
:01716000220C
:101A0300121E8C120020120021200D0B7A007B3253
:101A13007D017F0012198A300F0B7A007B1E7D0136
:101A23007F0012198A300913301010C209E4F558E7
:101A3300F55978D776F1121676D20D301108301099
:101A430005C21112700012000EE47BF47A01F9F85A
:0F1A5300C3120A8C5002D210300B0375EF102211
:0B1E6D00120E29121A03121E2B80F81F
:1014B500005EBCE2613FDD83C29C7E20A3FD1F412F
:1014C5009DC3217FFCA2401E5F01E3BD3E6082DC1F
:1014D500237D9FC1421CFEA0E1BF5D0380DE3C620F
:1014E500BEE0025CDF81633D7C22C09E1D43A1FFFF
:1014F5004618FAA427799BC584DA3866E5BB5907EF
:10150500DB856739BAE406581947A5FB7826C49ADE
:10151500653BD987045AB8E6A7F91B45C6987A24CE
:10152500F8A6441A99C7257B3A6486D85B05E7B9BE
:101535008CD2306EEDB3510F4E10F2AC2F7193CDAE
:10154500114FADF3702ECC92D38D6F31B2EC0E509E
:10155500AFF1134DCE90722C6D33D18F0C52B0EE8E
:10156500326C8ED0530DEFB1F0AE4C1291CF2D737E
:10157500CA947628ABF517490856B4EA6937D58B6E
:101585005709EBB536688AD495CB2977F4AA48165E
:10159500E9B7550B88D6346A2B7597C94A14F6A84E
:1015A500742AC896154BA9F7B6E80A54D7896B353E
:0715B500DCEEF4FAFDFEFF7D
:0A1CE7008B2B8A2C892D8C2E8D2F5B
:101CF100E4F530FFFEC3EF952FE52E6480F8EE6426
:101D01008098501DAB2BAA2CA92D8F828E8312098E
:101D1100846530FD9014B593F5300FBF00010E803E
:031D2100D4AF300C
:011D2400229C
:07000300ED6F9014B593FFAF
:01000A0022D3
:0100210022BC
:101E0700EF701E7598D0E589540F4420F58953C8A3
:101E1700E1438E10ED9015B493F58DD28ED2ACC2FE
:031E2700BCD2AF7B
:011E2A002295
:101C1200D2AFD2A9D2BBE589540F4401F589E4F5CC
:101C22008E758CDBF58AD28CF51FF51EF51DF51C21
:101C3200FFEF25E025E024D8F8E4F6EF25E025E0E3
:101C420024D9F8E4F6EF25E025E024DAF8E4F6EF0B
:0D1C520025E025E024DBF8E4F60FBF01D407
:011C5F002262
:0717DC00C0D075D010156BA1
:1017E300A86BE4F6A86BE6FFC39401400302187BE1
:1017F300EF25E025E024DBF8E6FFD394004052A870
:101803006BE625E025E024D9F8E67045EF30E015D6
:10181300A86BE6FF25E025E024DBF8E6D39401403E
:10182300047D0080067D01A86BE6FF121C60A86B97
:10183300E6FF25E025E024DBF816E66014EF25E05B
:1018430025E024DAF8E6FEEF25E025E024D9F8EEDA
:10185300F6A86BE625E025E024D9F8E6600116A892
:101863006BE6FF25E025E024DBF8E670057D011239
:081873001C60A86B060217E7D8
:05187B00056BD0D02236
:03000B00021D25AE
:101D2500C0E0C0F0C083C082C0D075D010758CDC17
:101D3500E51F2401F51FE4351EF51EE4351DF51DCF
:101D4500E4351CF51C1217DCD0D0D082D083D0F03E
:031D5500D0E032A9
:101DE000156BA86BEDF6156BA86BEFF6A86BE6FF0D
:101DF000C39401500D08E6FEEF25E025E024D8F855
:071E0000EEF6056B056B22F5
:10198A00156B156BA86BEAF608EBF6156BA86BEDF1
:10199A00F6156BA86BEFF6A86BE6FFC394015052DD
:1019AA00EF25E025E024DBF8E67047A86BE6FB2587
:1019BA00E025E024D9F8E67039A86B08E625E004AA
:1019CA00FFA86BE6FA25E025E024DBF8EFF6A86B22
:1019DA000808E6FE08E6FF7C007D0A1209E5EA250A
:1019EA00E025E024DAF8EFF6EB25E025E024D9F843
:0919FA00E4F6E56B2404F56B2210
:101C6000C0D075D010156BA86BEDF6156BA86BEF97
:101C7000F6A86BE6FFC39401501CEF25E025E02495
:101C8000D8F8E66011A86B08E670047F0180027F37
:101C900000A86B08EFF6A86BE6700608E624FF9232
:081CA000B4056B056BD0D022E6
:0C000E00C2AFAF1FAE1EAD1DAC1CD2AFC8
:01001A0022C3
:041E8C0075FFA52217
:041DB7008E188F19DA
:101DBB00E4F51AF51BC3E51B9519E51A9518501494
:101DCB007FE87E03121B6E121A03051BE51B70E5E1
:041DDB00051A80E184
:011DDF0022E1
:041B6E008E348F35ED
:101B7200D3E53594FAE5349400500AEFD39400404B
:101B82003C001F80F6853436853537D3E53794FA25
:101B9200E536940040157FFA7E00121B6E7406250E
:101BA20037F53774FF3536F53680E0D3E5359400E6
:0D1BB200E53494004007AF37AE36121B6ECD
:011BBF002203
:081B19008B3A8A3B893C8D3DAB
:101B2100121E8CAB3EAA3FA940120A1B2400FFE5FE
:101B3100F03480FE853A41853B42853C43E4FDED2E
:101B4100C3953D501BEF2DF582E43EF583E493AB45
:101B510041AA42A9438D827583001209C30D80DF1A
:0D1B6100AB3EAA3FA940E4853DF0020A46D4
:06190C008B488A49894A5C
:1019120078D7E664F17070C2AFE5B654F04408F5CA
:10192200B6758F01AB4CAA4DA94E120A1B2400FFBB
:10193200E5F03480F54F8F50854851854952854AEC
:1019420053E4FFEFC39D5026AB510553E553AA5212
:101952007002055214F912096BFE0550E550AA4FA8
:101962007002054F14F5828A83EEF00F80D5E4F5FC
:101972008F53B6F0CFEDCFAB4CAA4DA94E8FF012DC
:071982000A46D2AF121E8CD1
:01198900223B
:101E4D0078D7E6B4F119C2AFE5B654F04408F5B64B
:0F1E5D00758F03908000E4F0F58F53B6F0D2AF8D
:011E6C002253
:101676007A007B327D037F0312198A121E4DE4F530
:1016860046F547F54C754D00754E46FB7A00795484
:101696007D1612190CE4F543E543C378AF965067FF
:1016A600E4F54275F010E542A424D9F582E5F0345C
:1016B6000BF583E493604C78B8E68543F0A4FFAE5F
:1016C600F075F010E542A424E6F582E5F0340BF55A
:1016D60083E493FB740193FA7402932FF9EA3EFABA
:1016E60075F010E542A424D9F582E5F0340BF583B4
:1016F600E493FD754C00754D00754E4612190C05A8
:101706004280A005438091754412754534754C009E
:10171600754D00754E467B007A0079447D0212199C
:051726000CE478D7F689
:01172B00229B
:10172C00E4F538F539F53E753F00754038FB7A0025
:10173C0079547D16121B19E4F535E535C378AF964F
:10174C005067E4F53475F010E534A424D9F582E53E
:10175C00F0340BF583E493604C78B8E68535F0A44F
:10176C00FFAEF075F010E534A424E6F582E5F03414
:10177C000BF583E493FB740193FA7402932FF9EA4B
:10178C003EFA75F010E534A424D9F582E5F0340B5B
:10179C00F583E493FD753E00753F00754038121BD0
:1017AC0019053480A005358091753E00753F007594
:1017BC0040387B007A0079367D02121B19E53764BC
:0F17CC00347004E536641270047F0180027F00E0
:0117DB0022EB
:100BD1005343532D35323000041800000141444382
:100BE100300000000000006C041800000141444383
:100BF100310000000000007004180000014144436E
:100C01003200000000000074041800000141444358
:100C11003300000000000078041800000141444343
:100C2100340000000000007C04180000014144432E
:100C31003500000000000080041800000141444319
:100C41003600000000000084041800000141444304
:100C510037000000000000880418000001444143EF
:100C6100300000000000008C0418000001444143E2
:100C710031000000000000900134000000503100FC
:100C81000000000000000094015C000000414443AA
:100C91004176726700000095013400000052616ED8
:100CA1006765300000000096013400000052616E5B
:100CB1006765310000000097013400000052616E49
:100CC1006765320000000098013400000052616E37
:100CD1006765330000000099013400000052616E25
:100CE100676534000000009A013400000052616E13
:100CF100676535000000009B013400000052616E01
:100D0100676536000000009C013400000052616EEE
:100D1100676537000000009D0118FD00024F6673F2
:100D2100300000000000009E0118FD00024F6673B4
:100D3100310000000000009F0118FD00024F6673A2
:100D410032000000000000A00118FD00024F667390
:100D510033000000000000A10118FD00024F66737E
:100D610034000000000000A20118FD00024F66736C
:100D710035000000000000A30118FD00024F66735A
:100D810036000000000000A40118FD00024F667348
:100D910037000000000000A5015D00000247616905
:100DA1006E300000000000A6015D0000024761698D
:100DB1006E310000000000A7015D0000024761697B
:100DC1006E320000000000A8015D00000247616969
:100DD1006E330000000000A9015D00000247616957
:100DE1006E340000000000AA015D00000247616945
:100DF1006E350000000000AB015D00000247616933
:100E01006E360000000000AC015D00000247616920
:100E11006E370000000000AD00000000000000007F
:080E21000000000000000000C9
:061E7B0001AF01016A0045
:101A6200E4F5BA75BCE075E88075D10375D480756C
:101A7200D78075A44175A5FFEF602C78957608E4B0
:101A8200FF74962FF8E4F6749E2FF8E4F60FBF0861
:101A9200F0788C120AD7000000007890120AD70062
:101AA200000000789476FF7F0812137D7F091213DD
:0E1AB2007D7F0A12137D7F0C12137D021240FD
:04124000156B156BAA
:10124400C285C284D287A86B08E4F6A86BF6A86BA3
:10125400E6FFC3940440030212F520871608C9E888
:10126400C9EF25E0FF7401C8EFC8088002C333D872
:10127400FC47F7A86BE6FFC374039FFF74962FF82F
:10128400E65402D394004003D38001C39286D284EF
:101294007F0A7E00121B6EC2847F0A7E00121B6EC0
:1012A40020871BA86B08C9E8C9A86BE625E004FFE2
:1012B4007401C8EFC8088002C333D8FC47F7A86B91
:1012C400E6FFC374039FFF74962FF8E65401D3948A
:1012D400004003D38001C39286D2847F0A7E001229
:1012E4001B6EC2847F0A7E00121B6EA86B0602125C
:1012F40052A86B08E678AEF6A86BE4F6A86BE6FF96
:10130400C39404505BC374079FFF74962FF8E6548C
:1013140002D394004003D38001C39286D2847F0A0F
:101324007E00121B6EC2847F0A7E00121B6EA86BA5
:10133400E6FFC374079FFF74962FF8E65401D39415
:10134400004003D38001C39286D2847F0A7E0012B8
:101354001B6EC2847F0A7E00121B6EA86B06809CE3
:10136400C286D2857F0A7E00121B6EC2857F0A7EEA
:0413740000121B6EDA
:05137800056B056B226E
:0C137D00156BA86BEFF6156B156B156B6C
:10138900E56B2403F8E624F7606E14700302145524
:1013990014700302145C14700302146824046003BB
:1013A9000214A1E4FFFE7D207C41788C120ACA1246
:1013B9000615E4FBFA79A0784112080FE4FBFA79E3
:1013C9008078451207061208EAA86B08EEF608EFBE
:1013D900F6A86B08C9E8C9C3E794104008A86B08C8
:1013E900760F0876FFA86B0808E6F5D2A86B08C93E
:1013F900E8C9E7F5D30214A1E4FFFE7D207C41781A
:1014090090120ACA120615E4FBFA79A0784112086B
:101419000FE4FBFA798078451207061208EAA86BEF
:1014290008EEF608EFF6A86B08C9E8C9C3E79410F7
:101439004008A86B08760F0876FFA86B0808E6F540
:10144900D5A86B08C9E8C9E7F5D6804C7894E6F5C4
:101459009080457895E6D39408403D7608803978A0
:1014690096E65404D394004003D38001C39283A821
:101479006B7601A86BE6FFC39408501C30830A748D
:10148900962FF8740446F6800AA86BE62496F87439
:10149900FB56F6A86B0680DBE56B2403F8E6C394DC
:0514A9000C4002D2120C
:0714AE00E56B2404F56B223D
:0A1E8200BF0A047894A6907F0022A6
:101D8A008B2B8A2C892D12096BAB2EAA2FA9301204
:101D9A0009B1AB2BAA2CA92D900001120984AB2EF4
:0D1DAA00AA2FA9309000011209C37F022268
:0A104B008E318F328B338A348935E1
:10105500EF540FF5BB75BCE07895E62404FF7401E9
:101065007E00C8EFC8088005C333CE33CED8F9F566
:101075003D8E3CE4F539F538F537F536F53AF53B6F
:10108500C3E53B953DE53A953C5037C2AFC2EDD23D
:10109500EC30EDFDD2AFAFBFEFFEADBEEDFFE4FC32
:1010A500FDE5392FF539E5383EF538ED3537F537B6
:1010B500EC3536F536121A03053BE53B70C2053AA9
:1010C50080BE7895E6F96014AF39AE38AD37AC36E9
:1010D500F8120A9D8F398E388D378C36AF39AE3878
:1010E500AD37AC36E41208ACE4FBFA7980784712E8
:1010F500080FE4FBFA792078401207068F418E40ED
:101105008D3F8C3EAB41AA40A93FA83EE8C0E0E92F
:10111500C0E0EAC0E0EBC0E0749E2532F8E6FC12C0
:1011250008B67B007A40791C784612080FD0E0FBA0
:10113500D0E0FAD0E0F9D0E0F81206158F418E40E4
:101145008D3F8C3EAB41AA40A93FA83EE8C0E0E9EF
:10115500C0E0EAC0E0EBC0E074A62532F8E6FC1278
:1011650008B67B007A40791C784612080FE4FBFA32
:101175007980783F120615D0E0FBD0E0FAD0E0F98F
:10118500D0E0F81207068F418E408D3F8C3E749655
:101195002532F8E630E212E4FBFA798078BF1206D0
:1011A500158F418E408D3F8C3EAF41AE40AD3FAC7B
:1011B5003EE4FBFA792078411207068F418E408D77
:1011C5003F8C3E74962532F8E6540314601B146078
:1011D500291460372403704DAF41AE40AD3FAC3E9E
:1011E500E4FBFA7980783F8031AF41AE40AD3FAC4A
:1011F5003EE4FBFA792078418020AF41AE40AD3F17
:10120500AC3EE4FBFA79C87842800FAF41AE40AD01
:101215003FAC3EE4FBFA797A784412080F8F418E91
:10122500408D3F8C3EC2AFAF41AE40AD3FAC3EAB13
:0A12350033AA34A935120AB0D2AF73
:01123F00228C
:101E2B00E56A75F004A4246CF9E4FAFBAF6AFE12C0
:101E3B00104BE56A045407F56A301205C2121212F0
:011E4B004056
:011E4C002273
:10060E00020956E86480F8E933E83360110460F0BB
:10061E00ED33EC337009E8FCE9FDEAFEEBFF220452
:10062E0060DED3EB9FEA9EE99DE8C2E78CF0C2F74D
:10063E0095F0400CE8CCF8E9CDF9EACEFAEBCFFB19
:10064E0012092185D0F05804700320D5B3E8047048
:10065E00075002B2D502096092D5EC0460F7E4CCE3
:10066E00C0E0C398F8603B94186008400DD0E0FBE2
:10067E00020938E4FBFAC9FC8028E830E406E4C934
:10068E00FBE4CAFCE830E305E4C9CACBFCE8540736
:10069E006010F8C3E913F9EA13FAEB13FBEC13FC41
:1006AE00D8F130F52FC3E49CFCEF9BFFEE9AFEEDE4
:1006BE0099FDD0E0FBEF4E4D4C701222DB03020988
:1006CE005DEC2CFCEF33FFEE33FEED33FDED30E74A
:1006DE00EB020938EF2BFFEE3AFEED39FDD0E0FBD1
:1006EE0050130BBB0003020960ED13FDEE13FEEF7A
:0806FE0013FFEC13FC020938A4
:10070600EC4D6011E8497017ED33EC3304600DE4ED
:10071600FCFFFEFD22E933E8330470F802095612A5
:10072600092158046009E4CC2481500628500902A6
:10073600096028400302095DC0E0EB4A7044B980B5
:1007460006D0E0FB02094CEF4E701CBD8008EBFFA3
:10075600EAFEE9FD80EBE98DF0A4FEE5F00207EF85
:10076600E9CDF9EAFEEBFFEF89F0A4FCE5F0CE89CE
:10077600F0A42EFFE435F0CD89F0A42DFEE435F08B
:100786008067EF4E7005BD80D780C3EF8BF0A4ACB9
:10079600F0EE8BF0A42CFCE435F0F8EF8AF0A42CF4
:1007A600E5F038FCE433CB8DF0A42CFCE5F03BF807
:1007B600EE8AF0A42CFCE5F038F8E433CF89F0A4F7
:1007C6002CFCE5F038CF3400CE89F0A42FFFE5F0FD
:1007D6003EFEE433C98DF0A42EFEE5F039CD8AF055
:1007E600A42FFFE5F03EFEE43DFD33D0E0FB5007CD
:1007F6000BBB000F020960EC2CFCEF33FFEE33FE5F
:06080600ED33FD0209388C
:10080C00020960EC5D046005E859047003020956A6
:10081C00120921580460F6EC4860F2EC7004FDFEFD
:10082C00FF22C860DB2481C85009C39860025006BF
:10083C0002095D9850CAF582E9294B4A7005AB82D2
:10084C0002094C75F0007C1A7880C3EF9BEE9AED90
:10085C0099400DC3EF9BFFEE9AFEED99FDE842F037
:10086C00DC23ACF0D0E0FFD0E0FED0E0FDAB82208A
:10087C00E7101BEB60BAEC2CFCEF33FFEE33FEED14
:10088C0033FD020938E803F830E705C0F075F000D5
:10089C00EF2FFFEE33FEED33FD40B830E7C280AAF8
:1008AC0075F020800E75F010800575F0087D007EC7
:1008BC00007F003392D530D503120A7EEC33401002
:1008CC00EF33FFEE33FEED33FDEC33FCD5F0ED22D0
:0E08DC00E5F0247EA2D513CC92E7CDCEFF220C
:1008EA00EDD2E7CD33EC3392D524814006E4FFFE06
:1008FA00FDFC22FCE4CFCECDCC24E0501174FF8065
:10090A00EDC3CC13CCCD13CDCE13CECF13CF047001
:07091A00F030D5DE020A7E79
:10092100E9D2E7C933E833F892D5EDD2E7CD33EC1C
:0709310033FC5002B2D52295
:10093800EC30E7100FBF000C0EBE00080DBD000420
:100948000BEB6014A2D5EB13FCED92E7FD2274FFCC
:10095800FCFDFEFF22E480F8A2D574FF13FC7D8025
:03096800E480EF39
:0300000002188063
:0C188000787FE4F6D8FD7581DB0218C704
:10096B00BB010689828A83E0225002E722BBFE028A
:09097B00E32289828A83E49322BD
:10098400BB010CE58229F582E5833AF583E0225028
:1009940006E92582F8E622BBFE06E92582F8E22272
:0D09A400E58229F582E5833AF583E493228C
:1009B100BB010689828A83F0225002F722BBFE0125
:0209C100F3221F
:1009C300F8BB010DE58229F582E5833AF583E8F06A
:1009D300225006E92582C8F622BBFE05E92582C816
:0209E300F222FE
:1009E500C2D5EC30E709B2D5E4C39DFDE49CFCEE2D
:1009F50030E715B2D5E4C39FFFE49EFE120B42C358
:100A0500E49DFDE49CFC8003120B4230D507C3E452
:060A15009FFFE49EFE229B
:100A1B00BB010A89828A83E0F5F0A3E022500687A6
:100A2B00F009E71922BBFE07E3F5F009E319228968
:0B0A3B00828A83E493F5F0740193229B
:100A4600BB010789828A83020B97500B09C5F027E1
:100A5600F7C5F01937F722BBFE0D09F8E325F0F3C9
:100A6600C5F019E338F322F889828A837401932545
:080A7600F0C5F0F8E49338220A
:0E0A7E00C3E49FFFE49EFEE49DFDE49CFC2289
:100A8C00EB9FF5F0EA9E42F0E99D42F0E89C45F0C0
:010A9C002237
:100A9D00E8600FECC313FCED13FDEE13FEEF13FF37
:030AAD00D8F1225B
:100AB000BB010789828A83020BB95005E9F8020B52
:0A0AC000ADBBFE05E9F8020BC522EC
:0D0ACA00E6FB08E6F908E6FA08E6CBF8229C
:100AD700D083D082E493F608740193F608740293E6
:090AE700F608740393F67404731D
:100AF000D083D082F8E4937012740193700DA3A395
:100B000093F8740193F5828883E4737402936860A8
:060B1000EFA3A3A380DFA8
:101BC0008B348A358936E4F53CF53DE53B153BAE73
:101BD0003A7002153A4E6033AB37AA38A939120968
:101BE0006BFFAB34AA35A936053DE53DAC3C700230
:101BF000053C14F5828C83EF1209C3EF60CD7401AC
:101C00002539F539E43538F53880C0AB34AA35A923
:021C100036227A
:100B1600EF4E6012EF60010EEDBB010B89828A83F6
:100B2600F0A3DFFCDEFA2289F05007F709DFFCA903
:0C0B3600F022BBFEFCF309DFFCA9F0225A
:10188C00021E6DE493A3F8E493A34003F68001F2E7
:10189C0008DFF48029E493A3F85407240CC8C3335D
:1018AC00C4540F4420C8834004F456800146F6DF2C
:1018BC00E4800B0102040810204080901E78E47E26
:1018CC00019360BCA3FF543F30E509541FFEE49321
:1018DC00A360010ECF54C025E060A840B8E493A3E8
:1018EC00FAE493A3F8E493A3C8C582C8CAC583CA13
:1018FC00F0A3C8C582C8CAC583CADFE9DEE780BECB
:011E81000060
:100B4200BC000BBE0029EF8DF084FFADF022E4CC97
:100B5200F875F008EF2FFFEE33FEEC33FCEE9DEC60
:100B6200984005FCEE9DFE0FD5F0E9E4CEFD22EDA6
:100B7200F8F5F0EE8420D21CFEADF075F008EF2FF0
:100B8200FFED33FD4007985006D5F0F222C398FDE1
:050B92000FD5F0EA227E
:100B9700C5F0F8A3E028F0C5F0F8E58215827002E9
:060BA7001583E038F02286
:0C0BAD00ECF608EDF608EEF608EFF62274
:0C0BB900ECF0A3EDF0A3EEF0A3EFF022AF
:0C0BC500ECF208EDF208EEF208EFF2226C
:00000001FF
