:0A3D6B0001A6000162FF0263FFFFE2
:1023F200E478A6F675FFDE75FFAD75840F75A4F55A
:1024020075A5BFF5A675A7FF75E104F5E275E3446E
:10241200F58475B7B075840F438901758D01758F89
:1024220001758E04F535F5360536E536700205354B
:10243200640F453570F2438902E58930E4FB758A01
:102442008375970275FFDE75FFADE4F58475EF04C1
:10245200123BA0E4F535F5367D01AF36123ED205CA
:1024620036E53670020535C39403E535940040E83D
:10247200E4F520C219C214C21CC216D218C21BC271
:102482001AC2857884F67882F618F67888F6F535D9
:10249200F536748A2536F8E4F60536E53670020517
:1024A200356414453570EBE4F535F536749E253602
:1024B200F8E4F60536E536700205356408453570F0
:1024C200EB7D05E4FF123C927D057F01123C9212E6
:1024D200380BE47887F6787FF6787FE6FF75F01F91
:1024E200A424E5F582E5F03417F583E493FE7887BA
:1024F20026F6EE6005787F0680DFEFD39400402A4F
:102502009017F2E493FB740193FA740293F97455F1
:1025120012074E12070864556002D21A74AA1207F3
:102522004E12070864AA6002D21A12350BEF60033A
:10253200022641C21874FFF565F566F567F568E491
:10254200F569F56AFE7F10FDFB7A00796B1209C806
:102552007543FF7544177545DC7546007547107B5A
:10256200007A00796B123BF2E4F535F5369017E507
:1025720075F01FE536120956E53575F01FA425835F
:10258200F583E493700302263A9017E975F01FE58C
:1025920036120956E53575F01FA42583F583E493B9
:1025A20030E20302262FE4F534E534C378CD9650A9
:1025B2005D9017E575F01FE536120956E53575F0A1
:1025C2001FA42583F583E493FF7E00C006C0077D28
:1025D200009017F275F01FE536120956E53575F0D1
:1025E2001FA42583F583E493FB740193FA74029389
:1025F200F97887E68534F0A4FFE92FF9EA35F0FA95
:10260200D007D0061209C8123FC10534809B90172B
:10261200E975F01FE536120956E53575F01FA42558
:1026220083F583E49330E505AF361231F00536E5E4
:10263200367002053502256F7F01122ECB8016D22D
:1026420018E4FF122ECBE5EF30E30AD203056AE568
:102652006A70020569E4F535F5367A007B967D03EA
:10266200AF3612388A0536E53670020535C3940353
:06267200E535940040E490
:01267800223F
:053FB6007888E6FF22FF
:0100A200223B
:0300230002339B0A
:10339B00C0E0C0F0C083C082C0D075D00830991C8B
:1033AB00C299788206E6FF78846670097882F6C245
:1033BB0085D2158007749E2FF8E6F59920980302A5
:1033CB00344A209A07201904C298806FC29A7881D8
:1033DB00E606248AF8A699C2987881E6FFB4011311
:1033EB00788AE6FE70057881F68054EE5407240245
:1033FB007889F6EFB4020E7889E6B40908788BE683
:10340B0024037989F7D2137881E6FFB4140476008C
:10341B00802DEFC378899640267881E624FFFDE462
:10342B0034FFFC7B007A00798A1236F37881E6242C
:10343B0089F8E66F6002800312119C78817600D0C8
:0A344B00D0D082D083D0F0D0E03260
:103A3E007888E6FF18E68FF0A47C002528FFEC3589
:103A4E00F0FE788BE675F01FA424F2F582E5F034D3
:103A5E0017F583E493FB740193FA740293F98F8242
:083A6E008E83120721FF7D2663
:103A76008F2E8D2FE4F584E52F6010F8E6FFE52EF6
:103A8600FD7C00120003A82FC6EFC6852E9930993B
:043A9600FDC29922B2
:103E2000C9EFC9EDC39B402378CDE6FFEB2FFFE43C
:103E300033FEEDC39FEE6480F8748098500DD21964
:103E4000C3ED9B7888F67883E9F622C219E478837B
:023E5000F62258
:103DAE00C9EFC9BAFF0FBBFF0CED6B7002EC6A7066
:103DBE0027D219801BC3ED9BEC9A401C78CDE62BC5
:103DCE00FFE43AFEC3ED9FEC9E500DD219C3ED9B5E
:0F3DDE007888F67883E9F622C219E47883F62212
:10119C00788AE6FF54F8F527E4F584EF1209A211DA
:1011AC00E50911F00A11FF1012061112151212287E
:1011BC0019123C1A12622012672812D12913883492
:1011CC0013A83713DC3913EB4113F44913FD5014F6
:1011DC00246114019800001455788BE6FDE566FB3C
:1011EC007F01801F788BE6FC08E6FDAB66AA657F65
:1011FC00018023E4FBFD7F038009788BE6FDE56825
:10120C00FB7F02123E20021455788BE6FC08E6FDAB
:10121C00AB68AA677F02123DAE021455788BE6FDCF
:10122C00E566FB7F01123E2020190302145580163F
:10123C00788BE6FC08E6FDAB66AA657F01123DAE35
:10124C00201903021455789E767878847601D2851D
:10125C00759978021455D216021455C2ACE4F526D1
:10126C00D2857D267F7F123A767D267F18123A76BC
:10127C007D267F17123A76787FE6FF7D26123A7626
:10128C007D26AF65123A767D26AF66123A767D26BC
:10129C00AF67123A767D26AF68123A767D26AF6933
:1012AC00123A767D26AF6A123A76E4F528746B25ED
:1012BC0028F8E6FF7D26123A760528E528C3941017
:1012CC0040EB02137A788BE6FFC3787F96400302DB
:1012DC00145575F01FEFA424E5F582E5F03417AF33
:1012EC0082F52C8F2DC2ACE4F526D2857D267F7F2E
:1012FC00123A767D267F0D123A76852D82852C83C7
:10130C00E493FF7D26123A76852D82852C83740119
:10131C0093FF7D26123A76852D82852C8374029359
:10132C00FF7D26123A76852D82852C83740393FFDC
:10133C007D26123A76852D82852C83740493FF7D4D
:10134C0026123A76E4F528E52D2405F582E4352CB1
:10135C00F583E5822528F582E43583F583E493FF54
:10136C007D26123A760528E528C3940840D9E4FD79
:10137C00AF26123A76C285D2AC0214557A007B3273
:10138C007D017888E6FF12388A788BE6F56508E6E9
:10139C00F56608E6F56708E6F568802E7A007B327C
:1013AC007D017888E6FF12388AE4F528E528C378B1
:1013BC008B965016748C2528F8E6FF746B2528F84C
:1013CC00C6EFC60528E528B410E2D214D2178079EE
:1013DC007A007B327D017888E6FF12388A806A7841
:1013EC008BE624FF92028061788BE624FF920180C9
:1013FC0058D21C80547A007B327D017888E6FF122B
:10140C00388AD214789E76787881E62489F8E67842
:10141C009FF678847602802A7A007B327D017F00E9
:10142C0012388A789E7679788BE6789FF67C007DE8
:10143C00027B007A00799E1236F378A0EFF678845E
:10144C007603D285789EE6F599E52764A0600302C1
:10145C0015EE788AE664A1600302152A08E6FFC33C
:10146C00787F9640030215EE75F01FEFA424E5F586
:10147C0082E5F03417F583E493F52A75F01FEFA499
:10148C0024E9F582E5F03417F583E49330E2381261
:10149C003FBB8F2AE52A2478789EF6E52A2401FDA5
:1014AC00E433FC7B007A00799E1236F3749F252A74
:1014BC00F8EFF6E4F584E52A24027884F6D28578F0
:1014CC009EE6F5990215EE788BE6FF123FBBC2AC97
:1014DC00E4F526D285E52AD3940640247D267F7F29
:1014EC00123A767D26AF2A123A76E4F528E528C31F
:1014FC00952A5007123A3E052880F2052A0215E378
:10150C00E52A2478FF7D26123A76E4F528E528C3EF
:10151C00952A5007123A3E052880F20215E3788A84
:10152C00E664A260030215EE787FE6FF788BE6FE98
:10153C00C39F40030215EE08E6FDC39F400302154E
:10154C00EEEEC39D40030215EE18E6F528E4F52AED
:10155C00E528D3788C96501FAF28123FBB75F01F2F
:10156C00E528A424E5F582E5F03417F583E493250A
:10157C002AF52A052880D9C2ACE4F526D2857D2629
:10158C007F7F123A767D26AF2A123A76788BE6F573
:10159C0028E528D3788C96503EE4F52975F01FE5A4
:1015AC0028A424E5F582E5F03417F583E493FFE5F0
:1015BC0029C39F501E7888E6FF18E68FF0A47C00A4
:1015CC002529FFEC35F0FE75F01FE528123A56057B
:1015DC002980C9052880BAE4FDAF26123A76C28567
:1015EC00D2ACE52764587050FA7B327D017888E6DE
:1015FC00FF12388A75310075320075339F7B007A83
:10160C0000798B123E528F2AE52A2478789EF6E5D3
:10161C002A2401FDE433FC7B007A00799E1236F318
:10162C00749F252AF8EFF6E52A24027884F6E4F56F
:10163C0084D285789EE6F599E52764806009E527D4
:10164C00648860030217927A007B327D017888E609
:10165C00FF12388A788AE65407F52AB4070A7529E6
:10166C000108E6F52A088005E4F529788BE6F52BC8
:10167C00152AE52BC3787F96400302176775F01F78
:10168C00E52BA424E5F582E5F03417F583E493FF0C
:10169C00E52AD39F40028F2AE4F528E528C3952A32
:1016AC00400302175775F01FE52BA424E9F582E5DA
:1016BC00F03417F583E49330E20302175275F01FF0
:1016CC00E52BA424E6F582E5F03417F583E4936466
:1016DC0038701BE52AD394044008E5292528248C6E
:1016EC00802A7881E6C39528FF74882F801E75F0B8
:1016FC001FE52BA424E5F582E5F03417F583E4937C
:10170C00FFC37881E69F252825292489F8E6FD78F2
:10171C0088E6FF18E68FF0A4FFE5287A002FFFEA91
:10172C0035F0FE75F01FE52BA424F2F582E5F034BC
:10173C0017F583E493FB740193FA740293F98F8287
:10174C008E83ED12076005280216A7AF2B122C24EE
:10175C00852B62E5276488702D800FE52BF47026AD
:10176C00788CE6F520E527B4881C789E767878810D
:10177C00E62489F8E6789FF678847602E4F584D23C
:06178C0085789EE6F59948
:011792002234
:102AA400E4F545E545C3787F964003022C2375F091
:102AB4001FE545A424E9F582E5F03417F583E49392
:102AC40020E403022C1E75F01FE545A42401F582C1
:102AD400E5F03418F58374019365647004E4936538
:102AE40063605D9000A4740AF075F01FE545A424AA
:102AF40001F582E5F03418F583E493FC740193FD49
:102B0400EC9000A5F0EDA3F07C007D037B017A003E
:102B140079A41236F39000A7EFF07B017A0079A430
:102B24007D047C00123D2675F01FE545A42401F5C3
:102B340082E5F03418F583E493F563740193F56446
:102B44009000A474A1F075F01FE545A42403F58258
:102B5400E5F03418F583E4939000A5F07C007D0241
:102B64007B017A0079A41236F39000A6EFF07B0182
:102B74007A0079A47D047C00123D267B017A0079D9
:102B8400A47D0A7C0012365E8F46E546C39402504B
:102B940003022C1EE5462476FF9000A4E06F707AB1
:102BA40075F01FE545A424E5F582E5F03417F583B7
:102BB400E493FFE54624FE6F7060E54624FFFDE4E0
:102BC40034FFFC7B017A0079A41236F374A3254602
:102BD400F582E43400F583E06F703F75F01FE5453E
:102BE400A424E5F582E5F03417F583E493FF7E0031
:102BF40075F01FE545A424F2F582E5F03417F5835A
:102C0400E493FB740193FA740293F8CCEACCCDEB11
:0F2C1400CD7B017A0079A51206E20545022AA7B9
:012C2300228E
:0231F0008F4509
:1031F20075F01FEFA42401F582E5F03418F583740D
:10320200019365647004E4936563605C9000A47448
:103212000AF075F01FEFA42401F582E5F03418F5E9
:1032220083E493FC740193FDEC9000A5F0EDA3F010
:103232007C007D037B017A0079A41236F39000A70B
:10324200EFF07B017A0079A47D047C00123D2675A3
:10325200F01FE545A42401F582E5F03418F583E476
:1032620093F563740193F56475F01FE545A424E5B5
:10327200F582E5F03417F583E493F5462481900056
:10328200A4F0A3E545F0AF467E0075F01FA424F23A
:10329200F582E5F03417F583E493FB740193FA7435
:1032A2000293F978A67C007D011206E2E54624022B
:1032B200FDE433FC7B017A0079A41236F374A6256F
:1032C20046F582E43400F583EFF07B017A0079A4BD
:0B32D200E5462403FDE433FC023D262A
:10700000C2AF75FFDE75FFADE4F546F545F584D2F8
:1070100085C2997599783099FDC299E4F5993099AE
:10702000FDC2853098FD859945C298E4F547E54550
:1070300024FD604B14700302710314700302713B52
:10704000240360030271413098FD859946C298E59A
:107050004625E0FEC3E49400EE9470501CE4F584F1
:1070600043B701758F03E54625E0F549754A00856C
:107070004A82F583E4F00270FC7547FF027141C259
:10708000A03098FD859946C298E4F58443B7017510
:107090008F01E54625E0F549754A00E4F584FFE4F3
:1070A000F5483098FD054AE54AAC49700205491497
:1070B000F5828C83E599F0C2980548E548B43CE236
:1070C000D285C2997599783099FDC299E4F59930C5
:1070D00099FDC2850FBF08C7E4F5483098FD054A01
:1070E000E54AAE497002054914F5828E83E599F0B0
:1070F000C2980548E548B420E2E4F58453B7F0F5BA
:107100008F803ED2A03098FD859946C298E5467F93
:107110000025E0FEE4F547FDFC0FEFCAEECA700162
:107120000E14F5828A83E4932547F5470DBD0001CF
:107130000CED7003EC640270E08006E4F58475EFFA
:1071400010E4F584D285C2997599783099FDC29979
:107150008547993099FDC285E54564066003027054
:0371600023D2AF88
:017163002209
:10390300123FC11200A2123FC0122AA4E562F46062
:1039130008AF621231F07562FF20180B7A007B3218
:103923007D017F0012388A301A0B7A007B1E7D01DD
:103933007F0012388A301413301B10C214E4F56967
:10394300F56A78A676F1123455D218301C08301B6C
:1039530005C21C127000123F8BE47BF47A01F9F864
:10396300C31208295002D21B301606E4F58475EF02
:02397300102220
:0B3FA5001223F2123903123F2080F8B3
:102FED00005EBCE2613FDD83C29C7E20A3FD1F41DC
:102FFD009DC3217FFCA2401E5F01E3BD3E6082DCCC
:10300D00237D9FC1421CFEA0E1BF5D0380DE3C62BB
:10301D00BEE0025CDF81633D7C22C09E1D43A1FFAB
:10302D004618FAA427799BC584DA3866E5BB59079B
:10303D00DB856739BAE406581947A5FB7826C49A8B
:10304D00653BD987045AB8E6A7F91B45C6987A247B
:10305D00F8A6441A99C7257B3A6486D85B05E7B96B
:10306D008CD2306EEDB3510F4E10F2AC2F7193CD5B
:10307D00114FADF3702ECC92D38D6F31B2EC0E504B
:10308D00AFF1134DCE90722C6D33D18F0C52B0EE3B
:10309D00326C8ED0530DEFB1F0AE4C1291CF2D732B
:1030AD00CA947628ABF517490856B4EA6937D58B1B
:1030BD005709EBB536688AD495CB2977F4AA48160B
:1030CD00E9B7550B88D6346A2B7597C94A14F6A8FB
:1030DD00742AC896154BA9F7B6E80A54D7896B35EB
:0730ED0000003098CBDDEE7E
:023D7500C1AEDD
:1036F300157E157EA87EECF608EDF6157E157E1573
:103703007EA87EC6EBC608C6EAC608C6E9C6E57E3D
:0437130024FCF57E1F
:10371700F80808E4F6A87EF608F6E57E2407F9A877
:103727007EE6FE08E6FFC3099719E76480F8EE64B2
:1037370080985037E57E2404F8CBE6CB08E6FA08F4
:10374700E6F98F828E83120721A87E080866FFE5B7
:103757007E2403F8EFF6E6902FED93A87E0808F68F
:10376700A87E0806E61870B20680AFA87E0808E6AD
:01377700FF52
:07377800E57E2409F57E2225
:07000300ED6F902FED93FF5C
:01000A0022D3
:0300A300023A9A84
:103A9A00C0E0C0F0C083C082C0D075D010E59830B5
:103AAA00E1055398FDD22EE59830E032E51824015D
:103ABA00FFE433FEEF64404E70055398FE801FAF5B
:103ACA0018051874642FF582E43400F583E599F03B
:103ADA005398FE7A007B647D017F0112388AD0D028
:093AEA00D082D083D0F0D0E0328C
:0A3D26008B478A4889498C4A8D4B6F
:103D3000758401D284E4F54CC3E54C954BE54A64A7
:103D400080F8748098501FC22EAB470549E549AAF8
:103D5000487002054814F9120708F599302EFD1233
:0A3D60003FC1054C80D2C284AF4B76
:013D6A002236
:0A365E008B478A4889498C4A8D4B3E
:10366800123F8B8F508E4F8D4E8C4DE4F54C123F90
:103678008BC3EF9550FFEE954FFEED954EFDEC9503
:103688004DFCE47B0AFAF9F8C312082950037F00BD
:1036980022E518D3940040D6900064E0FE54F86404
:1036A8007860037F0022EE5407F54C2401FFE433D1
:1036B800FEAD187C00ED6F7001EE702AD3ED954BCE
:1036C800E54A6480F87480984006AE4AAF4B80049F
:1036D800AF187E00A849AC48AD477B017A007964F1
:0B36E8001206E2AF1822123FC18083DF
:063FB000E4F518D22E22F8
:013FC00022DE
:103C9200EF7025F5847598D0F584759115F58475C6
:103CA200C90875CBFFED9030EC93F5CA75C804E4F2
:103CB200F584D2ACC2BC80227584017598D0E4F53B
:103CC20084E589540F4420F589758E02758DF7D2EB
:0C3CD2008E43E74053F7BF123FB0D2AF63
:013CDE0022C3
:103BA000D2AFD2A9D2BBE4F584E589540F4401F524
:103BB00089758E02758CAFE4F58AD28CF51CF51BE5
:103BC000F51AF519FFEF25E025E024B7F8E4F6EF44
:103BD00025E025E024B8F8E4F6EF25E025E024B957
:103BE000F8E4F6EF25E025E024BAF8E4F60FBF0389
:013BF000D400
:013BF10022B1
:0735BB00C0D075D010157E91
:1035C200A87EE4F6A87EE6FFC394034003023659C0
:1035D200EF25E025E024BAF8E6FFD394004052A894
:1035E2007EE625E025E024B8F8E67045EF30E015E8
:1035F200A87EE6FF25E025E024BAF8E6D394014050
:10360200047D0180067D00A87EE6FF1239DDA87EDA
:10361200E6FF25E025E024BAF816E66014EF25E07F
:1036220025E024B9F8E6FEEF25E025E024B8F8EE1F
:10363200F6A87EE625E025E024B8F8E6600116A8A3
:103642007EE6FF25E025E024BAF8E67004FD123993
:07365200DDA87E060235C66B
:05365900057ED0D02227
:03000B00023DEDC6
:103DED00C0E0C0F0C083C082C0D075D010758CAF5C
:103DFD00E51C2401F51CE4351BF51BE4351AF51AF9
:103E0D00E43519F5191235BBD0D0D082D083D0F05E
:033E1D00D0E032C0
:103ED200157EA87EEDF6157EA87EEFF6A87EE6FF9B
:103EE200C39403500D08E6FEEF25E025E024B7F861
:073EF200EEF6057E057E22BD
:10388A00157E157EA87EEAF608EBF6157EA87EED73
:10389A00F6157EA87EEFF6A87EE6FFC39403505283
:1038AA00EF25E025E024BAF8E67047A87EE6FB2576
:1038BA00E025E024B8F8E67039A87E08E625E00499
:1038CA00FFA87EE6FA25E025E024BAF8EFF6A87EFE
:1038DA000808E6FE08E6FF7C007D0A120782EA2550
:1038EA00E025E024B9F8EFF6EB25E025E024B8F866
:0938FA00E4F6E57E2404F57E22CB
:1039DD00C0D075D010157EA87EEDF6157EA87EEFB1
:1039ED00F6A87EE6FFC39403501CEF25E025E024E6
:1039FD00B7F8E66011A87E08E670047F0180027FAB
:103A0D0000A87E08EFF6A87EE6700608E624FF9271
:103A1D00A0A87EE6FFB4010608E624FF9286EFB467
:103A2D000208A87E08E624FF9287057E057ED0D089
:013A3D002266
:0C3F8B00C2AFAF1CAE1BAD1AAC19D2AF18
:013F97002207
:013FC10022DD
:043EA9008E398F3A85
:103EAD00E4F53BF53CC3E53C953AE53B95395014BB
:103EBD007FE87E03123987123903053CE53C70E536
:043ECD00053B80E150
:013ED10022CE
:1039750054F0FFE5A054014FF5A0A21292A37F01D8
:023985007E00C2
:043987008E5E8F5F62
:10398B00D3E55F94FAE55E9400500EEFD3940040BC
:10399B00407E1600DEFD1F80F2855E60855F61D381
:1039AB00E56194FAE560940040157FFA7E001239C8
:1039BB008774062561F56174FF3560F56080E0D38F
:1039CB00E55F9400E55E94004007AF61AE6012398D
:0139DB008764
:0139DC0022C8
:083B4B008B3D8A3E893F8D404D
:103B5300123FC1AB41AA42A9431207B82400FFE5B3
:103B6300F03480FE853D44853E45853F46E4FDEDCA
:103B7300C39540501BEF2DF582E43EF583E493ABF0
:103B830044AA45A9468D827583001207600D80DF24
:0D3B9300AB41AA42A943E48540F00207E3DC
:060026008B4B8A4C894D52
:10002C0078A6E664F1706EC2AFE4F58443B701754F
:10003C008F01AB4FAA50A9511207B82400FFE5F06D
:10004C003480F5528F53854B54854C55854D56E471
:10005C00FFEFC39D5026AB540556E556AA557002CA
:10006C00055514F9120708FE0553E553AA52700200
:10007C00055214F5828A83EEF00F80D5E4F58F5388
:10008C00B7F0CFEDCFAB4FAA50A9518FF01207E3C9
:05009C00D2AF123FC1CC
:0100A100223C
:103F440078A6E6B4F118C2AFE4F58443B701758FDF
:0E3F540003F582758380F0F58F53B7F0D2AF7E
:013F6200223C
:103455007A007B327D037F0312388A123F44E4F5FC
:1034650049F54AF54F755000755149FB7A00796564
:103475007D16120026E4F546E546C378CD965067DD
:10348500E4F54575F01FE545A424E5F582E5F0343E
:1034950017F583E493604C7887E68546F0A4FFAE84
:1034A500F075F01FE545A424F2F582E5F03417F533
:1034B50083E493FB740193FA7402932FF9EA3EFABD
:1034C50075F01FE545A424E5F582E5F03417F5838D
:1034D500E493FD754F00755000755149120026059E
:1034E5004580A005468091754712754834754F0093
:1034F5007550007551497B007A0079477D021200AD
:0535050026E478A6F6A3
:01350A00229E
:10350B00E4F53BF53CF54175420075433BFB7A0016
:10351B0079657D16123B4BE4F538E538C378CD96CB
:10352B005067E4F53775F01FE537A424E5F582E520
:10353B00F03417F583E493604C7887E68538F0A474
:10354B00FFAEF075F01FE537A424F2F582E5F034F9
:10355B0017F583E493FB740193FA7402932FF9EA42
:10356B003EFA75F01FE537A424E5F582E5F0341734
:10357B00F583E493FD75410075420075433B123BA7
:10358B004B053780A0053880917541007542007559
:10359B00433B7B007A0079397D02123B4BE53A6461
:0F35AB00347004E539641270047F0180027F00E0
:0135BA0022EE
:103C44008F5D302D4843A0F075840F75A60FC2A375
:103C5400D2A2123983D2A17F0A7E0012398720A70B
:103C6400FDC2A1123983C2A275A6FF123983E55D94
:103C7400123975D2A1123983C2A1123983E55DC408
:0E3C8400123975D2A1123983C2A112398322DE
:10380B00E4F537F53875840F75A6FF53A0017F0FCC
:10381B00FE123EA943A030D2A1123983C2A17F056B
:10382B007E00123EA9D2A1123983C2A17F017E0074
:10383B00123EA9D2A1123983C2A175A020D2A11226
:10384B003983C2A143A0F075A60FC2A3D2A212392D
:10385B0083D2A17F647E0012398730A703C22D2249
:10386B00D22DC2127F2C123C44C2127F0C123C444C
:0E387B00C2127F01123C44C2127F06123C446E
:01388900221C
:0D3F9800C2127F01123C44E4FDFF02000E46
:10000E00ED5401C4333354C0FEEF540F44804EFF01
:05001E00C212023C4487
:103F78008F5CC3E55C648094A04005D212123C4477
:033F8800AF5C2209
:103EF9008B1D8A1E891FAB1DAA1EA91F12070860E8
:103F090015051FE51F7002051E14F9120708FFD2D7
:073F190012123C4480E0227B
:1017930020002A2A2000202A2A00202020416464D5
:1017A300726573733A2020253034582000303A256F
:1017B300362E33665600313A25362E33665600529E
:1017C300656C303A202573004F4E20004F4646008B
:1017D30052656C313A202573005343532D31303019
:1017E3003000013200000052656C61697330000102
:1017F3000000000000003F8000003F800000000068
:1018030000013200000052656C6169733100010010
:1018130001000000003F8000003F80000000000046
:10182300013200000052656C6169733200010002ED
:10183300000000003F8000003F8000000000000126
:101843003200000052656C616973330001000300CC
:101853000000003F8000003F8000000000000132D4
:10186300000000446F7574300000000100040000A4
:1018730000003F8000003F800000000000013200B4
:101883000000446F75743100000001000500000082
:10189300003F8000003F8000000000000132000094
:1018A30000446F7574320000000100060000000060
:1018B3003F8000003F800000000000013200000074
:1018C300446F757433000000010007000000003FFF
:1018D3008000003F80000000000004180000014465
:1018E30041433000000000010008C12000004120F6
:1018F30000003DCCCCCD00000004180000014441A1
:1019030043310000000001000CC120000041200011
:10191300003DCCCCCD000000013200000044696ED4
:101923003000000000010010000000000000000073
:1019330000000000000000013200000044696E3125
:101943000000000001001100000000000000000082
:10195300000000000000013200000044696E320004
:101963000000000100120000000000000000000061
:101973000000000000013200000044696E330000E3
:101983000000010013000000000000000000000040
:10199300000000000418000001414443300000002F
:1019A300000100140000000000000000000000001F
:1019B300000000041800000141444331000000000E
:1019C30001001800000000000000000000000000FB
:1019D30000000418000001414443320000000001EC
:1019E300001C0000000000000000000000000000D8
:1019F30000041800000141444333000000000100CB
:101A030020000000000000000000000000000000B3
:101A13000418000001414443340000000001002485
:101A230000000000000000000000000000000004AF
:101A33001800000141444335000000000100280064
:101A43000000000000000000000000000000041877
:101A5300000001414443360000000001002C000057
:101A63000000000000000000000000000004180057
:101A73000001414443370000000001003000000032
:101A83000000000000000000000000000418000037
:101A930009444F465330000000010034BDCCCCCD87
:101AA3003DCCCCCD3A83126F00000004180000092E
:101AB300444F465331000000010038BDCCCCCD3D2E
:101AC300CCCCCD3A83126F0000000418000009410A
:101AD3004F46533000000001003CBDCCCCCD3DCC83
:101AE300CCCD3A83126F0000000418000009414F67
:101AF300465331000000010040BDCCCCCD3DCCCCE1
:101B0300CD3A83126F0000000418000009414F46CC
:101B13005332000000010044BDCCCCCD3DCCCCCD34
:101B23003A83126F0000000418000009414F465326
:101B330033000000010048BDCCCCCD3DCCCCCD3A28
:101B430083126F0000000418000009414F4653340C
:101B530000000001004CBDCCCCCD3DCCCCCD3A83B4
:101B6300126F0000000418000009414F465335006E
:101B73000000010050BDCCCCCD3DCCCCCD3A83127E
:101B83006F0000000418000009414F46533600005F
:101B930000010054BDCCCCCD3DCCCCCD3A83126FEB
:101BA3000000000418000009414F465337000000AD
:101BB300010058BDCCCCCD3DCCCCCD3A83126F00C7
:101BC3000000041800002152656D446163000001A8
:101BD30000600000000000000000000000000001A1
:101BE30002000000000000000000000000000000F0
:101BF30000000000000000000000000000000000E2
:0E3D770001CD01C11DC11EC11FC120017D0073
:022ECB008F373F
:102ECD007D007F02123ED2E4F584F5BA75BCE07543
:102EDD00E880F5D1F58475D102F58475D4807584BB
:102EED000175D48075840F75A4F575A5BF75A6FF02
:102EFD0075A7FFE5376062E4F53874002538F58273
:102F0D00E43400F583E4F00538E538B404ECE4F579
:102F1D003874042538F582E43400F583E4F005387F
:102F2D00E538B404EC90000812092500000000906B
:102F3D00000C12092500000000E4F538E53825E005
:102F4D0025E0243CF582E43400F5831209250000C8
:102F5D0000000538E538B408E3E4F538AF38122C35
:102F6D00240538E538C3940840F27F08122C247FDD
:102F7D0009122C24E4FDFF12000EE4F5387B007AD3
:102F8D0000796B123F637C007D02120782C37407C8
:102F9D009FFFE49EFEC3E5389FEE6480F874809831
:102FAD00500D7BFF7A177993123E7F053880CE7BCB
:102FBD00FF7A177995123E7F7B007A00796B123E6E
:102FCD007F7BFF7A177999123E7F7D01E4FF120016
:102FDD000E7BFF7A17799D856543856644021C65D6
:0A2C2400157EA87EEFF6157E157EE2
:102C2E00A87E0808E624EA7003022CC7147003027B
:102C3E002D2D2417B40A004003022D91902C51F82B
:102C4E00282873022C6F022C7A022C85022C9002FB
:102C5E002C9B022CA6022CB1022CBC022CC7022DDE
:102C6E002D900000E024FF92B0022D91900001E023
:102C7E0024FF92B1022D91900002E024FF92B20245
:102C8E002D91900003E024FF92B3022D9190000449
:102C9E00E024FF92B7022D91900005E024FF92B63A
:102CAE00022D91900006E024FF92B5022D91900026
:102CBE0007E024FF92B4022D91900034E0FCA3E0D3
:102CCE00FDA3E0FEA3E0FF900008E0F8A3E0F9A367
:102CDE00E0FAA3E0FB1200ADE4FBFA792078411292
:102CEE0000ADE4FBFA79A078411202A7E4FBFA7971
:102CFE0080784512019E1203EFA87EEEF608EFF6DD
:102D0E00A97EC3E794104007A87E760F0876FFE4ED
:102D1E00F584A87E08E6F5D2A97EE7F5D380649007
:102D2E000038E0FCA3E0FDA3E0FEA3E0FF90000C62
:102D3E00E0F8A3E0F9A3E0FAA3E0FB1200ADE4FB98
:102D4E00FA792078411200ADE4FBFA79A0784112AD
:102D5E0002A7E4FBFA7980784512019E1203EFA8D0
:102D6E007EEEF608EFF6A97EC3E794104007A87E24
:102D7E00760F0876FF758401A87E08E6F5D2A97E47
:032D8E00E7F5D393
:072D9100057E057E057E2290
:053FBB008F2E7F0022A3
:103E52008B2E8A2F8930120708AB31AA32A933126E
:103E6200074EAB2EAA2FA930900001120721AB31C9
:0D3E7200AA32A9339000011207607F0222DE
:0A2D98008E348F358B368A37893868
:102DA200E4F584E535540FF5BB75BCE0753F047559
:102DB2004000E4F53CF53BF53AF539F53DF53EC307
:102DC200E53E9540E53D953F5037C2AFC2EDD2ECAE
:102DD20030EDFDD2AFAFBFEFFEADBEEDFFE4FCFDC7
:102DE200E53C2FF53CE53B3EF53BED353AF53AEC5B
:102DF2003539F539123903053EE53E70C2053D808D
:102E0200BEAF3CAE3BAD3AAC39780612083A8F3CC5
:102E12008E3B8D3A8C39C3E5359402E53464809457
:102E2200805024E41203B1E4FBFA7980784712025D
:102E3200A7E4FBFA79A0784112019EE4FBFA79201B
:102E420078C11200AD8020AF3CAE3BAD3AAC39E464
:102E52001203B1E4FBFA798078471202A7E4FBFA85
:102E62007920784112019E8F448E438D428C41AF6E
:102E720044AE43AD42AC41ECC0E0EDC0E0EEC0E098
:102E8200EFC0E0E535AE347802C333CE33CED8F9A5
:102E9200243CF58274003EF583E0F8A3E0F9A3E058
:102EA200FAA3E0FBD0E0FFD0E0FED0E0FDD0E0FCF2
:102EB2001200AD8F448E438D428C41C2AFAB36AA15
:082EC20037A93812089DD2AFB8
:012ECA0022E5
:1032DD00C297D296D2957F017E00123987C295A2F0
:1032ED0096E433900012F0D2977F017E0012398759
:1032FD00C2977F017E00123987A296E433900013A6
:10330D00F0D2977F017E00123987C2977F017E0030
:10331D00123987A296E433900010F0D2977F017E88
:10332D0000123987C2977F017E00123987A296E479
:10333D0033900011F0D2977F017E00123987C2972A
:10334D007F017E00123987A2969224D2977F017E4B
:10335D0000123987C2977F017E00123987A296929B
:10336D0023D2977F017E00123987C2977F017E009D
:10337D00123987A2969222D2977F017E0012398749
:0E338D00C2977F017E00123987A296922122FC
:1030F400300803123F98E4FDFF12000E7BFF7A179D
:1031040079B0900014E0FCA3E0FDA3E0FEA3E0F599
:10311400468E458D448C43121C65E4FD7F0A1200E3
:103124000E7BFF7A1779B9900018E0FCA3E0FDA3A9
:10313400E0FEA3E0F5468E458D448C43121C657D6C
:1031440001E4FF12000E900000E07BFF60067A1796
:1031540079CB80047A1779CF8B438A4489457BFFE6
:103164007A1779C2121C657D017F0A12000E900045
:1031740001E07BFF60067A1779CB80047A1779CF58
:103184008B438A4489457BFF7A1779D3121C6530B7
:103194002219201E16900000E070047F0180027F37
:1031A40000900000EFF07F00122C2430241920201E
:1031B40016900001E070047F0180027F00900001FE
:1031C400EFF07F01122C2420080F302103301D065C
:1031D400302306201F037F0122A221921DA22292E6
:0B31E4001EA223921FA22492207F0055
:0131EF0022BD
:103F2000E57D75F004A42414F9740035F0FA7B01E2
:103F3000AF7D7E00122D98E57D045407F57D123289
:043F4000DD0220720C
:1028D700202020202020202020200025622A62643A
:1028E7000025622A62750025622A640025622A751E
:1028F7000025622A2E33660025622A6C6400256251
:102907002A6C7500253262643A2573002020202046
:10291700202020200045534320454E544552202077
:10292700202D202020202B200045534320454E54A6
:102937004552202050524556204E45585400455385
:1029470043202020202020202050524556204E454D
:10295700585400506172616D6574657273207772A7
:10296700697474656E00746F20666C617368206D9E
:10297700656D6F72792E00F470000000F76E00002D
:1029870000FAE4000000FD6D0000000000000000F8
:10299700036B000000064D00000009470000000C13
:1029A700540000000000000000016D0000000267F5
:1029B7000000000373000000046D000000056800BC
:1029C70000000641000000074B00000008DF43003D
:1029D7000009DF46000014487A0000155061000026
:1029E7001662610000175700000018560000001912
:1029F700F40000001A540000001B6C2F73001C52D7
:102A0700504D001D460000005A252500005B52501E
:102A17004D005C636E74005D7800000000000000EC
:102A27000002350000004E6F6465204164720000AB
:102A3700653F800000477FFE003F800000000000E8
:102A47000235000000477270204164720000006781
:102A57003F800000477FFE003F800000000000002D
:102A670032000004466C617368000000000000003B
:102A7700000000000000000000000000000000321D
:102A87000000045265626F6F7400000000000000D0
:0D2A97000000000000000000000000000032
:103D8500C1A9C12CC12BC12A017B00017C0404A758
:103D95000000000004AB0000000004AF00000000BC
:083DA500C125C126C127C12878
:06267900AB34AA35A936BE
:06267F008B388A39893A0C
:10268500E4FD7F0A12000EAB38AA39A93A90000181
:10269500120721B4381B853B43853C44853D457570
:1026A50046007547087B007A0079C3123BF2022881
:1026B500CDE478C3F6AB38AA39A93A9000021207DF
:1026C50021605CE4F53EE53E75F005A4247EF582C7
:1026D500E43429F583E493FF6015AB38AA39A93AA8
:1026E500900002120721FEEF6E6004053E80D7E5DB
:1026F5003E75F005A4247EF582E43429F583E49340
:10270500601DE53E75F005A4247FF9742935F07543
:1027150043FFF54489457B007A0079C3123AF3AB50
:1027250038AA39A93A900001120721605CE4F53E08
:10273500E53E75F005A424B0F582E43429F583E47B
:1027450093FF6015AB38AA39A93A90000112072109
:10275500FEEF6E6004053E80D7E53E75F005A424C6
:10276500B0F582E43429F583E493601DE53E75F008
:1027750005A424B1F9742935F07543FFF54489455D
:102785007B007A0079C3123AF37B007A0079C31291
:102795003F638F3FAB38AA39A93A12070814601D69
:1027A50014605E24FE700302284F2404600302288F
:1027B500CD7BFF7A2879D7123E7F0228CDAB38AA88
:1027C50039A93A900004120721C330E11A740A9519
:1027D5003FF543AB3BAA3CA93D120708F5447BFFF7
:1027E5007A2879E20228CA740A953FF543AB3BAAD9
:1027F5003CA93D120708F5447BFF7A2879E80228B1
:10280500CAAB38AA39A93A900004120721C330E1AE
:102815001D740A953FF543AB3BAA3CA93D1207B889
:10282500F54585F0447BFF7A2879EE0228CA740ABB
:10283500953FF543AB3BAA3CA93D1207B8F5458545
:10284500F0447BFF7A2879F3807BAB38AA39A93A23
:1028550090000412072130E020C3740A953FF54328
:10286500AB3BAA3CA93D12084D8F478E468D458C42
:10287500447BFF7A2879F8804CAB38AA39A93A907D
:102885000004120721C330E11F740A953FF543ABDD
:102895003BAA3CA93D12084D8F478E468D458C4479
:1028A5007BFF7A2879FF801D740A953FF543AB3B82
:1028B500AA3CA93D12084D8F478E468D458C447B19
:1028C500FF7A297905121C657B007A0079C3123ECF
:0128D5007F83
:0128D60022DF
:080AEF00AB34AA35A9367DFFE6
:100AF7008D3B8B388A39893A900001120721643877
:100B0700700302119BAB38AA39A93A12070824FED1
:100B17007003020CFF24FE7003020F01240360031D
:100B270002119B90000412072120E103020BF190B0
:100B370000181208D0C000C001C002C003AC3BECD3
:100B47001203BBD003D002D001D00012019EC00413
:100B5700C005C006C00778B3E6FC1203BBD003D0BC
:100B670002D001D0001200AD1203EF78B3A607AB95
:100B770038AA39A93A90001012086DC004C005C000
:100B870006C00778B3E6FC1203BBA804A905AA06AA
:100B9700AB07D007D006D005D0041203445013ABDF
:100BA70038AA39A93A90001012086D1203EF78B3EA
:100BB700A607AB38AA39A93A90001412086DC004E9
:100BC700C005C006C00778B3E6FC1203BBA804A99A
:100BD70005AA06AB07D007D006D005D004120344F8
:100BE7006002500302119B020CEBE53BB4FF34ABF0
:100BF70038AA39A93A90001012086DC004C005C080
:100C070006C00778B3E6FCE41203BBA804A905AA4B
:100C170006AB07D007D006D005D0041203447003F3
:100C270002119BAB38AA39A93A9000181208D0C014
:100C370000C001C002C003AC3BEC1203BBD003D021
:100C470002D001D00012019EC004C005C006C00733
:100C570078B3E6FCE41203BBD003D002D001D00086
:100C67001200AD1203EF78B3A607AB38AA39A93A39
:100C770090001012086DC004C005C006C00778B305
:100C8700E6FCE41203BBA804A905AA06AB07D00734
:100C9700D006D005D0041203445013AB38AA39A9A3
:100CA7003A90001012086D1203EF78B3A607AB381D
:100CB700AA39A93A90001412086DC004C005C006ED
:100CC700C00778B3E6FCE41203BBA804A905AA068B
:100CD700AB07D007D006D005D004120344600250FA
:100CE7000302119BAB38AA39A93A90001412086D78
:100CF7001203EF78B3A60722AB38AA39A93A9000B6
:100D07000412072120E103020DDE9000181208D01B
:100D1700C000C001C002C003AC3BEC1203BBD00350
:100D2700D002D001D00012019EC004C005C006C089
:100D37000778B3E6FC08E6FDEC1203B6D003D00251
:100D4700D001D0001200AD1203EF78B3A60608A6B3
:100D570007AB38AA39A93A90001012086DC004C031
:100D670005C006C00778B3E6FC08E6FDEC1203B63B
:100D7700A804A905AA06AB07D007D006D005D0045A
:100D87001203445016AB38AA39A93A90001012083A
:100D97006D1203EF78B3A60608A607AB38AA39A9E0
:100DA7003A90001412086DC004C005C006C0077849
:100DB700B3E6FC08E6FDEC1203B6A804A905AA06EB
:100DC700AB07D007D006D005D00412034460025009
:100DD7000302119B020EEAE53BB4FF37AB38AA3991
:100DE700A93A90001012086DC004C005C006C007DC
:100DF70078B3E6FC08E6FDE41203B6A804A905AA41
:100E070006AB07D007D006D005D004120344700301
:100E170002119BAB38AA39A93A9000181208D0C022
:100E270000C001C002C003AC3BEC1203BBD003D02F
:100E370002D001D00012019EC004C005C006C00741
:100E470078B3E6FC08E6FDE41203B6D003D002D07F
:100E570001D0001200AD1203EF78B3A60608A6076B
:100E6700AB38AA39A93A90001012086DC004C00522
:100E7700C006C00778B3E6FC08E6FDE41203B6A88F
:100E870004A905AA06AB07D007D006D005D00412DF
:100E970003445016AB38AA39A93A90001012086DCE
:100EA7001203EF78B3A60608A607AB38AA39A93A02
:100EB70090001412086DC004C005C006C00778B3BF
:100EC700E6FC08E6FDE41203B6A804A905AA06ABEA
:100ED70007D007D006D005D00412034460025003A0
:100EE70002119BAB38AA39A93A90001412086D1267
:100EF70003EF78B3A60608A60722AB38AA39A93AA2
:100F070090000412072120E003020FA678B312080D
:100F1700C3C000C001C002C003AB38AA39A93A90C8
:100F270000181208D0C000C001C002C003AC3BECDF
:100F37001203BBD003D002D001D00012019ED00310
:100F4700D002D001D0001200AD78B3120900AB383F
:100F5700AA39A93A90001012086D78B31208C31283
:100F670003445011AB38AA39A93A90001012086D02
:100F770078B3120900AB38AA39A93A9000141208BD
:100F87006D78B31208C31203446002500302119B29
:100F9700AB38AA39A93A90001412086D021196AB22
:100FA70038AA39A93A90000412072120E103021058
:100FB7008A9000181208D0C000C001C002C003AC5C
:100FC7003BEC1203BBD003D002D001D00012019E2C
:100FD700C004C005C006C00778B31208B7EC1203F7
:100FE700B1D003D002D001D0001200AD1203EF78C8
:100FF700B3120900AB38AA39A93A90001012086D4C
:10100700C004C005C006C00778B31208B7EC1203C6
:10101700B1A804A905AA06AB07D007D006D005D00A
:10102700041203445014AB38AA39A93A900010129D
:10103700086D1203EF78B3120900AB38AA39A93A41
:1010470090001412086DC004C005C006C00778B32D
:101057001208B7EC1203B1A804A905AA06AB07D07A
:1010670007D006D005D004120344600250030211D2
:101077009BAB38AA39A93A90001412086D1203EFF6
:10108700021196E53BB4FF35AB38AA39A93A90006F
:101097001012086DC004C005C006C00778B3120857
:1010A700B7E41203B1A804A905AA06AB07D007D075
:1010B70006D005D004120344700302119BAB38AA73
:1010C70039A93A9000181208D0C000C001C002C068
:1010D70003AC3BEC1203BBD003D002D001D000120B
:1010E700019EC004C005C006C00778B31208B7E464
:1010F7001203B1D003D002D001D0001200AD120309
:10110700EF78B3120900AB38AA39A93A9000101248
:10111700086DC004C005C006C00778B31208B7E45D
:101127001203B1A804A905AA06AB07D007D006D0B9
:1011370005D0041203445014AB38AA39A93A9000D9
:101147001012086D1203EF78B3120900AB38AA39F1
:10115700A93A90001412086DC004C005C006C00764
:1011670078B31208B7E41203B1A804A905AA06AB1D
:1011770007D007D006D005D00412034460164014E8
:10118700AB38AA39A93A90001412086D1203EF7808
:05119700B31209002263
:083CDF008F388B398A3A893BCA
:103CE700E4FDFF12000EAB39E53B2405F9E4353A54
:103CF700FA78C37C007D007E007F081206E2E47834
:103D0700CBF6853843F5447545007546C37BFF7A86
:0F3D170029790B121C657BFF7A297913023E7FF5
:10207200302918123F8BE47B2C7A01F9F8C312083D
:102082002940030223F1C229123F98123F8BC00458
:10209200C005C006C00778A71208B7EF240AFBE400
:1020A2003EFAE43DF9E43CF8D007D006D005D0046E
:1020B200C312082940030223F1123F8B78A71209A9
:1020C20000E57B75F01FA4302B072428F9742A80C1
:1020D2000524E5F9741735F07534FFF53589362096
:1020E2002C10C2081230F4EF70030223E1D22C024A
:1020F20023E1202A03022227753B00753C00753D2F
:10210200B31226797D01E4FF12000E7BFF7A297952
:102112001C123E7F302105202502C22A3022542083
:102122002651C22AAB34AA35A936120708FF7E000F
:1021320090000D120972A801AC02AD037B007A0077
:1021420079B31206E2302B0CE57B60046401702344
:10215200D214801FAF7B122C2475F01FE57BA424C0
:10216200E9F582E5F03417F583E49330E505AF7BBA
:102172001231F030230E20270B120AEF123F8B7818
:10218200AB12090030232E123F8BC004C005C006DB
:10219200C00778AB1208B7EF2446FBE43EFAE43DF1
:1021A200F9E43CF8D007D006D005D004C3120829C0
:1021B2005003120AEF20230978AB12090C00000029
:1021C20000302416202813AB34AA35A9367D01121B
:1021D2000AF7123F8B78AF120900302436123F8B78
:1021E200C004C005C006C00778AF1208B7EF244686
:1021F200FBE43EFAE43DF9E43CF8D007D006D00512
:10220200D004C3120829500BAB34AA35A9367D017C
:10221200120AF73024030223E178AF12090C0000FE
:1022220000000223E1AB34AA35A936AF7B123CDFB2
:10223200AB34AA35A93690000D1209728B3B8A3C49
:10224200893D1226797D01E4FF12000EAB34AA35D6
:10225200A93690001812086DE4FBFAF9F81203444B
:10226200400FAB34AA35A93690000412072130E2A0
:10227200087BFF7A29793080067BFF7A297945121B
:102282003E7F302114202511302B07C22BE4F57B31
:102292008007C22CD2081230F4302268202665ABA7
:1022A20034AA35A936120708FFD394045018EF94C4
:1022B200004013D22A7E0090000D12097278B37C7E
:1022C200007D001206E2302B31E57B6402702BD2D6
:1022D20014123F98E4FDFF12000E7BFF7A29795A0F
:1022E200123E7F7D01E4FF12000E7BFF7A29796D99
:1022F200123E7F7FB87E0B123EA9302B07E57BB4DE
:102302000302D216302319202716E57B7008787F46
:10231200E614F57B8002157B123F8B78AB12090025
:10232200302339123F8BC004C005C006C00778AB0A
:102332001208B7EF2446FBE43EFAE43DF9E43CF828
:10234200D007D006D005D004C3120829500EE57B71
:102352007008787FE614F57B8002157B20230978CC
:10236200AB12090C00000000302B05857C3780057C
:10237200787FE6F537302415202812E57B0485376F
:10238200F08485F07B123F8B78AF12090030243540
:10239200123F8BC004C005C006C00778AF1208B751
:1023A200EF2446FBE43EFAE43DF9E43CF8D007D0E2
:1023B20006D005D004C3120829500AE57B048537EC
:1023C200F08485F07B20240978AF12090C0000000C
:1023D2000030230B302408202B05E4F57BD22BA2FE
:0F23E200219225A2229226A2239227A22492289A
:0123F10022C9
:1000A60002045BE86480F8E933E83360110460F029
:1000B600ED33EC337009E8FCE9FDEAFEEBFF2204C0
:1000C60060DED3EB9FEA9EE99DE8C2E78CF0C2F7BB
:1000D60095F0400CE8CCF8E9CDF9EACEFAEBCFFB87
:1000E60012042685D0F05804700320D5B3E80470B6
:1000F600075002B2D502046592D5EC0460F7E4CC51
:10010600C0E0C398F8603B94186008400DD0E0FB4F
:1001160002043DE4FBFAC9FC8028E830E406E4C9A1
:10012600FBE4CAFCE830E305E4C9CACBFCE85407A3
:100136006010F8C3E913F9EA13FAEB13FBEC13FCAE
:10014600D8F130F52FC3E49CFCEF9BFFEE9AFEED51
:1001560099FDD0E0FBEF4E4D4C701222DB030204FA
:1001660062EC2CFCEF33FFEE33FEED33FDED30E7B2
:10017600EB02043DEF2BFFEE3AFEED39FDD0E0FB3E
:1001860050130BBB0003020465ED13FDEE13FEEFE7
:0801960013FFEC13FC02043D11
:10019E00EC4D6011E8497017ED33EC3304600DE45B
:1001AE00FCFFFEFD22E933E8330470F802045B1213
:1001BE00042658046009E4CC248150062850090214
:1001CE000465284003020462C0E0EB4A7044B98023
:1001DE0006D0E0FB020451EF4E701CBD8008EBFF11
:1001EE00EAFEE9FD80EBE98DF0A4FEE5F002028760
:1001FE00E9CDF9EAFEEBFFEF89F0A4FCE5F0CE893C
:10020E00F0A42EFFE435F0CD89F0A42DFEE435F0F8
:10021E008067EF4E7005BD80D780C3EF8BF0A4AC26
:10022E00F0EE8BF0A42CFCE435F0F8EF8AF0A42C61
:10023E00E5F038FCE433CB8DF0A42CFCE5F03BF874
:10024E00EE8AF0A42CFCE5F038F8E433CF89F0A464
:10025E002CFCE5F038CF3400CE89F0A42FFFE5F06A
:10026E003EFEE433C98DF0A42EFEE5F039CD8AF0C2
:10027E00A42FFFE5F03EFEE43DFD33D0E0FB50073A
:10028E000BBB000F020465EC2CFCEF33FFEE33FECC
:06029E00ED33FD02043DFA
:1002A400020465EC5D046005E85904700302045B14
:1002B400120426580460F6EC4860F2EC7004FDFE6B
:1002C400FF22C860DB2481C85009C398600250062D
:1002D4000204629850CAF582E9294B4A7005AB8240
:1002E40002045175F0007C1A7880C3EF9BEE9AEDFE
:1002F40099400DC3EF9BFFEE9AFEED99FDE842F0A5
:10030400DC23ACF0D0E0FFD0E0FED0E0FDAB8220F7
:10031400E7101BEB60BAEC2CFCEF33FFEE33FEED81
:1003240033FD02043DE803F830E705C0F075F00042
:10033400EF2FFFEE33FEED33FD40B830E7C280AA65
:1003440074F8CC6480CCC86480C8F582046043C36C
:10035400EB9FF5F0EA9E42F0E99D42F0E89C45F0FF
:1003640060305018E5825FFFE582F42B5582FB5024
:10037400210ABA001D09B90019088016E5825BFB41
:10038400E582F42F5582FF50090EBE00050DBD0015
:10039400010CC3EB9FF5F0EA9E42F0E99D42F0E8C0
:0D03A4009C45F06007CC4820E701B3EC2237
:1003B10075F020800E75F010800575F0087D007EC7
:1003C100007F003392D530D50312081BEC33401067
:1003D100EF33FFEE33FEED33FDEC33FCD5F0ED22D0
:0E03E100E5F0247EA2D513CC92E7CDCEFF220C
:1003EF00EDD2E7CD33EC3392D524814006E4FFFE06
:1003FF00FDFC22FCE4CFCECDCC24E0501174FF8065
:10040F00EDC3CC13CCCD13CDCE13CECF13CF047001
:07041F00F030D5DE02081BDE
:101C0300E5572443F8E6055722784030100278431D
:101C1300E475F0011209620207082009EB7F2ED256
:101C2300098018EF540F2490D43440D4FF300D0BA7
:101C3300EF24BFB41A0050032461FFE55860021576
:101C430058055BE55B7002055A30100D7840E4756A
:101C5300F001120962EF02074E023F787403D210BB
:101C63008003E4C210F5578B408A418942E4F5585A
:101C7300F55AF55BE55860077F20121C3E80F57529
:101C830059FFC20AC209C20BC20CC20EC20FC21153
:101C9300121C0CFF700D3010057F00121C4FAF5B40
:101CA300AE5A22B4255FC2D5C20D121C0CFF24D03C
:101CB300B40A00501A75F00A785830D50508B6FFF3
:101CC3000106C6A426F620D5047002D20C80D924BE
:101CD300CFB41A00EF5004C2E5D20D021F3CD20A62
:101CE30080C6D20980C0D20B80BCD2D580BAD20EB6
:101CF30080B47F20121C3E200B077401B5580040AE
:101D0300F1121C03FF121C3E021C77D211D20F806A
:101D130095121C03FB121C03FA121C03F94A4B70A5
:101D23000679337A207BFF200B2EE558602A7E004C
:101D33008E8275830012072160060EEE655970F0DE
:101D4300C2D5EBC0E0EAC0E0E9C0E0EE121F9CD0D0
:101D5300E0F9D0E0FAD0E0FB120708FF60AAEBC07D
:101D6300E0EAC0E0E9C0E0121C3ED0E02401F9D073
:101D7300E03400FAD0E0FBE5590460DCD559D980A2
:101D830087D20B80A2121F7F60F7E55970010412FE
:101D93000470A959600DE559600914F559122026FC
:101DA300EF60F3EA30E702F404C3995077EAF425CD
:101DB300590430E701E404F559800D121F7F60C117
:101DC300EA05592559120470EA7856F630E701E41A
:101DD300255904D55904200E0114121F9CE4C0E0B8
:101DE3001220267856E6601320E70714F6121C2605
:101DF300802204F6D0E014C0E07F00121C26E559CF
:101E03006007121C1D1559800B300E03121C1DD0C8
:101E1300E0021C77D0E00480C5121F7F60A0E55963
:101E2300041204707856EAF6E559200E02600104A4
:051E33002404121F9CB5
:101E380074FF04C0E0122026121C26E559200E0269
:101E48006003121C1DD0E0B559E87F45121C30789C
:101E580056E67F2B30E7047F2DF404C0E0121C3EC9
:101E6800D0E075F00A84C0F0121C27D0E0121C27BD
:101E7800021C77791080027908C20FC2118008D23B
:101E8800D5790A8004790AC2D5E559047002F55952
:101E9800E4FAFDFEFF121C03FC7B08200A13121C47
:101EA80003FD7B1030090A121C03FE121C03FF7B82
:101EB80020EC3382D592D55013C3E43009069FFF36
:101EC800E49EFEE4200A039DFDE49CFCE4CBF8C2FA
:101ED8000AEC700CCFCECDCCE824F8F870F380175C
:101EE800C3EF33FFEE33FEED33FDEC33FCEB33FB96
:101EF800994002FB0FD8E9EB300A05F8D0E0C44856
:101F0800B20AC0E00AEC4D4E4F78207B0070C2EA5E
:101F1800B5590040BCC0E0121F9ED0F0D0E0200AA6
:101F280004C4C0E0C4B20AC0F0121C27D0F0D5F037
:101F3800EB021C771209A21D14531E7B581CE54C9A
:101F48001CE1421E7F4F1E87441E87491CFA431E10
:101F58008D551DBE461E1C451D88472053501CE943
:101F68002D1CED2E1D102B1CF1231D0E20203C2AAC
:101F78001CA94800001D08E559B4FF03755906124D
:101F88001C03FC121C03FD121C03FE121C03FF7829
:101F98004F02049F790AA2D5200C14300E09B910FB
:101FA800020404B9080104A2D5200F02500104203C
:101FB8000B68920BB558005034C0E07F20300C19E4
:101FC8007F30A20B720F720E500F121FF5C20BC298
:101FD8000FC20EC2117F30800F300E03E9C0E0122D
:101FE8001C3E300E03D0E0F9D0E0B558CC300E17C7
:101FF8007F30B9100C121C3E7F58300D077F788057
:1020080003B90803121C3E300B057F2D021C3E7FCE
:10201800202011F87F2B200FF322920B80CF7F0016
:10202800B407005005244FF8E6FF22286E756C6C43
:102038002900D20A121C03300AF8C20A785830D58F
:102048000108F6021CA92D50434958121C03240309
:10205800B405004001E490204E93121C2F743A12EC
:0A2068001C2FD20C755804021E7BD9
:10042600E9D2E7C933E833F892D5EDD2E7CD33EC1C
:0704360033FC5002B2D52295
:10043D00EC30E7100FBF000C0EBE00080DBD000420
:10044D000BEB6014A2D5EB13FCED92E7FD2274FFCC
:10045D00FCFDFEFF22E480F8A2D574FF13FC7D8025
:03046D00E480EF39
:10047000F920E72824F950037907E4F42402FB1853
:10048000DBFDE624FB5014E9600DE4F618E604F603
:0F049000B40A08E4F6D9F57401F60A22C2D5229F
:10049F00ED33EC3392D5FA602AB4FF33EDC2E77B2C
:1004AF00FF60067A0479C4E4227A0479CD20D5045A
:1004BF007A0479C8224E614E002B494E46002D49D1
:1004CF004E4600E47A08F608DAFC7B00740722E84F
:1004DF00C0E0ECC0E0EDC0E0EEC0E0EFC0E0EA75D8
:1004EF00F010A4CAABF075F04DA42BFBE435F0FC73
:1004FF00EA2410FAEB34C5FBEC34D9FCEDC2E7FF6C
:10050F0075F056A4F42411C5F0F434C58FF0A42A65
:10051F00E5F03BE43CF620E7141205D2D0E0FFD023
:10052F00E0FED0E0FDD0E0FC1202A78014F404122C
:10053F0005D2D0E0FFD0E0FED0E0FDD0E0FC12010C
:10054F009ED0E0F8E6FAEDD2E7CD33EC332482FB10
:10055F00E4C3CF33CFCE33CECD33CD33DBF37B07F5
:10056F0075F00A846004F6081B0AE5F0F6088FF0B0
:10057F00740AA4FFACF08EF0740AA42CFEACF050F9
:10058F00010C8DF0740AA42CFDE435F0F608DBDEC7
:03059F00740722BC
:1005A2003F8000004120000042C80000447A000061
:1005B200461C400047C35000497424004B189680E3
:1005C2004CBEBC205A0E1BCA6753C21C749DC5AEDA
:1005D200FB60065407601C2323120600EB543860AC
:1005E200091205EC1205FB12019EECF8EDF9EEFA88
:1005F200EFCB22EB1205FB80F1543803241C90054B
:10060200A2FE93FC0EEE93FD0EEE930ECE93FF220E
:0300000002377F45
:0C377F00787FE4F6D8FD7581CD0237C6D6
:10061200E709F608DFFA8046E709F208DFFA803ECA
:1006220088828C83E709F0A3DFFA8032E309F608B7
:10063200DFFA8078E309F208DFFA807088828C831F
:10064200E309F0A3DFFA806489828A83E0A3F608D3
:10065200DFFA805889828A83E0A3F208DFFA804CAD
:1006620080D280FA80C680D4806980F28033801084
:1006720080A680EA809A80A880DA80E280CA8033ED
:1006820089828A83ECFAE493A3C8C582C8CCC58365
:10069200CCF0A3C8C582C8CCC583CCDFE9DEE78035
:1006A2000D89828A83E493A3F608DFF9ECFAA9F0B4
:1006B200EDFB2289828A83ECFAE0A3C8C582C8CC0A
:1006C200C583CCF0A3C8C582C8CCC583CCDFEADE23
:1006D200E880DB89828A83E493A3F208DFF980CC85
:1006E20088F0EF60010E4E60C388F0ED2402B4047E
:1006F2000050B9F582EB2402B4040050AF23234525
:06070200822390066273E1
:10070800BB010689828A83E0225002E722BBFE02EF
:09071800E32289828A83E4932222
:10072100BB010CE58229F582E5833AF583E022508D
:1007310006E92582F8E622BBFE06E92582F8E222D7
:0D074100E58229F582E5833AF583E49322F1
:10074E00BB010689828A83F0225002F722BBFE018A
:02075E00F32284
:10076000F8BB010DE58229F582E5833AF583E8F0CF
:10077000225006E92582C8F622BBFE05E92582C87B
:02078000F22263
:10078200C2D5EC30E709B2D5E4C39DFDE49CFCEE92
:1007920030E715B2D5E4C39FFFE49EFE1209F4C30D
:1007A200E49DFDE49CFC80031209F430D507C3E408
:0607B2009FFFE49EFE2201
:1007B800BB010A89828A83E0F5F0A3E0225006870C
:1007C800F009E71922BBFE07E3F5F009E3192289CE
:0B07D800828A83E493F5F07401932201
:1007E300BB010789828A83020A49500B09C5F02796
:1007F300F7C5F01937F722BBFE0D09F8E325F0F32F
:10080300C5F019E338F322F889828A8374019325AA
:08081300F0C5F0F8E49338226F
:0E081B00C3E49FFFE49EFEE49DFDE49CFC22EE
:10082900EB9FF5F0EA9E42F0E99D42F0E89C45F025
:01083900229C
:10083A00E8600FECC313FCED13FDEE13FEEF13FF9C
:03084A00D8F122C0
:10084D00BB010789828A83020A5F5005E9F8020815
:10085D00B7BBFE05E9F8020A6B89828A83020A7723
:10086D00BB010DE58229F582E5833AF583020A5F26
:10087D005007E92582F80208B7BBFE07E92582F883
:10088D00020A6BE58229F582E5833AF583020A7740
:10089D00BB010789828A83020AB05005E9F8020973
:0A08AD0000BBFE05E9F8020ABC22B8
:0C08B700E6FC08E6FD08E6FE08E6FF226D
:0D08C300E6FB08E6F908E6FA08E6CBF822A5
:1008D000BB010DE58229F582E5833AF583020A879B
:1008E0005007E92582F80208C3BBFE07E92582F814
:1008F000020A93E58229F582E5833AF583020AA08C
:0C090000ECF608EDF608EEF608EFF62223
:10090C00D083D082E493F608740193F608740293B2
:09091C00F608740393F6740473E9
:10092500A8828583F0D083D08212093C12093C123B
:10093500093C12093CE473E493A3C583C5F0C58360
:10094500C8C582C8F0A3C583C5F0C583C8C582C81C
:01095500227F
:0C095600A42582F582E5F03583F58322AC
:10096200FAE6FB0808E6F925F0F618E6CA3AF62296
:10097200BB010DE58229F582E5833AF583020AD1AE
:100982005007E92582F8020AC8BBFE07E92582F86A
:10099200020ADAE58229F582E5833AF583020AE35F
:1009A200D083D082F8E4937012740193700DA3A3E4
:1009B20093F8740193F5828883E4737402936860F8
:0609C200EFA3A3A380DFF8
:103E7F00120708601CFF09E970010AC0E0EAC0E000
:103E8F00EBC0E0123F78D0E0FBD0E0FAD0E0F98051
:0A3E9F00DF7F0A123F78E4FEFF22E5
:103AF3008B408A4189428B468A478948AB400542BD
:103B0300E542AA417002054114F912070870ED74E9
:103B1300FF2542F54274FF3541F541AB430545E5C9
:103B230045AA447002054414F9120708FFAB400587
:103B330042E542AA417002054114F9EF12074E70A3
:083B4300DAAB46AA47A94822AB
:103BF2008B408A418942E4F548F549E5471547AECD
:103C020046700215464E6033AB43AA44A9451207DB
:103C120008FFAB40AA41A9420549E549AC487002F8
:103C2200054814F5828C83EF120760EF60CD7401B2
:103C32002545F545E43544F54480C0AB40AA41A989
:023C420042221C
:103F6300E4FFFE120708600C0FEF70010E09E97001
:053F7300F20A80EF22BC
:1009C800EF4E6012EF60010EEDBB010B89828A8346
:1009D800F0A3DFFCDEFA2289F05007F709DFFCA953
:0C09E800F022BBFEFCF309DFFCA9F022AA
:10378B00023FA5E493A3F8E493A34003F68001F270
:10379B0008DFF48029E493A3F85407240CC8C3333F
:1037AB00C4540F4420C8834004F456800146F6DF0E
:1037BB00E4800B0102040810204080903D6BE47EF6
:1037CB00019360BCA3FF543F30E509541FFEE49303
:1037DB00A360010ECF54C025E060A840B8E493A3CA
:1037EB00FAE493A3F8E493A3C8C582C8CAC583CAF5
:1037FB00F0A3C8C582C8CAC583CADFE9DEE780BEAD
:013DAD000015
:1009F400BC000BBE0029EF8DF084FFADF022E4CCE7
:100A0400F875F008EF2FFFEE33FEEC33FCEE9DECAF
:100A1400984005FCEE9DFE0FD5F0E9E4CEFD22EDF5
:100A2400F8F5F0EE8420D21CFEADF075F008EF2F3F
:100A3400FFED33FD4007985006D5F0F222C398FD30
:050A44000FD5F0EA22CD
:100A4900C5F0F8A3E028F0C5F0F8E5821582700238
:060A59001583E038F022D5
:0C0A5F00E0FCA3E0FDA3E0FEA3E0FF220A
:0C0A6B00E2FC08E2FD08E2FE08E2FF22C7
:100A7700E493FC740193FD740293FE740393FF22C5
:0C0A8700E0F8A3E0F9A3E0FAA3E0FB22F2
:0D0A9300E2FB08E2F908E2FA08E2CBF822E3
:100AA000E493F8740193F9740293FA740393FB22AC
:0C0AB000ECF0A3EDF0A3EEF0A3EFF022B9
:0C0ABC00ECF208EDF208EEF208EFF22276
:090AC800E6FB08E6FA08E6F92253
:090AD100E0FBA3E0FAA3E0F92226
:090ADA00E2FB08E2FA08E2F9224D
:0C0AE300E493FB740193FA740293F9226F
:00000001FF
