:03000E0001DA0014
:100C6A00E478DAF675FFDE75FFAD75E104F5E27535
:100C7A00E34075A401F5A5F5A675A72075B16775BA
:100C8A00B20875FF0775FFA543B28075EF08121900
:100C9A00EBE4F532F5337D01AF33121A397D01AF3A
:100CAA0033121BB9121C740533E53370020532C3C3
:100CBA009401E532940040DEE4F520C20EC209C276
:100CCA0011C20BC20DC210C20FC2B578B8F678B6FF
:100CDA00F618F678BCF6F532F53374BE2533F8E427
:100CEA00F60533E533700205326414453270EBE4DD
:100CFA00F532F53374D22533F8E4F60533E533706B
:100D0A000205326408453270EB7D05E4FF121C05CA
:100D1A00E478BBF678B3F678B3E6FF75F010A4244E
:100D2A0072F582E5F03410F583E493FE78BB26F67B
:100D3A00EE600578B30680DFEFD39400402A901066
:100D4A007FE493FB740193FA740293F974551203C6
:100D5A00FF1203B964556002D20F74AA1203FF127C
:100D6A0003B964AA6002D20F121564EF6003020E7F
:100D7A005474FFF55FF560F561F562E4F563F564B7
:100D8A00FE7F10FDFB7A0079651205EB7537FF755A
:100D9A00381075396A753A00753B107B007A00790C
:100DAA0065121999E4F532F533E533C4F8540FC8DE
:100DBA0068FFE532C454F048FE74722FF58274104D
:100DCA003EF583E493607C74762FF58274103EF5C9
:100DDA0083E49320E262E4F531E531C378B29650B8
:100DEA0057E533C4F8540FC868FFE532C454F048D5
:100DFA00FE74722FF58274103EF583E493FD7C0035
:100E0A00C004C0057D00747F2FF58274103EF583FF
:100E1A00E493FB740193FA740293F978BBE6853183
:100E2A00F0A4FFE92FF9EA35F0FAD007D006120547
:100E3A00EB121C74053180A10533E53370020532CB
:100E4A00020DB37F01121BE08016D20DE4FF121BC4
:100E5A00E0E5EF30E30AD2030564E5647002056356
:100E6A00E4F532F5337A007B967D03AF331217C16E
:100E7A000533E53370020532C39401E5329400402C
:010E8A00E483
:010E8B002244
:051C6A0078BCE6FF223A
:0100210022BC
:030023000213F4D1
:1013F400C0E0C0F0C083C082C0D075D00830991C52
:10140400C29978B606E6FF78B866700978B6F6C26F
:10141400B5D20A800774D22FF8E6F5992098030212
:1014240014A3209A07200E04C298806FC29A78B53C
:10143400E60624BEF8A699C29878B5E6FFB401136F
:1014440078BEE6FE700578B5F68054EE54072402A3
:1014540078BDF6EFB4020E78BDE6B4090878BFE6AD
:10146400240379BDF7D20878B5E6FFB414047600F6
:10147400802DEFC378BD9640267B007A0079BE7834
:10148400B5E624FFFDE434FFFC121AC078B5E62467
:10149400BDF8E66F6002800312068278B57600D04C
:0A14A400D0D082D083D0F0D0E03227
:1018990078BCE6FF18E68FF0A47C002525FFEC351F
:1018A900F0FE78BFE675F010A4247FF582E5F034E8
:1018B90010F583E493FB740193FA740293F98F8210
:0818C9008E831203D2FF7D2380
:1018D1008F2B8D2CE52C6010F8E6FFE52BFD7C00AD
:1018E100120003A82CC6EFC6852B993099FDC29929
:0118F10022D4
:101B3100C9EFC9EDC39B402378B2E6FFEB2FFFE469
:101B410033FEEDC39FEE6480F8748098500DD20E81
:101B5100C3ED9B78BCF678B7E9F622C20EE478B7FC
:021B6100F6226A
:101A8100C9EFC9BAFF0FBBFF0CED6B7002EC6A70B6
:101A910027D20E801BC3ED9BEC9A401C78B2E62B3B
:101AA100FFE43AFEC3ED9FEC9E500DD20EC3ED9BB9
:0F1AB10078BCF678B7E9F622C20EE478B7F622D1
:1006820078BEE6FF54F8F524EF1205C506C8090640
:10069200D30A06E21006E91106F812070B19071F22
:1006A2001A074520074A2807B429086B34088B37F4
:1006B20008BF3908CE4108D74908E0500907610848
:1006C200E4980000093878BFE6FDE560FB7F018011
:1006D2001F78BFE6FC08E6FDAB60AA5F7F018023BE
:1006E200E4FBFD7F03800978BFE6FDE562FB7F0244
:1006F200121B3102093878BFE6FC08E6FDAB62AA9C
:10070200617F02121A8102093878BFE6FDE560FBBB
:100712007F01121B31200E03020938801678BFE6D2
:10072200FC08E6FDAB60AA5F7F01121A81200E036E
:1007320002093878D2767878B87601D2B575997888
:10074200020938D20B020938C2ACE4F523D2B57DD6
:10075200237F7F1218D17D237F181218D17D237F2A
:10076200171218D178B3E6FF7D231218D17D23AF7B
:100772005F1218D17D23AF601218D17D23AF6112B1
:1007820018D17D23AF621218D17D23AF631218D125
:100792007D23AF641218D1E4F52574652525F8E6AA
:1007A200FF7D231218D10525E525C3941040EB02E5
:1007B200085D78BFE6FFC378B39640030209387537
:1007C200F010EFA42472F582E5F03410AF82F5291F
:1007D2008F2AC2ACE4F523D2B57D237F7F1218D1D4
:1007E2007D237F0D1218D1852A82852983E493FF08
:1007F2007D231218D1852A82852983740193FF7D76
:10080200231218D1852A82852983740293FF7D23BE
:100812001218D1852A82852983740393FF7D2312BE
:1008220018D1852A82852983740493FF7D231218A7
:10083200D1E4F525E52A2405F582E43529F583E599
:10084200822525F582E43583F583E493FF7D231227
:1008520018D10525E525C3940840D9E4FDAF23123C
:1008620018D1C2B5D2AC0209387A007B327D017848
:10087200BCE6FF1217C178BFE6F55F08E6F560082F
:10088200E6F56108E6F562802E7A007B327D01781A
:10089200BCE6FF1217C1E4F525E525C378BF9650E3
:1008A2001674C02525F8E6FF74652525F8C6EFC63F
:1008B2000525E525B410E2D209D20C80797A007BB5
:1008C200327D0178BCE6FF1217C1806A78BFE62448
:1008D200FF9202806178BFE624FF92018058D21114
:1008E20080547A007B327D0178BCE6FF1217C1D2B8
:1008F2000978D2767878B5E624BDF8E678D3F6782A
:10090200B87602802A7A007B327D017F001217C1FD
:1009120078D2767978BFE678D3F67B007A0079D2FE
:100922007D027C00121AC078D4EFF678B87603D232
:10093200B578D2E6F599E52464A06003020ACE7880
:10094200BEE664A16003020A0A08E6FFC378B39612
:100952004003020ACE75F010EFA42472F582E5F08E
:100962003410F583E493F52775F010EFA42476F59F
:1009720082E5F03410F583E49330E235121C6F8F78
:1009820027E527247878D2F67B007A0079D2E5270A
:100992002401FDE433FC121AC074D32527F8EFF6C4
:1009A200E527240278B8F6D2B578D2E6F599020A9C
:1009B200CE78BFE6FF121C6FC2ACE4F523D2B5E5D8
:1009C20027D3940640247D237F7F1218D17D23AF45
:1009D200271218D1E4F525E525C3952750071218EB
:1009E20099052580F20527020AC3E5272478FF7DB1
:1009F200231218D1E4F525E525C3952750071218CF
:100A020099052580F2020AC378BEE664A260030259
:100A12000ACE78B3E6FF78BFE6FEC39F4003020A20
:100A2200CE08E6FDC39F4003020ACEEEC39D4003FB
:100A3200020ACE18E6F525E4F527E525D378C09617
:100A4200501FAF25121C6F75F010E525A42472F516
:100A520082E5F03410F583E4932527F527052580F8
:100A6200D9C2ACE4F523D2B57D237F7F1218D17DA4
:100A720023AF271218D178BFE6F525E525D378C034
:100A820096503EE4F52675F010E525A42472F58211
:100A9200E5F03410F583E493FFE526C39F501E78FA
:100AA200BCE6FF18E68FF0A47C002526FFEC35F0AB
:100AB200FE75F010E5251218B1052680C9052580BE
:100AC200BAE4FDAF231218D1C2B5D2ACE524645802
:100AD200704DFA7B327D0178BCE6FF1217C1752E8C
:100AE20000752F007530D37B007A0079BF121B632B
:100AF2008F27E527247878D2F67B007A0079D2E531
:100B0200272401FDE433FC121AC074D32527F8EF21
:100B1200F6E527240278B8F6D2B578D2E6F599E55B
:100B22002464806009E52464886003020C697A0009
:100B32007B327D0178BCE6FF1217C178BEE654070E
:100B4200F527B4070A75260108E6F527088005E4AB
:100B5200F52678BFE6F5281527E528C378B3964031
:100B620003020C4175F010E528A42472F582E5F029
:100B72003410F583E493FFE527D39F40028F27E4E7
:100B8200F525E525C395274003020C3475F010E5E1
:100B920028A42476F582E5F03410F583E49330E25C
:100BA20003020C2F75F010E528A42473F582E5F0FA
:100BB2003410F583E4936438701BE527D394044022
:100BC20008E526252524C0802A78B5E6C39525FFA9
:100BD20074BC2F801E75F010E528A42472F582E5FE
:100BE200F03410F583E493FFC378B5E69F252525FD
:100BF2002624BDF8E6FD78BCE6FF18E68FF0A4FFD8
:100C0200E5257A002FFFEA35F0FE75F010E528A4FD
:100C1200247FF582E5F03410F583E493FB740193AD
:100C2200FA740293F98F828E83ED12041105250264
:100C32000B84AF28121C61E5246488702A800FE5BA
:100C420028B4FF2378C0E6F520E524B4881978D2C9
:100C5200767878B5E624BDF8E678D3F678B87602E9
:070C6200D2B578D2E6F59946
:010C69002268
:10700000C2AF75FFDE75FFADE4F537F536D2B5C218
:10701000997599783099FDC299E4F5993099FDC236
:10702000B53098FD859936C298E4F538E53624FDEB
:10703000605214700302710614700302713E24033F
:1070400060030271413098FD859937C298E5372574
:10705000E0FEC3E49400EE94705023E5B654F0448F
:1070600008F5B6758F03E53725E0F53A753B0085E1
:107070003B82F583E4F053B6F0F58F027141753829
:10708000FF027141C2B43098FD859937C298E5B6C8
:1070900054F04408F5B6758F01E53725E0F53A75EB
:1070A0003B00E4FFE4F5393098FD053BE53BAC3AA5
:1070B0007002053A14F5828C83E599F0C29805397F
:1070C000E539B43CE2D2B5C2997599783099FDC2E0
:1070D00099E4F5993099FDC2B50FBF08C7E4F539B9
:1070E0003098FD053BE53BAE3A7002053A14F58257
:1070F0008E83E599F0C2980539E539B420E253B69C
:10710000F0E4F58F803BD2B43098FD859937C29872
:10711000E5377F0025E0FEE4F538FDFC0FEFCAEE11
:10712000CA70010E14F5828A83E4932538F5380D70
:10713000BD00010CED7003EC640270E0800375EF9C
:1071400010D2B5C2997599783099FDC29985389950
:107150003099FDC2B5E53664066003027021D2AFF6
:01716000220C
:10183A00121C74120021120022200D0B7A007B3236
:10184A007D017F001217C1300F0B7A007B1E7D01CC
:10185A007F001217C1300913301010C209E4F56372
:10186A00F56478DA76F11214AED20D301108301020
:10187A0005C211127000121C49E47BF47A01F9F8CE
:0F188A00C31205A85002D210300B0375EF1022C5
:0B1C5600120C6A12183A12001B80F8F2
:10120200005EBCE2613FDD83C29C7E20A3FD1F41E4
:101212009DC3217FFCA2401E5F01E3BD3E6082DCD4
:10122200237D9FC1421CFEA0E1BF5D0380DE3C62C4
:10123200BEE0025CDF81633D7C22C09E1D43A1FFB4
:101242004618FAA427799BC584DA3866E5BB5907A4
:10125200DB856739BAE406581947A5FB7826C49A94
:10126200653BD987045AB8E6A7F91B45C6987A2484
:10127200F8A6441A99C7257B3A6486D85B05E7B974
:101282008CD2306EEDB3510F4E10F2AC2F7193CD64
:10129200114FADF3702ECC92D38D6F31B2EC0E5054
:1012A200AFF1134DCE90722C6D33D18F0C52B0EE44
:1012B200326C8ED0530DEFB1F0AE4C1291CF2D7334
:1012C200CA947628ABF517490856B4EA6937D58B24
:1012D2005709EBB536688AD495CB2977F4AA481614
:1012E200E9B7550B88D6346A2B7597C94A14F6A804
:1012F200742AC896154BA9F7B6E80A54D7896B35F4
:07130200DCEEF4FAFDFEFF32
:0A1AC0008B2B8A2C892D8C2E8D2F84
:101ACA00E4F530FFFEC3EF952FE52E6480F8EE644F
:101ADA008098501DAB2BAA2CA92D8F828E831203BE
:101AEA00D26530FD90120293F5300FBF00010E80CF
:031AFA00D4AF3036
:011AFD0022C6
:07000300ED6F90120293FF64
:01000A0022D3
:0100220022BB
:101C0500EF701E7598D0E589540F4420F58953C8A7
:101C1500E1438E10ED90130193F58DD28ED2ACC2B7
:031C2500BCD2AF7F
:011C28002299
:1019EB00D2AFD2A9D2BBE589540F4401F589E4F5F6
:1019FB008E758CDBF58AD28CF578F577F576F575E7
:101A0B00FFEF25E025E024DBF8E4F6EF25E025E009
:101A1B0024DCF8E4F6EF25E025E024DDF8E4F6EF2E
:0D1A2B0025E025E024DEF8E4F60FBF01D42D
:011A3800228B
:07161400C0D075D01015795C
:10161B00A879E4F6A879E6FFC3940140030216B259
:10162B00EF25E025E024DEF8E6FFD394004052A836
:10163B0079E625E025E024DCF8E67045EF30E0158F
:10164B00A879E6FF25E025E024DEF8E6D3940140F7
:10165B00047D0180067D00A879E6FF121A39A8796E
:10166B00E6FF25E025E024DEF816E66014EF25E022
:10167B0025E024DDF8E6FEEF25E025E024DCF8EE9E
:10168B00F6A879E625E025E024DCF8E6600116A84B
:10169B0079E6FF25E025E024DEF8E67004FD121A5A
:0716AB0039A8790602161FA1
:0516B2000579D0D022F3
:03000B00021AFED8
:101AFE00C0E0C0F0C083C082C0D075D010758CDC41
:101B0E00E5782401F578E43577F577E43576F576E2
:101B1E00E43575F575121614D0D0D082D083D0F07E
:031B2E00D0E032D2
:101BB9001579A879EDF61579A879EFF6A879E6FFF0
:101BC900C39401500D08E6FEEF25E025E024DBF87B
:071BD900EEF6057905792203
:1017C10015791579A879EAF608EBF61579A879ED76
:1017D100F61579A879EFF6A879E6FFC3940150527E
:1017E100EF25E025E024DEF8E67047A879E6FB2541
:1017F100E025E024DCF8E67039A87908E625E00464
:10180100FFA879E6FA25E025E024DEF8EFF6A879CD
:101811000808E6FE08E6FF7C007D0A120433EA258B
:10182100E025E024DDF8EFF6EB25E025E024DCF807
:09183100E4F6E5792404F57922BE
:101A3900C0D075D0101579A879EDF61579A879EF88
:101A4900F6A879E6FFC39401501CEF25E025E024B0
:101A5900DBF8E66011A87908E670047F0180027F4F
:101A690000A87908EFF6A879E6700608E624FF923F
:081A7900B405790579D0D022F3
:0C1C4900C2AFAF78AE77AD76AC75D2AF0D
:011C5500226C
:041C740075FFA52231
:041B90008E188F1903
:101B9400E4F51AF51BC3E51B9519E51A95185014BD
:101BA4007FE87E0312194712183A051BE51B70E5FE
:041BB400051A80E1AD
:011BB800220A
:041947008E1C8F1D46
:10194B00D3E51D94FAE51C9400500AEFD3940040A4
:10195B003C001F80F6851C1E851D1FD3E51F94FAC6
:10196B00E51E940040157FFA7E0012194774062578
:10197B001FF51F74FF351EF51E80E0D3E51D940087
:0D198B00E51C94004007AF1FAE1E12194767
:01199800222C
:0818F2008B3A8A3B893C8D3DD5
:1018FA00121C74AB3EAA3FA9401204692400FFE5FA
:10190A00F03480FE853A41853B42853C43E4FDED57
:10191A00C3953D501BEF2DF582E43EF583E493AB6E
:10192A0041AA42A9438D827583001204110D80DFFA
:0D193A00AB3EAA3FA940E4853DF0020494B5
:061743008B3C8A3D893E4B
:1017490078DAE664F17070C2AFE5B654F04408F592
:10175900B6758F01AB40AA41A9421204692400FF62
:10176900E5F03480F5438F44853C45853D46853E0B
:1017790047E4FFEFC39D5026AB450547E547AA4619
:101789007002054614F91203B9FE0544E544AA435B
:101799007002054314F5828A83EEF00F80D5E4F5D3
:1017A9008F53B6F0CFEDCFAB40AA41A9428FF012CB
:0717B9000494D2AF121C746E
:0117C0002206
:101C290078DAE6B4F119C2AFE5B654F04408F5B66E
:0F1C3900758F03908000E4F0F58F53B6F0D2AFB3
:011C48002279
:1014AE007A007B327D037F031217C1121C29E4F5EB
:1014BE003AF53BF54075410075423AFB7A00795F8B
:1014CE007D16121743E4F537E537C378B2965067A9
:1014DE00E4F53675F010E536A42472F582E5F034A5
:1014EE0010F583E493604C78BBE68537F0A4FFAE2D
:1014FE00F075F010E536A4247FF582E5F03410F592
:10150E0083E493FB740193FA7402932FF9EA3EFA83
:10151E0075F010E536A42472F582E5F03410F583EB
:10152E00E493FD75400075410075423A121743056C
:10153E003680A005378091753812753934754000A4
:10154E0075410075423A7B007A0079387D02121798
:05155E0043E478DAF619
:011563002265
:10156400E4F538F539F53E753F00754038FB7A00EF
:10157400795F7D161218F2E4F535E535C378B29635
:101584005067E4F53475F010E534A42472F582E56F
:10159400F03410F583E493604C78BBE68535F0A411
:1015A400FFAEF075F010E534A4247FF582E5F03445
:1015B40010F583E493FB740193FA7402932FF9EA10
:1015C4003EFA75F010E534A42472F582E5F0341087
:1015D400F583E493FD753E00753F0075403812189D
:1015E400F2053480A005358091753E00753F007585
:1015F40040387B007A0079367D021218F2E53764B0
:0F160400347004E536641270047F0180027F00A9
:0116130022B4
:10106A005343532D34303000015A000000506F773B
:10107A00657230000000007A015A000000506F7754
:10108A00657231000000007B015A000000506F7742
:10109A00657232000000007C015A000000506F7730
:1010AA00657233000000007D015A000000506F771E
:1010BA00657234000000007E015A000000506F770C
:1010CA00657235000000007F015A000000506F77FA
:1010DA006572360000000080015A000000506F77E8
:1010EA006572370000000081040800000154656D34
:1010FA007030000000000082040800000154656D91
:10110A007031000000000086040800000154656D7B
:10111A00703200000000008A040800000154656D66
:10112A00703300000000008E040800000154656D51
:10113A007034000000000092040800000154656D3C
:10114A007035000000000096040800000154656D27
:10115A00703600000000009A040800000154656D12
:10116A00703700000000009E02080000024F6673FC
:10117A0030000000000000A202080000024F66735F
:10118A0031000000000000A402080000024F66734C
:10119A0032000000000000A602080000024F667339
:1011AA0033000000000000A802080000024F667326
:1011BA0034000000000000AA02080000024F667313
:1011CA0035000000000000AC02080000024F667300
:1011DA0036000000000000AE02080000024F6673ED
:1011EA0037000000000000B000000000000000000E
:0811FA000000000000000000ED
:0900110001B201014800014D009B
:101BE000E4F5BA75BCE075E88075D10375D48075ED
:101BF000D78075A5FFEF600CE4FF747A2FF8E4F648
:041C00000FBF08F614
:011C040022BD
:091C61001579A879EFF605792246
:051C6F008F2B7F002215
:101B63008B2B8A2C892D1203B9AB2EAA2FA93012E5
:101B730003FFAB2BAA2CA92D9000011203D2AB2E8D
:0D1B8300AA2FA9309000011204117F022248
:10130900E54D7017E548045407F548540FF5BB75CA
:10131900BCE0E4F54CF54BF54AF549E4F531C2AFCB
:10132900C2EDD2EC30EDFDD2AFAFBFEFFEADBEEDF9
:10133900FFE4FCFDE54C2FF54CE54B3EF54BED3557
:101349004AF54AEC3549F54912183A0531E531C3F0
:10135900941040CA054DE54D60030213F3AF4CAE3E
:101369004BAD4AAC49FB7A01F9F81205088F4C8E4E
:101379004B8D4A8C49E4120331E4FBFA79807847B2
:10138900120227E4FBFA79FA784312011E8F358E8F
:10139900348D338C32AB35AA34A933A832E8C0E096
:1013A900E9C0E0EAC0E0EBC0E0E54825E024A2F8A6
:1013B900E6FC08E6FDEC120336E4FBFA79C878424C
:1013C900120227D0E0FBD0E0FAD0E0F9D0E0F81221
:1013D900002D8F358E348D338C32C2AFE54825E030
:0A13E90025E02482F81205B9D2AF06
:0113F30022D7
:100E8C00121C49AB55AA54A953A852C31205A870F9
:100E9C0003021069121C498F558E548D538C52E4E9
:100EAC00F531747A2531F9C3E7648094E440030288
:100EBC000FE5121C49C3EF9551F539EE9550F538F5
:100ECC00ED954FF537EC954EF536747A2531F8E6FD
:100EDC00FF3395E0FEFDFCAB39AA38A937A836C321
:100EEC001205A85003020FE5747A2531F8E6FF339A
:100EFC0095E0FEFDFCECC0E0C9EDC9CAEECACBEF33
:100F0C00CB747A2531F8E6FF3395E0FEFDFCD0E09A
:100F1C00F8C3EF9BFFEE9AFEED99FDEC98FCE41202
:100F2C0003318F358E348D338C32E4FFFEFDFCABF8
:100F3C0035AA34A933A8321202C46028747A253138
:100F4C00F8E6FF3395E0FEFDFCEF2401FFE43EFEE6
:100F5C00E43DFDE43CFCAB39AA38A937A836C312F2
:100F6C0005A84010AF317401C8EFC8088002C33324
:100F7C00D8FC805AE556D39400405874572531F864
:100F8C00E6FCE412033BECC0E0EDC0E0EEC0E0EFA9
:100F9C00C0E0AC56E412033BC8ECC8C9EDC9CAEEBC
:100FAC00CACBEFCBD0E0FFD0E0FED0E0FDD0E0FC30
:100FBC00120227AB35AA34A933A8321202C450133B
:100FCC00AF317401C8EFC8088002C333D8FCF452A7
:100FDC0090800674572531F8060531E531C3940825
:100FEC005003020EAE121C49C3EF9551FFEE955003
:100FFC00FEED954FFDEC954EFCE47B64FAF9F8D3CD
:10100C001205A85058121C498F518E508D4F8C4E82
:10101C008F558E548D538C52E4F531747A2531F9F9
:10102C00D3E7648094804010AF317401C8EFC808D6
:10103C008002C333D8FC42900531E531B408DCE5BD
:10104C00560475F00A8485F056E5567010F5317427
:0D105C00572531F8E4F60531E531B408F20E
:011069002264
:06001B00121309020E8C15
:100026000203A4E86480F8E933E83360110460F061
:10003600ED33EC337009E8FCE9FDEAFEEBFF220440
:1000460060DED3EB9FEA9EE99DE8C2E78CF0C2F73B
:1000560095F0400CE8CCF8E9CDF9EACEFAEBCFFB07
:1000660012036F85D0F05804700320D5B3E80470EE
:10007600075002B2D50203AE92D5EC0460F7E4CC89
:10008600C0E0C398F8603B94186008400DD0E0FBD0
:10009600020386E4FBFAC9FC8028E830E406E4C9DA
:1000A600FBE4CAFCE830E305E4C9CACBFCE8540724
:1000B6006010F8C3E913F9EA13FAEB13FBEC13FC2F
:1000C600D8F130F52FC3E49CFCEF9BFFEE9AFEEDD2
:1000D60099FDD0E0FBEF4E4D4C701222DB0302037C
:1000E600ABEC2CFCEF33FFEE33FEED33FDED30E7EA
:1000F600EB020386EF2BFFEE3AFEED39FDD0E0FB77
:1001060050130BBB00030203AEED13FDEE13FEEF1F
:0801160013FFEC13FC02038649
:10011E00EC4D6011E8497017ED33EC3304600DE4DB
:10012E00FCFFFEFD22E933E8330470F80203A4124B
:10013E00036F58046009E4CC24815006285009024C
:10014E0003AE2840030203ABC0E0EB4A7044B98013
:10015E0006D0E0FB02039AEF4E701CBD8008EBFF49
:10016E00EAFEE9FD80EBE98DF0A4FEE5F002020760
:10017E00E9CDF9EAFEEBFFEF89F0A4FCE5F0CE89BC
:10018E00F0A42EFFE435F0CD89F0A42DFEE435F079
:10019E008067EF4E7005BD80D780C3EF8BF0A4ACA7
:1001AE00F0EE8BF0A42CFCE435F0F8EF8AF0A42CE2
:1001BE00E5F038FCE433CB8DF0A42CFCE5F03BF8F5
:1001CE00EE8AF0A42CFCE5F038F8E433CF89F0A4E5
:1001DE002CFCE5F038CF3400CE89F0A42FFFE5F0EB
:1001EE003EFEE433C98DF0A42EFEE5F039CD8AF043
:1001FE00A42FFFE5F03EFEE43DFD33D0E0FB5007BB
:10020E000BBB000F0203AEEC2CFCEF33FFEE33FE04
:06021E00ED33FD02038632
:100224000203AEEC5D046005E8590470030203A404
:1002340012036F580460F6EC4860F2EC7004FDFEA3
:10024400FF22C860DB2481C85009C39860025006AD
:100254000203AB9850CAF582E9294B4A7005AB8278
:1002640002039A75F0007C1A7880C3EF9BEE9AED36
:1002740099400DC3EF9BFFEE9AFEED99FDE842F025
:10028400DC23ACF0D0E0FFD0E0FED0E0FDAB822078
:10029400E7101BEB60BAEC2CFCEF33FFEE33FEED02
:1002A40033FD020386E803F830E705C0F075F0007B
:1002B400EF2FFFEE33FEED33FD40B830E7C280AAE6
:1002C40074F8CC6480CCC86480C8F582046043C3ED
:1002D400EB9FF5F0EA9E42F0E99D42F0E89C45F080
:1002E40060305018E5825FFFE582F42B5582FB50A5
:1002F400210ABA001D09B90019088016E5825BFBC2
:10030400E582F42F5582FF50090EBE00050DBD0095
:10031400010CC3EB9FF5F0EA9E42F0E99D42F0E840
:0D0324009C45F06007CC4820E701B3EC22B7
:1003310075F020800E75F010800575F0087D007E47
:10034100007F003392D530D50312059AEC3340106B
:10035100EF33FFEE33FEED33FDEC33FCD5F0ED2250
:0E036100E5F0247EA2D513CC92E7CDCEFF228C
:10036F00E9D2E7C933E833F892D5EDD2E7CD33ECD4
:07037F0033FC5002B2D5224D
:10038600EC30E7100FBF000C0EBE00080DBD0004D8
:100396000BEB6014A2D5EB13FCED92E7FD2274FF84
:1003A600FCFDFEFF22E480F8A2D574FF13FC7D80DD
:0303B600E480EFF1
:030000000216B72E
:0C16B700787FE4F6D8FD7581DE0216FE97
:1003B900BB010689828A83E0225002E722BBFE0242
:0903C900E32289828A83E4932275
:1003D200BB010CE58229F582E5833AF583E02250E0
:1003E20006E92582F8E622BBFE06E92582F8E2222A
:0D03F200E58229F582E5833AF583E4932244
:1003FF00BB010689828A83F0225002F722BBFE01DD
:02040F00F322D6
:10041100F8BB010DE58229F582E5833AF583E8F021
:10042100225006E92582C8F622BBFE05E92582C8CD
:02043100F222B5
:10043300C2D5EC30E709B2D5E4C39DFDE49CFCEEE4
:1004430030E715B2D5E4C39FFFE49EFE120617C33F
:10045300E49DFDE49CFC800312061730D507C3E43A
:060463009FFFE49EFE2253
:10046900BB010A89828A83E0F5F0A3E0225006875E
:10047900F009E71922BBFE07E3F5F009E319228920
:0B048900828A83E493F5F07401932253
:10049400BB010789828A8302066C500B09C5F027C9
:1004A400F7C5F01937F722BBFE0D09F8E325F0F381
:1004B400C5F019E338F322F889828A8374019325FD
:0804C400F0C5F0F8E4933822C2
:1004CC0075F008758200EF2FFFEE33FECD33CDCCE7
:1004DC0033CCC58233C5829BED9AEC99E58298406A
:1004EC000CF582EE9BFEED9AFDEC99FC0FD5F0D647
:1004FC00E4CEFBE4CDFAE4CCF9A88222B800C1B971
:10050C000059BA002DEC8BF084CFCECDFCE5F0CBAE
:10051C00F97818EF2FFFEE33FEED33FDEC33FCEBE7
:10052C0033FB10D703994004EB99FB0FD8E5E4F9A2
:10053C00FA227818EF2FFFEE33FEED33FDEC33FC8F
:10054C00C933C910D7059BE99A4007EC9BFCE99A83
:10055C00F90FD8E0E4C9FAE4CCFB2275F010EF2FC8
:10056C00FFEE33FEED33FDCC33CCC833C810D707C8
:10057C009BEC9AE899400AED9BFDEC9AFCE899F803
:0E058C000FD5F0DAE4CDFBE4CCFAE4C8F92296
:0E059A00C3E49FFFE49EFEE49DFDE49CFC2272
:1005A800EB9FF5F0EA9E42F0E99D42F0E89C45F0A9
:0105B8002220
:0C05B900ECF608EDF608EEF608EFF6226E
:1005C500D083D082F8E4937012740193700DA3A3C5
:1005D50093F8740193F5828883E4737402936860D9
:0605E500EFA3A3A380DFD9
:101999008B348A358936E4F53CF53DE53B153BAE9C
:1019A9003A7002153A4E6033AB37AA38A939120397
:1019B900B9FFAB34AA35A936053DE53DAC3C70020B
:1019C900053C14F5828C83EF120411EF60CD74018C
:1019D9002539F539E43538F53880C0AB34AA35A94D
:0219E9003622A4
:1005EB00EF4E6012EF60010EEDBB010B89828A8327
:1005FB00F0A3DFFCDEFA2289F05007F709DFFCA934
:0C060B00F022BBFEFCF309DFFCA9F0228A
:1016C300021C56E493A3F8E493A34003F68001F2CB
:1016D30008DFF48029E493A3F85407240CC8C33328
:1016E300C4540F4420C8834004F456800146F6DFF7
:1016F300E4800B010204081020408090000EE47E79
:10170300019360BCA3FF543F30E509541FFEE493EB
:10171300A360010ECF54C025E060A840B8E493A3B2
:10172300FAE493A3F8E493A3C8C582C8CAC583CADD
:10173300F0A3C8C582C8CAC583CADFE9DEE780BE95
:01001A0000E5
:10061700BC000BBE0029EF8DF084FFADF022E4CCC7
:10062700F875F008EF2FFFEE33FEEC33FCEE9DEC90
:10063700984005FCEE9DFE0FD5F0E9E4CEFD22EDD6
:10064700F8F5F0EE8420D21CFEADF075F008EF2F20
:10065700FFED33FD4007985006D5F0F222C398FD11
:050667000FD5F0EA22AE
:10066C00C5F0F8A3E028F0C5F0F8E5821582700219
:06067C001583E038F022B6
:00000001FF
