:0318170001D300FA
:10068500E478D3F675FFDE75FFAD75E104F5E27527
:10069500E34475A401F5A5F5A675A7E075B16775E1
:1006A500B20875FF0775FFA543B28075EF081215EF
:1006B5008CE4F532F5337D00AF331213EF7D01AFD6
:1006C500331217BD1218230533E53370020532C303
:1006D5009402E532940040DEE4F520C20EC209C260
:1006E50011C20BC20DC210C20FC2B578CDF678CBC0
:1006F500F618F678D1F6F532F53374002533F58220
:1007050074003532F583E4F00533E53370020532C4
:10071500B42CE7E532B401E2E4F532F533742C2567
:1007250033F58274013532F583E4F00533E5337032
:10073500020532B42CE7E532B401E27D05E4FF128F
:100745001657E478D0F678C8F678C8E6FF75F01045
:10075500A42408F582E5F03412F583E493FE78D0FD
:1007650026F6EE600578C80680DFEFD39400402AB0
:10077500901215E493FB740193FA740293F974557E
:100785001208FF1208B964556002D20F74AA120844
:10079500FF1208B964AA6002D20F120F2EEF600390
:1007A50002088174FFF54EF54FF550F551E4F55209
:1007B500F553FE7F10FDFB7A007954120A03753755
:1007C500FF753812753900753A00753B107B007A54
:1007D5000079541214E9E4F532F533E533C4F854DD
:1007E5000FC868FFE532C454F048FE74082FF5823F
:1007F50074123EF583E493607C740C2FF5827412B9
:100805003EF583E49320E262E4F531E531C378C730
:10081500965057E533C4F8540FC868FFE532C45401
:10082500F048FE74082FF58274123EF583E493FDBB
:100835007C00C004C0057D0074152FF58274123E3E
:10084500F583E493FB740193FA740293F978D0E687
:100855008531F0A4FFE92FF9EA35F0FAD007D00683
:10086500120A03121823053180A10533E5337002FE
:1008750005320207E07F011216938016D20DE4FFC0
:10088500121693E5EF30E30AD2030553E5537002E0
:100895000552E4F532F5337A007B967D03AF3312CA
:1008A500110E0533E53370020532C39402E5329427
:0308B5000040E41C
:0108B800221D
:05181E0078D1E6FF2275
:01182700229E
:03002300020DA625
:100DA600C0E0C0F0C083C082C0D075D008309922A0
:100DB600C29978CB06E6FF78CD66700978CBF6C285
:100DC600B5D20A800D742C2FF582E43401F583E048
:100DD600F599209803020E6D209A08200E05C298F8
:100DE600020E69C29A78CAE6062400F582E4340047
:100DF600F583E599F0C298E6FFB40112900000E091
:100E0600FE7003F68061EE5407240278D2F6EFB442
:100E1600020D78D2E6B40907900001E02403F6D269
:100E26000878CAE6FFFD7C00BC0107BD2C047600ED
:100E36008035EFC378D296402E7B017A0079007810
:100E4600CAE624FFFDE434FFFC12161978CAE6242C
:100E5600FFF582E434FFF583E06F600476008007D7
:100E660012002678CA7600D0D0D082D083D0F0D0B7
:020E7600E03268
:1013400078D1E6FF18E68FF0A47C002525FFEC3568
:10135000F0FE900001E075F010A42415F582E5F090
:101360003412F583E493FB740193FA740293F98FBA
:09137000828E831208D2FF7D2356
:101379008F2B8D2CE52C6010F8E6FFE52BFD7C000A
:10138900120003A82CC6EFC6852B993099FDC29986
:011399002231
:10173500C9EFC9EDC39B402378C7E6FFEB2FFFE454
:1017450033FEEDC39FEE6480F8748098500DD20E81
:10175500C3ED9B78D1F678CCE9F622C20EE478CCBD
:02176500F6226A
:1015DA00C9EFC9BAFF0FBBFF0CED6B7002EC6A7062
:1015EA0027D20E801BC3ED9BEC9A401C78C7E62BD2
:1015FA00FFE43AFEC3ED9FEC9E500DD20EC3ED9B65
:0F160A0078D1F678CCE9F622C20EE478CCF6223D
:10002600900000E0FF54F8F524EF1209DD006D0999
:1000360000790A00891000901100A01200B419007E
:10004600C91A00F12000F628016029021834023985
:1000560037027739028641029049029A5002CA61F4
:10006600029E9800000301900001E0FDE54FFB7F32
:10007600018021900001E0FCA3E0FDAB4FAA4E7F7A
:10008600018025E4FBFD7F03800A900001E0FDE589
:1000960051FB7F02121735020301900001E0FCA319
:1000A600E0FDAB51AA507F021215DA02030190005F
:1000B60001E0FDE54FFB7F01121735200E03020319
:1000C600018017900001E0FCA3E0FDAB4FAA4E7F34
:1000D600011215DA200E0302030190012C7478F048
:1000E60078CD7601D2B5F599020301D20B02030150
:1000F600C2ACE4F523D2B57D237F7F1213797D232D
:100106007F181213797D237F1712137978C8E6FFBB
:100116007D231213797D23AF4E1213797D23AF4FC2
:100126001213797D23AF501213797D23AF51121329
:10013600797D23AF521213797D23AF53121379E4DD
:10014600F52574542525F8E6FF7D23121379052538
:10015600E525C3941040EB02020A900001E0FFC3BC
:1001660078C896400302030175F010EFA42408F541
:1001760082E5F03412AF82F5298F2AC2ACE4F5236A
:10018600D2B57D237F7F1213797D237F0D121379DC
:10019600852A82852983E493FF7D23121379852A94
:1001A60082852983740193FF7D23121379852A8220
:1001B600852983740293FF7D23121379852A82850C
:1001C6002983740393FF7D23121379852A82852957
:1001D60083740493FF7D23121379E4F525E52A241D
:1001E60005F582E43529F583E5822525F582E43592
:1001F60083F583E493FF7D231213790525E525C353
:10020600940840D9E4FDAF23121379C2B5D2AC02EB
:1002160003017A007B327D0178D1E6FF12110E9040
:100226000001E0F54EA3E0F54FA3E0F550A3E0F59D
:100236005180377A007B327D0178D1E6FF12110EAC
:10024600E4F525900001E0FFE525C39F501C7402EC
:100256002525F582E43400F583E0FF74542525F85E
:10026600C6EFC60525E525B410D9D209D20C02037E
:10027600017A007B327D0178D1E6FF12110E807B78
:10028600900001E024FF92028071900001E024FFBB
:1002960092018067D21180637A007B327D0178D12A
:1002A600E6FF12110ED20990012C7478F078CAE696
:1002B60024FFF582E434FFF583E090012DF078CD3C
:1002C6007602802F7A007B327D017F0012110E901C
:1002D600012C7479F0900001E090012DF07B017AF9
:1002E60001792C7D027C0012161990012EEFF07810
:1002F600CD7603D2B590012CE0F599E52464A06093
:10030600030204A9900000E064A160030203DCA3D9
:10031600E0FFC378C89640030204A975F010EFA465
:100326002408F582E5F03412F583E493F52775F099
:1003360010EFA4240CF582E5F03412F583E4933033
:10034600E23C1217028F27E527247890012CF07BD8
:10035600017A01792CEF2401FDE433FC121619749D
:100366002D2527F582E43401F583EFF0E5272402F5
:1003760078CDF6D2B590012CE0F5990204A990004B
:1003860001E0FF121702C2ACE4F523D2B5E527D38C
:10039600940640247D237F7F1213797D23AF271295
:1003A6001379E4F525E525C3952750071213400573
:1003B6002580F2052702049EE5272478FF7D231277
:1003C6001379E4F525E525C3952750071213400553
:1003D6002580F202049E900000E064A260030204FD
:1003E600A978C8E6FFA3E0FEC39F40030204A9A3C1
:1003F600E0FDC39F40030204A9EEC39D400302042F
:10040600A9900001E0F525E4F527900002E0FFE55C
:1004160025D39F501FAF2512170275F010E525A4AE
:100426002408F582E5F03412F583E4932527F527B1
:10043600052580D6C2ACE4F523D2B57D237F7F1295
:1004460013797D23AF27121379900001E0F52590EB
:100456000002E0FFE525D39F503EE4F52675F01037
:10046600E525A42408F582E5F03412F583E493FF2C
:10047600E526C39F501E78D1E6FF18E68FF0A47CD0
:10048600002526FFEC35F0FE75F010E52512135910
:10049600052680C9052580B7E4FDAF23121379C26E
:1004A600B5D2ACE52464587054FA7B327D0178D11C
:1004B600E6FF12110E752E01752F0175302D7B0189
:1004C6007A0079011217678F27E527247890012C87
:1004D600F07B017A01792CEF2401FDE433FC12163E
:1004E60019742D2527F582E43401F583EFF0E5270D
:1004F600240278CDF6D2B590012CE0F599E5246476
:10050600806009E524648860030206847A007B32F1
:100516007D0178D1E6FF12110E900000E05407F538
:1005260027B4070A752601A3E0F527A38006E4F59C
:1005360026900001E0F5281527E528C378C89640DF
:100546000302065175F010E528A42408F582E5F0AB
:100556003412F583E493FFE527D39F40028F27E407
:10056600F525E525C39527400302064475F010E5F9
:1005760028A4240CF582E5F03412F583E49330E2E6
:100586000302063F75F010E528A42409F582E5F07C
:100596003412F583E4936438702DE527D39404E58B
:1005A60025FD7C00400F2526FFE433FE74022FF55F
:1005B600827400804978CAE6C39DFFE49CFE74FEFF
:1005C6002FF58274FF803775F010E528A42408F50E
:1005D60082E5F03412F583E493FF78CAE6C39FFF01
:1005E600E49400FEAD257C00EF2DFFEC3EFE7A0084
:1005F600EF2526FFEA3EFE74FF2FF58274FF3EF5D7
:1006060083E0FFEFC0E078D1E6FF18E68FF0A42D77
:10061600FFEC35F0FE75F010E528A42415F582E50B
:10062600F03412F583E493FB740193FA740293F9A0
:100636008F828E83D0E01209110525020568AF2846
:10064600121443E524648870358010E528B4FF2E23
:10065600900002E0F520E524B4882390012C7478FC
:10066600F078CAE624FFF582E434FFF583E09001D2
:0E0676002DF078CD7602D2B590012CE0F599EA
:010684002253
:10700000C2AF75FFDE75FFADE4F53DF53CD2B5C20C
:10701000997599783099FDC299E4F5993099FDC236
:10702000B53098FD85993CC298E4F53EE53C24FDD9
:10703000604D1470030270FC147003027134240359
:1070400060030271373098FD85993DC298E53D2572
:10705000E0FEC3E49400EE9470501E43B601758FB9
:1070600003E53D25E0F540754100854182F583E467
:10707000F053B6F0F58F027137753EFF027137D2CB
:10708000B33098FD85993DC29843B601758F01E5EF
:107090003D25E0F540754100E4FFE4F53F3098FD03
:1070A0000541E541AC407002054014F5828C83E552
:1070B00099F0C298053FE53FB43CE2D2B5C299755C
:1070C00099783099FDC299E4F5993099FDC2B50FD0
:1070D000BF08C7E4F53F3098FD0541E541AE40707B
:1070E00002054014F5828E83E599F0C298053FE5CC
:1070F0003FB420E253B6F0E4F58F803BC2B3309842
:10710000FD85993DC298E53D7F0025E0FEE4F53E12
:10711000FDFC0FEFCAEECA70010E14F5828A83E4FB
:1071200093253EF53E0DBD00010CED7003EC6402AD
:1071300070E0800375EF10D2B5C2997599783099D7
:10714000FDC299853E993099FDC2B5E53C64066063
:0671500003027021D2AF22
:017156002216
:1012E100121823121827121828200D0B7A007B32AE
:1012F1007D017F0012110E300F0B7A007B1E7D01E4
:101301007F0012110E300913301010C209E4F5529A
:10131100F55378D376F1120E78D20D3011083010D2
:1013210005C2111270001217FFE47BF47A01F9F87B
:0F133100C31209CC5002D210300B0375EF1022FB
:0B180C001206851212E1120A9A80F801
:100BC000005EBCE2613FDD83C29C7E20A3FD1F412D
:100BD0009DC3217FFCA2401E5F01E3BD3E6082DC1D
:100BE000237D9FC1421CFEA0E1BF5D0380DE3C620D
:100BF000BEE0025CDF81633D7C22C09E1D43A1FFFD
:100C00004618FAA427799BC584DA3866E5BB5907EC
:100C1000DB856739BAE406581947A5FB7826C49ADC
:100C2000653BD987045AB8E6A7F91B45C6987A24CC
:100C3000F8A6441A99C7257B3A6486D85B05E7B9BC
:100C40008CD2306EEDB3510F4E10F2AC2F7193CDAC
:100C5000114FADF3702ECC92D38D6F31B2EC0E509C
:100C6000AFF1134DCE90722C6D33D18F0C52B0EE8C
:100C7000326C8ED0530DEFB1F0AE4C1291CF2D737C
:100C8000CA947628ABF517490856B4EA6937D58B6C
:100C90005709EBB536688AD495CB2977F4AA48165C
:100CA000E9B7550B88D6346A2B7597C94A14F6A84C
:100CB000742AC896154BA9F7B6E80A54D7896B353C
:070CC000DCEEF4FAFDFEFF7B
:0A1619008B2B8A2C892D8C2E8D2F2F
:10162300E4F530FFFEC3EF952FE52E6480F8EE64FA
:101633008098501DAB2BAA2CA92D8F828E83120864
:10164300D26530FD900BC093F5300FBF00010E80C3
:03165300D4AF30E1
:011656002271
:07000300ED6F900BC093FFAD
:01000A0022D3
:01182800229D
:10165700EF70207598D0E589540F4420F58953C859
:10166700E1438E10ED900CBF93F58DD28ED2ACC2B4
:10167700BC801675F15075C93475E5FFED900CBF48
:0B16870093F5E443E74053F7BFD2AFF8
:011692002235
:10158C00D2AFD2A9D2BBE589540F4401F589E4F559
:10159C008E758CDBF58AD28CF51BF51AF519F518BE
:1015AC00FFEF25E025E024D4F8E4F6EF25E025E074
:1015BC0024D5F8E4F6EF25E025E024D6F8E4F6EFA0
:0D15CC0025E025E024D7F8E4F60FBF02D497
:0115D90022EF
:070FDE00C0D075D010151EF4
:100FE500A81EE4F6A81EE6FFC39402400302107D86
:100FF500EF25E025E024D7F8E6FFD394004052A87A
:101005001EE625E025E024D5F8E67045EF30E0152D
:10101500A81EE6FF25E025E024D7F8E6D394014095
:10102500047D0080067D01A81EE6FF1213EFA81EB1
:10103500E6FF25E025E024D7F816E66014EF25E065
:1010450025E024D6F8E6FEEF25E025E024D5F8EEE8
:10105500F6A81EE625E025E024D5F8E6600116A8E9
:101065001EE6FF25E025E024D7F8E670057D011290
:0810750013EFA81E06020FE9AB
:05107D00051ED0D02289
:03000B000216CF0B
:1016CF00C0E0C0F0C083C082C0D075D010758CDC74
:1016DF00E51B2401F51BE4351AF51AE43519F51944
:1016EF00E43518F518120FDED0D0D082D083D0F0A9
:0316FF00D0E03206
:1017BD00151EA81EEDF6151EA81EEFF6A81EE6FFB7
:1017CD00C39402500D08E6FEEF25E025E024D4F881
:0717DD00EEF6051E051E22B9
:10110E00151E151EA81EEAF608EBF6151EA81EEDF6
:10111E00F6151EA81EEFF6A81EE6FFC39402505247
:10112E00EF25E025E024D7F8E67047A81EE6FB255C
:10113E00E025E024D5F8E67039A81E08E625E0047F
:10114E00FFA81EE6FA25E025E024D7F8EFF6A81E44
:10115E000808E6FE08E6FF7C007D0A120933EA2540
:10116E00E025E024D6F8EFF6EB25E025E024D5F8CF
:09117E00E4F6E51E2404F51E222E
:1013EF00C0D075D010151EA81EEDF6151EA81EEF45
:1013FF00F6A81EE6FFC39402501CEF25E025E0245B
:10140F00D4F8E66011A81E08E670047F0180027F01
:10141F0000A81E08EFF6A81EE6700608E624FF9245
:10142F00B3A81EE6B4010608E624FF92B4051E0514
:04143F001ED0D022C9
:0C17FF00C2AFAF1BAE1AAD19AC18D2AFD0
:01180B0022BA
:0418230075FFA52286
:041794008E358F36C9
:10179800E4F537F538C3E5389536E537953550140F
:1017A8007FE87E031214971212E10538E53870E5D8
:0417B800053780E190
:0117BC00220A
:041497008E3C8F3DBB
:10149B00D3E53D94FAE53C9400500AEFD394004019
:1014AB003C001F80F6853C3E853D3FD3E53F94FADB
:1014BB00E53E940040157FFA7E00121497740625C2
:1014CB003FF53F74FF353EF53E80E0D3E53D94009C
:0D14DB00E53C94004007AF3FAE3E12149771
:0114E80022E1
:08139A008B3A8A3B893C8D3D32
:1013A200121823AB3EAA3FA9401209692400FFE5A7
:1013B200F03480FE853A41853B42853C43E4FDEDB5
:1013C200C3953D501BEF2DF582E43EF583E493ABCC
:1013D20041AA42A9438D827583001209110D80DF53
:0D13E200AB3EAA3FA940E4853DF00209940E
:061187008B428A438944FB
:10118D0078D3E664F1706BC2AF43B601758F01ABD6
:10119D0046AA47A9481209692400FFE5F03480F5F5
:1011AD00498F4A85424B85434C85444DE4FFEFC33F
:1011BD009D5026AB4B054DE54DAA4C7002054C14C8
:1011CD00F91208B9FE054AE54AAA49700205491403
:1011DD00F5828A83EEF00F80D5E4F58F53B6F0CF0C
:1011ED00EDCFAB46AA47A9488FF0120994D2AF12A2
:0211FD001823B5
:0111FF0022CD
:1017E40078D3E6B4F114C2AF43B601758F03908089
:0A17F40000E4F0F58F53B6F0D2AF19
:0117FE0022C8
:100E78007A007B327D037F0312110E1217E4E4F52A
:100E880040F541F546754700754840FB7A00794EB4
:100E98007D16121187E4F53DE53DC378C796506786
:100EA800E4F53C75F010E53CA42408F582E5F0343F
:100EB80012F583E493604C78D0E6853DF0A4FFAE4C
:100EC800F075F010E53CA42415F582E5F03412F530
:100ED80083E493FB740193FA7402932FF9EA3EFAC0
:100EE80075F010E53CA42408F582E5F03412F5838A
:100EF800E493FD7546007547007548401211870553
:100F08003C80A0053D8091753E12753F34754600C2
:100F18007547007548407B007A00793E7D021211C2
:050F280087E478D3F618
:010F2D0022A1
:100F2E00E4F538F539F53E753F00754038FB7A002B
:100F3E00794E7D1612139AE4F535E535C378C796CA
:100F4E005067E4F53475F010E534A42408F582E515
:100F5E00F03412F583E493604C78D0E68535F0A436
:100F6E00FFAEF075F010E534A42415F582E5F034EB
:100F7E0012F583E493FB740193FA7402932FF9EA4A
:100F8E003EFA75F010E534A42408F582E5F034122B
:100F9E00F583E493FD753E00753F007540381213DE
:100FAE009A053480A005358091753E00753F007519
:100FBE0040387B007A0079367D0212139AE5376449
:0F0FCE00347004E536641270047F0180027F00E6
:010FDD0022F1
:101200005343532D33313000013700000447504918
:10121000420000000000000020380000004F7574FC
:1012200070757400000000642038000000496E7082
:1012300075740000000000840134000000436F6EEC
:1012400074726F6C000000A401340000005352510E
:1012500000000000000000A50134000000475049D4
:1012600042204164720000A600000000000000005F
:08127000000000000000000076
:03181A0001C70102
:101693008F347590FFD2A1D2A2D2A3D2A4D2A5D265
:1016A300A6D2A7D2A0C2A57F017E00121794D2A50D
:1016B300C2A77F1412127CD2A7C215C213E53460ED
:0C16C3000A78A67610E478A4F608F62257
:10144300151EA81EEFF6A81EE6FF7037900002E0F7
:10145300FEB41B04C215802BEE700AD215C214F51C
:101463001DF51C801EAD1DED3395E0FC74582DF564
:101473008274023CF583EEF0C3E51D648094D05082
:1014830002051DEFB40102D213A81EE6B40302D273
:0414930012051E22FE
:10170200EF702D30152A301427AF1C051CEF3395CE
:10171200E0FE74582FF58274023EF583E090012DAD
:10172200F0E51C651D7006F51DF51CC2147F012233
:031732007F002213
:101767008B2B8A2C892D1208B9AB2EAA2FA93012E0
:1017770008FFAB2BAA2CA92D9000011208D2AB2E83
:0D178700AA2FA9309000011209117F022243
:04127800C2A77F3F4B
:02127C008F3BA6
:10127E001212E1E4FFFE20A30B0FBF00010EBE030E
:10128E00F5BFE8F220A3037F0022E53BF4F5907F43
:10129E00017E00121497C2A2E4FEFF20A40B0FBF22
:1012AE0000010EBE03F5BFE8F220A408D2A275908D
:1012BE00FF7F0022D2A27590FFE4FEFF20A30B0F4A
:1012CE00BF00010EBE03F5BFE8F220A3037F00228C
:0212DE007F018E
:0112E00022EB
:08153B008F318B328A338934B1
:101543001212787F5F12127CE5314420FF12127C65
:101553007F5512127CD2A7E4F535AB32AA33A934F6
:101563008535827583001208D2FFD364809480404E
:101573000C12127CEF7002FF22053580DDC2A17FC1
:081583000A12127CD2A1AF355F
:01158B00223D
:080CC7008F318B328A3389342E
:100CCF001212787F5F12127C7F3512127CE531444D
:100CDF0040FF12127CD2A7C2A4AF35EF3395E0FECE
:100CEF007D00AB32AA33A934120A03E4F53AAF35CB
:100CFF00EF3395E0FEC3E53A9FEE6480F874809879
:100D0F004003020D951212E1D2A31217FF8F398EF5
:100D1F00388D378C3630A2231212E11217FFC3EF32
:100D2F009539FFEE9538FEED9537FDEC9536FCE4E1
:100D3F007B64FAF9F8D31209CC50DA30A207D2A4A7
:100D4F00D2A37F00227A007B647D017F0112110EF6
:100D5F00C2A3E590F4AB32AA33A934853A827583E6
:100D6F0000120911A2A1E433FFD2A4E4FDFC20A2DA
:100D7F000B0DBD00010CBC03F5BDE8F2C2A4EF6082
:100D8F0005053A020CFDD2A4D2A31212787F5F128E
:060D9F00127CD2A7AF3A5E
:010DA500222B
:100A9A00201503020B2DC2AFD3E51D64809480504C
:100AAA0003020B2BAF1DEF3395E0FE74572FF5822F
:100ABA0074023EF583E0640D7067E51DB4500215BB
:100ACA001DAF1DEF3395E0FE74582FF58274023E78
:100ADA00F583E4F078A6E6FF7B017A0279581215CD
:100AEA003B7A007B647D017F0112110E78A6E6FF36
:100AFA007B017A027958753550120CC78F1DD3E5E0
:100B0A001D648094804018051DEF3395E0FE7458EB
:100B1A002FF58274023EF583740AF0D2148002C261
:100B2A0014D2AF301361C21378A6E6FF7B007A00B5
:100B3A00796412153B78A6E6FF7B007A0079847502
:100B4A003520120CC7EF600B7A007B647D017F01B0
:100B5A0012110E7B007A00798412000ED3EF9400F2
:100B6A00EE6480948040207B007A00798412000E23
:100B7A0074832FF9E7B40A0F7B007A007984120094
:100B8A000E74832FF8E4F630122BC2121212787FF9
:100B9A005F12127C78A6E64420FF12127C7F55125F
:100BAA00127C78A4E6FF12127C7F3F12127C7F5FD0
:060BBA0012127CD2A722FA
:0300000002108269
:0C108200787FE4F6D8FD7581DB0210C910
:1008B900BB010689828A83E0225002E722BBFE023D
:0908C900E32289828A83E4932270
:1008D200BB010CE58229F582E5833AF583E02250DB
:1008E20006E92582F8E622BBFE06E92582F8E22225
:0D08F200E58229F582E5833AF583E493223F
:1008FF00BB010689828A83F0225002F722BBFE01D8
:02090F00F322D1
:10091100F8BB010DE58229F582E5833AF583E8F01C
:10092100225006E92582C8F622BBFE05E92582C8C8
:02093100F222B0
:10093300C2D5EC30E709B2D5E4C39DFDE49CFCEEDF
:1009430030E715B2D5E4C39FFFE49EFE120A2FC31E
:10095300E49DFDE49CFC8003120A2F30D507C3E419
:060963009FFFE49EFE224E
:10096900BB010A89828A83E0F5F0A3E02250068759
:10097900F009E71922BBFE07E3F5F009E31922891B
:0B098900828A83E493F5F0740193224E
:10099400BB010789828A83020A84500B09C5F027A8
:1009A400F7C5F01937F722BBFE0D09F8E325F0F37C
:1009B400C5F019E338F322F889828A8374019325F8
:0809C400F0C5F0F8E4933822BD
:1009CC00EB9FF5F0EA9E42F0E99D42F0E89C45F081
:0109DC0022F8
:1009DD00D083D082F8E4937012740193700DA3A3A9
:1009ED0093F8740193F5828883E4737402936860BD
:0609FD00EFA3A3A380DFBD
:1014E9008B348A358936E4F53CF53DE53B153BAE51
:1014F9003A7002153A4E6033AB37AA38A939120847
:10150900B9FFAB34AA35A936053DE53DAC3C7002BF
:10151900053C14F5828C83EF120911EF60CD74013B
:101529002539F539E43538F53880C0AB34AA35A901
:02153900362258
:10000E00E4FFFE1208B9600C0FEF70010E09E970E3
:05001E00F20A80EF2250
:100A0300EF4E6012EF60010EEDBB010B89828A830A
:100A1300F0A3DFFCDEFA2289F05007F709DFFCA917
:0C0A2300F022BBFEFCF309DFFCA9F0226E
:10108E0002180CE493A3F8E493A34003F68001F254
:10109E0008DFF48029E493A3F85407240CC8C33363
:1010AE00C4540F4420C8834004F456800146F6DF32
:1010BE00E4800B0102040810204080901817E47E93
:1010CE00019360BCA3FF543F30E509541FFEE49327
:1010DE00A360010ECF54C025E060A840B8E493A3EE
:1010EE00FAE493A3F8E493A3C8C582C8CAC583CA19
:1010FE00F0A3C8C582C8CAC583CADFE9DEE780BED1
:01181D0000CA
:100A2F00BC000BBE0029EF8DF084FFADF022E4CCAB
:100A3F00F875F008EF2FFFEE33FEEC33FCEE9DEC74
:100A4F00984005FCEE9DFE0FD5F0E9E4CEFD22EDBA
:100A5F00F8F5F0EE8420D21CFEADF075F008EF2F04
:100A6F00FFED33FD4007985006D5F0F222C398FDF5
:050A7F000FD5F0EA2292
:100A8400C5F0F8A3E028F0C5F0F8E58215827002FD
:060A94001583E038F0229A
:00000001FF
