:031F820001CF008C
:100D3F00E478CFF675FFDE75FFAD75E104F5E2756A
:100D4F00E34075A401F5A5F5A675A72075B16775E4
:100D5F00B20875FF0775FFA543B28075EF08121C27
:100D6F00DBE4F532F5337D00AF33121D297D01AF82
:100D7F0033121EEE121F910533E53370020532C395
:100D8F009401E532940040DEE4F520C20EC209C2A0
:100D9F0011C20BC20DC210C20FC2B578ADF678AB3F
:100DAF00F618F678B1F6F532F53374B32533F8E467
:100DBF00F60533E533700205326414453270EBE407
:100DCF00F532F53374C72533F8E4F60533E53370A0
:100DDF000205326408453270EB7D05E4FF121F15E2
:100DEF00E478B0F678A8F678A8E6FF75F010A4249A
:100DFF0069F582E5F0340FF583E493FE78B026F6BB
:100E0F00EE600578A80680DFEFD39400402A900F9C
:100E1F0076E493FB740193FA740293F974551204F8
:100E2F00361203F064556002D20F74AA1204361200
:100E3F0003F064AA6002D20F121547EF6003020F8E
:100E4F002974FFF544F545F546F547E4F548F549AE
:100E5F00FE7F10FDFB7A00794A1206007537FF7589
:100E6F00380F753961753A00753B107B007A007940
:100E7F004A121C89E4F532F533E533C4F8540FC830
:100E8F0068FFE532C454F048FE74692FF582740F81
:100E9F003EF583E493607C746D2FF582740F3EF5FD
:100EAF0083E49320E262E4F531E531C378A79650ED
:100EBF0057E533C4F8540FC868FFE532C454F048FF
:100ECF00FE74692FF582740F3EF583E493FD7C0069
:100EDF00C004C0057D0074762FF582740F3EF58334
:100EEF00E493FB740193FA740293F978B0E68531B9
:100EFF00F0A4FFE92FF9EA35F0FAD007D006120671
:100F0F0000121F91053180A10533E53370020532C0
:100F1F00020E887F011219F18016D20DE4FF12190B
:100F2F00F1E5EF30E30AD2030549E54970020548C0
:100F3F00E4F532F5337A007B967D03AF33121978DF
:100F4F000533E53370020532C39401E53294004056
:010F5F00E4AD
:010F6000226E
:05001B0078B1E6FF22B0
:011F95002229
:030023000213D7EE
:1013D700C0E0C0F0C083C082C0D075D00830991C6F
:1013E700C29978AB06E6FF78AD66700978ABF6C2AE
:1013F700B5D20A800774C72FF8E6F599209803023B
:101407001486209A07200E04C298806FC29A78AA81
:10141700E60624B3F8A699C29878AAE6FFB40113A2
:1014270078B3E6FE700578AAF68054EE54072402D6
:1014370078B2F6EFB4020E78B2E6B4090878B4E6EB
:10144700240379B2F7D20878AAE6FFB41404760029
:10145700802DEFC378B29640267B007A0079B37867
:10146700AAE624FFFDE434FFFC121DF578AAE62462
:10147700B2F8E66F6002800312075778AA7600D0A9
:0A148700D0D082D083D0F0D0E03244
:101B320078B1E6FF18E68FF0A47C002525FFEC358E
:101B4200F0FE78B4E675F010A42476F582E5F03460
:101B52000FF583E493FB740193FA740293F98F8275
:081B62008E83120409FF7D23AC
:101B6A008F2B8D2CE52C6010F8E6FFE52BFD7C0011
:101B7A00120003A82CC6EFC6852B993099FDC2998D
:011B8A002238
:101E6600C9EFC9EDC39B402378A7E6FFEB2FFFE43C
:101E760033FEEDC39FEE6480F8748098500DD20E49
:101E8600C3ED9B78B1F678ACE9F622C20EE478ACE5
:021E9600F62232
:101DB600C9EFC9BAFF0FBBFF0CED6B7002EC6A707E
:101DC60027D20E801BC3ED9BEC9A401C78A7E62B0E
:101DD600FFE43AFEC3ED9FEC9E500DD20EC3ED9B81
:0F1DE60078B1F678ACE9F622C20EE478ACF622BA
:1007570078B3E6FF54F8F524EF1205DA079D090789
:10076700A80A07B71007BE1107CD1207E01907F44B
:100777001A081A20081F28088929094034096037F0
:1007870009943909A34109AC4909B55009DC610944
:10079700B99800000A0D78B4E6FDE545FB7F0180B6
:1007A7001F78B4E6FC08E6FDAB45AA447F01802329
:1007B700E4FBFD7F03800978B4E6FDE547FB7F0294
:1007C700121E66020A0D78B4E6FC08E6FDAB47AADE
:1007D700467F02121DB6020A0D78B4E6FDE545FB19
:1007E7007F01121E66200E03020A0D801678B4E6FA
:1007F700FC08E6FDAB45AA447F01121DB6200E0397
:10080700020A0D78C7767878AD7601D2B5759978F2
:10081700020A0DD20B020A0DC2ACE4F523D2B57D54
:10082700237F7F121B6A7D237F18121B6A7D237F1C
:1008370017121B6A78A8E6FF7D23121B6A7D23AF78
:1008470044121B6A7D23AF45121B6A7D23AF4612F4
:100857001B6A7D23AF47121B6A7D23AF48121B6AB1
:100867007D23AF49121B6AE4F525744A2525F8E66E
:10087700FF7D23121B6A0525E525C3941040EB0273
:10088700093278B4E6FFC378A8964003020A0D75CB
:10089700F010EFA42469F582E5F0340FAF82F52953
:1008A7008F2AC2ACE4F523D2B57D237F7F121B6A62
:1008B7007D237F0D121B6A852A82852983E493FF96
:1008C7007D23121B6A852A82852983740193FF7D04
:1008D70023121B6A852A82852983740293FF7D234D
:1008E700121B6A852A82852983740393FF7D23124D
:1008F7001B6A852A82852983740493FF7D23121B33
:100907006AE4F525E52A2405F582E43529F583E52A
:10091700822525F582E43583F583E493FF7D231251
:100927001B6A0525E525C3940840D9E4FDAF2312CA
:100937001B6AC2B5D2AC020A0D7A007B327D017800
:10094700B1E6FF12197878B4E6F54408E6F54508EC
:10095700E6F54608E6F547802E7A007B327D01787A
:10096700B1E6FF121978E4F525E525C378B496506A
:100977001674B52525F8E6FF744A2525F8C6EFC68F
:100987000525E525B410E2D209D20C80797A007BDF
:10099700327D0178B1E6FF121978806A78B4E624CF
:1009A700FF9202806178B4E624FF92018058D21149
:1009B70080547A007B327D0178B1E6FF121978D234
:1009C7000978C7767878AAE624B2F8E678C8F67880
:1009D700AD7602802A7A007B327D017F001219787A
:1009E70078C7767978B4E678C8F67B007A0079C755
:1009F7007D027C00121DF578C9EFF678AD7603D23B
:100A0700B578C7E6F599E52464A06003020BA378DF
:100A1700B3E664A16003020ADF08E6FFC378A8967D
:100A27004003020BA375F010EFA42469F582E5F0EB
:100A3700340FF583E493F52775F010EFA4246DF5D3
:100A470082E5F0340FF583E49330E235121F8C8F83
:100A570027E527247878C7F67B007A0079C7E5274A
:100A67002401FDE433FC121DF574C82527F8EFF6C1
:100A7700E527240278ADF6D2B578C7E6F599020BDB
:100A8700A378B4E6FF121F8CC2ACE4F523D2B5E518
:100A970027D3940640247D237F7F121B6A7D23AFD3
:100AA70027121B6AE4F525E525C395275007121B76
:100AB70032052580F20527020B98E5272478FF7D6C
:100AC70023121B6AE4F525E525C395275007121B5A
:100AD70032052580F2020B9878B3E664A260030220
:100AE7000BA378A8E6FF78B4E6FEC39F4003020B8A
:100AF700A308E6FDC39F4003020BA3EEC39D40037B
:100B0700020BA318E6F525E4F527E525D378B59676
:100B1700501FAF25121F8C75F010E525A42469F529
:100B270082E5F0340FF583E4932527F52705258023
:100B3700D9C2ACE4F523D2B57D237F7F121B6A7D32
:100B470023AF27121B6A78B4E6F525E525D378B5D8
:100B570096503EE4F52675F010E525A42469F58244
:100B6700E5F0340FF583E493FFE526C39F501E7825
:100B7700B1E6FF18E68FF0A47C002526FFEC35F0E0
:100B8700FE75F010E525121B4A052680C90525804C
:100B9700BAE4FDAF23121B6AC2B5D2ACE524645890
:100BA700704DFA7B327D0178B1E6FF121978752E08
:100BB70000752F007530C87B007A0079B4121E9833
:100BC7008F27E527247878C7F67B007A0079C7E571
:100BD700272401FDE433FC121DF574C82527F8EF1F
:100BE700F6E527240278ADF6D2B578C7E6F599E59C
:100BF7002464806009E52464886003020D3E7A005E
:100C07007B327D0178B1E6FF12197878B3E6540795
:100C1700F527B4070A75260108E6F527088005E4D5
:100C2700F52678B4E6F5281527E528C378A8964071
:100C370003020D1675F010E528A42469F582E5F086
:100C4700340FF583E493FFE527D39F40028F27E412
:100C5700F525E525C395274003020D0975F010E535
:100C670028A4246DF582E5F0340FF583E49330E290
:100C770003020D0475F010E528A4246AF582E5F057
:100C8700340FF583E4936438701BE527D39404404D
:100C970008E526252524B5802A78AAE6C39525FFE9
:100CA70074B12F801E75F010E528A42469F582E53C
:100CB700F0340FF583E493FFC378AAE69F25252533
:100CC7002624B2F8E6FD78B1E6FF18E68FF0A4FF18
:100CD700E5257A002FFFEA35F0FE75F010E528A428
:100CE7002476F582E5F0340FF583E493FB740193E2
:100CF700FA740293F98F828E83ED12044805250258
:100D07000C59AF28121F59E5246488702A800FE513
:100D170028B4FF2378B5E6F520E524B4881978C709
:100D2700767878AAE624B2F8E678C8F678AD76023F
:070D3700D2B578C7E6F5997B
:010D3E002292
:10700000C2AF75FFDE75FFADE4F532F531D2B5C222
:10701000997599783099FDC299E4F5993099FDC236
:10702000B53098FD859931C298E4F533E53124FDFA
:10703000605214700302710614700302713E24033F
:1070400060030271413098FD859932C298E532257E
:10705000E0FEC3E49400EE94705023E5B654F0448F
:1070600008F5B6758F03E53225E0F53575360085F0
:107070003682F583E4F053B6F0F58F027141753333
:10708000FF027141D2B43098FD859932C298E5B6BD
:1070900054F04408F5B6758F01E53225E0F53575F5
:1070A0003600E4FFE4F5343098FD0536E536AC35BE
:1070B0007002053514F5828C83E599F0C298053489
:1070C000E534B43CE2D2B5C2997599783099FDC2E5
:1070D00099E4F5993099FDC2B50FBF08C7E4F534BE
:1070E0003098FD0536E536AE357002053514F5826B
:1070F0008E83E599F0C2980534E534B420E253B6A6
:10710000F0E4F58F803BC2B43098FD859932C29887
:10711000E5327F0025E0FEE4F533FDFC0FEFCAEE1B
:10712000CA70010E14F5828A83E4932533F5330D7A
:10713000BD00010CED7003EC640270E0800375EF9C
:1071400010D2B5C2997599783099FDC29985339955
:107150003099FDC2B5E53164066003027021D2AFFB
:01716000220C
:101AD300121F91121F95121F96200D0B7A007B3255
:101AE3007D017F00121978300F0B7A007B1E7D0178
:101AF3007F00121978300913301010C209E4F54839
:101B0300F54978CF76F1121491D20D3011083010C7
:101B130005C21112700012000EE47BF47A01F9F889
:0F1B2300C31205115002D210300B0375EF1022C0
:0B1F7700120D3F121AD312002080F858
:1011F900005EBCE2613FDD83C29C7E20A3FD1F41EE
:101209009DC3217FFCA2401E5F01E3BD3E6082DCDD
:10121900237D9FC1421CFEA0E1BF5D0380DE3C62CD
:10122900BEE0025CDF81633D7C22C09E1D43A1FFBD
:101239004618FAA427799BC584DA3866E5BB5907AD
:10124900DB856739BAE406581947A5FB7826C49A9D
:10125900653BD987045AB8E6A7F91B45C6987A248D
:10126900F8A6441A99C7257B3A6486D85B05E7B97D
:101279008CD2306EEDB3510F4E10F2AC2F7193CD6D
:10128900114FADF3702ECC92D38D6F31B2EC0E505D
:10129900AFF1134DCE90722C6D33D18F0C52B0EE4D
:1012A900326C8ED0530DEFB1F0AE4C1291CF2D733D
:1012B900CA947628ABF517490856B4EA6937D58B2D
:1012C9005709EBB536688AD495CB2977F4AA48161D
:1012D900E9B7550B88D6346A2B7597C94A14F6A80D
:1012E900742AC896154BA9F7B6E80A54D7896B35FD
:0712F900DCEEF4FAFDFEFF3C
:0A1DF5008B2B8A2C892D8C2E8D2F4C
:101DFF00E4F530FFFEC3EF952FE52E6480F8EE6417
:101E0F008098501DAB2BAA2CA92D8F828E83120484
:101E1F00096530FD9011F993F5300FBF00010E8069
:031E2F00D4AF30FD
:011E3200228D
:07000300ED6F9011F993FF6E
:01000A0022D3
:011F96002228
:101F1500EF701E7598D0E589540F4420F58953C894
:101F2500E1438E10ED9012F893F58DD28ED2ACC2AE
:031F3500BCD2AF6C
:011F38002286
:101CDB00D2AFD2A9D2BBE589540F4401F589E4F503
:101CEB008E758CDBF58AD28CF55DF55CF55BF55A60
:101CFB00FFEF25E025E024D0F8E4F6EF25E025E022
:101D0B0024D1F8E4F6EF25E025E024D2F8E4F6EF51
:0D1D1B0025E025E024D3F8E4F60FBF01D445
:011D28002298
:0716A700C0D075D0101563DF
:1016AE00A863E4F6A863E6FFC3940140030217465D
:1016BE00EF25E025E024D3F8E6FFD394004052A8AE
:1016CE0063E625E025E024D1F8E67045EF30E0151D
:1016DE00A863E6FF25E025E024D3F8E6D394014085
:1016EE00047D0080067D01A863E6FF121D29A86314
:1016FE00E6FF25E025E024D3F816E66014EF25E09A
:10170E0025E024D2F8E6FEEF25E025E024D1F8EE20
:10171E00F6A863E625E025E024D1F8E6600116A8D8
:10172E0063E6FF25E025E024D3F8E670057D01127F
:08173E001D29A863060216B282
:051746000563D0D02274
:03000B00021E339F
:101E3300C0E0C0F0C083C082C0D075D010758CDC08
:101E4300E55D2401F55DE4355CF55CE4355BF55B4C
:101E5300E4355AF55A1216A7D0D0D082D083D0F0E9
:031E6300D0E0329A
:101EEE001563A863EDF61563A863EFF6A863E6FF26
:101EFE00C39401500D08E6FEEF25E025E024D0F84E
:071F0E00EEF60563056322F6
:1019780015631563A863EAF608EBF61563A863ED2B
:10198800F61563A863EFF6A863E6FFC39401505207
:10199800EF25E025E024D3F8E67047A863E6FB25A9
:1019A800E025E024D1F8E67039A86308E625E004CC
:1019B800FFA863E6FA25E025E024D3F8EFF6A8634C
:1019C8000808E6FE08E6FF7C007D0A12046AEA259C
:1019D800E025E024D2F8EFF6EB25E025E024D1F865
:0919E800E4F6E5632404F5632232
:101D2900C0D075D0101563A863EDF61563A863EFED
:101D3900F6A863E6FFC39401501CEF25E025E024D3
:101D4900D0F8E66011A86308E670047F0180027F7D
:101D590000A86308EFF6A863E6700608E624FF9278
:081D6900B405630563D0D0222C
:0C000E00C2AFAF5DAE5CAD5BAC5AD2AFD0
:01001A0022C3
:041F910075FFA52211
:041EC5008E188F19CB
:101EC900E4F51AF51BC3E51B9519E51A9518501485
:101ED9007FE87E03121C37121AD3051BE51B70E538
:041EE900051A80E175
:011EED0022D2
:041C37008E1C8F1D53
:101C3B00D3E51D94FAE51C9400500AEFD3940040B1
:101C4B003C001F80F6851C1E851D1FD3E51F94FAD3
:101C5B00E51E940040157FFA7E00121C3774062592
:101C6B001FF51F74FF351EF51E80E0D3E51D940094
:0D1C7B00E51C94004007AF1FAE1E121C3781
:011C88002239
:081BE2008B3A8A3B893C8D3DE2
:101BEA00121F91AB3EAA3FA9401204A02400FFE5B0
:101BFA00F03480FE853A41853B42853C43E4FDED65
:101C0A00C3953D501BEF2DF582E43EF583E493AB7B
:101C1A0041AA42A9438D827583001204480D80DFD0
:0D1C2A00AB3EAA3FA940E4853DF00204CB8B
:0618FA008B378A388939A2
:1019000078CFE664F17070C2AFE5B654F04408F5E4
:10191000B6758F01AB3BAA3CA93D1204A02400FF81
:10192000E5F03480F53E8F3F853740853841853975
:1019300042E4FFEFC39D5026AB400542E542AA4179
:101940007002054114F91203F0FE053FE53FAA3E7F
:101950007002053E14F5828A83EEF00F80D5E4F51F
:101960008F53B6F0CFEDCFAB3BAA3CA93D8FF01221
:0719700004CBD2AF121F915E
:01197700224D
:101F390078CFE6B4F119C2AFE5B654F04408F5B666
:0F1F4900758F03908000E4F0F58F53B6F0D2AFA0
:011F58002266
:101491007A007B327D037F03121978121F39E4F53C
:1014A10035F536F53B753C00753D35FB7A007944E1
:1014B1007D161218FAE4F532E532C378A796506723
:1014C100E4F53175F010E531A42469F582E5F034D5
:1014D1000FF583E493604C78B0E68532F0A4FFAE5B
:1014E100F075F010E531A42476F582E5F0340FF5BE
:1014F10083E493FB740193FA7402932FF9EA3EFAA1
:1015010075F010E531A42469F582E5F0340FF58317
:10151100E493FD753B00753C00753D351218FA05E5
:101521003180A005328091753312753434753B00DA
:10153100753C00753D357B007A0079337D021218C8
:05154100FAE478CFF68A
:011546002282
:10154700E4F538F539F53E753F00754038FB7A000C
:1015570079447D16121BE2E4F535E535C378A79685
:101567005067E4F53475F010E534A42469F582E595
:10157700F0340FF583E493604C78B0E68535F0A43A
:10158700FFAEF075F010E534A42476F582E5F0346B
:101597000FF583E493FB740193FA7402932FF9EA2E
:1015A7003EFA75F010E534A42469F582E5F0340FAE
:1015B700F583E493FD753E00753F00754038121BB7
:1015C700E2053480A005358091753E00753F0075B2
:1015D70040387B007A0079367D02121BE2E53764DA
:0F15E700347004E536641270047F0180027F00C7
:0115F60022D2
:100F61005343532D393030000418000001414443EC
:100F710030000000000000640418000001414443F7
:100F810031000000000000680418000001414443E2
:100F9100320000000000006C0418000001414443CD
:100FA10033000000000000700418000001414443B8
:100FB10034000000000000740418000001414443A3
:100FC100350000000000007804180000014144438E
:100FD100360000000000007C041800000141444379
:100FE1003700000000000080041800000144414364
:100FF1003000000000000084041800000144414357
:101001003100000000000088041800000144414341
:10101100320000000000008C04180000014441432C
:101021003300000000000090041800000144414317
:101031003400000000000094041800000144414302
:1010410035000000000000980418000001444143ED
:10105100360000000000009C0418000001444143D8
:1010610037000000000000A00132000000556E6949
:1010710020444143000000A40132000000556E6984
:1010810020414443000000A50132000000322E350A
:1010910056204144430000A600000000000000006B
:1010A1000000000000000000040502030100070623
:0810B10006070001020304051B
:061F850001A7010162004A
:1019F100E4F5E8F5D4F5D7F5D175A4BD7580FF758B
:101A0100A59D7590FFEF601AE4F534E53425E025D6
:101A1100E02484F81205A7000000000534E534B481
:101A210008E9D285D2927D527F03121B937D037FF9
:101A310001121B93E562121B8BE4F534E534240893
:101A4100FF121F590534E534C3940840EF7F10128B
:101A51001F59E478A4F608F608F678A4E624FF9264
:081A61009008E624FFB3928215
:011A6900225A
:03187600C9EFC9EE
:10187900C283E4FF7E08C284E95ED394004003D3A7
:101889008001C39287D284EEC313FE0FBF04E7E43D
:10189900FF7E08C284ED5ED394004003D38001C368
:1018A9009287D284EEC313FE0FBF04E7CFEACFCDF0
:1018B900EFCDE4FF7E80C284ED5ED394004003D374
:1018C9008001C39287D284EEC313FE0FBF08E7EBF2
:1018D900FDE4FF7E80C284ED5ED394004003D38093
:1018E90001C39287D284EEC313FE0FBF08E7D283E8
:0118F90022CC
:0A10B9001563A863EFF615631563D5
:1010C30078A4E66072A8630808E625E025E0248496
:1010D300F812056FE4FBFAF9F81202C46015401325
:1010E300A8630808E625E025E02484F81205A70094
:1010F300000000A8630808E625E025E02484F81230
:10110300056FE4FBFA792078411202C45013A863F7
:101113000808E625E025E02484F81205A74120000D
:1011230000A8630808E625E025E02484F812056F8B
:10113300E4FBFA7920807CA8630808E625E025E033
:101143002484F812056FE4FBFA792078C11202C4F3
:1011530060154013A8630808E625E025E02484F819
:101163001205A7C1200000A8630808E625E025E0D2
:101173002484F812056FE4FBFA792078411202C443
:101183005013A8630808E625E025E02484F8120537
:10119300A741200000A8630808E625E025E0248491
:1011A300F812056FE4FBFA7920784112002DE4FB75
:1011B300FA79A078411202277B007AFF797F78477A
:1011C30012011EE4FBFAF9783F12002D12036FA8F7
:1011D30063EEF608EFF6A8630808E654079010A933
:0F11E30093F6FDA863E6FA08E6FB7F0312187681
:0711F200056305630563229C
:081B8B00C454F0440FFD7F0279
:101B9300C294E4FEC293C297D2930EBE04F6E4FE4F
:101BA3007C08C293EF5CD394004003D38001C392BB
:101BB30097D293ECC313FC0EBE04E7D294C294E411
:101BC300FE7C80C293ED5CD394004003D38001C3B9
:0E1BD3009297D293ECC313FC0EBE08E7D29497
:011BE10022E1
:061A6A008B5E8A5F8960BB
:101A7000C294E4FEC293EEB40103D38001C39297F3
:101A8000D2930EBE04EEE4FE7D08C293EF5DD394C4
:101A9000004003D38001C39297D293EDC313FD0E90
:101AA000BE04E7D294C294E4FE7D80AB5EAA5FA937
:101AB00060120436C29330960DAB5EAA5FA9601225
:101AC00003F04D120436D293EDC313FD0EBE08E4AD
:021AD000D294AE
:011AD20022F1
:06174B008B398A3A893B4C
:10175100C294E4F53CC293E53CB40103D38001C3D8
:101761009297D293053CE53CB404EAE4F53C7E084B
:10177100C293EF5ED394004003D38001C39297D20A
:1017810093EEC313FE053CE53CB404E4D294C29449
:10179100E4F53CAB39AA3AA93B1205C000000000B0
:1017A100AB39AA3AA93B1205357801120522120577
:1017B10055C293AB39AA3AA93BEBC0E0EAC0E0E9D4
:1017C100C0E012057BA296E4334BFFEAFEE9FDE897
:1017D100FCD0E0F9D0E0FAD0E0FB120555D2930538
:0817E1003CE53CB418BAD294B7
:0117E90022DD
:101300003095030213D67B007A0079317F041217DF
:101310004BAF34AE33AD32AC31E4120331E4FBFAFF
:101320007980784B1202277B0A7AD779237840128A
:10133000011E8F388E378D368C357F007E507DC3F1
:101340007C47AB38AA37A936A83512011EE4FBFA50
:10135000F9783F12002D1215F77B007A5079C37887
:10136000471202278F388E378D368C3578A6E67077
:101370003F18E6600CE4FBFA797A784012011E808F
:10138000277B0A7AD779237840AF38AE37AD36ACB1
:1013900035120227E4FBFA79A0784112011EE4FB22
:1013A000FA792078C112002D8F388E378D368C3522
:1013B000C2AFAF38AE37AD36AC35E56225E025E0DB
:1013C0002464F812059BD2AFE562045407F56290DD
:0613D00010B193121B8B0B
:0113D60022F4
:101D7100E4F561E561121B8B7D041F121B93309505
:101D81000D7A007B647D017F0112197880F07D0559
:101D91007F01121B9330950D7A007B647D017F01D9
:101DA10012197880F00561E561C3940840C57D038F
:051DB1007F01021B93FD
:101F59001563A863EFF6A863E6FFD39407400CEF77
:0E1F690094105007EF24F8FF1210B905632200
:051F8C008F2B7F0022F5
:101E98008B2B8A2C892D1203F0AB2EAA2FA9301276
:101EA8000436AB2BAA2CA92D900001120409AB2EE5
:0D1EB800AA2FA9309000011204487F0222D9
:03002000021300C8
:100026000203DBE86480F8E933E83360110460F02A
:10003600ED33EC337009E8FCE9FDEAFEEBFF220440
:1000460060DED3EB9FEA9EE99DE8C2E78CF0C2F73B
:1000560095F0400CE8CCF8E9CDF9EACEFAEBCFFB07
:100066001203A685D0F05804700320D5B3E80470B7
:10007600075002B2D50203E592D5EC0460F7E4CC52
:10008600C0E0C398F8603B94186008400DD0E0FBD0
:100096000203BDE4FBFAC9FC8028E830E406E4C9A3
:1000A600FBE4CAFCE830E305E4C9CACBFCE8540724
:1000B6006010F8C3E913F9EA13FAEB13FBEC13FC2F
:1000C600D8F130F52FC3E49CFCEF9BFFEE9AFEEDD2
:1000D60099FDD0E0FBEF4E4D4C701222DB0302037C
:1000E600E2EC2CFCEF33FFEE33FEED33FDED30E7B3
:1000F600EB0203BDEF2BFFEE3AFEED39FDD0E0FB40
:1001060050130BBB00030203E5ED13FDEE13FEEFE8
:0801160013FFEC13FC0203BD12
:10011E00EC4D6011E8497017ED33EC3304600DE4DB
:10012E00FCFFFEFD22E933E8330470F80203DB1214
:10013E0003A658046009E4CC248150062850090215
:10014E0003E52840030203E2C0E0EB4A7044B980A5
:10015E0006D0E0FB0203D1EF4E701CBD8008EBFF12
:10016E00EAFEE9FD80EBE98DF0A4FEE5F002020760
:10017E00E9CDF9EAFEEBFFEF89F0A4FCE5F0CE89BC
:10018E00F0A42EFFE435F0CD89F0A42DFEE435F079
:10019E008067EF4E7005BD80D780C3EF8BF0A4ACA7
:1001AE00F0EE8BF0A42CFCE435F0F8EF8AF0A42CE2
:1001BE00E5F038FCE433CB8DF0A42CFCE5F03BF8F5
:1001CE00EE8AF0A42CFCE5F038F8E433CF89F0A4E5
:1001DE002CFCE5F038CF3400CE89F0A42FFFE5F0EB
:1001EE003EFEE433C98DF0A42EFEE5F039CD8AF043
:1001FE00A42FFFE5F03EFEE43DFD33D0E0FB5007BB
:10020E000BBB000F0203E5EC2CFCEF33FFEE33FECD
:06021E00ED33FD0203BDFB
:100224000203E5EC5D046005E8590470030203DB96
:100234001203A6580460F6EC4860F2EC7004FDFE6C
:10024400FF22C860DB2481C85009C39860025006AD
:100254000203E29850CAF582E9294B4A7005AB8241
:100264000203D175F0007C1A7880C3EF9BEE9AEDFF
:1002740099400DC3EF9BFFEE9AFEED99FDE842F025
:10028400DC23ACF0D0E0FFD0E0FED0E0FDAB822078
:10029400E7101BEB60BAEC2CFCEF33FFEE33FEED02
:1002A40033FD0203BDE803F830E705C0F075F00044
:1002B400EF2FFFEE33FEED33FD40B830E7C280AAE6
:1002C40074F8CC6480CCC86480C8F582046043C3ED
:1002D400EB9FF5F0EA9E42F0E99D42F0E89C45F080
:1002E40060305018E5825FFFE582F42B5582FB50A5
:1002F400210ABA001D09B90019088016E5825BFBC2
:10030400E582F42F5582FF50090EBE00050DBD0095
:10031400010CC3EB9FF5F0EA9E42F0E99D42F0E840
:0D0324009C45F06007CC4820E701B3EC22B7
:1003310075F020800E75F010800575F0087D007E47
:10034100007F003392D530D503120503EC33401002
:10035100EF33FFEE33FEED33FDEC33FCD5F0ED2250
:0E036100E5F0247EA2D513CC92E7CDCEFF228C
:10036F00EDD2E7CD33EC3392D524814006E4FFFE86
:10037F00FDFC22FCE4CFCECDCC24E0501174FF80E5
:10038F00EDC3CC13CCCD13CDCE13CECF13CF047082
:07039F00F030D5DE0205037A
:1015F7008F3C8E3B8D3A8C3974FFFFFEFDFCAB3C74
:10160700AA3BA93AA839C3120511602C7F807E96A0
:101617007D187C4BAB3CAA3BA93AA8391202C4609F
:101627000250157F807E967D187CCBAB3CAA3BA9E8
:101637003AA8391202C45009AF3CAE3BAD3AAC39B7
:1016470022AF3CAE3BAD3AAC3912036F8F408E3FB1
:101657008D3E8C3DEC120331C8ECC8C9EDC9CAEE0A
:10166700CACBEFCBAF3CAE3BAD3AAC39120029E465
:10167700FBFAF9F81202C4601A401874FF2540F506
:1016870040E53F34FFF53FE53E34FFF53EE53D34A9
:10169700FFF53DAF40AE3FAD3EAC3DEC120331220E
:1003A600E9D2E7C933E833F892D5EDD2E7CD33EC9D
:0703B60033FC5002B2D52216
:1003BD00EC30E7100FBF000C0EBE00080DBD0004A1
:1003CD000BEB6014A2D5EB13FCED92E7FD2274FF4D
:1003DD00FCFDFEFF22E480F8A2D574FF13FC7D80A6
:0303ED00E480EFBA
:030000000217EAFA
:0C17EA00787FE4F6D8FD7581D302183139
:1003F000BB010689828A83E0225002E722BBFE020B
:09040000E32289828A83E493223D
:10040900BB010CE58229F582E5833AF583E02250A8
:1004190006E92582F8E622BBFE06E92582F8E222F2
:0D042900E58229F582E5833AF583E493220C
:10043600BB010689828A83F0225002F722BBFE01A5
:02044600F3229F
:10044800F8BB010DE58229F582E5833AF583E8F0EA
:10045800225006E92582C8F622BBFE05E92582C896
:02046800F2227E
:10046A00C2D5EC30E709B2D5E4C39DFDE49CFCEEAD
:10047A0030E715B2D5E4C39FFFE49EFE12062CC3F3
:10048A00E49DFDE49CFC800312062C30D507C3E4EE
:06049A009FFFE49EFE221C
:1004A000BB010A89828A83E0F5F0A3E02250068727
:1004B000F009E71922BBFE07E3F5F009E3192289E9
:0B04C000828A83E493F5F0740193221C
:1004CB00BB010789828A83020681500B09C5F0277D
:1004DB00F7C5F01937F722BBFE0D09F8E325F0F34A
:1004EB00C5F019E338F322F889828A8374019325C6
:0804FB00F0C5F0F8E49338228B
:0E050300C3E49FFFE49EFEE49DFDE49CFC2209
:10051100EB9FF5F0EA9E42F0E99D42F0E89C45F040
:0105210022B7
:10052200E8600FEFC333FFEE33FEED33FDEC33FC37
:03053200D8F122DB
:10053500BB010789828A830206975005E9F80205FF
:100545006FBBFE05E9F80206A389828A830206AF1E
:10055500BB010789828A830206F55005E9F8020581
:0A0565009BBBFE05E9F80207012226
:0C056F00E6FC08E6FD08E6FE08E6FF22B8
:10057B00BB010789828A830206CC5005E9F8020683
:10058B00BFBBFE05E9F80206D889828A830206E51D
:0C059B00ECF608EDF608EEF608EFF6228C
:1005A700D083D082E493F608740193F6087402931B
:0905B700F608740393F674047352
:1005C000BB010789828A8302070D5005E9F80205FD
:0A05D000A7BBFE05E9F802073E2272
:1005DA00D083D082F8E4937012740193700DA3A3B0
:1005EA0093F8740193F5828883E4737402936860C4
:0605FA00EFA3A3A380DFC4
:101C89008B348A358936E4F53CF53DE53B153BAEA9
:101C99003A7002153A4E6033AB37AA38A9391203A4
:101CA900F0FFAB34AA35A936053DE53DAC3C7002E1
:101CB900053C14F5828C83EF120448EF60CD740162
:101CC9002539F539E43538F53880C0AB34AA35A95A
:021CD9003622B1
:10060000EF4E6012EF60010EEDBB010B89828A8311
:10061000F0A3DFFCDEFA2289F05007F709DFFCA91E
:0C062000F022BBFEFCF309DFFCA9F02275
:1017F600021F77E493A3F8E493A34003F68001F273
:1018060008DFF48029E493A3F85407240CC8C333F3
:10181600C4540F4420C8834004F456800146F6DFC2
:10182600E4800B0102040810204080901F82E47EB1
:10183600019360BCA3FF543F30E509541FFEE493B7
:10184600A360010ECF54C025E060A840B8E493A37E
:10185600FAE493A3F8E493A3C8C582C8CAC583CAA9
:10186600F0A3C8C582C8CAC583CADFE9DEE780BE61
:011F8B000055
:10062C00BC000BBE0029EF8DF084FFADF022E4CCB2
:10063C00F875F008EF2FFFEE33FEEC33FCEE9DEC7B
:10064C00984005FCEE9DFE0FD5F0E9E4CEFD22EDC1
:10065C00F8F5F0EE8420D21CFEADF075F008EF2F0B
:10066C00FFED33FD4007985006D5F0F222C398FDFC
:05067C000FD5F0EA2299
:10068100C5F0F8A3E028F0C5F0F8E5821582700204
:060691001583E038F022A1
:0C069700E0FCA3E0FDA3E0FEA3E0FF22D6
:0C06A300E2FC08E2FD08E2FE08E2FF2293
:1006AF00E493FC740193FD740293FE740393FF2291
:0D06BF00E6FB08E6F908E6FA08E6CBF822AB
:0C06CC00E0F8A3E0F9A3E0FAA3E0FB22B1
:0D06D800E2FB08E2F908E2FA08E2CBF822A2
:1006E500E493F8740193F9740293FA740393FB226B
:0C06F500ECF0A3EDF0A3EEF0A3EFF02278
:0C070100ECF208EDF208EEF208EFF22234
:10070D00A8828583F0D083D0821207241207241289
:10071D000724120724E473E493A3C583C5F0C583AE
:10072D00C8C582C8F0A3C583C5F0C583C8C582C836
:01073D002299
:10073E00D083D082E493F208740193F2087402938A
:09074E00F208740393F2740473C1
:00000001FF
