:03000E0001CD0021
:100B8C00E478CDF675FFDE75FFAD75E104F5E27521
:100B9C00E34075A401F5A5F5A675A72075B1677599
:100BAC00B20875FF0775FFA543B28075EF081217E1
:100BBC00B5E4F532F5337D00AF331218037D01AF88
:100BCC0033121A38121AC90533E53370020532C3D1
:100BDC009401E532940040DEE4F520C20EC209C255
:100BEC0011C20BC20DC210C20FC2B578ABF678A9F8
:100BFC00F618F678AFF6F532F53374B12533F8E420
:100C0C00F60533E533700205326414453270EBE4BB
:100C1C00F532F53374C52533F8E4F60533E5337056
:100C2C000205326408453270EB7D05E4FF121A5F51
:100C3C00E478AEF678A6F678A6E6FF75F010A42454
:100C4C0096F582E5F0340FF583E493FE78AE26F644
:100C5C00EE600578A60680DFEFD39400402A900F53
:100C6C00A3E493FB740193FA740293F9745512097B
:100C7C00B112096B64556002D20F74AA1209B11239
:100C8C00096B64AA6002D20F12132DEF6003020DE0
:100C9C007674FFF54DF54EF54FF550E4F551F552E0
:100CAC00FE7F10FDFB7A007953120AF57537FF753C
:100CBC00380F75398E753A00753B107B007A0079C8
:100CCC0053121763E4F532F533E533C4F8540FC807
:100CDC0068FFE532C454F048FE74962FF582740F09
:100CEC003EF583E493607C749A2FF582740F3EF585
:100CFC0083E49320E262E4F531E531C378A59650A4
:100D0C0057E533C4F8540FC868FFE532C454F048B3
:100D1C00FE74962FF582740F3EF583E493FD7C00F0
:100D2C00C004C0057D0074A32FF582740F3EF583BB
:100D3C00E493FB740193FA740293F978AEE685316F
:100D4C00F0A4FFE92FF9EA35F0FAD007D006120A21
:100D5C00F5121AC9053180A10533E533700205324D
:100D6C00020CD57F011218908016D20DE4FF1218D8
:100D7C0090E5EF30E30AD2030552E55270020551BB
:100D8C00E4F532F5337A007B967D03AF3312158B85
:100D9C000533E53370020532C39401E5329400400B
:010DAC00E462
:010DAD002223
:05001E0078AFE6FF22AF
:011ACD0022F6
:030023000211BD0A
:1011BD00C0E0C0F0C083C082C0D075D00830991C8B
:1011CD00C29978A906E6FF78AB66700978A9F6C2D0
:1011DD00B5D20A800774C52FF8E6F5992098030259
:1011ED00126C209A07200E04C298806FC29A78A8BC
:1011FD00E60624B1F8A699C29878A8E6FFB40113C3
:10120D0078B1E6FE700578A8F68054EE54072402F6
:10121D0078B0F6EFB4020E78B0E6B4090878B2E60D
:10122D00240379B0F7D20878A8E6FFB41404760049
:10123D00802DEFC378B09640267B007A0079B17887
:10124D00A8E624FFFDE434FFFC12191078A8E6246B
:10125D00B0F8E66F6002800312002678A87600D001
:0A126D00D0D082D083D0F0D0E03260
:1016630078AFE6FF18E68FF0A47C002525FFEC3564
:10167300F0FE78B2E675F010A424A3F582E5F03409
:101683000FF583E493FB740193FA740293F98F8249
:081693008E83120984FF7D2300
:10169B008F2B8D2CE52C6010F8E6FFE52BFD7C00E5
:1016AB00120003A82CC6EFC6852B993099FDC29961
:0116BB00220C
:10198100C9EFC9EDC39B402378A5E6FFEB2FFFE428
:1019910033FEEDC39FEE6480F8748098500DD20E33
:1019A100C3ED9B78AFF678AAE9F622C20EE478AAD5
:0219B100F6221C
:1018D100C9EFC9BAFF0FBBFF0CED6B7002EC6A7068
:1018E10027D20E801BC3ED9BEC9A401C78A5E62BFA
:1018F100FFE43AFEC3ED9FEC9E500DD20EC3ED9B6B
:0F19010078AFF678AAE9F622C20EE478AAF622A9
:1000260078B1E6FF54F8F524EF120ACF006C090008
:10003600770A008610008D11009C1200AF1900C3CC
:100046001A00E92000EE28015829020F34022F3742
:10005600026339027241027B4902845002AB61029B
:100066008898000002DC78B2E6FDE54EFB7F018051
:100076001F78B2E6FC08E6FDAB4EAA4D7F01802351
:10008600E4FBFD7F03800978B2E6FDE550FB7F02C5
:100096001219810202DC78B2E6FC08E6FDAB50AA32
:1000A6004F7F021218D10202DC78B2E6FDE54EFB64
:1000B6007F01121981200E030202DC801678B2E657
:1000C600FC08E6FDAB4EAA4D7F011218D1200E03A7
:1000D6000202DC78C5767878AB7601D2B575997868
:1000E6000202DCD20B0202DCC2ACE4F523D2B57DFF
:1000F600237F7F12169B7D237F1812169B7D237FFD
:100106001712169B78A6E6FF7D2312169B7D23AF5A
:100116004D12169B7D23AF4E12169B7D23AF4F12B9
:10012600169B7D23AF5012169B7D23AF5112169B53
:100136007D23AF5212169BE4F52574532525F8E668
:10014600FF7D2312169B0525E525C3941040EB027F
:10015600020178B2E6FFC378A69640030202DC7578
:10016600F010EFA42496F582E5F0340FAF82F5295E
:100176008F2AC2ACE4F523D2B57D237F7F12169B6E
:100186007D237F0D12169B852A82852983E493FFA2
:100196007D2312169B852A82852983740193FF7D10
:1001A6002312169B852A82852983740293FF7D2359
:1001B60012169B852A82852983740393FF7D231259
:1001C600169B852A82852983740493FF7D23121644
:1001D6009BE4F525E52A2405F582E43529F583E532
:1001E600822525F582E43583F583E493FF7D23128A
:1001F600169B0525E525C3940840D9E4FDAF2312D7
:10020600169BC2B5D2AC0202DC7A007B327D017845
:10021600AFE6FF12158B78B2E6F54D08E6F54E0807
:10022600E6F54F08E6F550802E7A007B327D0178A0
:10023600AFE6FF12158BE4F525E525C378B2965097
:100246001674B32525F8E6FF74532525F8C6EFC6C0
:100256000525E525B410E2D209D20C80797A007B17
:10026600327D0178AFE6FF12158B806A78B2E624FC
:10027600FF9202806178B2E624FF92018058D21183
:1002860080547A007B327D0178AFE6FF12158BD25F
:100296000978C5767878A8E624B0F8E678C6F678C0
:1002A600AB7602802A7A007B327D017F0012158BA5
:1002B60078C5767978B2E678C6F67B007A0079C595
:1002C6007D027C0012191078C7EFF678AB7603D260
:1002D600B578C5E6F599E52464A060030204727852
:1002E600B1E664A160030203AE08E6FFC378A696F2
:1002F600400302047275F010EFA42496F582E5F02F
:10030600340FF583E493F52775F010EFA4249AF5DE
:1003160082E5F0340FF583E49330E235121AC48F88
:1003260027E527247878C5F67B007A0079C5E52786
:100336002401FDE433FC12191074C62527F8EFF6E4
:10034600E527240278ABF6D2B578C5E6F59902041E
:100356007278B2E6FF121AC4C2ACE4F523D2B5E550
:1003660027D3940640247D237F7F12169B7D23AFDF
:100376002712169BE4F525E525C395275007121687
:1003860063052580F20527020467E5272478FF7DAB
:100396002312169BE4F525E525C39527500712166B
:1003A60063052580F202046778B1E664A260030261
:1003B600047278A6E6FF78B2E6FEC39F4003020405
:1003C6007208E6FDC39F4003020472EEC39D40031C
:1003D60002047218E6F525E4F527E525D378B396E9
:1003E600501FAF25121AC475F010E525A42496F502
:1003F60082E5F0340FF583E4932527F5270525805C
:10040600D9C2ACE4F523D2B57D237F7F12169B7D3E
:1004160023AF2712169B78B2E6F525E525D378B3E8
:1004260096503EE4F52675F010E525A42496F5824F
:10043600E5F0340FF583E493FFE526C39F501E785D
:10044600AFE6FF18E68FF0A47C002526FFEC35F01A
:10045600FE75F010E52512167B052680C905258058
:10046600BAE4FDAF2312169BC2B5D2ACE52464589C
:10047600704DFA7B327D0178AFE6FF12158B752E33
:1004860000752F007530C67B007A0079B21219E22A
:100496008F27E527247878C5F67B007A0079C5E5AD
:1004A600272401FDE433FC12191074C62527F8EF42
:1004B600F6E527240278ABF6D2B578C5E6F599E5D8
:1004C6002464806009E5246488600302060D7A00CE
:1004D6007B327D0178AFE6FF12158B78B1E65407C3
:1004E600F527B4070A75260108E6F527088005E40E
:1004F600F52678B2E6F5281527E528C378A69640AE
:10050600030205E575F010E528A42496F582E5F0CA
:10051600340FF583E493FFE527D39F40028F27E44A
:10052600F525E525C3952740030205D875F010E5A6
:1005360028A4249AF582E5F0340FF583E49330E29B
:10054600030205D375F010E528A42497F582E5F09B
:10055600340FF583E4936438701BE527D394044085
:1005660008E526252524B3802A78A8E6C39525FF25
:1005760074AF2F801E75F010E528A42496F582E549
:10058600F0340FF583E493FFC378A8E69F2525256D
:100596002624B0F8E6FD78AFE6FF18E68FF0A4FF54
:1005A600E5257A002FFFEA35F0FE75F010E528A460
:1005B60024A3F582E5F0340FF583E493FB740193ED
:1005C600FA740293F98F828E83ED1209C305250210
:1005D6000528AF28121ABBE5246488702A800FE527
:1005E60028B4FF2378B3E6F520E524B4881978C546
:1005F600767878A8E624B0F8E678C6F678AB760280
:07060600D2B578C5E6F599B5
:01060D0022CA
:10700000C2AF75FFDE75FFADE4F53CF53BD2B5C20E
:10701000997599783099FDC299E4F5993099FDC236
:10702000B53098FD85993BC298E4F53DE53B24FDDC
:10703000605214700302710614700302713E24033F
:1070400060030271413098FD85993CC298E53C256A
:10705000E0FEC3E49400EE94705023E5B654F0448F
:1070600008F5B6758F03E53C25E0F53F75400085D2
:107070004082F583E4F053B6F0F58F027141753D1F
:10708000FF027141D2B43098FD85993CC298E5B6B3
:1070900054F04408F5B6758F01E53C25E0F53F75E1
:1070A0004000E4FFE4F53E3098FD0540E540AC3F8C
:1070B0007002053F14F5828C83E599F0C298053E75
:1070C000E53EB43CE2D2B5C2997599783099FDC2DB
:1070D00099E4F5993099FDC2B50FBF08C7E4F53EB4
:1070E0003098FD0540E540AE3F7002053F14F58243
:1070F0008E83E599F0C298053EE53EB420E253B692
:10710000F0E4F58F803BC2B43098FD85993CC2987D
:10711000E53C7F0025E0FEE4F53DFDFC0FEFCAEE07
:10712000CA70010E14F5828A83E493253DF53D0D66
:10713000BD00010CED7003EC640270E0800375EF9C
:1071400010D2B5C2997599783099FDC299853D994B
:107150003099FDC2B5E53B64066003027021D2AFF1
:01716000220C
:10160400121AC9121ACD121ACE200D0B7A007B328F
:101614007D017F0012158B300F0B7A007B1E7D013C
:101624007F0012158B300913301010C209E4F551F4
:10163400F55278CD76F1121277D20D3011083010B0
:1016440005C211127000121AA3E47BF47A01F9F8AE
:0F165400C3120A8C5002D210300B0375EF102214
:0B1AB000120B8C1216041219B380F800
:1010B600005EBCE2613FDD83C29C7E20A3FD1F4132
:1010C6009DC3217FFCA2401E5F01E3BD3E6082DC22
:1010D600237D9FC1421CFEA0E1BF5D0380DE3C6212
:1010E600BEE0025CDF81633D7C22C09E1D43A1FF02
:1010F6004618FAA427799BC584DA3866E5BB5907F2
:10110600DB856739BAE406581947A5FB7826C49AE1
:10111600653BD987045AB8E6A7F91B45C6987A24D1
:10112600F8A6441A99C7257B3A6486D85B05E7B9C1
:101136008CD2306EEDB3510F4E10F2AC2F7193CDB1
:10114600114FADF3702ECC92D38D6F31B2EC0E50A1
:10115600AFF1134DCE90722C6D33D18F0C52B0EE91
:10116600326C8ED0530DEFB1F0AE4C1291CF2D7381
:10117600CA947628ABF517490856B4EA6937D58B71
:101186005709EBB536688AD495CB2977F4AA481661
:10119600E9B7550B88D6346A2B7597C94A14F6A851
:1011A600742AC896154BA9F7B6E80A54D7896B3541
:0711B600DCEEF4FAFDFEFF80
:0A1910008B2B8A2C892D8C2E8D2F35
:10191A00E4F530FFFEC3EF952FE52E6480F8EE6400
:10192A008098501DAB2BAA2CA92D8F828E83120969
:10193A00846530FD9010B693F5300FBF00010E801C
:03194A00D4AF30E7
:01194D002277
:07000300ED6F9010B693FFB2
:01000A0022D3
:011ACE0022F5
:101A5F00EF701E7598D0E589540F4420F58953C84F
:101A6F00E1438E10ED9011B593F58DD28ED2ACC2AD
:031A7F00BCD2AF27
:011A82002241
:1017B500D2AFD2A9D2BBE589540F4401F589E4F52E
:1017C5008E758CDBF58AD28CF51FF51EF51DF51C83
:1017D500FFEF25E025E024CEF8E4F6EF25E025E04F
:1017E50024CFF8E4F6EF25E025E024D0F8E4F6EF81
:0D17F50025E025E024D1F8E4F60FBF01D473
:0118020022C3
:0713DD00C0D075D01015709F
:1013E400A870E4F6A870E6FFC39401400302147CDD
:1013F400EF25E025E024D1F8E6FFD394004052A87D
:1014040070E625E025E024CFF8E67045EF30E015DE
:10141400A870E6FF25E025E024D1F8E6D394014046
:10142400047D0080067D01A870E6FF121803A870F1
:10143400E6FF25E025E024D1F816E66014EF25E068
:1014440025E024D0F8E6FEEF25E025E024CFF8EEF1
:10145400F6A870E625E025E024CFF8E6600116A89A
:1014640070E6FF25E025E024D1F8E670057D011241
:081474001803A870060213E83A
:05147C000570D0D02234
:03000B0002194E89
:10194E00C0E0C0F0C083C082C0D075D010758CDCF2
:10195E00E51F2401F51FE4351EF51EE4351DF51DAA
:10196E00E4351CF51C1213DDD0D0D082D083D0F01C
:03197E00D0E03284
:101A38001570A870EDF61570A870EFF6A870E6FF9F
:101A4800C39401500D08E6FEEF25E025E024CEF80A
:071A5800EEF6057005702297
:10158B0015701570A870EAF608EBF61570A870EDDB
:10159B00F61570A870EFF6A870E6FFC394015052D1
:1015AB00EF25E025E024D1F8E67047A870E6FB258F
:1015BB00E025E024CFF8E67039A87008E625E004B2
:1015CB00FFA870E6FA25E025E024D1F8EFF6A87025
:1015DB000808E6FE08E6FF7C007D0A1209E5EA250D
:1015EB00E025E024D0F8EFF6EB25E025E024CFF85A
:0915FB00E4F6E5702404F5702209
:10180300C0D075D0101570A870EDF61570A870EFE4
:10181300F6A870E6FFC39401501CEF25E025E024F1
:10182300CEF8E66011A87008E670047F0180027F9D
:1018330000A87008EFF6A870E6700608E624FF9289
:08184300B405700570D0D0223D
:0C1AA300C2AFAF1FAE1EAD1DAC1CD2AF19
:011AAF002214
:041AC90075FFA522DE
:041A0F008E188F1985
:101A1300E4F51AF51BC3E51B9519E51A951850143F
:101A23007FE87E03121711121604051BE51B70E5F0
:041A3300051A80E12F
:011A3700228C
:041711008E3B8F3C40
:10171500D3E53C94FAE53B9400500AEFD39400409E
:101725003C001F80F6853B3D853C3ED3E53E94FA63
:10173500E53D940040157FFA7E00121711740625C9
:101745003EF53E74FF353DF53D80E0D3E53C940024
:0D175500E53B94004007AF3EAE3D1217117A
:011762002264
:0816BC008B3A8A3B893C8D3D0D
:1016C400121AC9AB3EAA3FA940120A1B2400FFE527
:1016D400F03480FE853A41853B42853C43E4FDED90
:1016E400C3953D501BEF2DF582E43EF583E493ABA7
:1016F40041AA42A9438D827583001209C30D80DF7C
:0D170400AB3EAA3FA940E4853DF0020A4635
:06150D008B418A42894374
:1015130078CDE664F17070C2AFE5B654F04408F5D7
:10152300B6758F01AB45AA46A947120A1B2400FFD3
:10153300E5F03480F5488F4985414A85424B854320
:101543004CE4FFEFC39D5026AB4A054CE54CAA4B38
:101553007002054B14F912096BFE0549E549AA48C7
:101563007002054814F5828A83EEF00F80D5E4F506
:101573008F53B6F0CFEDCFAB45AA46A9478FF012F4
:071583000A46D2AF121AC99B
:01158A00223E
:101A830078CDE6B4F119C2AFE5B654F04408F5B623
:0F1A9300758F03908000E4F0F58F53B6F0D2AF5B
:011AA2002221
:101277007A007B327D037F0312158B121A83E4F504
:101287003FF540F54575460075473FFB7A00794DB8
:101297007D1612150DE4F53CE53CC378A59650671D
:1012A700E4F53B75F010E53BA42496F582E5F034B0
:1012B7000FF583E493604C78AEE6853CF0A4FFAE6F
:1012C700F075F010E53BA424A3F582E5F0340FF5A3
:1012D70083E493FB740193FA7402932FF9EA3EFABD
:1012E70075F010E53BA42496F582E5F0340FF583FD
:1012F700E493FD75450075460075473F12150D05CA
:101307003B80A0053C8091753D12753E34754500C4
:1013170075460075473F7B007A00793D7D021215BF
:051327000DE478CDF695
:01132C00229E
:10132D00E4F538F539F53E753F00754038FB7A0028
:10133D00794D7D161216BCE4F535E535C378A596C5
:10134D005067E4F53475F010E534A42496F582E584
:10135D00F0340FF583E493604C78AEE68535F0A458
:10136D00FFAEF075F010E534A424A3F582E5F0345A
:10137D000FF583E493FB740193FA7402932FF9EA4A
:10138D003EFA75F010E534A42496F582E5F0340F9D
:10139D00F583E493FD753E00753F007540381216D8
:1013AD00BC053480A005358091753E00753F0075F4
:1013BD0040387B007A0079367D021216BCE5376421
:0F13CD00347004E536641270047F0180027F00E3
:0113DC0022EE
:100F8E005343532D38303000041DF7000143617078
:100F9E003000000000000071041DF7000143617075
:100FAE003100000000000075041DF7000143617060
:100FBE003200000000000079041DF700014361704B
:100FCE00330000000000007D041DF7000143617036
:100FDE003400000000000081041DF7000143617021
:100FEE003500000000000085041DF700014361700C
:100FFE003600000000000089041DF70001436170F7
:10100E00370000000000008D021DF400024F6673D1
:10101E003000000000000091021DF400024F6673C4
:10102E003100000000000093021DF400024F6673B1
:10103E003200000000000095021DF400024F66739E
:10104E003300000000000097021DF400024F66738B
:10105E003400000000000099021DF400024F667378
:10106E00350000000000009B021DF400024F667365
:10107E00360000000000009D021DF400024F667352
:10108E00370000000000009F045D00000147616909
:10109E006E000000000000A1000000000000000033
:0810AE0000000000000000003A
:0C00110001A50101630004640000000070
:1018900075A4FDE4F5A57590FFD287D286EF602E82
:1018A000E4FBEB25E025E02471F8120AB600000005
:1018B00000EB25E02491F8E4F608F674682BF8E4D0
:1018C000F678A1120AB63F8000000BBB08D40218BC
:0118D0004BCC
:091ABB001570A870EFF605702209
:051AC4008F2B7F0022C2
:1019E2008B2B8A2C892D12096BAB2EAA2FA93012B0
:1019F20009B1AB2BAA2CA92D900001120984AB2EA0
:0D1A0200AA2FA9309000011209C37F022213
:02184B00157016
:10184D00C285C284A870E4F6A870E6C39404500F54
:10185D00D282D284C284D282D284C2840680E9A884
:10186D0070E4F6A870E6C39404500FD282D284C2FD
:10187D0084D282D284C2840680E9C282D285C28596
:03188D00057022C1
:100DAE00E4F536F535F534F533F532121604AF6346
:100DBE007401C8EFC8088002C333D8FCF531E4F5DE
:100DCE0094F5957592FF7593FF759104C2867F0118
:100DDE00FE121711D286E59055316005E59130E788
:100DEE00F5E59130E712753A007539C075387975A9
:100DFE003744E4F591020F6EE4F591AF95EFFEAD39
:100E0E00947C00E42DFFEC3EFEE4FDE5362FF53636
:100E1E00E5353EF535ED3534F534EC3533F5330542
:100E2E0032E532C3940A4083AF36AE35AD34AC33BF
:100E3E00E41208ACECC0E0EDC0E0EEC0E0EFC0E0C4
:100E4E00AC32E41208B6C8ECC8C9EDC9CAEECACBBA
:100E5E00EFCBD0E0FFD0E0FED0E0FDD0E0FC1208FA
:100E6E000F7BFE7AD47930784112080FE4FBFA79C1
:100E7E004078411207068F3A8E398D388C377B00B9
:100E8E007A247974784912080F8F3A8E398D388CFE
:100E9E00377BCD7ACC798C783F12080F7B007AE6BF
:100EAE0079AA784A12080F7B287A6B796E784E12DF
:100EBE0007068F3A8E398D388C3778A1120A9D121B
:100ECE0007068F3A8E398D388C377BBC7A747993BE
:100EDE00783C1206118F3A8E398D388C37ECC0E083
:100EEE00EDC0E0EEC0E0EFC0E0E56325E02491F850
:100EFE00E6FC08E6FDEC1208B1E4FBFA797A7844D8
:100F0E0012080FC8ECC8C9EDC9CAEECACBEFCBD0D8
:100F1E00E0FFD0E0FED0E0FDD0E0FC1206118F3AEB
:100F2E008E398D388C37E4FFFE7D7A7C44AB3AAA3D
:100F3E0039A938A837120706E4FBFAF9783F1206EA
:100F4E00151208EACDEFCDCCEECCEC1208B1E4FBD5
:100F5E00FA797A784412080F8F3A8E398D388C3799
:100F6E00C2AFAF3AAE39AD38AC37E56325E025E018
:0F0F7E002471F8120AAAD2AFE563045407F56391
:010F8D002241
:1019B300121AA3C3EF9567FFEE9566FEED9565FDDD
:1019C300EC9564FCE47B0AFAF9F8C3120A8C500E16
:0E19D300120DAE121AA38F678E668D658C649E
:0119E10022E3
:10060E00020956E86480F8E933E83360110460F0BB
:10061E00ED33EC337009E8FCE9FDEAFEEBFF220452
:10062E0060DED3EB9FEA9EE99DE8C2E78CF0C2F74D
:10063E0095F0400CE8CCF8E9CDF9EACEFAEBCFFB19
:10064E0012092185D0F05804700320D5B3E8047048
:10065E00075002B2D502096092D5EC0460F7E4CCE3
:10066E00C0E0C398F8603B94186008400DD0E0FBE2
:10067E00020938E4FBFAC9FC8028E830E406E4C934
:10068E00FBE4CAFCE830E305E4C9CACBFCE8540736
:10069E006010F8C3E913F9EA13FAEB13FBEC13FC41
:1006AE00D8F130F52FC3E49CFCEF9BFFEE9AFEEDE4
:1006BE0099FDD0E0FBEF4E4D4C701222DB03020988
:1006CE005DEC2CFCEF33FFEE33FEED33FDED30E74A
:1006DE00EB020938EF2BFFEE3AFEED39FDD0E0FBD1
:1006EE0050130BBB0003020960ED13FDEE13FEEF7A
:0806FE0013FFEC13FC020938A4
:10070600EC4D6011E8497017ED33EC3304600DE4ED
:10071600FCFFFEFD22E933E8330470F802095612A5
:10072600092158046009E4CC2481500628500902A6
:10073600096028400302095DC0E0EB4A7044B980B5
:1007460006D0E0FB02094CEF4E701CBD8008EBFFA3
:10075600EAFEE9FD80EBE98DF0A4FEE5F00207EF85
:10076600E9CDF9EAFEEBFFEF89F0A4FCE5F0CE89CE
:10077600F0A42EFFE435F0CD89F0A42DFEE435F08B
:100786008067EF4E7005BD80D780C3EF8BF0A4ACB9
:10079600F0EE8BF0A42CFCE435F0F8EF8AF0A42CF4
:1007A600E5F038FCE433CB8DF0A42CFCE5F03BF807
:1007B600EE8AF0A42CFCE5F038F8E433CF89F0A4F7
:1007C6002CFCE5F038CF3400CE89F0A42FFFE5F0FD
:1007D6003EFEE433C98DF0A42EFEE5F039CD8AF055
:1007E600A42FFFE5F03EFEE43DFD33D0E0FB5007CD
:1007F6000BBB000F020960EC2CFCEF33FFEE33FE5F
:06080600ED33FD0209388C
:10080C00020960EC5D046005E859047003020956A6
:10081C00120921580460F6EC4860F2EC7004FDFEFD
:10082C00FF22C860DB2481C85009C39860025006BF
:10083C0002095D9850CAF582E9294B4A7005AB82D2
:10084C0002094C75F0007C1A7880C3EF9BEE9AED90
:10085C0099400DC3EF9BFFEE9AFEED99FDE842F037
:10086C00DC23ACF0D0E0FFD0E0FED0E0FDAB82208A
:10087C00E7101BEB60BAEC2CFCEF33FFEE33FEED14
:10088C0033FD020938E803F830E705C0F075F000D5
:10089C00EF2FFFEE33FEED33FD40B830E7C280AAF8
:1008AC0075F020800E75F010800575F0087D007EC7
:1008BC00007F003392D530D503120A7EEC33401002
:1008CC00EF33FFEE33FEED33FDEC33FCD5F0ED22D0
:0E08DC00E5F0247EA2D513CC92E7CDCEFF220C
:1008EA00EDD2E7CD33EC3392D524814006E4FFFE06
:1008FA00FDFC22FCE4CFCECDCC24E0501174FF8065
:10090A00EDC3CC13CCCD13CDCE13CECF13CF047001
:07091A00F030D5DE020A7E79
:10092100E9D2E7C933E833F892D5EDD2E7CD33EC1C
:0709310033FC5002B2D52295
:10093800EC30E7100FBF000C0EBE00080DBD000420
:100948000BEB6014A2D5EB13FCED92E7FD2274FFCC
:10095800FCFDFEFF22E480F8A2D574FF13FC7D8025
:03096800E480EF39
:0300000002148166
:0C148100787FE4F6D8FD7581D10214C814
:10096B00BB010689828A83E0225002E722BBFE028A
:09097B00E32289828A83E49322BD
:10098400BB010CE58229F582E5833AF583E0225028
:1009940006E92582F8E622BBFE06E92582F8E22272
:0D09A400E58229F582E5833AF583E493228C
:1009B100BB010689828A83F0225002F722BBFE0125
:0209C100F3221F
:1009C300F8BB010DE58229F582E5833AF583E8F06A
:1009D300225006E92582C8F622BBFE05E92582C816
:0209E300F222FE
:1009E500C2D5EC30E709B2D5E4C39DFDE49CFCEE2D
:1009F50030E715B2D5E4C39FFFE49EFE120B21C379
:100A0500E49DFDE49CFC8003120B2130D507C3E473
:060A15009FFFE49EFE229B
:100A1B00BB010A89828A83E0F5F0A3E022500687A6
:100A2B00F009E71922BBFE07E3F5F009E319228968
:0B0A3B00828A83E493F5F0740193229B
:100A4600BB010789828A83020B76500B09C5F02702
:100A5600F7C5F01937F722BBFE0D09F8E325F0F3C9
:100A6600C5F019E338F322F889828A837401932545
:080A7600F0C5F0F8E49338220A
:0E0A7E00C3E49FFFE49EFEE49DFDE49CFC2289
:100A8C00EB9FF5F0EA9E42F0E99D42F0E89C45F0C0
:010A9C002237
:0D0A9D00E6FB08E6F908E6FA08E6CBF822C9
:0C0AAA00ECF608EDF608EEF608EFF62278
:100AB600D083D082E493F608740193F60874029307
:090AC600F608740393F67404733E
:100ACF00D083D082F8E4937012740193700DA3A3B6
:100ADF0093F8740193F5828883E4737402936860CA
:060AEF00EFA3A3A380DFCA
:101763008B348A358936E4F53CF53DE53B153BAED4
:101773003A7002153A4E6033AB37AA38A9391209C9
:101783006BFFAB34AA35A936053DE53DAC3C700291
:10179300053C14F5828C83EF1209C3EF60CD74010D
:1017A3002539F539E43538F53880C0AB34AA35A985
:0217B3003622DC
:100AF500EF4E6012EF60010EEDBB010B89828A8318
:100B0500F0A3DFFCDEFA2289F05007F709DFFCA924
:0C0B1500F022BBFEFCF309DFFCA9F0227B
:10148D00021AB0E493A3F8E493A34003F68001F2AB
:10149D0008DFF48029E493A3F85407240CC8C33360
:1014AD00C4540F4420C8834004F456800146F6DF2F
:1014BD00E4800B010204081020408090000EE47EB1
:1014CD00019360BCA3FF543F30E509541FFEE49324
:1014DD00A360010ECF54C025E060A840B8E493A3EB
:1014ED00FAE493A3F8E493A3C8C582C8CAC583CA16
:1014FD00F0A3C8C582C8CAC583CADFE9DEE780BECE
:01001D0000E2
:100B2100BC000BBE0029EF8DF084FFADF022E4CCB8
:100B3100F875F008EF2FFFEE33FEEC33FCEE9DEC81
:100B4100984005FCEE9DFE0FD5F0E9E4CEFD22EDC7
:100B5100F8F5F0EE8420D21CFEADF075F008EF2F11
:100B6100FFED33FD4007985006D5F0F222C398FD02
:050B71000FD5F0EA229F
:100B7600C5F0F8A3E028F0C5F0F8E582158270020A
:060B86001583E038F022A7
:00000001FF
