:031BC70001BD005D
:100D3000E478BDF675FFDE75FFAD75E104F5E2758B
:100D4000E34075A401F5A5F5A675A72075B16775F3
:100D5000B20875FF0775FFA543B28075EF08121939
:100D600076E4F532F5337D00AF331219C47D01AF5F
:100D700033121B44121BD80533E53370020532C30E
:100D80009401E532940040DEE4F520C20EC209C2AF
:100D900011C20BC20DC210C20FC2B5789BF6789972
:100DA000F618F6789FF6F532F53374A12533F8E49A
:100DB000F60533E533700205326414453270EBE416
:100DC000F532F53374B52533F8E4F60533E53370C1
:100DD0000205326408453270EB7D05E4FF121B6B9F
:100DE000E4789EF67896F67896E6FF75F010A424DF
:100DF0005AF582E5F0340FF583E493FE789E26F6EB
:100E0000EE600578960680DFEFD39400402A900FBD
:100E100067E493FB740193FA740293F97455120911
:100E2000181208D264556002D20F74AA120918125F
:100E300008D264AA6002D20F121422EF6003020FDC
:100E40001A74FFF544F545F546F547E4F548F549CC
:100E5000FE7F10FDFB7A00794A120A4F7537FF7545
:100E6000380F753952753A00753B107B007A00795E
:100E70004A121924E4F532F533E533C4F8540FC8A7
:100E800068FFE532C454F048FE745A2FF582740F9F
:100E90003EF583E493607C745E2FF582740F3EF51B
:100EA00083E49320E262E4F531E531C3789596500E
:100EB00057E533C4F8540FC868FFE532C454F0480E
:100EC000FE745A2FF582740F3EF583E493FD7C0087
:100ED000C004C0057D0074672FF582740F3EF58352
:100EE000E493FB740193FA740293F9789EE68531DA
:100EF000F0A4FFE92FF9EA35F0FAD007D006120A7C
:100F00004F121BD8053180A10533E533700205323D
:100F1000020E797F011216F98016D20DE4FF121627
:100F2000F9E5EF30E30AD2030549E54970020548C7
:100F3000E4F532F5337A007B967D03AF33121680E9
:100F40000533E53370020532C39401E53294004065
:010F5000E4BC
:010F5100227D
:051BCE00789FE6FF22F4
:0100220022BB
:030023000212B214
:1012B200C0E0C0F0C083C082C0D075D00830991C95
:1012C200C299789906E6FF789B6670097899F6C20A
:1012D200B5D20A800774B52FF8E6F5992098030273
:1012E2001361209A07200E04C298806FC29A7898E0
:1012F200E60624A1F8A699C2987898E6FFB40113ED
:1013020078A1E6FE70057898F68054EE5407240220
:1013120078A0F6EFB4020E78A0E6B4090878A2E647
:10132200240379A0F7D2087898E6FFB41404760073
:10133200802DEFC378A09640267B007A0079A178B1
:1013420098E624FFFDE434FFFC121A4B7898E62459
:10135200A0F8E66F6002800312002678987600D02B
:0A136200D0D082D083D0F0D0E0326A
:10182400789FE6FF18E68FF0A47C002525FFEC35B1
:10183400F0FE78A2E675F010A42467F582E5F03492
:101844000FF583E493FB740193FA740293F98F8286
:081854008E831208EBFF7D23D7
:10185C008F2B8D2CE52C6010F8E6FFE52BFD7C0022
:10186C00120003A82CC6EFC6852B993099FDC2999E
:01187C002249
:101ABC00C9EFC9EDC39B40237895E6FFEB2FFFE4FC
:101ACC0033FEEDC39FEE6480F8748098500DD20EF7
:101ADC00C3ED9B789FF6789AE9F622C20EE4789AC9
:021AEC00F622E0
:101A0C00C9EFC9BAFF0FBBFF0CED6B7002EC6A702B
:101A1C0027D20E801BC3ED9BEC9A401C7895E62BCD
:101A2C00FFE43AFEC3ED9FEC9E500DD20EC3ED9B2E
:0F1A3C00789FF6789AE9F622C20EE4789AF6229D
:1000260078A1E6FF54F8F524EF120A29006C0900BE
:10003600770A008610008D11009C1200AF1900C3CC
:100046001A00E92000EE28015829020F34022F3742
:10005600026339027241027B4902845002AB61029B
:100066008898000002DC78A2E6FDE545FB7F01806A
:100076001F78A2E6FC08E6FDAB45AA447F01802373
:10008600E4FBFD7F03800978A2E6FDE547FB7F02DE
:10009600121ABC0202DC78A2E6FC08E6FDAB47AA0F
:1000A600467F02121A0C0202DC78A2E6FDE545FB49
:1000B6007F01121ABC200E030202DC801678A2E62B
:1000C600FC08E6FDAB45AA447F01121A0C200E037C
:1000D6000202DC78B57678789B7601D2B575997888
:1000E6000202DCD20B0202DCC2ACE4F523D2B57DFF
:1000F600237F7F12185C7D237F1812185C7D237F77
:100106001712185C7896E6FF7D2312185C7D23AFE4
:100116004412185C7D23AF4512185C7D23AF46124E
:10012600185C7D23AF4712185C7D23AF4812185C1C
:100136007D23AF4912185CE4F525744A2525F8E6B7
:10014600FF7D2312185C0525E525C3941040EB02BC
:10015600020178A2E6FFC378969640030202DC7598
:10016600F010EFA4245AF582E5F0340FAF82F5299A
:100176008F2AC2ACE4F523D2B57D237F7F12185CAB
:100186007D237F0D12185C852A82852983E493FFDF
:100196007D2312185C852A82852983740193FF7D4D
:1001A6002312185C852A82852983740293FF7D2396
:1001B60012185C852A82852983740393FF7D231296
:1001C600185C852A82852983740493FF7D2312187F
:1001D6005CE4F525E52A2405F582E43529F583E571
:1001E600822525F582E43583F583E493FF7D23128A
:1001F600185C0525E525C3940840D9E4FDAF231214
:10020600185CC2B5D2AC0202DC7A007B327D017882
:100216009FE6FF12168078A2E6F54408E6F5450843
:10022600E6F54608E6F547802E7A007B327D0178B2
:100236009FE6FF121680E4F525E525C378A29650C1
:100246001674A32525F8E6FF744A2525F8C6EFC6D9
:100256000525E525B410E2D209D20C80797A007B17
:10026600327D01789FE6FF121680806A78A2E62426
:10027600FF9202806178A2E624FF92018058D21193
:1002860080547A007B327D01789FE6FF121680D279
:100296000978B576787898E624A0F8E678B6F67800
:1002A6009B7602802A7A007B327D017F00121680BF
:1002B60078B5767978A2E678B6F67B007A0079B5D5
:1002C6007D027C00121A4B78B7EFF6789B7603D244
:1002D600B578B5E6F599E52464A060030204727862
:1002E600A1E664A160030203AE08E6FFC378969612
:1002F600400302047275F010EFA4245AF582E5F06B
:10030600340FF583E493F52775F010EFA4245EF51A
:1003160082E5F0340FF583E49330E235121BD38F78
:1003260027E527247878B5F67B007A0079B5E527A6
:100336002401FDE433FC121A4B74B62527F8EFF6B8
:10034600E5272402789BF6D2B578B5E6F59902043E
:100356007278A2E6FF121BD3C2ACE4F523D2B5E550
:1003660027D3940640247D237F7F12185C7D23AF1C
:100376002712185CE4F525E525C3952750071218C2
:1003860024052580F20527020467E5272478FF7DEA
:100396002312185CE4F525E525C3952750071218A6
:1003A60024052580F202046778A1E664A2600302B0
:1003B60004727896E6FF78A2E6FEC39F4003020425
:1003C6007208E6FDC39F4003020472EEC39D40031C
:1003D60002047218E6F525E4F527E525D378A396F9
:1003E600501FAF25121BD375F010E525A4245AF52E
:1003F60082E5F0340FF583E4932527F5270525805C
:10040600D9C2ACE4F523D2B57D237F7F12185C7D7B
:1004160023AF2712185C78A2E6F525E525D378A345
:1004260096503EE4F52675F010E525A4245AF5828B
:10043600E5F0340FF583E493FFE526C39F501E785D
:100446009FE6FF18E68FF0A47C002526FFEC35F02A
:10045600FE75F010E52512183C052680C905258095
:10046600BAE4FDAF2312185CC2B5D2ACE5246458D9
:10047600704DFA7B327D01789FE6FF121680752E4D
:1004860000752F007530B67B007A0079A2121AEE3D
:100496008F27E527247878B5F67B007A0079B5E5CD
:1004A600272401FDE433FC121A4B74B62527F8EF16
:1004B600F6E5272402789BF6D2B578B5E6F599E5F8
:1004C6002464806009E5246488600302060D7A00CE
:1004D6007B327D01789FE6FF12168078A1E65407ED
:1004E600F527B4070A75260108E6F527088005E40E
:1004F600F52678A2E6F5281527E528C378969640CE
:10050600030205E575F010E528A4245AF582E5F006
:10051600340FF583E493FFE527D39F40028F27E44A
:10052600F525E525C3952740030205D875F010E5A6
:1005360028A4245EF582E5F0340FF583E49330E2D7
:10054600030205D375F010E528A4245BF582E5F0D7
:10055600340FF583E4936438701BE527D394044085
:1005660008E526252524A3802A7898E6C39525FF45
:10057600749F2F801E75F010E528A4245AF582E595
:10058600F0340FF583E493FFC37898E69F2525257D
:100596002624A0F8E6FD789FE6FF18E68FF0A4FF74
:1005A600E5257A002FFFEA35F0FE75F010E528A460
:1005B6002467F582E5F0340FF583E493FB74019329
:1005C600FA740293F98F828E83ED12092A052502A9
:1005D6000528AF2812000EE5246488702A800FE5EE
:1005E60028B4FF2378A3E6F520E524B4881978B566
:1005F60076787898E624A0F8E678B6F6789B7602C0
:07060600D2B578B5E6F599C5
:01060D0022CA
:10700000C2AF75FFDE75FFADE4F532F531D2B5C222
:10701000997599783099FDC299E4F5993099FDC236
:10702000B53098FD859931C298E4F533E53124FDFA
:10703000605214700302710614700302713E24033F
:1070400060030271413098FD859932C298E532257E
:10705000E0FEC3E49400EE94705023E5B654F0448F
:1070600008F5B6758F03E53225E0F53575360085F0
:107070003682F583E4F053B6F0F58F027141753333
:10708000FF027141D2B43098FD859932C298E5B6BD
:1070900054F04408F5B6758F01E53225E0F53575F5
:1070A0003600E4FFE4F5343098FD0536E536AC35BE
:1070B0007002053514F5828C83E599F0C298053489
:1070C000E534B43CE2D2B5C2997599783099FDC2E5
:1070D00099E4F5993099FDC2B50FBF08C7E4F534BE
:1070E0003098FD0536E536AE357002053514F5826B
:1070F0008E83E599F0C2980534E534B420E253B6A6
:10710000F0E4F58F803BC2B43098FD859932C29887
:10711000E5327F0025E0FEE4F533FDFC0FEFCAEE1B
:10712000CA70010E14F5828A83E4932533F5330D7A
:10713000BD00010CED7003EC640270E0800375EF9C
:1071400010D2B5C2997599783099FDC29985339955
:107150003099FDC2B5E53164066003027021D2AFFB
:01716000220C
:10176B00121BD8120022121BDC200D0B7A007B32CD
:10177B007D017F00121680300F0B7A007B1E7D01DE
:10178B007F00121680300913301010C209E4F5489F
:10179B00F54978BD76F112136CD20D30110830106B
:1017AB0005C211127000121BAFE47BF47A01F9F839
:0F17BB00C31209F35002D210300B0375EF102246
:0B1BBC00120D3012176B1217CA80F8D0
:1010AA00005EBCE2613FDD83C29C7E20A3FD1F413E
:1010BA009DC3217FFCA2401E5F01E3BD3E6082DC2E
:1010CA00237D9FC1421CFEA0E1BF5D0380DE3C621E
:1010DA00BEE0025CDF81633D7C22C09E1D43A1FF0E
:1010EA004618FAA427799BC584DA3866E5BB5907FE
:1010FA00DB856739BAE406581947A5FB7826C49AEE
:10110A00653BD987045AB8E6A7F91B45C6987A24DD
:10111A00F8A6441A99C7257B3A6486D85B05E7B9CD
:10112A008CD2306EEDB3510F4E10F2AC2F7193CDBD
:10113A00114FADF3702ECC92D38D6F31B2EC0E50AD
:10114A00AFF1134DCE90722C6D33D18F0C52B0EE9D
:10115A00326C8ED0530DEFB1F0AE4C1291CF2D738D
:10116A00CA947628ABF517490856B4EA6937D58B7D
:10117A005709EBB536688AD495CB2977F4AA48166D
:10118A00E9B7550B88D6346A2B7597C94A14F6A85D
:10119A00742AC896154BA9F7B6E80A54D7896B354D
:0711AA00DCEEF4FAFDFEFF8C
:0A1A4B008B2B8A2C892D8C2E8D2FF9
:101A5500E4F530FFFEC3EF952FE52E6480F8EE64C4
:101A65008098501DAB2BAA2CA92D8F828E8312082E
:101A7500EB6530FD9010AA93F5300FBF00010E8085
:031A8500D4AF30AB
:011A8800223B
:07000300ED6F9010AA93FFBE
:01000A0022D3
:011BDC0022E6
:101B6B00EF701E7598D0E589540F4420F58953C842
:101B7B00E1438E10ED9011A993F58DD28ED2ACC2AC
:031B8B00BCD2AF1A
:011B8E002234
:10197600D2AFD2A9D2BBE589540F4401F589E4F56B
:101986008E758CDBF58AD28CF51FF51EF51DF51CC0
:10199600FFEF25E025E024BEF8E4F6EF25E025E09C
:1019A60024BFF8E4F6EF25E025E024C0F8E4F6EFDE
:0D19B60025E025E024C1F8E4F60FBF01D4C0
:0119C3002201
:0714D200C0D075D0101568B1
:1014D900A868E4F6A868E6FFC39401400302157101
:1014E900EF25E025E024C1F8E6FFD394004052A897
:1014F90068E625E025E024BFF8E67045EF30E01501
:10150900A868E6FF25E025E024C1F8E6D394014068
:10151900047D0080067D01A868E6FF1219C4A86849
:10152900E6FF25E025E024C1F816E66014EF25E082
:1015390025E024C0F8E6FEEF25E025E024BFF8EE1B
:10154900F6A868E625E025E024BFF8E6600116A8BC
:1015590068E6FF25E025E024C1F8E670057D011263
:0815690019C4A868060214DD94
:051571000568D0D02246
:03000B00021A894D
:101A8900C0E0C0F0C083C082C0D075D010758CDCB6
:101A9900E51F2401F51FE4351EF51EE4351DF51D6E
:101AA900E4351CF51C1214D2D0D0D082D083D0F0EA
:031AB900D0E03248
:101B44001568A868EDF61568A868EFF6A868E6FFBA
:101B5400C39401500D08E6FEEF25E025E024BEF80D
:071B6400EEF605680568229A
:1016800015681568A868EAF608EBF61568A868ED0D
:10169000F61568A868EFF6A868E6FFC394015052F3
:1016A000EF25E025E024C1F8E67047A868E6FB25B1
:1016B000E025E024BFF8E67039A86808E625E004D4
:1016C000FFA868E6FA25E025E024C1F8EFF6A8684F
:1016D0000808E6FE08E6FF7C007D0A12094CEA25B0
:1016E000E025E024C0F8EFF6EB25E025E024BFF884
:0916F000E4F6E5682404F5682223
:1019C400C0D075D0101568A868EDF61568A868EF42
:1019D400F6A868E6FFC39401501CEF25E025E02437
:1019E400BEF8E66011A86808E670047F0180027FF3
:1019F40000A86808EFF6A868E6700608E624FF92D7
:081A0400B405680568D0D0228A
:0C1BAF00C2AFAF1FAE1EAD1DAC1CD2AF0C
:011BBB002207
:041BD80075FFA522CE
:041B1B008E188F1978
:101B1F00E4F51AF51BC3E51B9519E51A9518501432
:101B2F007FE87E031218D212176B051BE51B70E5B9
:041B3F00051A80E122
:011B4300227F
:0418D2008E378F3886
:1018D600D3E53894FAE5379400500AEFD3940040E4
:1018E6003C001F80F685373985383AD3E53A94FAB5
:1018F600E539940040157FFA7E001218D274062549
:101906003AF53A74FF3539F53980E0D3E538940075
:0D191600E53794004007AF3AAE391218D201
:0119230022A1
:08187D008B3A8A3B893C8D3D4A
:10188500121BD8AB3EAA3FA9401209822400FFE5EE
:10189500F03480FE853A41853B42853C43E4FDEDCD
:1018A500C3953D501BEF2DF582E43EF583E493ABE4
:1018B50041AA42A9438D8275830012092A0D80DF52
:0D18C500AB3EAA3FA940E4853DF00209AD0D
:061602008B378A3889399C
:1016080078BDE664F17070C2AFE5B654F04408F5F1
:10161800B6758F01AB3BAA3CA93D1209822400FF95
:10162800E5F03480F53E8F3F853740853841853970
:1016380042E4FFEFC39D5026AB400542E542AA4174
:101648007002054114F91208D2FE053FE53FAA3E93
:101658007002053E14F5828A83EEF00F80D5E4F51A
:101668008F53B6F0CFEDCFAB3BAA3CA93D8FF0121C
:0716780009ADD2AF121BD82F
:01167F002248
:101B8F0078BDE6B4F119C2AFE5B654F04408F5B626
:0F1B9F00758F03908000E4F0F58F53B6F0D2AF4E
:011BAE002214
:10136C007A007B327D037F03121680121B8FE4F50B
:10137C0035F536F53B753C00753D35FB7A00794407
:10138C007D16121602E4F532E532C3789596506755
:10139C00E4F53175F010E531A4245AF582E5F0340A
:1013AC000FF583E493604C789EE68532F0A4FFAE93
:1013BC00F075F010E531A42467F582E5F0340FF5F3
:1013CC0083E493FB740193FA7402932FF9EA3EFAC7
:1013DC0075F010E531A4245AF582E5F0340FF5834D
:1013EC00E493FD753B00753C00753D351216020506
:1013FC003180A005328091753312753434753B0001
:10140C00753C00753D357B007A0079337D021216F0
:05141C0002E478BDF6BA
:0114210022A8
:10142200E4F538F539F53E753F00754038FB7A0032
:1014320079447D1612187DE4F535E535C378959625
:101442005067E4F53475F010E534A4245AF582E5CA
:10145200F0340FF583E493604C789EE68535F0A472
:10146200FFAEF075F010E534A42467F582E5F034A0
:101472000FF583E493FB740193FA7402932FF9EA54
:101482003EFA75F010E534A4245AF582E5F0340FE3
:10149200F583E493FD753E00753F007540381218E0
:1014A2007D053480A005358091753E00753F00753D
:1014B20040387B007A0079367D0212187DE5376468
:0F14C200347004E536641270047F0180027F00ED
:0114D10022F8
:100F52005343532D3630300001320000004F757478
:100F6200300000000000006901320000004F75747B
:100F7200310000000000006A01320000004F757469
:100F8200320000000000006B01320000004F757457
:100F9200330000000000006C01320000004F757445
:100FA200340000000000006D01320000004F757433
:100FB200350000000000006E01320000004F757421
:100FC200360000000000006F01320000004F75740F
:100FD2003700000000000070013400000042757408
:100FE200746F6E0000000071013400000050310087
:100FF20000000000000000720134000000496E7021
:1010020075743100000000730134000000496E70F5
:101012007574320000000074045A000001506F77AA
:101022006572300000000075045A000001506F77AD
:101032006572310000000079045A000001506F7798
:10104200657232000000007D045A000001506F7783
:101052006572330000000081045A000001506F776E
:101062006572340000000085045A000001506F7759
:101072006572350000000089045A000001506F7744
:10108200657236000000008D045A000001506F772F
:1010920065723700000000910000000000000000AF
:0810A200000000000000000046
:031BCA0001950181
:1016F90075A47B75A5FFD283C284C286D287EF60A9
:1017090024E4F53474692534F8E4F67872F6E5349E
:1017190025E025E02475F8120A1042C800000534B6
:10172900E534B408DFE4F53474692534F8E6601269
:10173900AF347401C8EFC8088002C333D8FC425FD4
:101749008011AF347401C8EFC8088002C333D8FCD4
:10175900F4525F0534E534B408CE7F0912000E0255
:0217690011B1BC
:10000E001568A868EFF6A868E6B409057872E6F5F3
:04001E0090056822BF
:051BD3008F2B7F0022B2
:101AEE008B2B8A2C892D1208D2AB2EAA2FA930123D
:101AFE000918AB2BAA2CA92D9000011208EBAB2EC6
:0D1B0E00AA2FA93090000112092A7F02229F
:1011B100E4F535F536308710AF367480C8EFC808CE
:1011C1008002C313D8FC42357F0A7E001218D2D2A6
:1011D100847F0A7E001218D2C2847F0A7E00121810
:1011E100D20536E536C3940840CB7871A635E4F5CF
:1011F10035F536308710AF367401C8EFC808800264
:10120100C333D8FC423574017E00A836088005C37B
:1012110033CE33CED8F9FFEF555F7003D38001C3CE
:1012210092867F0A7E001218D2D2847F0A7E001233
:1012310018D2C2847F0A7E001218D20536E536C361
:10124100940840AF7874A635E4F535F5363087104B
:10125100AF367401C8EFC8088002C333D8FC4235E9
:1012610074807E00A836088006CEA2E713CE13D87C
:10127100F8FFEF555F7003D38001C392867F0A7E2A
:10128100001218D2D2847F0A7E001218D2C2847F43
:101291000A7E001218D20536E536C3940840AE78AE
:1012A10073A635D2857F0A7E001218D2C285C28309
:0112B100221A
:100AE600E4F532E53225E025E02475F8120A04E43F
:100AF600FBFA79C878421207A660025003020C314D
:100B0600121BAFC3EF955DF53AEE955CF539ED95A1
:100B16005BF538EC955AF537E53225E025E0247586
:100B2600F8120A04120851AB3AAA39A938A837C3F1
:100B36001209F35003020C31E53225E025E0247555
:100B4600F8120A04120851E4120813ECC0E0EDC0D2
:100B5600E0EEC0E0EFC0E0E53225E025E02475F8E0
:100B6600120A04D0E0FBD0E0FAD0E0F9D0E0F812A7
:100B760006118F368E358D348C33E4FFFEFDFCABCB
:100B860036AA35A934A8331207A6602AE53225E02D
:100B960025E02475F8120A04120851EF2401FFE437
:100BA6003EFEE43DFDE43CFCAB3AAA39A938A83741
:100BB600C31209F34010AF327401C8EFC8088002AF
:100BC600C333D8FC805AE55ED39400405874602540
:100BD60032F8E6FCE412081DECC0E0EDC0E0EEC021
:100BE600E0EFC0E0AC5EE412081DC8ECC8C9EDC970
:100BF600CAEECACBEFCBD0E0FFD0E0FED0E0FDD00E
:100C0600E0FC120709AB36AA35A934A8331207A6A9
:100C16005013AF327401C8EFC8088002C333D8FC42
:100C2600F4525F800674602532F8060532E532C359
:100C360094085003020AE9121BAFC3EF955DFFEE5D
:100C4600955CFEED955BFDEC955AFCE47B64FAF948
:100C5600F8D31209F35061121BAF8F5D8E5C8D5B6A
:100C66008C5AE4F532E53225E025E02475F8120ABF
:100C760004E4FBFAF9F81207A6501874692532F84D
:100C8600E66010AF327401C8EFC8088002C333D8DB
:100C9600FC425F0532E532B408CBE55E0475F00A26
:100CA6008485F05EE55E7010F53274602532F8E4F6
:100CB600F60532E532B408F2E4F53274692532F805
:100CC600E67010AF3204C8EFC8088002C333D8FC00
:100CD600F4525F0532E532B408E1E4F532E5322537
:100CE600E025E02475F8120A04E4FBFA79C8784294
:100CF6001207A66002502B74692532F8E66012AF1F
:100D0600327401C8EFC8088002C333D8FC425F8042
:100D160011AF327401C8EFC8088002C333D8FCF49F
:090D2600525F0532E532B408B455
:010D2F0022A1
:1017CA007871E6F5311211B1E4FD74017E00C8EDBD
:1017DA00C8088005C333CE33CED8F9FF7871E6FB4B
:1017EA00EF5BD3940074809480402874017E00C813
:1017FA00EDC8088005C333CE33CED8F9FFE531FBF7
:10180A00EF5B700F74692DF8E670047F0180027F28
:0A181A0000EFF60DBD08B3020AE668
:10060E000208BDE86480F8E933E83360110460F055
:10061E00ED33EC337009E8FCE9FDEAFEEBFF220452
:10062E0060DED3EB9FEA9EE99DE8C2E78CF0C2F74D
:10063E0095F0400CE8CCF8E9CDF9EACEFAEBCFFB19
:10064E0012088885D0F05804700320D5B3E80470E2
:10065E00075002B2D50208C792D5EC0460F7E4CC7D
:10066E00C0E0C398F8603B94186008400DD0E0FBE2
:10067E0002089FE4FBFAC9FC8028E830E406E4C9CE
:10068E00FBE4CAFCE830E305E4C9CACBFCE8540736
:10069E006010F8C3E913F9EA13FAEB13FBEC13FC41
:1006AE00D8F130F52FC3E49CFCEF9BFFEE9AFEEDE4
:1006BE0099FDD0E0FBEF4E4D4C701222DB03020889
:1006CE00C4EC2CFCEF33FFEE33FEED33FDED30E7E3
:1006DE00EB02089FEF2BFFEE3AFEED39FDD0E0FB6B
:1006EE0050130BBB00030208C7ED13FDEE13FEEF14
:0806FE0013FFEC13FC02089F3E
:100706000208C7EC5D046005E8590470030208BDE1
:10071600120888580460F6EC4860F2EC7004FDFE9E
:10072600FF22C860DB2481C85009C39860025006C6
:100736000208C49850CAF582E9294B4A7005AB8273
:100746000208B375F0007C1A7880C3EF9BEE9AED31
:1007560099400DC3EF9BFFEE9AFEED99FDE842F03E
:10076600DC23ACF0D0E0FFD0E0FED0E0FDAB822091
:10077600E7101BEB60BAEC2CFCEF33FFEE33FEED1B
:1007860033FD02089FE803F830E705C0F075F00076
:10079600EF2FFFEE33FEED33FD40B830E7C280AAFF
:1007A60074F8CC6480CCC86480C8F582046043C306
:1007B600EB9FF5F0EA9E42F0E99D42F0E89C45F099
:1007C60060305018E5825FFFE582F42B5582FB50BE
:1007D600210ABA001D09B90019088016E5825BFBDB
:1007E600E582F42F5582FF50090EBE00050DBD00AF
:1007F600010CC3EB9FF5F0EA9E42F0E99D42F0E85A
:0D0806009C45F06007CC4820E701B3EC22D0
:1008130075F020800E75F010800575F0087D007E60
:10082300007F003392D530D5031209E5EC33401035
:10083300EF33FFEE33FEED33FDEC33FCD5F0ED2269
:0E084300E5F0247EA2D513CC92E7CDCEFF22A5
:10085100EDD2E7CD33EC3392D524814006E4FFFE9F
:10086100FDFC22FCE4CFCECDCC24E0501174FF80FE
:10087100EDC3CC13CCCD13CDCE13CECF13CF04709B
:07088100F030D5DE0209E5AD
:10088800E9D2E7C933E833F892D5EDD2E7CD33ECB6
:0708980033FC5002B2D5222F
:10089F00EC30E7100FBF000C0EBE00080DBD0004BA
:1008AF000BEB6014A2D5EB13FCED92E7FD2274FF66
:1008BF00FCFDFEFF22E480F8A2D574FF13FC7D80BF
:0308CF00E480EFD3
:0300000002157670
:0C157600787FE4F6D8FD7581C10215BD38
:1008D200BB010689828A83E0225002E722BBFE0224
:0908E200E32289828A83E4932257
:1008EB00BB010CE58229F582E5833AF583E02250C2
:1008FB0006E92582F8E622BBFE06E92582F8E2220C
:0D090B00E58229F582E5833AF583E4932225
:10091800BB010689828A83F0225002F722BBFE01BE
:02092800F322B8
:10092A00F8BB010DE58229F582E5833AF583E8F003
:10093A00225006E92582C8F622BBFE05E92582C8AF
:02094A00F22297
:10094C00C2D5EC30E709B2D5E4C39DFDE49CFCEEC6
:10095C0030E715B2D5E4C39FFFE49EFE120A7BC3B9
:10096C00E49DFDE49CFC8003120A7B30D507C3E4B4
:06097C009FFFE49EFE2235
:10098200BB010A89828A83E0F5F0A3E02250068740
:10099200F009E71922BBFE07E3F5F009E319228902
:0B09A200828A83E493F5F07401932235
:1009AD00BB010789828A83020AD0500B09C5F02743
:1009BD00F7C5F01937F722BBFE0D09F8E325F0F363
:1009CD00C5F019E338F322F889828A8374019325DF
:0809DD00F0C5F0F8E4933822A4
:0E09E500C3E49FFFE49EFEE49DFDE49CFC2223
:1009F300EB9FF5F0EA9E42F0E99D42F0E89C45F05A
:010A030022D0
:0C0A0400E6FC08E6FD08E6FE08E6FF221E
:100A1000D083D082E493F608740193F608740293AD
:090A2000F608740393F6740473E4
:100A2900D083D082F8E4937012740193700DA3A35C
:100A390093F8740193F5828883E473740293686070
:060A4900EFA3A3A380DF70
:101924008B348A358936E4F53CF53DE53B153BAE11
:101934003A7002153A4E6033AB37AA38A939120807
:10194400D2FFAB34AA35A936053DE53DAC3C700267
:10195400053C14F5828C83EF12092AEF60CD7401E3
:101964002539F539E43538F53880C0AB34AA35A9C2
:02197400362219
:100A4F00EF4E6012EF60010EEDBB010B89828A83BE
:100A5F00F0A3DFFCDEFA2289F05007F709DFFCA9CB
:0C0A6F00F022BBFEFCF309DFFCA9F02222
:10158200021BBCE493A3F8E493A34003F68001F2A8
:1015920008DFF48029E493A3F85407240CC8C3336A
:1015A200C4540F4420C8834004F456800146F6DF39
:1015B200E4800B0102040810204080901BC7E47EE7
:1015C200019360BCA3FF543F30E509541FFEE4932E
:1015D200A360010ECF54C025E060A840B8E493A3F5
:1015E200FAE493A3F8E493A3C8C582C8CAC583CA20
:1015F200F0A3C8C582C8CAC583CADFE9DEE780BED8
:011BCD000017
:100A7B00BC000BBE0029EF8DF084FFADF022E4CC5F
:100A8B00F875F008EF2FFFEE33FEEC33FCEE9DEC28
:100A9B00984005FCEE9DFE0FD5F0E9E4CEFD22ED6E
:100AAB00F8F5F0EE8420D21CFEADF075F008EF2FB8
:100ABB00FFED33FD4007985006D5F0F222C398FDA9
:050ACB000FD5F0EA2246
:100AD000C5F0F8A3E028F0C5F0F8E58215827002B1
:060AE0001583E038F0224E
:00000001FF
