:03001B00018D0054
:100FE100E4788DF675FFDE75FFAD75E104F5E27508
:100FF100E34075A401F5A5F5A675A72075B1677540
:10100100B20875FF0775FFA543B28075EF08121B83
:10101100C6E4F532F5337D00AF33121C147D01AF08
:1010210033121E13121EE20533E53370020532C37B
:101031009401E532940040DEE4F520C20EC209C2FB
:1010410011C20BC20DC210C20FC2B5786BF678691E
:10105100F618F6786FF6F532F53374712533F8E446
:10106100F60533E533700205326414453270EBE462
:10107100F532F53374852533F8E4F60533E533703D
:101081000205326408453270EB7D05E4FF121E60F3
:10109100E4786EF67866F67866E6FF75F010A424BB
:1010A10047F582E5F0340DF583E493FE786E26F67C
:1010B100EE600578660680DFEFD39400402A900D3C
:1010C10054E493FB740193FA740293F97455120476
:1010D100361203F064556002D20F74AA120436125C
:1010E10003F064AA6002D20F121625EF6003021109
:1010F100CB74FFF544F545F546F547E4F548F54968
:10110100FE7F10FDFB7A00794A1205DB7537FF750A
:10111100380D75393F753A00753B107B007A0079BF
:101121004A121B74E4F532F533E533C4F8540FC8A1
:1011310068FFE532C454F048FE74472FF582740D00
:101141003EF583E493607C744B2FF582740D3EF57C
:1011510083E49320E262E4F531E531C3781F9650D0
:1011610057E533C4F8540FC868FFE532C454F0485A
:10117100FE74472FF582740D3EF583E493FD7C00E8
:10118100C004C0057D0074542FF582740D3EF583B3
:10119100E493FB740193FA740293F9786EE6853156
:1011A100F0A4FFE92FF9EA35F0FAD007D0061205CD
:1011B100DB121EE2053180A10533E53370020532F1
:1011C10002112A7F01121C5C8016D20DE4FF121C51
:1011D1005CE5EF30E30AD2030549E54970020548B1
:1011E100E4F532F5337A007B967D03AF3312193380
:1011F1000533E53370020532C39401E532940040B2
:01120100E408
:0112020022C9
:051ED800786FE6FF2217
:0100220022BB
:030023000213FDC8
:1013FD00C0E0C0F0C083C082C0D075D00830991C49
:10140D00C299786906E6FF786B6670097869F6C24D
:10141D00B5D20A800774852FF8E6F5992098030256
:10142D0014AC209A07200E04C298806FC29A786877
:10143D00E6062471F8A699C2987868E6FFB4011300
:10144D007871E6FE70057868F68054EE5407240234
:10145D007870F6EFB4020E7870E6B409087872E68B
:10146D0024037970F7D2087868E6FFB41404760087
:10147D00802DEFC378709640267B007A00797178C5
:10148D0068E624FFFDE434FFFC121CDD7868E624D9
:10149D0070F8E66F6002800312075778687600D007
:0A14AD00D0D082D083D0F0D0E0321E
:101A7400786FE6FF18E68FF0A47C002525FFEC358F
:101A8400F0FE7872E675F010A42454F582E5F03483
:101A94000DF583E493FB740193FA740293F98F8236
:081AA4008E83120409FF7D236B
:101AAC008F2B8D2CE52C6010F8E6FFE52BFD7C00D0
:101ABC00120003A82CC6EFC6852B993099FDC2994C
:011ACC0022F7
:101D8B00C9EFC9EDC39B4023781FE6FFEB2FFFE4A0
:101D9B0033FEEDC39FEE6480F8748098500DD20E25
:101DAB00C3ED9B786FF6786AE9F622C20EE4786A87
:021DBB00F6220E
:101C9E00C9EFC9BAFF0FBBFF0CED6B7002EC6A7097
:101CAE0027D20E801BC3ED9BEC9A401C781FE62BAF
:101CBE00FFE43AFEC3ED9FEC9E500DD20EC3ED9B9A
:0F1CCE00786FF6786AE9F622C20EE4786AF62299
:100757007871E6FF54F8F524EF1205B5079D0907F0
:10076700A80A07B71007BE1107CD1207E01907F44B
:100777001A081A20081F28088929094034096037F0
:1007870009943909A34109AC4909B55009DC610944
:10079700B99800000A0D7872E6FDE545FB7F0180F8
:1007A7001F7872E6FC08E6FDAB45AA447F0180236B
:1007B700E4FBFD7F0380097872E6FDE547FB7F02D6
:1007C700121D8B020A0D7872E6FC08E6FDAB47AAFC
:1007D700467F02121C9E020A0D7872E6FDE545FB74
:1007E7007F01121D8B200E03020A0D80167872E618
:1007F700FC08E6FDAB45AA447F01121C9E200E03B0
:10080700020A0D78857678786B7601D2B575997876
:10081700020A0DD20B020A0DC2ACE4F523D2B57D54
:10082700237F7F121AAC7D237F18121AAC7D237F9A
:1008370017121AAC7866E6FF7D23121AAC7D23AF38
:1008470044121AAC7D23AF45121AAC7D23AF461272
:100857001AAC7D23AF47121AAC7D23AF48121AACEE
:100867007D23AF49121AACE4F525744A2525F8E62D
:10087700FF7D23121AAC0525E525C3941040EB0232
:1008870009327872E6FFC37866964003020A0D754F
:10089700F010EFA42447F582E5F0340DAF82F52977
:1008A7008F2AC2ACE4F523D2B57D237F7F121AAC21
:1008B7007D237F0D121AAC852A82852983E493FF55
:1008C7007D23121AAC852A82852983740193FF7DC3
:1008D70023121AAC852A82852983740293FF7D230C
:1008E700121AAC852A82852983740393FF7D23120C
:1008F7001AAC852A82852983740493FF7D23121AF3
:10090700ACE4F525E52A2405F582E43529F583E5E8
:10091700822525F582E43583F583E493FF7D231251
:100927001AAC0525E525C3940840D9E4FDAF231289
:100937001AACC2B5D2AC020A0D7A007B327D0178BF
:100947006FE6FF1219337872E6F54408E6F54508B5
:10095700E6F54608E6F547802E7A007B327D01787A
:100967006FE6FF121933E4F525E525C37872965033
:100977001674732525F8E6FF744A2525F8C6EFC6D1
:100987000525E525B410E2D209D20C80797A007BDF
:10099700327D01786FE6FF121933806A7872E62498
:1009A700FF920280617872E624FF92018058D2118B
:1009B70080547A007B327D01786FE6FF121933D2BB
:1009C70009788576787868E62470F8E67886F67888
:1009D7006B7602802A7A007B327D017F0012193301
:1009E700788576797872E67886F67B007A0079855D
:1009F7007D027C00121CDD7887EFF6786B7603D2D8
:100A0700B57885E6F599E52464A06003020BA37821
:100A170071E664A16003020ADF08E6FFC378669601
:100A27004003020BA375F010EFA42447F582E5F00D
:100A3700340DF583E493F52775F010EFA4244BF5F7
:100A470082E5F0340DF583E49330E235121EDD8F35
:100A570027E52724787885F67B007A007985E527CE
:100A67002401FDE433FC121CDD74862527F8EFF61C
:100A7700E5272402786BF6D2B57885E6F599020B5F
:100A8700A37872E6FF121EDDC2ACE4F523D2B5E50A
:100A970027D3940640247D237F7F121AAC7D23AF92
:100AA70027121AACE4F525E525C395275007121A36
:100AB70074052580F20527020B98E5272478FF7D2A
:100AC70023121AACE4F525E525C395275007121A1A
:100AD70074052580F2020B987871E664A260030220
:100AE7000BA37866E6FF7872E6FEC39F4003020B0E
:100AF700A308E6FDC39F4003020BA3EEC39D40037B
:100B0700020BA318E6F525E4F527E525D3787396B8
:100B1700501FAF25121EDD75F010E525A42447F5FB
:100B270082E5F0340DF583E4932527F52705258025
:100B3700D9C2ACE4F523D2B57D237F7F121AAC7DF1
:100B470023AF27121AAC7872E6F525E525D378731B
:100B570096503EE4F52675F010E525A42447F58266
:100B6700E5F0340DF583E493FFE526C39F501E7827
:100B77006FE6FF18E68FF0A47C002526FFEC35F022
:100B8700FE75F010E525121A8C052680C90525800B
:100B9700BAE4FDAF23121AACC2B5D2ACE52464584F
:100BA700704DFA7B327D01786FE6FF121933752E8F
:100BB70000752F007530867B007A007972121DBD93
:100BC7008F27E52724787885F67B007A007985E5F5
:100BD700272401FDE433FC121CDD74862527F8EF7A
:100BE700F6E5272402786BF6D2B57885E6F599E520
:100BF7002464806009E52464886003020D3E7A005E
:100C07007B327D01786FE6FF1219337871E654075E
:100C1700F527B4070A75260108E6F527088005E4D5
:100C2700F5267872E6F5281527E528C378669640F5
:100C370003020D1675F010E528A42447F582E5F0A8
:100C4700340DF583E493FFE527D39F40028F27E414
:100C5700F525E525C395274003020D0975F010E535
:100C670028A4244BF582E5F0340DF583E49330E2B4
:100C770003020D0475F010E528A42448F582E5F079
:100C8700340DF583E4936438701BE527D39404404F
:100C970008E52625252473802A7868E6C39525FF6D
:100CA700746F2F801E75F010E528A42447F582E5A0
:100CB700F0340DF583E493FFC37868E69F25252577
:100CC700262470F8E6FD786FE6FF18E68FF0A4FF9C
:100CD700E5257A002FFFEA35F0FE75F010E528A428
:100CE7002454F582E5F0340DF583E493FB74019306
:100CF700FA740293F98F828E83ED12044805250258
:100D07000C59AF28121ECFE5246488702A800FE59E
:100D170028B4FF237873E6F520E524B4881978858D
:100D270076787868E62470F8E67886F6786B760247
:070D3700D2B57885E6F599BD
:010D3E002292
:10700000C2AF75FFDE75FFADE4F532F531D2B5C222
:10701000997599783099FDC299E4F5993099FDC236
:10702000B53098FD859931C298E4F533E53124FDFA
:10703000605214700302710614700302713E24033F
:1070400060030271413098FD859932C298E532257E
:10705000E0FEC3E49400EE94705023E5B654F0448F
:1070600008F5B6758F03E53225E0F53575360085F0
:107070003682F583E4F053B6F0F58F027141753333
:10708000FF027141D2B43098FD859932C298E5B6BD
:1070900054F04408F5B6758F01E53225E0F53575F5
:1070A0003600E4FFE4F5343098FD0536E536AC35BE
:1070B0007002053514F5828C83E599F0C298053489
:1070C000E534B43CE2D2B5C2997599783099FDC2E5
:1070D00099E4F5993099FDC2B50FBF08C7E4F534BE
:1070E0003098FD0536E536AE357002053514F5826B
:1070F0008E83E599F0C2980534E534B420E253B6A6
:10710000F0E4F58F803BC2B43098FD859932C29887
:10711000E5327F0025E0FEE4F533FDFC0FEFCAEE1B
:10712000CA70010E14F5828A83E4932533F5330D7A
:10713000BD00010CED7003EC640270E0800375EF9C
:1071400010D2B5C2997599783099FDC29985339955
:107150003099FDC2B5E53164066003027021D2AFFB
:01716000220C
:101A1500121EE2120022121EE9200D0B7A007B3203
:101A25007D017F00121933300F0B7A007B1E7D017B
:101A35007F00121933300913301010C209E4F5483C
:101A4500F549788D76F112156FD20D3011083010E9
:101A550005C21112700012000EE47BF47A01F9F848
:0F1A6500C31205115002D210300B0375EF10227F
:0B1EC400120FE1121A15121EE680F842
:10120300005EBCE2613FDD83C29C7E20A3FD1F41E3
:101213009DC3217FFCA2401E5F01E3BD3E6082DCD3
:10122300237D9FC1421CFEA0E1BF5D0380DE3C62C3
:10123300BEE0025CDF81633D7C22C09E1D43A1FFB3
:101243004618FAA427799BC584DA3866E5BB5907A3
:10125300DB856739BAE406581947A5FB7826C49A93
:10126300653BD987045AB8E6A7F91B45C6987A2483
:10127300F8A6441A99C7257B3A6486D85B05E7B973
:101283008CD2306EEDB3510F4E10F2AC2F7193CD63
:10129300114FADF3702ECC92D38D6F31B2EC0E5053
:1012A300AFF1134DCE90722C6D33D18F0C52B0EE43
:1012B300326C8ED0530DEFB1F0AE4C1291CF2D7333
:1012C300CA947628ABF517490856B4EA6937D58B23
:1012D3005709EBB536688AD495CB2977F4AA481613
:1012E300E9B7550B88D6346A2B7597C94A14F6A803
:1012F300742AC896154BA9F7B6E80A54D7896B35F3
:07130300DCEEF4FAFDFEFF31
:0A1CDD008B2B8A2C892D8C2E8D2F65
:101CE700E4F530FFFEC3EF952FE52E6480F8EE6430
:101CF7008098501DAB2BAA2CA92D8F828E8312049E
:101D0700096530FD90120393F5300FBF00010E8077
:031D1700D4AF3016
:011D1A0022A6
:07000300ED6F90120393FF63
:01000A0022D3
:011EE90022D6
:101E6000EF701E7598D0E589540F4420F58953C84A
:101E7000E1438E10ED90130293F58DD28ED2ACC259
:031E8000BCD2AF22
:011E8300223C
:101BC600D2AFD2A9D2BBE589540F4401F589E4F519
:101BD6008E758CDBF58AD28CF565F564F563F56256
:101BE600FFEF25E025E0248EF8E4F6EF25E025E07A
:101BF600248FF8E4F6EF25E025E02490F8E4F6EFEC
:0D1C060025E025E02491F8E4F60FBF01D49D
:011C130022AE
:07178500C0D075D010151E45
:10178C00A81EE4F6A81EE6FFC39401400302182429
:10179C00EF25E025E02491F8E6FFD394004052A811
:1017AC001EE625E025E0248FF8E67045EF30E015C5
:1017BC00A81EE6FF25E025E02491F8E6D39401402D
:1017CC00047D0080067D01A81EE6FF121C14A81ED5
:1017DC00E6FF25E025E02491F816E66014EF25E0FD
:1017EC0025E02490F8E6FEEF25E025E0248FF8EEC6
:1017FC00F6A81EE625E025E0248FF8E6600116A881
:10180C001EE6FF25E025E02491F8E670057D011227
:08181C001C14A81E060217901F
:05182400051ED0D022DA
:03000B00021D587B
:101D5800C0E0C0F0C083C082C0D075D010758CDCE4
:101D6800E5652401F565E43564F564E43563F563F8
:101D7800E43562F562121785D0D0D082D083D0F0D6
:031D8800D0E03276
:101E1300151EA81EEDF6151EA81EEFF6A81EE6FF5A
:101E2300C39401500D08E6FEEF25E025E0248EF86B
:071E3300EEF6051E051E225C
:10193300151E151EA81EEAF608EBF6151EA81EEDC9
:10194300F6151EA81EEFF6A81EE6FFC3940150521B
:10195300EF25E025E02491F8E67047A81EE6FB2575
:10196300E025E0248FF8E67039A81E08E625E00498
:10197300FFA81EE6FA25E025E02491F8EFF6A81E5D
:101983000808E6FE08E6FF7C007D0A12046AEA25E1
:10199300E025E02490F8EFF6EB25E025E0248FF82E
:0919A300E4F6E51E2404F51E2201
:101C1400C0D075D010151EA81EEDF6151EA81EEF17
:101C2400F6A81EE6FFC39401501CEF25E025E0242E
:101C34008EF8E66011A81E08E670047F0180027F1A
:101C440000A81E08EFF6A81EE6700608E624FF9218
:081C5400B4051E051ED0D022CC
:0C000E00C2AFAF65AE64AD63AC62D2AFB0
:01001A0022C3
:041EE20075FFA522C1
:041DEA008E5A8F5B23
:101DEE00E4F55CF55DC3E55D955BE55C955A5014D5
:101DFE007FE87E03121B22121A15055DE55D70E564
:041E0E00055C80E10E
:011E120022AD
:041B22008E5E8F5FE5
:101B2600D3E55F94FAE55E9400500AEFD394004043
:101B36003C001F80F6855E60855F61D3E56194FA9F
:101B4600E560940040157FFA7E00121B227406257C
:101B560061F56174FF3560F56080E0D3E55F940060
:0D1B6600E55E94004007AF61AE60121B22E7
:011B7300224F
:081ACD008B3A8A3B893C8D3DF8
:101AD500121EE2AB3EAA3FA9401204A02400FFE576
:101AE500F03480FE853A41853B42853C43E4FDED7B
:101AF500C3953D501BEF2DF582E43EF583E493AB92
:101B050041AA42A9438D827583001204480D80DFE6
:0D1B1500AB3EAA3FA940E4853DF00204CBA1
:0618B5008B378A388939E7
:1018BB00788DE664F17070C2AFE5B654F04408F56C
:1018CB00B6758F01AB3BAA3CA93D1204A02400FFC7
:1018DB00E5F03480F53E8F3F8537408538418539BB
:1018EB0042E4FFEFC39D5026AB400542E542AA41BF
:1018FB007002054114F91203F0FE053FE53FAA3EC5
:10190B007002053E14F5828A83EEF00F80D5E4F564
:10191B008F53B6F0CFEDCFAB3BAA3CA93D8FF01266
:07192B0004CBD2AF121EE253
:011932002292
:101E8400788DE6B4F119C2AFE5B654F04408F5B65E
:0F1E9400758F03908000E4F0F58F53B6F0D2AF56
:011EA300221C
:10156F007A007B327D037F03121933121E84E4F558
:10157F0035F536F53B753C00753D35FB7A00794402
:10158F007D161218B5E4F532E532C3781F96506711
:10159F00E4F53175F010E531A42447F582E5F03418
:1015AF000DF583E493604C786EE68532F0A4FFAEC0
:1015BF00F075F010E531A42454F582E5F0340DF503
:1015CF0083E493FB740193FA7402932FF9EA3EFAC2
:1015DF0075F010E531A42447F582E5F0340DF5835D
:1015EF00E493FD753B00753C00753D351218B5054C
:1015FF003180A005328091753312753434753B00FC
:10160F00753C00753D357B007A0079337D021218E9
:05161F00B5E4788DF632
:0116240022A3
:10162500E4F538F539F53E753F00754038FB7A002D
:1016350079447D16121ACDE4F535E535C3781F9644
:101645005067E4F53475F010E534A42447F582E5D8
:10165500F0340DF583E493604C786EE68535F0A49F
:10166500FFAEF075F010E534A42454F582E5F034AE
:101675000DF583E493FB740193FA7402932FF9EA51
:101685003EFA75F010E534A42447F582E5F0340DF3
:10169500F583E493FD753E00753F00754038121AD9
:1016A500CD053480A005358091753E00753F0075E8
:1016B50040387B007A0079367D02121ACDE5376411
:0F16C500347004E536641270047F0180027F00E8
:0116D40022F3
:100D3F005343532D3931300004180000014144430F
:100D4F00303000000001000004180000014144434E
:100D5F003031000000010004041800000141444339
:100D6F003032000000010008041800000141444324
:100D7F00303300000001000C04180000014144430F
:100D8F0030340000000100100418000001414443FA
:100D9F0030350000000100140418000001414443E5
:100DAF0030360000000100180418000001414443D0
:100DBF00303700000001001C0418000001414443BB
:100DCF0030380000000100200418000001414443A6
:100DDF003039000000010024041800000141444391
:100DEF003130000000010028041800000141444385
:100DFF00313100000001002C041800000141444370
:100E0F00313200000001003004180000014144435A
:100E1F003133000000010034041800000141444345
:100E2F003134000000010038041800000141444330
:100E3F00313500000001003C04180000014144431B
:100E4F003136000000010040041800000141444306
:100E5F0031370000000100440418000001414443F1
:100E6F0031380000000100480418000001414443DC
:100E7F00313900000001004C0418000001414443C7
:100E8F0032300000000100500418000001414443BB
:100E9F0032310000000100540418000001414443A6
:100EAF003232000000010058041800000141444391
:100EBF00323300000001005C04180000014144437C
:100ECF003234000000010060041800000141444367
:100EDF003235000000010064041800000141444352
:100EEF00323600000001006804180000014144433D
:100EFF00323700000001006C041800000141444328
:100F0F003238000000010070041800000141444312
:100F1F0032390000000100740418000001414443FD
:100F2F0033300000000100780418000001414443F1
:100F3F00333100000001007C0418000001414443DC
:100F4F0033320000000100800418000001414443C7
:100F5F0033330000000100840418000001414443B2
:100F6F00333400000001008804180000014144439D
:100F7F00333500000001008C041800000141444388
:100F8F003336000000010090041800000141444373
:100F9F00333700000001009404180000014144435E
:100FAF003338000000010098041800000141444349
:100FBF00333900000001009C000000000000000019
:100FCF0000000000000000000E0F040502030001E6
:020FDF00060703
:03001E00011F01BE
:021C5C008F34C3
:101C5E00E4F5BA75BCE075E88075D103F5D4F5D717
:101C6E0075A4017580FF75A5CF7590FFE4F5357BE2
:101C7E00527D03AF351219B07B137D01AF351219AA
:0F1C8E00B0AF351219AC0535E535C3940440E00D
:011C9D002224
:101E3A00EF14601014601314601624037017ED2455
:101E4A00FF929022ED24FF929122ED24FF9292229A
:061E5A00ED24FF9293222B
:101EA400EF14600E14600F14601024037011A284E8
:101EB400800AA2858006A2868002A287E433FF22DC
:101D1B00EF14600F1460111460132403701275BB61
:101D2B0001800DE4F5BB800875BB03800375BB0216
:101D3B00C2EDD2EC30EDFDAFBFEFFEADBEEDD394F7
:0C1D4B0000EE940840047F0180027F003D
:011D57002269
:0419AC007B0F7D022E
:0619B000CEEFCECCEDCC21
:1019B600E4FD121E3AE4FFC296C297D2960FBF0408
:1019C600F6E4FF7D08C296EC5DD394004003D38015
:1019D60001C39297D296EDC313FD0FBF04E7CFEE76
:1019E600CF7D01121E3A1D121E3AE4FF7D80C2967B
:1019F600EB5DD394004003D38001C39297D296ED5A
:0F1A0600C313FD0FBF08E7CFEECF7D01021E3ADD
:0B14B7008F3A8B3B8A3C893DCEEDCE86
:1014C200E4FD121E3AE4F53EC296E53EB40103D3B2
:1014D2008001C39297D296053EE53EB404EAE4F554
:1014E2003E7F08C296EE5FD394004003D38001C3CF
:1014F2009297D296EFC313FF053EE53EB404E47D16
:1015020001AF3A121E3A1DAF3A121E3AE4F53EAB53
:101512003BAA3CA93D12059B00000000AB3BAA3C44
:10152200A93D1205357801120522120555C296AB66
:101532003BAA3CA93DEBC0E0EAC0E0E9C0E01205ED
:101542006FAF3A121EA4EB4FFFEAFEE9FDE8FCD0B2
:10155200E0F9D0E0FAD0E0FB120555D296053EE55F
:0D1562003EC3941840B67D01AF3A021E3A18
:10130A00AF18121D1BEF602812000EC3EF951CFFC9
:10131A00EE951BFEED951AFDEC9519FCE47B1EFA81
:10132A00F9F8D312051140030213FCAF181219ACD5
:10133A0012000E8F1C8E1B8D1A8C197B007A007975
:10134A00327D04AF181214B7E51875F00AA4251DEA
:10135A00F531AF35AE34AD33AC32E41202C4E4FB3E
:10136A00FA7980784B1202277B0A7AD77923784058
:10137A0012011E8F398E388D378C367F007E507D54
:10138A00C37C47AB39AA38A937A83612011EE4FB39
:10139A00FAF9783F12002D1216D57B007A5079C3DC
:1013AA0078471202278F398E388D378C36C2AFE5CF
:1013BA003125E025E02400F582E43400F5831205A6
:1013CA008FD2AFE51D04FFBF0A02E4FFEF900FD7EB
:1013DA0093C454F0440FFB7D02AF181219B00518DC
:1013EA00E518B4040DE4F518051DE51DB40A03E477
:0213FA00F51DDF
:0113FC0022CE
:091ECF00151EA81EEFF6051E22E7
:051EDD008F2B7F0022A5
:101DBD008B2B8A2C892D1203F0AB2EAA2FA9301252
:101DCD000436AB2BAA2CA92D900001120409AB2EC1
:0D1DDD00AA2FA9309000011204487F0222B5
:031EE60002130ADA
:10002600020337E86480F8E933E83360110460F0CE
:10003600ED33EC337009E8FCE9FDEAFEEBFF220440
:1000460060DED3EB9FEA9EE99DE8C2E78CF0C2F73B
:1000560095F0400CE8CCF8E9CDF9EACEFAEBCFFB07
:1000660012030285D0F05804700320D5B3E804705B
:10007600075002B2D502034192D5EC0460F7E4CCF6
:10008600C0E0C398F8603B94186008400DD0E0FBD0
:10009600020319E4FBFAC9FC8028E830E406E4C947
:1000A600FBE4CAFCE830E305E4C9CACBFCE8540724
:1000B6006010F8C3E913F9EA13FAEB13FBEC13FC2F
:1000C600D8F130F52FC3E49CFCEF9BFFEE9AFEEDD2
:1000D60099FDD0E0FBEF4E4D4C701222DB0302037C
:1000E6003EEC2CFCEF33FFEE33FEED33FDED30E757
:1000F600EB020319EF2BFFEE3AFEED39FDD0E0FBE4
:1001060050130BBB0003020341ED13FDEE13FEEF8C
:0801160013FFEC13FC020319B6
:10011E00EC4D6011E8497017ED33EC3304600DE4DB
:10012E00FCFFFEFD22E933E8330470F802033712B8
:10013E00030258046009E4CC2481500628500902B9
:10014E00034128400302033EC0E0EB4A7044B980ED
:10015E0006D0E0FB02032DEF4E701CBD8008EBFFB6
:10016E00EAFEE9FD80EBE98DF0A4FEE5F002020760
:10017E00E9CDF9EAFEEBFFEF89F0A4FCE5F0CE89BC
:10018E00F0A42EFFE435F0CD89F0A42DFEE435F079
:10019E008067EF4E7005BD80D780C3EF8BF0A4ACA7
:1001AE00F0EE8BF0A42CFCE435F0F8EF8AF0A42CE2
:1001BE00E5F038FCE433CB8DF0A42CFCE5F03BF8F5
:1001CE00EE8AF0A42CFCE5F038F8E433CF89F0A4E5
:1001DE002CFCE5F038CF3400CE89F0A42FFFE5F0EB
:1001EE003EFEE433C98DF0A42EFEE5F039CD8AF043
:1001FE00A42FFFE5F03EFEE43DFD33D0E0FB5007BB
:10020E000BBB000F020341EC2CFCEF33FFEE33FE71
:06021E00ED33FD0203199F
:10022400020341EC5D046005E859047003020337DE
:10023400120302580460F6EC4860F2EC7004FDFE10
:10024400FF22C860DB2481C85009C39860025006AD
:1002540002033E9850CAF582E9294B4A7005AB82E5
:1002640002032D75F0007C1A7880C3EF9BEE9AEDA3
:1002740099400DC3EF9BFFEE9AFEED99FDE842F025
:10028400DC23ACF0D0E0FFD0E0FED0E0FDAB822078
:10029400E7101BEB60BAEC2CFCEF33FFEE33FEED02
:1002A40033FD020319E803F830E705C0F075F000E8
:1002B400EF2FFFEE33FEED33FD40B830E7C280AAE6
:1002C40075F020800E75F010800575F0087D007EB5
:1002D400007F003392D530D503120503EC33401070
:1002E400EF33FFEE33FEED33FDEC33FCD5F0ED22BE
:0E02F400E5F0247EA2D513CC92E7CDCEFF22FA
:1016D5008F3D8E3C8D3B8C3A74FFFFFEFDFCAB3D90
:1016E500AA3CA93BA83AC3120511602C7F807E96BF
:1016F5007D187C4BAB3DAA3CA93BA83A12034C6034
:101705000250157F807E967D187CCBAB3DAA3CA907
:101715003BA83A12034C5009AF3DAE3CAD3BAC3A49
:1017250022AF3DAE3CAD3BAC3A1203B98F418E4082
:101735008D3F8C3EEC1202C4C8ECC8C9EDC9CAEE97
:10174500CACBEFCBAF3DAE3CAD3BAC3A120029E482
:10175500FBFAF9F812034C601A401874FF2541F59D
:1017650041E54034FFF540E53F34FFF53FE53E34C4
:10177500FFF53EAF41AE40AD3FAC3EEC1202C42298
:10030200E9D2E7C933E833F892D5EDD2E7CD33EC41
:0703120033FC5002B2D522BA
:10031900EC30E7100FBF000C0EBE00080DBD000445
:100329000BEB6014A2D5EB13FCED92E7FD2274FFF1
:10033900FCFDFEFF22E480F8A2D574FF13FC7D804A
:03034900E480EF5E
:10034C0074F8CC6480CCC86480C8F582046043C364
:10035C00EB9FF5F0EA9E42F0E99D42F0E89C45F0F7
:10036C0060305018E5825FFFE582F42B5582FB501C
:10037C00210ABA001D09B90019088016E5825BFB39
:10038C00E582F42F5582FF50090EBE00050DBD000D
:10039C00010CC3EB9FF5F0EA9E42F0E99D42F0E8B8
:0D03AC009C45F06007CC4820E701B3EC222F
:1003B900EDD2E7CD33EC3392D524814006E4FFFE3C
:1003C900FDFC22FCE4CFCECDCC24E0501174FF809B
:1003D900EDC3CC13CCCD13CDCE13CECF13CF047038
:0703E900F030D5DE02050330
:03000000021829BA
:0C182900787FE4F6D8FD758191021870FC
:1003F000BB010689828A83E0225002E722BBFE020B
:09040000E32289828A83E493223D
:10040900BB010CE58229F582E5833AF583E02250A8
:1004190006E92582F8E622BBFE06E92582F8E222F2
:0D042900E58229F582E5833AF583E493220C
:10043600BB010689828A83F0225002F722BBFE01A5
:02044600F3229F
:10044800F8BB010DE58229F582E5833AF583E8F0EA
:10045800225006E92582C8F622BBFE05E92582C896
:02046800F2227E
:10046A00C2D5EC30E709B2D5E4C39DFDE49CFCEEAD
:10047A0030E715B2D5E4C39FFFE49EFE120607C318
:10048A00E49DFDE49CFC800312060730D507C3E413
:06049A009FFFE49EFE221C
:1004A000BB010A89828A83E0F5F0A3E02250068727
:1004B000F009E71922BBFE07E3F5F009E3192289E9
:0B04C000828A83E493F5F0740193221C
:1004CB00BB010789828A8302065C500B09C5F027A2
:1004DB00F7C5F01937F722BBFE0D09F8E325F0F34A
:1004EB00C5F019E338F322F889828A8374019325C6
:0804FB00F0C5F0F8E49338228B
:0E050300C3E49FFFE49EFEE49DFDE49CFC2209
:10051100EB9FF5F0EA9E42F0E99D42F0E89C45F040
:0105210022B7
:10052200E8600FEFC333FFEE33FEED33FDEC33FC37
:03053200D8F122DB
:10053500BB010789828A8302067E5005E9F8020617
:1005450072BBFE05E9F802068A89828A830206964D
:10055500BB010789828A8302058F5005E9F80206E7
:0A056500DCBBFE05E9F80206E822FF
:10056F00BB010789828A830206B35005E9F80206A8
:10057F00A6BBFE05E9F80206BF89828A830206CC74
:0C058F00ECF0A3EDF0A3EEF0A3EFF022DF
:10059B00BB010789828A8302070D5005E9F8020621
:0A05AB00F4BBFE05E9F802073E224A
:1005B500D083D082F8E4937012740193700DA3A3D5
:1005C50093F8740193F5828883E4737402936860E9
:0605D500EFA3A3A380DFE9
:101B74008B348A358936E4F53CF53DE53B153BAEBF
:101B84003A7002153A4E6033AB37AA38A9391203BA
:101B9400F0FFAB34AA35A936053DE53DAC3C7002F7
:101BA400053C14F5828C83EF120448EF60CD740178
:101BB4002539F539E43538F53880C0AB34AA35A970
:021BC4003622C7
:1005DB00EF4E6012EF60010EEDBB010B89828A8337
:1005EB00F0A3DFFCDEFA2289F05007F709DFFCA944
:0C05FB00F022BBFEFCF309DFFCA9F0229B
:10183500021EC4E493A3F8E493A34003F68001F2E7
:1018450008DFF48029E493A3F85407240CC8C333B4
:10185500C4540F4420C8834004F456800146F6DF83
:10186500E4800B010204081020408090001BE47EF8
:10187500019360BCA3FF543F30E509541FFEE49378
:10188500A360010ECF54C025E060A840B8E493A33F
:10189500FAE493A3F8E493A3C8C582C8CAC583CA6A
:1018A500F0A3C8C582C8CAC583CADFE9DEE780BE22
:0100210000DE
:10060700BC000BBE0029EF8DF084FFADF022E4CCD7
:10061700F875F008EF2FFFEE33FEEC33FCEE9DECA0
:10062700984005FCEE9DFE0FD5F0E9E4CEFD22EDE6
:10063700F8F5F0EE8420D21CFEADF075F008EF2F30
:10064700FFED33FD4007985006D5F0F222C398FD21
:050657000FD5F0EA22BE
:10065C00C5F0F8A3E028F0C5F0F8E5821582700229
:06066C001583E038F022C6
:0C067200E6FC08E6FD08E6FE08E6FF22B4
:0C067E00E0FCA3E0FDA3E0FEA3E0FF22EF
:0C068A00E2FC08E2FD08E2FE08E2FF22AC
:10069600E493FC740193FD740293FE740393FF22AA
:0D06A600E6FB08E6F908E6FA08E6CBF822C4
:0C06B300E0F8A3E0F9A3E0FAA3E0FB22CA
:0D06BF00E2FB08E2F908E2FA08E2CBF822BB
:1006CC00E493F8740193F9740293FA740393FB2284
:0C06DC00ECF608EDF608EEF608EFF6224A
:0C06E800ECF208EDF208EEF208EFF2224E
:1006F400D083D082E493F608740193F608740293CD
:09070400F608740393F674047303
:10070D00A8828583F0D083D0821207241207241289
:10071D000724120724E473E493A3C583C5F0C583AE
:10072D00C8C582C8F0A3C583C5F0C583C8C582C836
:01073D002299
:10073E00D083D082E493F208740193F2087402938A
:09074E00F208740393F2740473C1
:00000001FF
