:0318BC0001B70071
:1009E100E478B7F675FFDE75FFAD75E104F5E275E4
:1009F100E34475A401F5A5F5A675A7E075B1677582
:100A0100B20875FF0775FFA543B28075EF0812168E
:100A110077E4F533F5347D00AF3412157F7D01AFF6
:100A21003412183912001F0534E53470020533C33E
:100A31009402E533940040DEE4F520C20EC209C2FF
:100A410011C20BC20DC210C20FC2B578B1F678AF98
:100A5100F618F678B5F6F533F53474002534F582D9
:100A610074003533F583E4F00534E5347002053361
:100A7100B42CE7E533B401E2E4F533F534742C2505
:100A810034F58274013533F583E4F00534E53470CF
:100A9100020533B42CE7E533B401E27D05E4FF122E
:100AA1001742E478B4F678ACF678ACE6FF75F0104E
:100AB100A42421F582E5F03414F583E493FE78B49F
:100AC10026F6EE600578AC0680DFEFD39400402A6D
:100AD10090142EE493FB740193FA740293F9745504
:100AE100120C5B120C1564556002D20F74AA120C21
:100AF1005B120C1564AA6002D20F1210AEEF6003F4
:100B0100020BDD74FFF545F546F547F548E4F54977
:100B1100F54AFE7F10FDFB7A00794B120D7875388E
:100B2100FF753914753A19753B00753C107B007AD5
:100B310000794B121625E4F533F534E534C4F85445
:100B41000FC868FFE533C454F048FE74212FF582C5
:100B510074143EF583E493607C74252FF58274143C
:100B61003EF583E49320E262E4F532E532C378ABEB
:100B7100965057E534C4F8540FC868FFE533C454A0
:100B8100F048FE74212FF58274143EF583E493FD41
:100B91007C00C004C0057D00742E2FF58274143EC4
:100BA100F583E493FB740193FA740293F978B4E644
:100BB1008532F0A4FFE92FF9EA35F0FAD007D00623
:100BC100120D7812001F053280A10534E534700240
:100BD1000533020B3C7F0112187B8016D20DE4FF16
:100BE10012187BE5EF30E30AD203054AE54A7002A9
:100BF1000549E4F533F5347A007B967D03AF341271
:100C0100131D0534E53470020533C39402E53394B2
:030C11000040E4BC
:010C140022BD
:0518C30078B5E6FF22EC
:0118CD0022F8
:03002300020F26A3
:100F2600C0E0C0F0C083C082C0D075D0083099221E
:100F3600C29978AF06E6FF78B166700978AFF6C257
:100F4600B5D20A800D742C2FF582E43401F583E0C6
:100F5600F599209803020FED209A08200E05C298F5
:100F6600020FE9C29A78AEE6062400F582E4340060
:100F7600F583E599F0C298E6FFB40112900000E00F
:100F8600FE7003F68061EE5407240278B6F6EFB4DD
:100F9600020D78B6E6B40907900001E02403F6D204
:100FA6000878AEE6FFFD7C00BC0107BD2C04760088
:100FB6008035EFC378B696402E7B017A00790078AB
:100FC600AEE624FFFDE434FFFC12170478AEE624F7
:100FD600FFF582E434FFF583E06F60047600800756
:100FE60012002678AE7600D0D0D082D083D0F0D052
:020FF600E032E7
:1014D00078B5E6FF18E68FF0A47C002526FFEC35F2
:1014E000F0FE900001E075F010A4242EF582E5F0E6
:1014F0003414F583E493FB740193FA740293F98F27
:09150000828E83120C2EFF7D2463
:101509008F2C8D2DE52D6010F8E6FFE52CFD7C0074
:10151900120003A82DC6EFC6852C993099FDC299F2
:01152900229F
:1017B100C9EFC9EDC39B402378ABE6FFEB2FFFE4F4
:1017C10033FEEDC39FEE6480F8748098500DD20E05
:1017D100C3ED9B78B5F678B0E9F622C20EE478B095
:0217E100F622EE
:1016C500C9EFC9BAFF0FBBFF0CED6B7002EC6A7076
:1016D50027D20E801BC3ED9BEC9A401C78ABE62B02
:1016E500FFE43AFEC3ED9FEC9E500DD20EC3ED9B79
:0F16F50078B5F678B0E9F622C20EE478B0F622A6
:10002600900000E0FF54F8F525EF120D52006D091F
:1000360000790A00891000901100A01200B419007E
:10004600C91A00F12000F628016029021834023985
:1000560037027739028641029049029A5002CA61F4
:10006600029E9800000301900001E0FDE546FB7F3B
:10007600018021900001E0FCA3E0FDAB46AA457F8C
:10008600018025E4FBFD7F03800A900001E0FDE589
:1000960048FB7F021217B1020301900001E0FCA3A6
:1000A600E0FDAB48AA477F021216C5020301900085
:1000B60001E0FDE546FB7F011217B1200E030203A6
:1000C600018017900001E0FCA3E0FDAB46AA457F46
:1000D600011216C5200E0302030190012C7478F05C
:1000E60078B17601D2B5F599020301D20B0203016C
:1000F600C2ACE4F524D2B57D247F7F1215097D2498
:100106007F181215097D247F1712150978ACE6FFB2
:100116007D241215097D24AF451215097D24AF46AD
:100126001215097D24AF471215097D24AF48121513
:10013600097D24AF491215097D24AF4A121509E439
:10014600F526744B2526F8E6FF7D241215090526AB
:10015600E526C3941040EB02020A900001E0FFC3BB
:1001660078AC96400302030175F010EFA42421F544
:1001760082E5F03414AF82F52A8F2BC2ACE4F52465
:10018600D2B57D247F7F1215097D247F0D121509B6
:10019600852B82852A83E493FF7D24121509852BFE
:1001A60082852A83740193FF7D24121509852B828B
:1001B600852A83740293FF7D24121509852B828577
:1001C6002A83740393FF7D24121509852B82852AC1
:1001D60083740493FF7D24121509E4F526E52B2488
:1001E60005F582E4352AF583E5822526F582E43590
:1001F60083F583E493FF7D241215090526E526C3BE
:10020600940840D9E4FDAF24121509C2B5D2AC0258
:1002160003017A007B327D0178B5E6FF12131D904B
:100226000001E0F545A3E0F546A3E0F547A3E0F5B8
:100236004880377A007B327D0178B5E6FF12131DC0
:10024600E4F526900001E0FFE526C39F501C7402EA
:100256002526F582E43400F583E0FF744B2526F865
:10026600C6EFC60526E526B410D9D209D20C02037C
:10027600017A007B327D0178B5E6FF12131D807B83
:10028600900001E024FF92028071900001E024FFBB
:1002960092018067D21180637A007B327D0178B546
:1002A600E6FF12131DD20990012C7478F078AEE6A1
:1002B60024FFF582E434FFF583E090012DF078B158
:1002C6007602802F7A007B327D017F0012131D900B
:1002D600012C7479F0900001E090012DF07B017AF9
:1002E60001792C7D027C0012170490012EEFF07824
:1002F600B17603D2B590012CE0F599E52564A060AE
:10030600030204A9900000E064A160030203DCA3D9
:10031600E0FFC378AC9640030204A975F010EFA481
:100326002421F582E5F03414F583E493F52875F07D
:1003360010EFA42425F582E5F03414F583E4933018
:10034600E23C1218C88F28E528247890012CF07B0F
:10035600017A01792CEF2401FDE433FC12170474B1
:100366002D2528F582E43401F583EFF0E5282402F3
:1003760078B1F6D2B590012CE0F5990204A9900067
:1003860001E0FF1218C8C2ACE4F524D2B5E528D3C3
:10039600940640247D247F7F1215097D24AF281200
:1003A6001509E4F526E526C3952850071214D0054D
:1003B6002680F2052802049EE5282478FF7D241273
:1003C6001509E4F526E526C3952850071214D0052D
:1003D6002680F202049E900000E064A260030204FC
:1003E600A978ACE6FFA3E0FEC39F40030204A9A3DD
:1003F600E0FDC39F40030204A9EEC39D400302042F
:10040600A9900001E0F526E4F528900002E0FFE55A
:1004160026D39F501FAF261218C875F010E526A4E4
:100426002421F582E5F03414F583E4932528F52894
:10043600052680D6C2ACE4F524D2B57D247F7F1292
:1004460015097D24AF28121509900001E0F52690C4
:100456000002E0FFE526D39F503EE4F52775F01035
:10046600E526A42421F582E5F03414F583E493FF10
:10047600E527C39F501E78B5E6FF18E68FF0A47CEB
:10048600002527FFEC35F0FE75F010E5261214E97D
:10049600052780C9052680B7E4FDAF24121509C2D9
:1004A600B5D2ACE52564587054FA7B327D0178B537
:1004B600E6FF12131D752F0175300175312D7B0175
:1004C6007A0079011217E38F28E528247890012C09
:1004D600F07B017A01792CEF2401FDE433FC12173D
:1004E60004742D2528F582E43401F583EFF0E52820
:1004F600240278B1F6D2B590012CE0F599E5256491
:10050600806009E525648860030206847A007B32F0
:100516007D0178B5E6FF12131D900000E05407F543
:1005260028B4070A752701A3E0F528A38006E4F599
:1005360027900001E0F5291528E529C378AC9640F7
:100546000302065175F010E529A42421F582E5F091
:100556003414F583E493FFE528D39F40028F28E403
:10056600F526E526C39528400302064475F010E5F6
:1005760029A42425F582E5F03414F583E49330E2CA
:100586000302063F75F010E529A42422F582E5F062
:100596003414F583E4936438702DE528D39404E588
:1005A60026FD7C00400F2527FFE433FE74022FF55D
:1005B600827400804978AEE6C39DFFE49CFE74FE1B
:1005C6002FF58274FF803775F010E529A42421F5F4
:1005D60082E5F03414F583E493FF78AEE6C39FFF1B
:1005E600E49400FEAD267C00EF2DFFEC3EFE7A0083
:1005F600EF2527FFEA3EFE74FF2FF58274FF3EF5D6
:1006060083E0FFEFC0E078B5E6FF18E68FF0A42D93
:10061600FFEC35F0FE75F010E529A4242EF582E5F1
:10062600F03414F583E493FB740193FA740293F99E
:100636008F828E83D0E0120C6D0526020568AF29E5
:100646001218B3E525648870358010E529B4FF2EAD
:10065600900002E0F520E525B4882390012C7478FB
:10066600F078AEE624FFF582E434FFF583E09001EE
:0E0676002DF078B17602D2B590012CE0F59906
:010684002253
:10700000C2AF75FFDE75FFADE4F533F532D2B5C220
:10701000997599783099FDC299E4F5993099FDC236
:10702000B53098FD859932C298E4F534E53224FDF7
:10703000604D1470030270FC147003027134240359
:1070400060030271373098FD859933C298E5332586
:10705000E0FEC3E49400EE9470501E43B601758FB9
:1070600003E53325E0F536753700853782F583E48F
:10707000F053B6F0F58F0271377534FF027137D2D5
:10708000B33098FD859933C29843B601758F01E5F9
:107090003325E0F536753700E4FFE4F5353098FD2B
:1070A0000537E537AC367002053614F5828C83E57A
:1070B00099F0C2980535E535B43CE2D2B5C2997570
:1070C00099783099FDC299E4F5993099FDC2B50FD0
:1070D000BF08C7E4F5353098FD0537E537AE3670A3
:1070E00002053614F5828E83E599F0C2980535E5E0
:1070F00035B420E253B6F0E4F58F803BC2B330984C
:10710000FD859933C298E5337F0025E0FEE4F53430
:10711000FDFC0FEFCAEECA70010E14F5828A83E4FB
:10712000932534F5340DBD00010CED7003EC6402C1
:1071300070E0800375EF10D2B5C2997599783099D7
:10714000FDC2998534993099FDC2B5E53264066077
:0671500003027021D2AF22
:017156002216
:1014710012001F1218CD1218CE200D0B7A007B32EC
:101481007D017F0012131D300F0B7A007B1E7D0141
:101491007F0012131D300913301010C209E4F54901
:1014A100F54A78B776F1120FF8D20D3011083010E5
:1014B10005C21112700012189BE47BF47A01F9F84D
:0F14C100C3120D285002D210300B0375EF10220A
:0B18A8001209E11214711218CF80F831
:100E1F00005EBCE2613FDD83C29C7E20A3FD1F41CB
:100E2F009DC3217FFCA2401E5F01E3BD3E6082DCBB
:100E3F00237D9FC1421CFEA0E1BF5D0380DE3C62AB
:100E4F00BEE0025CDF81633D7C22C09E1D43A1FF9B
:100E5F004618FAA427799BC584DA3866E5BB59078B
:100E6F00DB856739BAE406581947A5FB7826C49A7B
:100E7F00653BD987045AB8E6A7F91B45C6987A246B
:100E8F00F8A6441A99C7257B3A6486D85B05E7B95B
:100E9F008CD2306EEDB3510F4E10F2AC2F7193CD4B
:100EAF00114FADF3702ECC92D38D6F31B2EC0E503B
:100EBF00AFF1134DCE90722C6D33D18F0C52B0EE2B
:100ECF00326C8ED0530DEFB1F0AE4C1291CF2D731B
:100EDF00CA947628ABF517490856B4EA6937D58B0B
:100EEF005709EBB536688AD495CB2977F4AA4816FB
:100EFF00E9B7550B88D6346A2B7597C94A14F6A8EB
:100F0F00742AC896154BA9F7B6E80A54D7896B35DA
:070F1F00DCEEF4FAFDFEFF19
:0A1704008B2C8A2D892E8C2F8D303E
:10170E00E4F531FFFEC3EF9530E52F6480F8EE640B
:10171E008098501DAB2CAA2DA92E8F828E83120C71
:10172E002E6531FD900E1F93F5310FBF00010E8017
:03173E00D4AF31F4
:011741002285
:07000300ED6F900E1F93FF4B
:01000A0022D3
:0118CE0022F7
:10174200EF70207598D0E589540F4420F58953C86D
:10175200E1438E10ED900F1E93F58DD28ED2ACC266
:10176200BC801675F15075C93475E5FFED900F1EFA
:0B17720093F5E443E74053F7BFD2AF0C
:01177D002249
:10167700D2AFD2A9D2BBE589540F4401F589E4F56D
:101687008E758CDBF58AD28CF57AF579F578F57756
:10169700FFEF25E025E024B8F8E4F6EF25E025E0A4
:1016A70024B9F8E4F6EF25E025E024BAF8E4F6EFEC
:0D16B70025E025E024BBF8E4F60FBF02D4C7
:0116C4002203
:07115E00C0D075D010151F71
:10116500A81FE4F6A81FE6FFC3940240030211FD81
:10117500EF25E025E024BBF8E6FFD394004052A814
:101185001FE625E025E024B9F8E67045EF30E015C7
:10119500A81FE6FF25E025E024BBF8E6D39401402F
:1011A500047D0080067D01A81FE6FF12157FA81F9C
:1011B500E6FF25E025E024BBF816E66014EF25E000
:1011C50025E024BAF8E6FEEF25E025E024B9F8EE9F
:1011D500F6A81FE625E025E024B9F8E6600116A883
:1011E5001FE6FF25E025E024BBF8E670057D01122A
:0811F500157FA81F0602116915
:0511FD00051FD0D02207
:03000B0002177E5B
:10177E00C0E0C0F0C083C082C0D075D010758CDCC4
:10178E00E57A2401F57AE43579F579E43578F5785A
:10179E00E43577F57712115ED0D0D082D083D0F0B9
:0317AE00D0E03256
:10183900151FA81FEDF6151FA81FEFF6A81FE6FF35
:10184900C39402500D08E6FEEF25E025E024B8F820
:07185900EEF6051F051F223A
:10131D00151F151FA81FEAF608EBF6151FA81FEDE0
:10132D00F6151FA81FEFF6A81FE6FFC39402505233
:10133D00EF25E025E024BBF8E67047A81FE6FB2566
:10134D00E025E024B9F8E67039A81F08E625E00489
:10135D00FFA81FE6FA25E025E024BBF8EFF6A81F4D
:10136D000808E6FE08E6FF7C007D0A120C8FEA25D0
:10137D00E025E024BAF8EFF6EB25E025E024B9F8F6
:09138D00E4F6E51F2404F51F221B
:10157F00C0D075D010151FA81FEDF6151FA81FEFAF
:10158F00F6A81FE6FFC39402501CEF25E025E024C8
:10159F00B8F8E66011A81F08E670047F0180027F8B
:1015AF0000A81F08EFF6A81FE6700608E624FF92B2
:1015BF00B3A81FE6B4010608E624FF92B4051F0581
:0415CF001FD0D02237
:0C189B00C2AFAF7AAE79AD78AC77D2AFB7
:0118A700221E
:04001F0075FFA522A2
:041810008E6F8F70D8
:10181400E4F571F572C3E5729570E571956F501436
:101824007FE87E031215D31214710572E57270E518
:04183400057180E1D9
:01183800228D
:0415D3008E738F7410
:1015D700D3E57494FAE5739400500AEFD39400406E
:1015E7003C001F80F6857375857476D3E57694FA8B
:1015F700E575940040157FFA7E001215D374062511
:1016070076F57674FF3575F57580E0D3E57494004B
:0D161700E57394004007AF76AE751215D351
:0116240022A3
:08152A008B3B8A3C893D8D3E9C
:1015320012001FAB3FAA40A941120CC52400FFE5CF
:10154200F03480FE853B42853C43853D44E4FDED1D
:10155200C3953E501BEF2DF582E43EF583E493AB39
:1015620042AA43A9448D82758300120C6D0D80DF5F
:0D157200AB3FAA40A941E4853EF0020CF019
:061396008B388A39893A08
:10139C0078B7E664F1706BC2AF43B601758F01ABE1
:1013AC003CAA3DA93E120CC52400FFE5F03480F5A3
:1013BC003F8F40853841853942853A43E4FFEFC37E
:1013CC009D5026AB410543E543AA427002054214E9
:1013DC00F9120C15FE0540E540AA3F7002053F14BA
:1013EC00F5828A83EEF00F80D5E4F58F53B6F0CFFB
:1013FC00EDCFAB3CAA3DA93E8FF0120CF0D2AF1250
:02140C00001FBF
:01140E0022BB
:1018600078B7E6B4F114C2AF43B601758F03908028
:0A18700000E4F0F58F53B6F0D2AF9C
:01187A00224B
:100FF8007A007B327D037F0312131D121860E4F51B
:1010080036F537F53C753D00753E36FB7A00794577
:101018007D16121396E4F533E533C378AB96506723
:10102800E4F53275F010E532A42421F582E5F034B8
:1010380014F583E493604C78B4E68533F0A4FFAEEE
:10104800F075F010E532A4242EF582E5F03414F59D
:1010580083E493FB740193FA7402932FF9EA3EFA3E
:1010680075F010E532A42421F582E5F03414F583F7
:10107800E493FD753C00753D00753E3612139605E8
:101088003280A005338091753412753534753C0073
:10109800753D00753E367B007A0079347D02121367
:0510A80096E478B7F6A4
:0110AD002220
:1010AE00E4F539F53AF53F754000754139FB7A00A4
:1010BE0079457D1612152AE4F536E536C378AB96DA
:1010CE005067E4F53575F010E535A42421F582E579
:1010DE00F03414F583E493604C78B4E68536F0A4CE
:1010EE00FFAEF075F010E535A4242EF582E5F03450
:1010FE0014F583E493FB740193FA7402932FF9EAC7
:10110E003EFA75F010E535A42421F582E5F034148D
:10111E00F583E493FD753F00754000754139121556
:10112E002A053580A005368091753F007540007503
:10113E0041397B007A0079377D0212152AE5386431
:0F114E00347004E537641270047F0180027F0063
:01115D00226F
:10140F00524541442025640D0A005343532D333078
:10141F0030000400000001446174613000000000DE
:10142F00009B040000000144617461310000000062
:10143F00009F04000000014461746132000000004D
:10144F0000A3040000000144617461330000000038
:10145F0000A70000000000000000000000000000D6
:02146F0000007B
:0318BF0001AB0179
:10187B008F357590FFD2A3D2A4D2A5D2A6D2A72220
:0918B300151FA81FEFF6051F2206
:0518C8008F2C7F0022BF
:1017E3008B2C8A2D892E120C15AB2FAA30A93112FE
:1017F3000C5BAB2CAA2DA92E900001120C2EAB2F43
:0D180300AA30A931900001120C6D7F022265
:10188B0020A6FD8F90C2A330A6FDD2A37590FF2298
:10000E0030A7037FFF2285901EC2A530A7FDD2A583
:01001E0022BF
:081202008B188A19891A8D1B53
:10120A0012189B78C0120D46E4F51D12000EEFF479
:10121A006037EF640A6032BF0D13AB18AA19A91A16
:10122A00851D82758300E4120C6DAF1D22AB18AACE
:10123A0019A91AAE1D051D8E82758300EF120C6D59
:10124A00E51D651B7003AF1D2212147112189BEC69
:10125A00C0E0EDC0E0EEC0E0EFC0E0AF1CE4FCFD92
:10126A00FE78C0120D39EF2BFBEE3AFAED39F9ECA4
:10127A0038F8D0E0FFD0E0FED0E0FDD0E0FCD31299
:06128A000D2850877F00D3
:01129000223B
:0118CF0022F6
:0300000002129158
:0C129100787FE4F6D8FD7581C30212D806
:100C1500BB010689828A83E0225002E722BBFE02DD
:090C2500E32289828A83E4932210
:100C2E00BB010CE58229F582E5833AF583E022507B
:100C3E0006E92582F8E622BBFE06E92582F8E222C5
:0D0C4E00E58229F582E5833AF583E49322DF
:100C5B00BB010689828A83F0225002F722BBFE0178
:020C6B00F32272
:100C6D00F8BB010DE58229F582E5833AF583E8F0BD
:100C7D00225006E92582C8F622BBFE05E92582C869
:020C8D00F22251
:100C8F00C2D5EC30E709B2D5E4C39DFDE49CFCEE80
:100C9F0030E715B2D5E4C39FFFE49EFE120DA4C347
:100CAF00E49DFDE49CFC8003120DA430D507C3E442
:060CBF009FFFE49EFE22EF
:100CC500BB010A89828A83E0F5F0A3E022500687FA
:100CD500F009E71922BBFE07E3F5F009E3192289BC
:0B0CE500828A83E493F5F074019322EF
:100CF000BB010789828A83020DF9500B09C5F027D1
:100D0000F7C5F01937F722BBFE0D09F8E325F0F31C
:100D1000C5F019E338F322F889828A837401932598
:080D2000F0C5F0F8E49338225D
:100D2800EB9FF5F0EA9E42F0E99D42F0E89C45F021
:010D38002298
:0D0D3900E6FB08E6F908E6FA08E6CBF8222A
:0C0D4600ECF608EDF608EEF608EFF622D9
:100D5200D083D082F8E4937012740193700DA3A330
:100D620093F8740193F5828883E473740293686044
:060D7200EFA3A3A380DF44
:10068500E56A245EF8E6056A22785B301902785E31
:10069500E475F001120E0F020C152012EB7F2ED21D
:1006A500128018EF540F2490D43440D4FF30160B29
:1006B500EF24BFB41A0050032461FFE56B600215F7
:1006C5006B056EE56E7002056D30190D785BE4758E
:1006D500F001120E0FEF020C5B02188B7403D21996
:1006E5008003E4C219F56A8B5B8A5C895DE4F56B6E
:1006F500F56DF56EE56B60077F201206C080F57518
:100705006CFFC213C212C214C215C217C218C21A94
:1007150012068EFF700D3019057F001206D1AF6EDF
:10072500AE6D22B4255FC2D5C21612068EFF24D047
:10073500B40A00501A75F00A786B30D50508B6FF73
:100745000106C6A426F620D5047002D21580D92448
:10075500CFB41A00EF5004C2E5D2160208D1D21365
:1007650080C6D21280C0D21480BCD2D580BAD2172E
:1007750080B47F201206C02014077401B56B0040B9
:10078500F1120685FF1206C00206F9D21AD21880A8
:1007950095120685FB120685FA120685F94A4B70F5
:1007A5000679A27A097BFF20142EE56B602A7E006C
:1007B5008E82758300120C2E60060EEE656C70F04D
:1007C500C2D5EBC0E0EAC0E0E9C0E0EE120918D0FE
:1007D500E0F9D0E0FAD0E0FB120C15FF60AAEBC0FF
:1007E500E0EAC0E0E9C0E01206C0D0E02401F9D09B
:1007F500E03400FAD0E0FBE56C0460DCD56CD98010
:10080500877BFF7A097914D214809C79108002794C
:1008150008C218C21A8008D2D5790A8004790AC29A
:10082500D5E56C047002F56CE4FAFDFEFF12068551
:10083500FC7B08201313120685FD7B1030120A126B
:100845000685FE120685FF7B20EC3382D592D550B6
:1008550013C3E43012069FFFE49EFEE42013039DBC
:10086500FDE49CFCE4CBF8C213EC700CCFCECDCCF0
:10087500E824F8F870F38017C3EF33FFEE33FEED8D
:1008850033FDEC33FCEB33FB994002FB0FD8E9EB6E
:10089500301305F8D0E0C448B213C0E00AEC4D4E61
:1008A5004F78207B0070C2EAB56C0040BCC0E012F6
:1008B500091AD0F0D0E0201304C4C0E0C4B213C0BC
:1008C500F01206A9D0F0D5F0EB0206F9120D520789
:1008D500965308105807674C07634208144F081CC5
:0F08E50044081C49077C430822550806460806AC
:1008F4004508064709C250076B2D076F2E07922B38
:1009040007732307902009AB2A072B480000078AA6
:100914003F3F3F00790AA2D5201514301709B910BA
:10092400020404B9080104A2D520180250010420CD
:1009340014689214B56B005034C0E07F2030151950
:100944007F30A21472187217500F120971C214C2A8
:1009540018C217C21A7F30800F301703E9C0E012A3
:1009640006C0301703D0E0F9D0E0B56BCC301717D0
:100974007F30B9100C1206C07F583016077F78807C
:1009840003B908031206C03014057F2D0206C07F88
:1009940020201AF87F2B2018F322921480CF286E7F
:1009A400756C6C2900D2131206853013F8C21378C3
:1009B4006B30D50108F602072B2D50434958120617
:1009C400852403B405004001E49009BD931206B1E7
:0D09D400743A1206B1D215756B04020810BA
:101625008B358A368937E4F53DF53EE53C153CAE0C
:101635003B7002153B4E6033AB38AA39A93A120C00
:1016450015FFAB35AA36A937053EE53EAC3D700220
:10165500053D14F5828C83EF120C6DEF60CD74019E
:10166500253AF53AE43539F53980C0AB35AA36A9BE
:0216750037221A
:100D7800EF4E6012EF60010EEDBB010B89828A8392
:100D8800F0A3DFFCDEFA2289F05007F709DFFCA99F
:0C0D9800F022BBFEFCF309DFFCA9F022F6
:10129D000218A8E493A3F8E493A34003F68001F2A7
:1012AD0008DFF48029E493A3F85407240CC8C33352
:1012BD00C4540F4420C8834004F456800146F6DF21
:1012CD00E4800B01020408102040809018BCE47EDD
:1012DD00019360BCA3FF543F30E509541FFEE49316
:1012ED00A360010ECF54C025E060A840B8E493A3DD
:1012FD00FAE493A3F8E493A3C8C582C8CAC583CA08
:10130D00F0A3C8C582C8CAC583CADFE9DEE780BEBF
:0118C2000025
:100DA400BC000BBE0029EF8DF084FFADF022E4CC33
:100DB400F875F008EF2FFFEE33FEEC33FCEE9DECFC
:100DC400984005FCEE9DFE0FD5F0E9E4CEFD22ED42
:100DD400F8F5F0EE8420D21CFEADF075F008EF2F8C
:100DE400FFED33FD4007985006D5F0F222C398FD7D
:050DF4000FD5F0EA221A
:100DF900C5F0F8A3E028F0C5F0F8E5821582700285
:060E09001583E038F02221
:100E0F00FAE6FB0808E6F925F0F618E6CA3AF622E4
:00000001FF
