:10000E0000000000000000000000000000000000E2
:1004010075E104E4F5E2F5A6F5A6F5A6F5A675E312
:100411004075A401F5A5F5A675A7E075B16675B29D
:100421000875FF0775FFA543B28075EF091205BC7A
:100431007D05E4FF120648E4F539F53AF537F5385C
:100441007590FFD2A3D2A7D2A5D2A6D2A4FA7B9649
:100451007D02FF1203887A007B967D027F011203E1
:08046100887D017F020206E024
:030023000204C212
:1004C200C0E0C083C082C0D075D008309904D20089
:1004D200C299309836E53A2401FFE43539FEEFB58A
:1004E2003808EEB53704C2988021853A828539836F
:1004F200E599F0053AE53A70020539B4000BE539A1
:10050200B40406753900753A00C298D0D0D082D0B2
:0405120083D0E03280
:1004690020A3557A007B327D017F00120388AF906B
:10047900A2A49201D2A7D2B5A201929B8F99300072
:10048900FDC2B5C20012071D8F3E8E3D8D3C8C3BCF
:1004990020A32312001E12071DC3EF953EFFEE9500
:1004A9003DFEED953CFDEC953BFCE47B64FAF9F8E7
:0804B900C312027E50DAC2A753
:0104C1002218
:10012D00E53A65387004E5396537700302021A2027
:10013D00A30302021A7A007B327D017F011203882C
:10014D00853882853783E0F53B0538E53870020543
:10015D0037B4000AE537B40405E4F537F538C2A61F
:10016D0012071D8F3F8E3E8D3D8C3C30A523120016
:10017D001E12071DC3EF953FFFEE953EFEED953D1B
:10018D00FDEC953CFCE47B64FAF9F8C312027E5059
:10019D00DA75A5FF853B90D2A612071D8F3F8E3EC7
:1001AD008D3D8C3C20A52312001E12071DC3EF951B
:1001BD003FFFEE953EFEED953DFDEC953CFCE47B61
:1001CD0064FAF9F8C312027E50DAE4F5A57590FFD2
:1001DD00C2A630A50512001E80F8D2A612071D8FEB
:1001ED003F8E3E8D3D8C3C20A52312001E12071D17
:1001FD00C3EF953FFFEE953EFEED953DFDEC953C35
:0D020D00FCE47B64FAF9F8C312027E50DABB
:01021A0022C1
:0307360002001EA0
:10070700120401C299C200C2B5C2A712001E120488
:060717006912012D80F5BE
:10002600005EBCE2613FDD83C29C7E20A3FD1F41D2
:100036009DC3217FFCA2401E5F01E3BD3E6082DCC2
:10004600237D9FC1421CFEA0E1BF5D0380DE3C62B2
:10005600BEE0025CDF81633D7C22C09E1D43A1FFA2
:100066004618FAA427799BC584DA3866E5BB590792
:10007600DB856739BAE406581947A5FB7826C49A82
:10008600653BD987045AB8E6A7F91B45C6987A2472
:10009600F8A6441A99C7257B3A6486D85B05E7B962
:1000A6008CD2306EEDB3510F4E10F2AC2F7193CD52
:1000B600114FADF3702ECC92D38D6F31B2EC0E5042
:1000C600AFF1134DCE90722C6D33D18F0C52B0EE32
:1000D600326C8ED0530DEFB1F0AE4C1291CF2D7322
:1000E600CA947628ABF517490856B4EA6937D58B12
:1000F6005709EBB536688AD495CB2977F4AA481602
:10010600E9B7550B88D6346A2B7597C94A14F6A8F1
:10011600742AC896154BA9F7B6E80A54D7896B35E1
:07012600DCEEF4FAFDFEFF20
:0A060A008B188A19891A8C1B8D1CAD
:10061400E4F51DFFFEC3EF951CE51B6480F8EE6452
:100624008098501DAB18AA19A91A8F828E831202C2
:100634001B651DFD90002693F51D0FBF00010E8064
:03064400D4AF1D13
:010647002290
:07000300ED6F90002693FF52
:01000A0022D3
:0100220022BB
:10064800EF70207598D0E589540F4420F58953C878
:10065800E1438E10ED90012593F58DD28ED2ACC278
:10066800BC801675F15075C93475E5FFED9001250C
:0B06780093F5E443E74053F7BFD2AF17
:010683002254
:1005BC00D2AFD2A9D2BBE589540F4401F589E4F539
:1005CC008E758CDBF58AD28CF54BF54AF549F548DE
:1005DC00FFEF25E025E0244CF8E4F6EF25E025E0DC
:1005EC00244DF8E4F6EF25E025E0244EF8E4F6EF90
:0D05FC0025E025E0244FF8E4F60FBF02D4FF
:0106090022CE
:0702E400C0D075D010151EFB
:1002EB00A81EE4F6A81EE6FFC39402400302038394
:1002FB00EF25E025E0244FF8E6FFD394004052A809
:10030B001EE625E025E0244DF8E67045EF30E015BC
:10031B00A81EE6FF25E025E0244FF8E6D394014024
:10032B00047D0080067D01A81EE6FF120516A81E9F
:10033B00E6FF25E025E0244FF816E66014EF25E0F4
:10034B0025E0244EF8E6FEEF25E025E0244DF8EEFF
:10035B00F6A81EE625E025E0244DF8E6600116A878
:10036B001EE6FF25E025E0244FF8E670057D01121F
:08037B000516A81E060202EFA0
:05038300051ED0D02290
:03000B0002068466
:10068400C0E0C0F0C083C082C0D075D010758CDCCF
:10069400E54B2401F54BE4354AF54AE43549F5497F
:1006A400E43548F5481202E4D0D0D082D083D0F0AB
:0306B400D0E03261
:1006E000151EA81EEDF6151EA81EEFF6A81EE6FFA5
:1006F000C39402500D08E6FEEF25E025E0244CF8F7
:07070000EEF6051E051E22A6
:10038800151E151EA81EEAF608EBF6151EA81EED8A
:10039800F6151EA81EEFF6A81EE6FFC394025052DB
:1003A800EF25E025E0244FF8E67047A81EE6FB2578
:1003B800E025E0244DF8E67039A81E08E625E0049B
:1003C800FFA81EE6FA25E025E0244FF8EFF6A81E60
:1003D8000808E6FE08E6FF7C007D0A120248EA25C6
:1003E800E025E0244EF8EFF6EB25E025E0244DF873
:0903F800E4F6E51E2404F51E22C2
:10051600C0D075D010151EA81EEDF6151EA81EEF2C
:10052600F6A81EE6FFC39402501CEF25E025E02442
:100536004CF8E66011A81E08E670047F0180027F71
:1005460000A81E08EFF6A81EE6700608E624FF922D
:10055600B3A81EE6B4010608E624FF92B4051E05FC
:040566001ED0D022B1
:0C071D00C2AFAF4BAE4AAD49AC48D2AF02
:0107290022AD
:04001E0075FFA522A3
:0406B7008E408F41A1
:1006BB00E4F542F543C3E5439541E54295405014BB
:1006CB007FE87E0312056A1207360543E54370E5A2
:0406DB00054280E173
:0106DF0022F8
:04056A008E448F45E7
:10056E00D3E54594FAE5449400500AEFD394004045
:10057E003C001F80F6854446854547D3E54794FAEF
:10058E00E546940040157FFA7E0012056A74062532
:10059E0047F54774FF3546F54680E0D3E5459400B0
:0D05AE00E54494004007AF47AE4612056AD1
:0105BB00221D
:0300000002072ACA
:0C072A00787FE4F6D8FD758153020707C4
:10021B00BB010CE58229F582E5833AF583E0225098
:10022B0006E92582F8E622BBFE06E92582F8E222E2
:0D023B00E58229F582E5833AF583E49322FC
:10024800C2D5EC30E709B2D5E4C39DFDE49CFCEED1
:1002580030E715B2D5E4C39FFFE49EFE12028FC3B8
:10026800E49DFDE49CFC800312028F30D507C3E4B3
:060278009FFFE49EFE2240
:10027E00EB9FF5F0EA9E42F0E99D42F0E89C45F0D6
:01028E00224D
:10028F00BC000BBE0029EF8DF084FFADF022E4CC53
:10029F00F875F008EF2FFFEE33FEEC33FCEE9DEC1C
:1002AF00984005FCEE9DFE0FD5F0E9E4CEFD22ED62
:1002BF00F8F5F0EE8420D21CFEADF075F008EF2FAC
:1002CF00FFED33FD4007985006D5F0F222C398FD9D
:0502DF000FD5F0EA223A
:00000001FF
