:100B38001201000200000040C410751100000102FB
:100B4800000109022000010100800F0904000002D1
:100B5800000000000705810240002007050202404E
:100B68000001040309041803500053004900200041
:100B780053002E00200052006900740074002E03F8
:100B88004D005300430042002000530075006200EE
:100B98006D0061007300740065007200200053004E
:100BA800430053002D00320035003000FF0B6AFF70
:050BB8000B6EFF0B862F
:100E3C00759601759708E59620E7FB7596077597EB
:100E4C000FE59620E7FB75960975970FE59620E759
:100E5C00FB75960B759704E59620E7FB75D7C04399
:100E6C00D72075960F759780E59620E7FB43E60231
:100E7C00D2AF759601E4F597E59620E7FB8B358AA2
:0D0E8C00368937852B32852C33852D342295
:03004300020C3676
:100C3600C0E0C0F0C083C082C0D075D000C000C084
:0D0C460001C002C003C004C005C006C00705
:100C5300759686E59620E7FBAF97759682E5962015
:100C6300E7FB859718759684E59620E7FB8597192A
:100C7300EF30E203120F97E51830E00312027BE531
:0D0C83001930E2097B007A00795F1204EB62
:100C9000D007D006D005D004D003D002D001D000B8
:0B0CA000D0D0D082D083D0F0D0E03262
:100F9700E4FFF51A751B00751C6DFEAB1A051CE501
:100FA7001CAA1B7002051B14F9E412008C0EBE0D5F
:100FB700EAE4786EF608F67871F6787FF6787AF6CE
:100FC700787DF608764078517603784DF608F678FE
:100FD7006476037860F608F67596018F97E5962094
:020FE700E7FB26
:010FE90022E5
:10027B00E4F51A75960EF597E59620E7FB759691C2
:10028B00E59620E7FBAF97EF30E40F759611759766
:10029B0080E59620E7FBE4787FF6EF30E20F75966A
:1002AB0011E4F597E59620E7FBE4787FF6EF20E085
:1002BB00030203737B007A0079577D087C00E4FF0F
:1002CB00120D14785CE6F51A18E608F618A61A183B
:1002DB00E6F51A18E608F618A61A785EE6F51A1867
:1002EB00E608F618A61A7857E654F02480603324F3
:1002FB008070587858E614601A24FE601124FA6056
:10030B001724FE60182406704212117380411211DB
:10031B00BC803C1211FB80371212B68032120CAB30
:10032B00802D7858E624FA601124FE601224FE60BA
:10033B0013240A7014120A21801512083E80101221
:10034B00108C800B12112880068000787F76027546
:10035B001A40787FE6B40205431A20E4F67596112D
:10036B00851A97E59620E7FBE4F51A787FE664019A
:10037B007066D3787CE6944018E69400501108E63A
:10038B00F51BE418F608F6431A08787FF6800E750D
:10039B001B40787C74C026F61874FF36F67880867E
:1003AB000308E6FA08E6F9E51BFD7C007F0012095D
:1003BB008E7880860308E6FA08E67E00251BF9EEA8
:1003CB003A7880A60308F608A601431A027596111F
:0803DB00851A97E59620E7FB67
:0103E30022F7
:10117300785CE61846700D785EE618467006786E61
:10118300E6B402047F02802CE4F596785AE6F597DC
:10119300E59620E7FB786EE67009785AE6600478F6
:1011A3006E7601786EE6B40109785AE67004786EBB
:0811B3007601E4FF787FA60736
:0111BB002211
:1011BC00785EE61846700F786EE6600AB401077820
:1011CC005CE6184660007857E6541F24FE6006243F
:1011DC00027F028015785AE61846700C785BE6FEA2
:0E11EC0008E6FF120EEF80027F02787FA60752
:0111FA0022D2
:1011FB00785EE61846700F786EE6600AB4010778E1
:10120B005CE6184660007857E6541F24FE600624FF
:10121B00027F028015785AE61846700C785BE6FE62
:0E122B0008E6FF120E9980027F02787FA60768
:011239002292
:1012B600785CE61846700C785EE618467005786E1F
:1012C600E670047E028020900B49E493FD785AE68E
:1012D600FFD39D40047E02800EEF7006786E760185
:0B12E6008005120DDDAE07787FA60624
:0112F10022DA
:100CAB00785EE61846703E786EE664026002803528
:100CBB007872E624FFFFE434FFFED3785CE69F18DE
:100CCB00E69E4002801F7B007A007977786AA60344
:100CDB0008A60208A601120046FFD3785AE69F1811
:100CEB00E694004005751C02801A785AE6FF786A74
:100CFB00860308E6FA08E6F9900001EF12009E124F
:080D0B000AB08F1C787FA61CC2
:010D130022BD
:100A2100785AE618467018785EE664021846700F28
:100A3100786EE6600AB4010C785CE61846600575CC
:100A41001C0280667857E6541F1460241460292420
:100A5100027040785CE6184660028037E47884F6DC
:100A61007870E67883F6FF7871E64F7883F6802612
:100A7100E47883F608F6801EE47883F608F6785B5E
:100A8100E6FE08E6FF120026BF030B7883E6440169
:100A9100F68003751C02751C0178807600087600CB
:0E0AA100087683787B7600087602787FA61CA4
:010AAF002224
:10083E007859E624FE602C146069240260030208D5
:10084E00DE7E007F12785DE6FC08E6FDD3EF9DEEBE
:10085E009C4004AE04AF05788076FF08760B0876D0
:10086E0038806A900B49E493FD785AE6D39D400593
:10087E00751E02805B900B4CE493F51DA3E493F57B
:10088E001CAE1CAF1D785DE6FC08E6FDD3EF9DEEB9
:10089E009C4004AE04AF05788076FF08760B087690
:1008AE004A802A785AE675F003A424B4F582E4341B
:1008BE000BF583E493FB740193FA740293F9788039
:1008CE00A60308A60208F6120046FF7E00751E015A
:0B08DE00787BA60608A607787FA61E00
:0108E90022EC
:10108C00785EE664011846701218E61846700C1863
:10109C00E618467006786EE6FE70047F028023EE3A
:1010AC00B40113E47883F608F67880F60876000825
:1010BC0076837F01800C788076FF08760B08764F5C
:0D10CC007F01787B7600087601787FA6070B
:0110D90022F4
:10112800785AE618467010785EE66401184670072B
:10113800786EE6640260047F02802B7872E624FFF2
:10114800FDE434FFFCD3785CE69D18E69C40047F00
:1011580002801378807600087600087678787B76A7
:0A116800000876017F01787FA607DA
:01117200225A
:100EEF0075968EE59620E7FBAC9775960EEF54EF4F
:100EFF00F597E59620E7FBEE702BEF24FE601324A9
:100F0F00817022759611759710E59620E7FB785141
:100F1F00800D759614759720E59620E7FB7864761B
:100F2F0003E4FD80027D0275960E8C97E59620E70F
:030F3F00FBAF0500
:010F4200228C
:100E990075968EE59620E7FBAC9775960EEF54EFA5
:100EA900F597E59620E7FBEE702DEF24FE601624FA
:100EB900817024759611759740E59620E7FBE478D3
:100EC90051F6FD8014759614759780E59620E7FB19
:100ED900E47864F6FD80027D0275960E8C97E5969E
:050EE90020E7FBAF054E
:010EEE0022E1
:10002600EE7015EF24FE600A2481700C7851E6FD0F
:0C00360080087864E6FD80027D02AF05C2
:01004200229B
:020DDD008F1C69
:100DDF00E4F51D7BFF7A0B794A7874A60308A60207
:100DEF0008A60190000512005F651C6005751D02C5
:100DFF0080387874860308E6FA08E6F99000041242
:100E0F00005F7872F60876017B007A0079779000A0
:100E1F0002E412009E900001E412009EE412008C86
:0C0E2F00120AB0786E760218A61CAF1DE7
:010E3B002294
:100AB000E4FF75968EE59620E7FBAE979000021254
:100AC000005F706775960E759701E59620E7FB75D8
:100AD0009612759720E59620E7FB759615E4F59735
:100AE000E59620E7FBE4784DF608F608F608764030
:100AF000784C76817851F675960E759702E59620BA
:100B0000E7FB759612E4F597E59620E7FBE478603D
:100B1000F608F608F6087640785F76027864F6758F
:100B2000960EF597E59630E70480F97F0275960EEC
:070B30008E97E59620E7FB1C
:010B3700229B
:0604EB008B1A8A1B891C1C
:1004F100E4F51F75960E120046F597E59620E7FB89
:10050100759694E59620E7FB859720759695E59677
:1005110020E7FB859721AB1AAA1BA91C90000512A5
:10052100005F640370030205DBE52030E60B75967E
:1005310014759780E59620E7FBE52020E00302058E
:10054100DB759696E59620E7FB85971F751D00855F
:100551001F1E759697E59620E7FB85971FE51FFE01
:10056100EE421DD3E51E9440E51D94005035AB1AB3
:10057100AA1BA91C120046FFAB35AA36A937AD1E2E
:10058100AC1D120D14AB1AAA1BA91C900001E51D8C
:10059100851EF012012EAB32AA33A934E51E1200DA
:1005A1008C800B759614759710E59620E7FB759670
:1005B1000EAB1AAA1BA91C120046F597E59620E777
:1005C100FB759614E4F597E59620E7FB759694E59F
:0A05D1009620E7FB85972002053A0B
:0105DB0022FD
:0606AD008B3E8A3F8940EC
:1006B30075960E120046F597E59620E7FB75969121
:1006C300E59620E7FB859741759692E59620E7FB33
:1006D300859742AB3EAA3FA94090000512005F6494
:1006E300037003020775E54130E50B7596117597A5
:1006F30040E59620E7FBE54120E0777A017B2C7DFE
:10070300017F00120BBDAB3EAA3FA940900001E45C
:1007130075F00812012EAB35AA36A937C003C00203
:10072300C001AB3EAA3FA94090000612018BAB3E2D
:10073300AA3FA94090000612015BC003C002C0019A
:10074300AB3EAA3FA9409000011200F6FDACF012A7
:100753000046FFD001D002D00312098E75961175A1
:100763009701E59620E7FB759691E59620E7FB85D3
:020773009741AC
:010775002261
:0605DC008B2A8A2B892CFA
:1005E2007B007A00794C8B2D8A2E892F75960E12FC
:1005F2000046F597E59620E7FB759691E59620E78C
:10060200FB859730759692E59620E7FB859731AB8F
:100612002DAA2EA92F90000512005F640370030219
:1006220006ACE53030E50B759611759740E59620DE
:10063200E7FBE53020E073EDD39400406DAF05ABEE
:100642002DAA2EA92F900001E48FF012012EAB2AC1
:10065200AA2BA92CC003C002C001AB2DAA2EA92F20
:1006620090000612018BAB2DAA2EA92F9000061224
:10067200015BC003C002C001AB2DAA2EA92F9000BE
:10068200011200F6FDACF0120046FFD001D002D0FC
:100692000312098E759611759701E59620E7FB7591
:0A06A2009691E59620E7FB8597305E
:0106AC00222B
:0A0D14008C228D238B248A2589266A
:100D1E00E52345226055EF2420F527543FF59643F1
:100D2E0096C0E4FFFEE52324FFFDE52234FFFCC35D
:100D3E00EF9DEE9C501BE59620E7FBAB24AA25A960
:100D4E00268F828E83E59712009E0FBF00010E80C4
:100D5E00D4E527543FF596E59620E7FBAB24AA256C
:0B0D6E00A9268F828E83E59712009E5D
:010D79002257
:10098E00154B154B154BA84BA60308A60208A6013E
:10099E00154B154BA84BA60408A605154BA84BA640
:0709AE0007154B154B154B1B
:1009B500E54B2404F909E71947605AE54B2403F888
:1009C500E62420A84BF6E59620E7FBA84BE6543F26
:1009D500F596A84B08E4F608F6E54B2404F9A84B70
:1009E50008E6FE08E6FFC30997EE19975027E54B81
:1009F5002406F8860308E6FA08E6F98F828E831244
:100A0500005FF597E59620E7FBA84B080806E61872
:050A150070C70680C45B
:070A1A00E54B2409F54B2216
:1003E400005EBCE2613FDD83C29C7E20A3FD1F4111
:1003F4009DC3217FFCA2401E5F01E3BD3E6082DC01
:10040400237D9FC1421CFEA0E1BF5D0380DE3C62F0
:10041400BEE0025CDF81633D7C22C09E1D43A1FFE0
:100424004618FAA427799BC584DA3866E5BB5907D0
:10043400DB856739BAE406581947A5FB7826C49AC0
:10044400653BD987045AB8E6A7F91B45C6987A24B0
:10045400F8A6441A99C7257B3A6486D85B05E7B9A0
:100464008CD2306EEDB3510F4E10F2AC2F7193CD90
:10047400114FADF3702ECC92D38D6F31B2EC0E5080
:10048400AFF1134DCE90722C6D33D18F0C52B0EE70
:10049400326C8ED0530DEFB1F0AE4C1291CF2D7360
:1004A400CA947628ABF517490856B4EA6937D58B50
:1004B4005709EBB536688AD495CB2977F4AA481640
:1004C400E9B7550B88D6346A2B7597C94A14F6A830
:1004D400742AC896154BA9F7B6E80A54D7896B3520
:0704E40000003098CCDDEFB1
:0A123A008B388A39893A8C3B8D3CD1
:10124400E4F53DFFFEC3EF953CE53B6480F8EE64B6
:101254008098501DAB38AA39A93A8F828E83120028
:101264005F653DFD9003E493F53D0FBF00010E80E3
:03127400D4AF3DB7
:011277002254
:07000300ED6F9003E493FF91
:01000A0022D3
:0100220022BB
:1013E000EF701B7598D0E589540F4420F589438E22
:1013F00008ED9004E393F58DD28ED2ACC2BCD2AF8F
:0114000022C9
:1010DA00D2AFD2A9D2BBE58954F04401F589E4F52F
:1010EA008E758CDBF58AD28CF546F545F544F543C9
:1010FA00FFEF25E025E02485F8E4F6EF25E025E07A
:10110A002486F8E4F6EF25E025E02487F8E4F6EFF4
:0D111A0025E025E02488F8E4F60FBF02D49C
:0111270022A5
:0708EA00C0D075D010154BC2
:1008F100A84BE4F6A84BE6FFC39402400302098922
:10090100EF25E025E02488F8E6FFD394004052A8C3
:100911004BE625E025E02486F8E67045EF30E0154A
:10092100A84BE6FF25E025E02488F8E6D3940140B2
:10093100047D0080067D01A84BE6FF120F43A84B02
:10094100E6FF25E025E02488F816E66014EF25E0AF
:1009510025E02487F8E6FEEF25E025E02486F8EE81
:10096100F6A84BE625E025E02486F8E6600116A806
:100971004BE6FF25E025E02488F8E670057D0112AD
:080981000F43A84B060208F524
:05098900054BD0D02257
:03000B0002132AB3
:10132A00C0E0C0F0C083C082C0D075D010758CDC1C
:10133A00E5462401F546E43545F545E43544F544EA
:10134A00E43543F5431208EAD0D0D082D083D0F0F6
:03135A00D0E032AE
:1013B900154BA84BEDF6154BA84BEFF6A84BE6FFDE
:1013C900C39402500D08E6FEEF25E025E02485F8D8
:0713D900EEF6054B054B2267
:100BBD00154B154BA84BEAF608EBF6154BA84BED6C
:100BCD00F6154BA84BEFF6A84BE6FFC39402505217
:100BDD00EF25E025E02488F8E67047A84BE6FB25D5
:100BED00E025E02486F8E67039A84B08E625E004F8
:100BFD00FFA84BE6FA25E025E02488F8EFF6A84B90
:100C0D000808E6FE08E6FF7C007D0A1200C0EA2512
:100C1D00E025E02487F8EFF6EB25E025E02486F8C3
:090C2D00E4F6E54B2404F54B222A
:100F4300C0D075D010154BA84BEDF6154BA84BEF41
:100F5300F6A84BE6FFC39402501CEF25E025E024DE
:100F630085F8E66011A84B08E670047F0180027FD4
:100F730000A84B08EFF6A84BE6700608E624FF929C
:100F830092A84BE6B4010608E624FF9293054B05AD
:040F93004BD0D0224D
:0C000E00C2AFAF46AE45AD44AC43D2AF2C
:01001A0022C3
:04001B00E4F5FE22E8
:041390008E2A8F2BE7
:10139400E4F52CF52DC3E52D952BE52C952A501459
:1013A4007FE87E03120FEA12001F052DE52D70E57C
:0413B400052C80E1A3
:0113B8002212
:040FEA008E2E8F2F89
:100FEE00D3E52F94FAE52E9400500AEFD3940040E7
:100FFE003C001F80F6852E30852F31D3E53194FAD3
:10100E00E530940040157FFA7E00120FEA74062533
:10101E0031F53174FF3530F53080E0D3E52F940093
:0D102E00E52E94004007AF31AE30120FEAFE
:01103B002292
:100D7A0075E10175E24075A49075D40C75F1F3E440
:100D8A00F5B143B203F5B943B980FF0FBF64FC4321
:100D9A00B9C0E5B930E5FBE4F5D975FDFF75D94071
:100DAA0075EF091210DAC2907D05E4FF1213E07A9A
:100DBA00007B967D057F00120BBD7A007B967D0530
:100DCA007F01120BBD7D017F001213B97F017E00E6
:030DDA00020FEA1B
:0300230002103C8C
:10103C00C0E0C083C082C0D075D008309923C2995B
:10104C000548E548C39549501074002548F582E4DD
:10105C003400F583E0F5998008C290754900754815
:10106C0000309813AF47054774402FF582E43400E5
:10107C00F583E599F0C298D0D0D082D083D0E032FD
:03001F0002001BC1
:1012F200900001E0FFB4200375EF10EFB4611F7A94
:10130200007B327D017F01120BBD9000407478F0AA
:10131200E4A3F07B017A0079407D021205DC9000A3
:0813220001E0B41002B29322B5
:10135D00900000E0F54AE4F547E54A30E408121242
:10136D00F2E4F549FF22E54A5401D394004003D33A
:10137D008001C3929BD290900001E0F599754801D0
:03138D007F0122BB
:10077600E54A30E10302083DE4F529F52890000139
:10078600E0FF641A6005EF641A7022E547640170A1
:100796001C900040E0B478157A007B327D017F0121
:1007A600120BBD7B017A0079407D018045E547D378
:1007B60094004043900040E0FF547864787038EF2E
:1007C6005407F529B4070FE547D394014008A3E081
:1007D6002403F529800405290529E547B529187A52
:1007E600007B327D017F01120BBD7B017A007940CF
:1007F600AD291205DC802AE54A30E2047F0280102A
:10080600E54A30E3097F0A7E0012139080077F6471
:100816007E00120FEA0528E528C3946450030207F8
:1008260083E528B4641190004074FFF07B017A00E0
:0708360079407D011205DC91
:01083D002298
:10127800120D7A752B00752C00752D497B017A00AB
:101288007900120E3CE4F54912001FE54960F97A2D
:10129800007B327D017F00120BBD12135DEF60E809
:0E12A800E549600512001F80F712077680DA14
:03000000021401E6
:0C140100787FE4F6D8FD75818C0212782B
:10004600BB010689828A83E0225002E722BBFE02B8
:09005600E32289828A83E49322EB
:10005F00BB010CE58229F582E5833AF583E0225056
:10006F0006E92582F8E622BBFE06E92582F8E222A0
:0D007F00E58229F582E5833AF583E49322BA
:10008C00BB010689828A83F0225002F722BBFE0153
:02009C00F3224D
:10009E00F8BB010DE58229F582E5833AF583E8F098
:1000AE00225006E92582C8F622BBFE05E92582C844
:0200BE00F2222C
:1000C000C2D5EC30E709B2D5E4C39DFDE49CFCEE5B
:1000D00030E715B2D5E4C39FFFE49EFE1201E4C3EE
:1000E000E49DFDE49CFC80031201E430D507C3E4E9
:0600F0009FFFE49EFE22CA
:1000F600BB0110E58229F582E5833AF583E0F5F048
:10010600A3E0225009E92582F886F008E622BBFE24
:100116000AE92582F8E2F5F008E222E5832AF5836A
:08012600E993F5F0A3E993222F
:10012E00F8BB0111E58229F582E5833AF583E8F003
:10013E00E5F0A3F0225009E92582C8F608A6F022C0
:0D014E00BBFE09E92582C8F2E5F008F222A7
:10015B00BB010DE58229F582E5833AF58302024B5B
:10016B005007E92582F8020239BBFE07E92582F820
:10017B0002025DE58229F582E5833AF58302026F7F
:10018B00BB0120E58229F582E5833AF583D0F0D0D7
:10019B00E0F8D0E0F9D0E0FAD0E0FBE8C0E0C0F046
:1001AB000202545018E92582F8D083D082D0E0F9AE
:1001BB00D0E0FAD0E0FBC082C083020242BBFE1843
:1001CB00E92582F8D083D082D0E0F9D0E0FAD0E0F4
:0901DB00FBC082C083020266220F
:1001E400BC000BBE0029EF8DF084FFADF022E4CCFF
:1001F400F875F008EF2FFFEE33FEEC33FCEE9DECC8
:10020400984005FCEE9DFE0FD5F0E9E4CEFD22ED0D
:10021400F8F5F0EE8420D21CFEADF075F008EF2F57
:10022400FFED33FD4007985006D5F0F222C398FD48
:050234000FD5F0EA22E5
:09023900E6FB08E6FA08E6F922EA
:09024200EBF608EAF608E9F622E1
:09024B00E0FBA3E0FAA3E0F922B4
:09025400EBF0A3EAF0A3E9F022AB
:09025D00E2FB08E2FA08E2F922D2
:09026600EBF208EAF208E9F222C9
:0C026F00E493FB740193FA740293F922EB
:00000001FF
